:100000000C94E8030C9405040C9405040C9405046A
:100010000C9405040C9405040C9405040C9405043C
:100020000C9405040C9405040C94A52F0C947830C2
:100030000C9407260C9405040C9405040C940504F8
:100040000C9405040C9405040C9405040C9405040C
:100050000C9405040C946F260C9405040C94050470
:100060000C9405040C9405040C9405040C940504EC
:100070000C9405040C9405040C9405040C940504DC
:100080000C9405040C9405040C9405040C940504CC
:100090000C9405040C9405040C9405040C940504BC
:1000A0000C9405040C9405040C9405040763423673
:1000B000B79BD8A71A39685618AEBAAB558C1D3CF9
:1000C000B7CC5763BD6DEDFD753EF6177231BF00BD
:1000D0000000803F05A84CCDB2D44EB93836A902F5
:1000E0000C50B9918688083CA6AAAA2ABE00000036
:1000F000803F6060006000636C656172012800678A
:10010000697420636F6D6D6974202D616D2022000C
:100110002D3E006572676F646F785F657A2F657634
:10012000616E204020302E362E3131352D312D6735
:10013000373535316530006572676F646F785F659C
:100140007A2F6576616E204020302E362E31313583
:100150002D312D67373535316530000000F0A14570
:10016000002B00E101E100E00000001E001400048B
:10017000001D00E30002581F001A0016001B00E2D9
:100180000028002000080007000600E35C2C002186
:10019000001500090019002E000158220017000A5E
:1001A00000050000002D002F002F02000026020095
:1001B000002900300030020000270200004C00231C
:1001C000001C000B0011000000E05C240018000D72
:1001D0000010002102010025000C000E0036000175
:1001E000572C00260012000F00370002573300275B
:1001F00000130033003800035734022A0031003462
:1002000000E5000457000045000100010001000165
:100210000000003A001E02200222020100DF5C3BC7
:10022000001F02210223020100C75C3C002F0226AE
:10023000022F000100C85C3D00300227023000019F
:100240000001003E003102350035020000C15C01B2
:1002500000010000000100000029005400550000CA
:100260000056000000C05C3F005F005C00590000C9
:1002700000DE5C400060005D005A006200C35C412B
:100280000061005E005B0037005800420001000181
:100290000001002E00570043000100010001000191
:1002A00000C45C44004500010001000100000001A1
:1002B0000001000100010001000000010001000137
:1002C0000001000100010001000100010001000126
:1002D000000100010001000100E25C0100010001D9
:1002E000000100010001000100010001001705E10B
:1002F0005C0100000001000100010000000100009D
:1003000000010001000100000001000000010001E7
:1003100000010001000100000001000100010001D6
:1003200000010001000100010001000100010001C5
:1003300000010001000100010001000100010001B5
:1003400000010001000100010001000100010001A5
:100350000001000100000001000100010001000196
:100360000000000100010001000100010001000186
:100370000001000100010001000100010001000175
:100380000001000100010001000100010001000165
:100390000001000100010001000100000001000156
:1003A0000001000000010000000100010001000048
:1003B0000001000000010001000100010001000037
:1003C0000001000100010001000100010001000125
:1003D0000001000100010001000100010001000115
:1003E0000001000100010001000100010001000105
:1003F00000010001000100010001000100000000F7
:10040000000000000000002A2B280000000000006F
:100410000000000000000000000029000000002C87
:100420001E3420212224342627252E362D37382726
:100430001E1F202122232425263333362E37381F32
:100440000405060708090A0B0C0D0E0F10111213F4
:100450001415161718191A1B1C1D2F3130232D3592
:100460000405060708090A0B0C0D0E0F10111213D4
:100470001415161718191A1B1C1D2F3130354C0076
:10048000000000000000000000000000000000006C
:10049000000000000000000000000000000000005C
:1004A0000101010101010001010101000000000042
:1004B0000000000000000000000100010001010137
:1004C000010101010101010101010101010101011C
:1004D0000101010101010101010100000001010010
:1004E000000000000000000000000000000000000C
:1004F00000000000000000000000010101010000F8
:10050000046801F000B40078005A007F3F1F643295
:1005100014643214783C1E1E140A0500000000000A
:1005200001010101010101010102020202020202B4
:100530000202030303030303030304040404040487
:100540000505050505060606060607070707080848
:1005500008080909090A0A0A0A0B0B0B0C0C0C0DF6
:100560000D0D0E0E0F0F0F1010111111121213138B
:100570001414151516161717181819191A1A1B1C02
:100580001C1D1D1E1F1F202021222223242525265D
:10059000272728292A2B2B2C2D2E2F2F3031323391
:1005A000343536363738393A3B3C3D3E3F404142A0
:1005B0004344464748494A4B4C4D4F50515253557E
:1005C0005657585A5B5C5E5F606263646667696A2F
:1005D0006C6D6E707173747678797B7C7E808183AC
:1005E0008486888A8B8D8F91929496989A9B9D9FF2
:1005F000A1A3A5A7A9ABADAFB1B3B5B7B9BBBDBFFB
:10060000C1C4C6C8CACCCFD1D3D6D8DADCDFE1E4C6
:10061000E6E8EBEDF0F2F5F7FAFCFF04033000003A
:100620000016034500720067006F0044006F0078F9
:1006300000200045005A00000016034500720067C4
:10064000006F0044006F007800200045005A000051
:10065000000403090409026D00040100A0FA090462
:1006600000000103010100092111010001224000E5
:100670000705810308000A090401000103010200C3
:10068000092111010001224D000705820308000A1B
:1006900009040200010300000009211101000122E8
:1006A00036000705830308000A090403000103005C
:1006B00000000921110100012239000705840320EF
:1006C00000011201100100000008EDFE07130100F7
:1006D0000102030105010906A101050719E029E747
:1006E00015002501950875018102050819012905E4
:1006F0009505750191029501750391010507190092
:1007000029F71500250195F875018102C005010939
:1007100080A10185021601002603001A81002A83A8
:1007200000751095018100C0050C0901A101850328
:10073000160100269C021A01002A9C0275109501E0
:100740008100C005010902A1010901A100050919E3
:100750000129051500250195057501810295017591
:100760000381010501093009311581257F95027545
:1007700008810609381581257F95017508810605D0
:100780000C0A38021581257F950175088106C0C0C5
:1007900005010906A101050719E029E71500250152
:1007A00095087501810295017508810105081901F7
:1007B00029059505750191029501750391010507BC
:1007C000190029FF150026FF00950675088100C055
:1007D00011241FBECFEFDAE0DEBFCDBF12E0A0E0F4
:1007E000B1E0EAEDFBE602C005900D92A635B10737
:1007F000D9F724E0A6E5B2E001C01D92AD33B207FF
:10080000E1F70E94D22C0C94EB350C94000080B3DD
:100810008C7080BB81B3836F81BB089584B1807F6E
:1008200084B985B1807F85B98AB1837F8AB98BB15C
:10083000837F8BB93E9846980895CF93C82F873011
:1008400080F58091000190910101892B99F564E672
:1008500070E080E40E94A305909301018093000161
:10086000892BD1F464E670E082E10E94F805909350
:10087000010180930001892B79F481E090E001C0AF
:10088000880FCA95EAF764E670E080950E94F80543
:10089000909301018093000184E690E0CF910C9445
:1008A0004B068A30B9F040F4883071F0893079F025
:1008B000209A2898CF9108958C3091F070F08D3067
:1008C000B9F73E9A4698F6CF219A2998F3CF229A03
:1008D0002A98F0CF239A2B98EDCF529A5B98EACFC3
:1008E000539AFCCFCF93873008F042C0809100012B
:1008F00090910101C0E0892B81F464E670E080E40E
:100900000E94A3059093010180930001892B41F07F
:10091000C0E084E690E00E944B068C2FCF910895B2
:1009200064E670E083E10E94F805909301018093F2
:100930000001892B69F764E670E081E40E94A30559
:100940009093010180930001892B11F784E690E0D8
:100950000E94270697FF05C0909301018093000134
:10096000D7CFC82FC0951092010110920001D1CFAE
:10097000CFB18FB1869586958C73C3708C2BC82FA1
:10098000C095CBCF08950C94C2040E94EF0690E06E
:1009900090930101809300010E940E040E940704BD
:1009A000EBEAF2E087E592E01192DC0126E01D928D
:1009B0002150E9F7069622E0E93BF207A9F70C94EB
:1009C000E5080E94EF0690E09093010180930001FA
:1009D0000E940E040E940704EBEAF2E0119282E00A
:1009E000E93BF807D9F7089596E0899FF0011124B3
:1009F000E95AFD4F30E020E080E041E050E0919185
:100A0000992351F0DF01119791509C932F5F3F4F35
:100A100026303105A1F70895BA01022E01C0660FF4
:100A20000A94EAF7862BF2CF96E0699FB001112471
:100A300030E020E090E04FE0FC01022E02C0F5958E
:100A4000E7950A94E2F7E0FF06C0F901E60FF71F09
:100A5000E95AFD4F40832F5F3F4F2630310561F744
:100A60000895EF92FF920F931F93CF93DF9380919E
:100A7000000190910101892B91F0809156028F5FC6
:100A80008093560281110BC00E94EF0690E0909374
:100A9000010180930001892B11F40E9499060BEA51
:100AA00012E0C0E08C2F0E941D0487E0F82EFC0E9F
:100AB0008F2D0E941D048C2F0E94F404E82E8C2F91
:100AC0000E947204F80191918F01DE2DD095D923F7
:100AD0008E21D82B6C2F892F8D270E941405F801A9
:100AE0003197D0838F2D0E94F404E82E8F2D0E9421
:100AF0007204F8019681DE2DD095D9238E21D82B52
:100B00006F2D892F8D270E941405F801D6830E942E
:100B10000E04CF5FC73031F60E94E70881E0DF9115
:100B2000CF911F910F91FF90EF900895E82FF0E083
:100B3000E555FD4F8081089508951092B9008CE02D
:100B40008093B8000895EF92FF920F931F93CF9375
:100B5000DF93182FEB011092BC0084EA8093BC0055
:100B60000E9439267C018091BC0087FF0DC08091D6
:100B7000B900887F8830D9F08091B900887F8031B2
:100B8000B1F08FEF9FEF0CC0CF3FDC0761F30E9405
:100B900039268E199F098C179D0728F38EEF9FEF3A
:100BA000DF91CF911F910F91FF90EF9008951093D7
:100BB000BB0084E88093BC000E9439268C018091A0
:100BC000BC0087FF0AC08091B900887F883111F08E
:100BD0008034B9F690E080E0E3CFCF3FDC0779F3D3
:100BE0000E943926801B910B8C179D0740F3D6CFAE
:100BF0000F931F93CF93DF93EB018093BB0084E8A7
:100C00008093BC000E9439268C018091BC0087FF34
:100C100011C02091B900287F81E090E0283211F4C2
:100C200090E080E0919581959109DF91CF911F919E
:100C30000F910895CF3FDC0741F30E943926801BB6
:100C4000910B8C179D0708F38EEF9FEFEECF0F935C
:100C50001F93CF93DF93EC0184E88093BC000E9444
:100C600039268C018091BC0087FF08C08091BB00B1
:100C700090E0DF91CF911F910F910895CF3FDC0756
:100C800089F30E943926801B910B8C179D0750F326
:100C90008EEF9FEFEECF0F931F93CF93DF93EC0177
:100CA00084E98093BC000E9439268C018091BC00AD
:100CB00084FD07C090E080E0DF91CF911F910F91FC
:100CC0000895CF3FDC0791F30E943926801B910BDA
:100CD0008C179D0758F38EEF9FEFEECF259A2D9A34
:100CE0000895269A2E9A0895279A2F9A089556982D
:100CF0005E98089525982D98089526982E98089521
:100D000027982F9808950E9477060E947A060E94DD
:100D10007D060C94800690E0909389008093880073
:100D200090938B0080938A0090938D0080938C0029
:100D300008950E9483068FEF0E948B060E946E0624
:100D40002FEF80E792E0215080409040E1F700C013
:100D500000000E9471062FEF80E792E02150804052
:100D60009040E1F700C000000E9474062FEF80E77A
:100D700092E0215080409040E1F700C000000E94C6
:100D80007A062FEF80E792E0215080409040E1F713
:100D900000C000000E947D062FEF80E792E0215006
:100DA00080409040E1F700C000000E9480060C9453
:100DB000830689EA8093800089E0809381002498EB
:100DC0002C983F988AB18F7C8AB96E98479A8BB1DC
:100DD00080638BB9769A0E9499060C94770780E21B
:100DE00090E090930101809300018091B9028111FC
:100DF0000EC00E949D0581E08093B9022FEF83ED24
:100E000090E3215080409040E1F700C0000064E68C
:100E100070E080E40E94A30590930101809300019B
:100E2000892B09F050C064E670E080E00E94F8056C
:100E30009093010180930001892B09F044C064E67E
:100E400070E080E00E94F80590930101809300011A
:100E5000892BC9F564E670E08FE30E94F805909352
:100E6000010180930001892B71F584E690E00E94D6
:100E70004B0664E670E080E40E94A30590930101B4
:100E800080930001892BF9F464E670E08CE00E9405
:100E9000F8059093010180930001892BA1F464E689
:100EA00070E080E00E94F8059093010180930001BA
:100EB000892B49F464E670E08FE30E94F805909373
:100EC00001018093000184E690E00E944B0680912E
:100ED00000010895611108C0FC018281882321F07E
:100EE00087E391E00E94E20890E080E00895089591
:100EF000CF93DF93EC01FB018281882309F43FC08B
:100F00000E9439269093BB028093BA02FE01EC5DE9
:100F1000FC45E830F10508F042C0EF56F84F0C945C
:100F20009D3599079F07A407A807B307B607B90718
:100F3000BC070E94FE2480E0DF91CF91089583E1F9
:100F400091E00E94E208F7CF81E00E947112F3CF96
:100F50000E94871282E00E9471124CE46FEA85E6DB
:100F60000E94A910E8CF80E191E0EBCF8FEF90E0F5
:100F7000E8CF87EF90E0E5CF85EF90E0E2CF80917A
:100F8000BA029091BB020E9445268E37910538F037
:100F9000C33EDC4521F482EF90E00E94E20881E04C
:100FA000CBCFCF92DF92EF92FF92CF936B017C0178
:100FB0000E94B124C82F0E9477060E947A060E94E0
:100FC0007D060E948006C150C73078F4EC2FF0E017
:100FD000E451F84F0C949D35F307FF070408FD0713
:100FE0000208090807080E946E06C701B601CF91E2
:100FF000FF90EF90DF90CF9008950E946E060E94C0
:101000007106F3CF0E946E060E947406EECF0E9416
:101010006E060E947106F8CF0F931F93CF93DF9354
:101020008C01EB019A9581159F41B8F410FF03C024
:1010300080EEFB01099511FF03C081EEFE010995C9
:1010400012FF03C082EEFE01099513FF03C083EE79
:10105000FE0109950115104128F4DF91CF911F91F0
:101060000F91089584EEFE01099585EEFE01099524
:1010700086EEFE01099587EEFE01DF91CF911F916B
:101080000F910994877091E001C0990F8A95EAF752
:10109000892F0E9486240C943C240C94420887706B
:1010A00091E001C0990F8A95EAF7892F0E948C245C
:1010B0000C943C240C944F08CF93DF93EC01805E9A
:1010C0009109089720F062E478E0209711F46DE42C
:1010D00078E0CE010E940C088C2FDF91CF910C9408
:1010E000E419CF93DF93EC010E94C51ACE01805E14
:1010F0009109089720F06FE478E0209711F46AE5F1
:1011000078E0CE01DF91CF910C940C0881E0089536
:101110000C947807CF9390E0FC01E150FC4FC49110
:1011200081589B4FFC018491882369F081EE0E94D5
:10113000E4198C2F0E94E4198C2F0E94C51A81EEAD
:10114000CF910C94C51A8C2F0E94E4198C2FF8CFE4
:10115000FF920F931F93CF93DF938C01F62EF8012C
:101160008491882349F1E8012196813049F4FE01F8
:101170001491812F0E94E419812F0E94C51A06C084
:10118000823089F4FE0184910E94E4198E010F5F80
:101190001F4F8F2D815018F3EFE9FFE03197F1F7E2
:1011A00000C00000F7CF833019F4FE018491E5CF31
:1011B0000E948A08E801EACFDF91CF911F910F9139
:1011C000FF90089560E00C94A8080C94D9060E9442
:1011D000FD170C94C304282F2F7041F0822F90E04C
:1011E0002A3010F44D9608950697089587E290E00E
:1011F000089508950C94F9080C94FA0808950E9433
:10120000411E0E94FE082FEF84E39CE021508040A5
:101210009040E1F700C000000C949526FF920F93D8
:101220001F93CF93DF938C01FC01C081D18180910A
:101230001603811161C08281882309F458C0CE0150
:101240000E948823F82E682FCE010E942C23BE0115
:101250008F2D0E94ED0BEC01B8010E945F17B801C1
:10126000CE010E948808882309F40EC1B801CE017E
:101270000E94A317882309F407C1B801CE010E9478
:101280005E0E882309F400C1B801CE010E94AD0EA4
:10129000882309F4F9C0C93CFCE5DF0709F42DC136
:1012A00008F061C0C13C9CE5D90709F4FEC0C8F54F
:1012B000C531FCE5DF0728F5C2308CE5D80708F01A
:1012C0009BC1C1159CE5D90709F4D9C0C130DC45E3
:1012D00009F4E1C081E08093C1028093C202C80199
:1012E000DF91CF911F910F91FF900C948608CE0152
:1012F0000E945C23F82EABCFCE010E948823BE0152
:10130000A8CFC531FCE5DF0709F446C2C03CDC4587
:1013100009F7F8018281882309F4B6C00E940D13F1
:10132000B3C0F8018281C53CFCE5DF0709F4D6C0F3
:1013300068F4C33CECE5DE0709F4CBC008F4C0C098
:10134000882309F4A1C00E94AE119EC0C73C9CE551
:10135000D90709F4CDC008F4C6C0882309F494C0A5
:101360000E94091291C0C13DFCE5DF0709F414C1D8
:10137000F0F5F8018281CD3CFCE5DF0709F4D1C02E
:10138000D8F4CB3CECE5DE0709F4C4C008F4BCC0DB
:10139000882309F479C00E945810623071058105D4
:1013A000910540F00E945810653071058105910546
:1013B00008F48CC082E0B2C0CF3C9CE5D90709F4A8
:1013C000D7C008F4C1C0882309F45EC00E94581039
:1013D000653171058105910540F00E945810673113
:1013E00071058105910508F471C085E197C0C53D7F
:1013F000FCE5DF0709F4A4C1C0F4F8018281C33D14
:10140000FCE5DF0709F4E3C008F4CDC0882309F444
:1014100077C11092C1020E9439269093BE02809338
:10142000BD0282E00E94191B2FC0C93DECE5DE071A
:1014300009F4D2C0CA3DFCE5DF0709F4D6C0C63DB9
:10144000DC4509F047CFF801828181117DC180918F
:10145000C20281119FC18091BF029091C0020E947F
:1014600045268D37910508F095C180E20E94201B2A
:1014700088E20E94E41988E20E94C51A05C0F801BA
:10148000828181110E94FF0880E0DF91CF911F913E
:101490000F91FF900895F80182818823A9F380912C
:1014A000B50381608093B503EFCFF8018281882373
:1014B00059F30E946F24827249F00E947E12E4CF99
:1014C000882311F30E946F248272B9F30E94741270
:1014D000DBCF8823C9F20E949611D6CF8823A1F2D0
:1014E0000E94CD11D1CF882379F20E94DF11CCCF99
:1014F000882351F20E94F111C7CFF801828188231D
:1015000019F20E946610C0CF882309F4BDCF0E9453
:101510007B10BACF882309F4B7CF81E00E94711203
:10152000B3CF882309F4B0CF0E94581066307105FC
:101530008105910538F00E945810683071058105C9
:10154000910520F286E0EACF882309F49DCF0E941E
:101550005810693071058105910540F00E945810BE
:101560006E3071058105910508F4B0CF89E0D6CFC2
:10157000882309F489CF0E9458106F3071058105C6
:10158000910540F00E945810643171058105910564
:1015900008F49CCF8FE0C2CFF8018281882309F440
:1015A00073CF88E1BBCF882309F46ECF0E94581017
:1015B000693171058105910540F00E945810623231
:1015C00071058105910508F481CF89E1A7CF8823B2
:1015D00009F45ACF83E2A2CFF8018281882309F46B
:1015E00053CF80E00E946D2D4FCFF8018281882378
:1015F00009F44ACF82E0F6CFF8018281882309F40A
:101600006ECE0E941F25811102C00E94FE240E94FE
:10161000322590E090932F0480932E04FE01E35036
:10162000FC4580912E048160E231F105C8F4E55E4D
:10163000F44F0C949D352D0B390B3D0B410B450B95
:10164000490B4D0B510B550B590B5D0B610B650B8A
:10165000690B6D0B710B750B790B80912E048260F9
:1016600080932E0480912E040E9436250E94411EF4
:101670000BCF80912E048460F3CF80912E0488607C
:10168000EFCF80912E048061EBCF80912E04806299
:10169000E7CF80912E048064E3CF80912E04806890
:1016A000DFCF80912E048460EACF80912E048E7F5C
:1016B000D7CF80912E048D7FD3CF80912E048B7F46
:1016C000CFCF80912E04877FCBCF80912E048F7E49
:1016D000C7CF80912E048F7DC3CF80912E048F7B46
:1016E000BFCF80912E048F77BBCF80912E048B7F4C
:1016F000EACF90912E04892F97FB87F98058B0CFBD
:101700000E946F2485FF05C081E08093C102809311
:10171000C2028091C10281110FC08091BD029091DF
:10172000BE020E9445268D37910530F486E20E9464
:10173000E41986E20E94C51A82E00E94201BA4CE12
:10174000F8018281882351F01092C2020E9439264A
:101750009093C0028093BF0280E264CE0E946F2407
:1017600081FF05C081E08093C1028093C202809115
:10177000C20281110FC08091BF029091C0020E94ED
:1017800045268D37910530F487E20E94E41987E2FF
:101790000E94C51A80E2D1CF0E946F24F801928185
:1017A000992381F08A7A91E009F490E09093BC0249
:1017B000811106C089E20E94F8230E943C2464CE75
:1017C00085E3F9CF8091BC02811104C089E20E94B7
:1017D000FF23F3CF85E3FBCF0895972F70E026E03A
:1017E000929F600D711D1124FB0194E5899FE00D0E
:1017F000F11D1124EE0FFF1FE15AFE4F85919491C8
:101800000895FC01EE0FFF1FE55AFE4F859194915C
:101810000895CF93DF930E94ED0B0E94BA0DEC0167
:101820008115904508F043C0C11580E4D80708F041
:1018300013C1C83ED10528F5C03ED10508F0A7C0A8
:10184000C83AD10580F4C53AD10508F096C0C13038
:10185000D10509F49CC020F0C430D10508F097C030
:10186000D0E0C0E094C0CD3BD10508F494C0CE01D7
:10187000805C9109C03CD10598F30E94010CEC01F9
:1018800086C0C11520E2D20750F4C11581E0D80707
:1018900008F07DC0C03FD10518F3D06578C0C115F0
:1018A00020E3D20708F0CEC0CE019F70E6CFC1156D
:1018B00085E5D80760F5C11524E5D20708F0FAC020
:1018C000C11582E5D80750F4C11521E5D20708F407
:1018D000C6C0DC2FCC27C16FD06A59C09C2F96950B
:1018E00096959E0123703327C115D34508F0D3C0C8
:1018F000C1E0D0E002C0CC0FDD1F2A95E2F720E264
:10190000929FC0011124C82BD92BDC6840C0C1159F
:101910002AE5D207A0F4C11589E5D80708F0D5C09B
:10192000C11526E5D20708F4CAC0C11588E5D80755
:1019300008F496CFDC2FCC27C06FD06A28C0C11521
:101940002BE5D20708F48CCFC1158CE5D80708F435
:10195000C9C0CE0190568115904208F081CF8D2FDD
:101960008F710E943A0EDD27D06290E0982F882771
:1019700088279F71C82BD92B0AC0C53AD10509F415
:10198000B4C0C63AD10509F4B3C0C3E8D0E4CE016F
:10199000DF91CF910895C83AD10509F4ACC0C93A96
:1019A000D10509F4ABC0CA3AD10509F4AAC0CB3AB3
:1019B000D10509F4A9C0CC3AD10509F4A8C0CB3BA4
:1019C000D10509F4A7C0CC3BD10509F4A6C0CD3A96
:1019D000D10509F4A5C0C03BD10509F4A4C0CE3A95
:1019E000D10509F4A3C0CF3AD10509F4A2C0C13B87
:1019F000D10509F4A1C0C23BD10509F4A0C0C33B85
:101A0000D10509F49FC0C43BD10509F49EC0C53B74
:101A1000D10509F49DC0C63BD10509F49CC0C73B64
:101A2000D10509F49BC0C83BD10509F49AC0C93B54
:101A3000D10509F499C0CA3BD10509F098C0CAE2A2
:101A4000D6E4A5CFCE019927D3FF03C0EC01D86C13
:101A50009ECFEC01D06C9BCFDF70D06A98CFCE01C7
:101A6000E4E096958795EA95E1F783709C2F937053
:101A700021E030E002C0220F331F9A95E2F73C6864
:101A8000382BC695C695C37080E2C89FE00111242B
:101A9000C22BD32B7CCFC1E0D0E002C0CC0FDD1F26
:101AA0002A95E2F720E2929FC0011124C82BD92B7E
:101AB000DA686DCFDC2FCC27C46FD06A68CFDC2FFB
:101AC000CC27CC27DF71D06262CFCE0134E096956F
:101AD00087953A95E1F78F70CF70C06ED0E0D06AED
:101AE000D82B55CFDD27D06652CFC1E8D0E44FCFF9
:101AF000C2E8D0E44CCFC2EED4E449CFC9EED4E47E
:101B000046CFCAEED4E443CFC5EBD4E440CFC6EB16
:101B1000D4E43DCFC3EBD4E43ACFC4EBD4E437CF25
:101B2000C7EBD4E434CFCCECD4E431CFCDECD4E467
:101B30002ECFC3E8D5E42BCFCAE8D5E428CFC2E93D
:101B4000D5E425CFC4E9D5E422CFC1E2D6E41FCF46
:101B5000C3E2D6E41CCFC4E2D6E419CFC5E2D6E492
:101B600016CFC6E2D6E413CFC7E2D6E410CFC0E06A
:101B7000D4E40DCF8238910549F1B0F48133910559
:101B800009F45CC048F48932910509F452C08A32E4
:101B9000910509F458C008958533910509F444C0AE
:101BA0008933910599F00895833E910531F138F418
:101BB000803E910591F0823E9105B1F00895863EF8
:101BC000910511F1873E910541F1089520912E0470
:101BD0002370C9F080EE90E0089520912E0420FF3C
:101BE00012C089E390E0089520912E0422FF0BC0DB
:101BF00024FF2EC090E080E0089520912E0422FD65
:101C00002AC024FDF7CF089520912E0423FFFBCF97
:101C100024FDF0CF87EE90E0089520912E0423FF5D
:101C2000F0CF86EE90E0089520912E0425FD16C099
:101C3000089520912E0425FD14C0089520912E04AE
:101C400026FD12C0089520912E0426FD10C008958F
:101C500083EE90E0089582EE90E0089589E290E0AE
:101C6000089585E390E008958AE290E0089581E385
:101C700090E0C9CF90912E0492FF06C0282F2871C2
:101C8000283069F4877F846093FF06C0282F28716D
:101C9000283161F4877E846194FD877E0895282F22
:101CA0002471243089F78B7F8860EECF282F247130
:101CB000243191F78B7E8861EFCF08950F931F93A6
:101CC000CF938C01FB018281811106C0C1E08C2F72
:101CD000CF911F910F910895C091D002C11125C0DD
:101CE00006311C4599F70E945D0E81E08093D00279
:101CF0000E9439269093CF028093CE021092C302A5
:101D00001092C5021092C4021092C7021092C6022D
:101D10001092C9021092C8021092CB021092CA020D
:101D20001092CD021092CC02D2CF8091CE0290912F
:101D3000CF020E9445268C32914040F68091C3022A
:101D4000E82FF0E0EE0FFF1FEC53FD4F11830083EF
:101D50008F5F8093C302C0E0BACFCF93DF93EC01D3
:101D6000C13080E8D807C8F0FB0182818823A9F040
:101D70008091D102811109C08CE090E00E94A335CE
:101D80000E94D10E81E08093D1020E94D80ECE0134
:101D90009F770E94A30F0E94550F81E0DF91CF91A2
:101DA00008958093D202682F8CE090E00C94B735B0
:101DB000E0917D01F0917E0180818093E60381FFB7
:101DC00003C081EE0E94C51A8091E60385FF03C01F
:101DD00085EE0E94C51A8091E60380FF03C080EE65
:101DE0000E94C51A8091E60384FF03C084EE0E941E
:101DF000C51A8091E60382FF03C082EE0E94C51AD5
:101E00008091E60386FF03C086EE0E94C51A80918A
:101E1000E60383FF03C083EE0E94C51A8091E603A8
:101E200087FF03C087EE0E94C51A8091D2028230DC
:101E300049F158F4882379F0813089F08FE39CE9E7
:101E40000197F1F700C000000895843019F1853042
:101E5000A9F786EE01C082EE0E94E419EFCF80EE72
:101E60000E94E41981EE0E94E41988E10E94E419BD
:101E700088E10E94C51A81EE0E94C51A80EE0E9478
:101E8000C51ADCCF82EE0E94E41987E50E94E419AE
:101E900087E5F5CF86EE0E94E41986EE0E94C51A0A
:101EA00088E10E94E41988E1EACF8091D202813072
:101EB00009F443C0E0F18230D1F18530E1F1809145
:101EC000E60381FF03C081EE0E94E4198091E603DE
:101ED00085FF03C085EE0E94E4198091E60380FF30
:101EE00003C080EE0E94E4198091E60384FF03C0E2
:101EF00084EE0E94E4198091E60382FF03C082EE23
:101F00000E94E4198091E60386FF03C086EE0E94DA
:101F1000E4198091E60383FF03C083EE0E94E41975
:101F20008091E60387FF0EC087EE0C94E41982EEE1
:101F30000E94C51AC4CF86EEFBCF8CE20E94E41942
:101F40008CE2F6CF0895EF92FF921F93CF93DF9329
:101F50007C01CCE0D0E0C7010C2E02C0969587959D
:101F60000A94E2F7182F1F70812F0E94EB080E943D
:101F7000E419812F0E94EB080E94C51A2497CC3FD8
:101F80008FEFD80741F7DF91CF911F91FF90EF902E
:101F90000895CF92DF92EF92FF920F931F93CF930A
:101FA000DF93E901662309F466C0E42EF12CEFEF1C
:101FB000F0E0E61BF109EE9D8001EF9D100DFE9D06
:101FC000100D1124212FE12FFF27EE1AFF0A5CE3E9
:101FD000C52ED12CB6010E947535FB01BC01E69ED1
:101FE000C001E79E900DF69E900D1124B6010E944F
:101FF0007535E230F10589F168F4812F262F210F24
:10200000309781F0242F461B319761F080E020E06B
:1020100040E008C0E430F10551F128F1842F861B1F
:102020003597A1F7E42FF0E0E55EFA4F4491E22FF7
:10203000F0E0E55EFA4F9491E82FF0E0E55EFA4FAC
:10204000E49149839883EA83DF91CF911F910F91A7
:10205000FF90EF90DF90CF900895862F810FE42FAF
:10206000412F2E2FDFCFE42FE61B842FF9CF842FB3
:10207000462F410FD7CF842F242FD4CF88E090E074
:102080000C94AB35AB01BC0188E090E00C94C935F1
:10209000E7EEF3E083E080831092E8038FEF828322
:1020A0008383148260817181828193810C944210B8
:1020B0006091E70360FF06C066956F7370E090E083
:1020C00080E0089560E070E0CB0108958091EB031B
:1020D00090E001968430910514F083E090E08093C5
:1020E000EB036091E7037091E8038091E90390911D
:1020F000EA030C9442108091EB038150990B97FFF7
:1021000002C090E080E08430910514F083E090E01C
:102110008093EB036091E7037091E8038091E903FA
:102120009091EA030C9442108091E703ECEEF3E007
:1021300080FF06C06FE070E08CEE93E00C948F1689
:10214000118210821282349684E0E832F807C1F7D7
:10215000F1CF9091E70390FF0CC0ECEEF3E08183A8
:1021600060834283349694E0E832F907C1F70C9417
:1021700094100895CF93DF9300D000D0CDB7DEB791
:102180002091E70320FF0AC09E012F5F3F4F0E946E
:10219000C90F4B8169818A810E94A9100F900F900D
:1021A0000F900F90DF91CF9108953F924F925F92E1
:1021B0006F927F928F929F92AF92BF92CF92DF9257
:1021C000EF92FF920F931F93CF93DF9300D000D035
:1021D000CDB7DEB78C01462E542E322E8091E70308
:1021E00080FF30C0982F9E77923009F041C09E0149
:1021F0002F5F3F4FC8010E94C90F4B8169818A81BF
:102200000E94A9108091E70300FB87F98093E70300
:10221000902F96958091E8038078892B10FB87F9A1
:102220008093E8034092E9035092EA03332051F08F
:102230006091E7037091E8038091E9039091EA03CC
:102240000E9442100F900F900F900F90DF91CF914E
:102250001F910F91FF90EF90DF90CF90BF90AF90C4
:102260009F908F907F906F905F904F903F900895D8
:10227000E82FE695EF739EE39E0F9F73943018F45A
:102280005090EA03BFCF9AE39E0F9F73993068F492
:10229000881F8827881F9091E803292F220F022F7B
:1022A000082B97FB112710F9ADCF87E28E0F8F73A4
:1022B0008A3008F0A7CFE951FF0B2FEFE0FF21E0B4
:1022C000EE7FEF5FFA4F859194916FE070E00E948E
:1022D000753526033001279F700C1124680188E9A9
:1022E000C81A8EEFD80A8CEEE82E83E0F82E98E21A
:1022F000A92E94E0B92E28E6822E99249394C60143
:10230000B4010E9475359701452D642D0E94C90FB7
:10231000C60CD71C84E0E80EF11CAE14BF0479F79C
:102320000E9494106FCF21E00C94D510E7EEF3E0FB
:102330002081221F2227221F3091E803432F440FC0
:10234000842F822B37FB992790F90C9668E671E071
:102350000E948935438162810C9493112091E70397
:10236000221F2227221F3091E803432F440F842F7E
:10237000822B37FB992790F98C30910540F4845AD1
:102380009E4F4091EA036091E9030C9493110C97DE
:1023900068E671E00E948935F4CFE7EEF3E08081D2
:1023A000881F8827881F9091E803292F220F97FB09
:1023B000992790F943816FEF822B0C949311E7EEEC
:1023C000F3E08081881F8827881F9091E803292FD8
:1023D000220F97FB992790F9438160E0822B0C94A0
:1023E00093114091EA03443F90F4445F8091E703E6
:1023F000881F8827881F9091E803292F220F97FBB9
:10240000992790F96091E903822B0C9493114FEF77
:10241000EDCF4091EA034C3090F04C508091E703AF
:10242000881F8827881F9091E803292F220F97FB88
:10243000992790F96091E903822B0C94931140E065
:10244000EDCF20E00C94D5109091E70390FF48C0A9
:102450009178811128C092609093E703662351F030
:102460006091E7037091E8038091E9039091EA039A
:102470000E9442108091E703282F2E772230D9F452
:102480001092F002881F8827881F9091E803292F57
:10249000220F97FB992790F94091EA036091E90395
:1024A000822B0C942112853210F09864D5CF8F7353
:1024B000880F982BD1CF982F96959F733EE3390FB5
:1024C0003F73373120F0263411F0283421F491E0A5
:1024D0009093F002D7CF995D9F739A3098F6D0CF42
:1024E000089561E00C9424128091E70386958F7320
:1024F0008F5F853208F081E00C9471128091E703C0
:1025000086958F73815009F484E20C947112E7EE82
:10251000F3E080818160808386958F730C947112C3
:1025200060E00C9424128091B50381608093B50320
:102530000E941F25811104C00E94FE240E944810A1
:102540000E943E106093E7037093E8038093E903D1
:102550009093EA036E7761F40E9448100E943E1047
:102560006093E7037093E8038093E9039093EA0391
:1025700081E08093F0028091E70380FF04C086959C
:102580008F730C94901208959091E70390FF0DC003
:102590002F3058F494E0299FF0011124E451FC4FAE
:1025A0008183608342830C94941008951F93CF938A
:1025B000DF9300D000D0CDB7DEB7122F2091E70314
:1025C00020FF0BC09E012F5F3F4F0E94C90F212F9C
:1025D0004B8169818A810E94C4120F900F900F90E5
:1025E0000F90DF91CF911F910895E7EEF3E0808186
:1025F0008E7F808360817181828193810E944210ED
:102600001092F0022FEF80E792E02150804090403E
:10261000E1F700C000000C9494108091E70380FD66
:102620000C94F5120C948712CF93C82F8091EE0270
:102630009091EF020E944526EC2FF0E0E95EFA4F00
:10264000E491E817190611F008F042C00E943926FB
:102650009093EF028093EE026091ED0270E090E0C3
:1026600080E00E94763320E030E04FE753E40E94A0
:1026700099322BED3FE049E450E40E949F340E94E0
:102680000C350E9413332BE43AE34EE25FE30E94E1
:102690002C3220EF3BEF48ED52E40E949F340E9421
:1026A0004533462F8091E703881F8827881F909124
:1026B000E803292F220F97FB992790F96091E903EE
:1026C000822B0E94BA108091ED028F5F8093ED0201
:1026D000CF910895CF93C82F8091EB029091EC0297
:1026E0000E944526EC2FF0E0EC5EFA4FE491E817EB
:1026F000190609F0E8F40E9439269093EC028093C1
:10270000EB024091EA036091E9038091E902909124
:10271000EA020E94BA108091E9029091EA020196C1
:1027200068E671E00E9475359093EA028093E902B1
:10273000CF910895CF92DF92FF920F931F93CF9383
:10274000DF93F82E8091E7029091E8020E944526DF
:10275000EF2DE695F0E0EF5EFA4FE491E8171906E9
:1027600009F0A8F50E9439269093E8028093E702C9
:102770000CEE13E0D0E0C0E088E6C82EDD24D39450
:102780008091E5029091E6028C0F9D1FB6010E9498
:10279000753598014091EA036091E9030E94C90FE1
:1027A00068960C5F1F4FC83681E0D80749F70E9432
:1027B00094108091E5029091E602F0FE10C001961F
:1027C000BE010E9475359093E6028093E502DF9189
:1027D000CF911F910F91FF90DF90CF9008950197B7
:1027E000F2CFCF92DF92EF92FF920F931F93CF938E
:1027F000DF93C82FFF24FA9480FD02C0FF24F394D6
:102800008091E3029091E4020E944526C695EC2F48
:10281000F0E0E25FFA4FE491E817190611F008F0D2
:1028200051C00E9439269093E4028093E3020CEE9B
:1028300013E0D0E0C0E0F80111821082128294E02F
:10284000C92ED12CE12C8091E2028E0D87FD815F93
:10285000082E000C990BC817D907E9F48091EA03F8
:102860008C9DA0018D9D500D112455954795559532
:1028700047958091E703881F8827881F9091E80378
:10288000592F550F97FB992790F998016091E9030B
:10289000852B0E94C90FEF0CF1E0CF1AD10899F6F1
:1028A00021960C5F1F4FCF30D10529F60E9494105E
:1028B0008091E20291E0F91210C081110CC08EE00B
:1028C0008093E202DF91CF911F910F91FF90EF90E3
:1028D000DF90CF9008958150F3CF90E00196BE0134
:1028E0000E948935EDCF0F931F93CF93DF93C82FAD
:1028F0008091E0029091E1020E944526EC2FF0E0E9
:10290000E55FFA4FE491E817190611F008F052C09C
:102910000E9439269093E1028093E002CCEED3E04E
:10292000FE01118210821282349684E0E832F807A8
:10293000C1F710E000E08091DF02082E000C990B37
:1029400008171907E4F180917B01082E000C990B00
:1029500080179107A4F18091E703881F8827881FBB
:102960009091E803592F550F97FB992790F99E01F5
:102970004091EA036091E903852B0E94C90F0F5F24
:102980001F4F24960F301105B1F60E9494108091CC
:102990007A019091DF02980F9093DF0220917B01E2
:1029A000280F20937B01121614F49E301CF08195A1
:1029B00080937A01DF91CF911F910F910895198231
:1029C00018821A82DCCFEF92FF920F931F93CF935E
:1029D000DF938091DD029091DE020E944526883EC1
:1029E0009340C8F10E9439269093DE028093DD0265
:1029F000C091DB02D091DC022196C170DD27D0931B
:102A0000DC02C093DB028CEEE82E83E0F82E10E0AF
:102A100008E7812F86958C0F9D2F911D8170992736
:102A200097014091EA036091E903FC010E9FC00108
:102A30000F9F900D11240E94C90F1F5FF4E0EF0E4D
:102A4000F11C1F3031F7DF91CF911F910F91FF9053
:102A5000EF900C949410DF91CF911F910F91FF9004
:102A6000EF900895CF93DF9300D000D0CDB7DEB7BD
:102A70008091D9029091DA020E944526EFEFF4E0AE
:102A80002591349182179307B8F18091D802811172
:102A90000CC09E012F5F3F4F4FEF6FEF90E080E043
:102AA0000E94C90F8A818093D8020E943926909390
:102AB000DA028093D9028091D702813069F038F030
:102AC0004091D802823009F040E080E003C080915C
:102AD000D80240E060E004C06091D80240E080E0AD
:102AE0000E94A9108091D70290E0019663E070E007
:102AF0000E9489358093D7020F900F900F900F900E
:102B0000DF91CF910895CF93DF938091D50290917B
:102B1000D6020E944526843F9140B8F10E94392692
:102B20009093D6028093D502D0E0C0E04091D302CA
:102B30005091D4022C2F6091E9038091E703382F44
:102B4000331F3327331F9091E803892F880F832B7E
:102B500097FB992790F9C730D105D4F4452BD1F0D4
:102B60004091EA030E94D6122196CF30D105F1F6AA
:102B70000E9494108091D3029091D40201968170AA
:102B800099279093D4028093D302DF91CF91089537
:102B9000452B31F340E0E6CF8091F0028823D1F15C
:102BA0009091E703892F86958F732EE3280F2F735B
:102BB000243018F482500C9414132AE3280F2F7336
:102BC000233018F486500C946A1327E3280F2F73D0
:102BD000263018F489500C949A1321E3280F2F7390
:102BE000263018F48F500C94F1132BE2280F2F731A
:102BF000233018F485510C9473149E77903311F49C
:102C00000C94E314963411F40C943215983411F4A6
:102C10000C94831508958823B9F05198599A5098C7
:102C2000589A95E09A95F1F70000509A589895E0D7
:102C30009A95F1F70000882311F0519A599885E090
:102C40008A95F1F700000895519A5998E8CF8BB111
:102C50008C7F8BB95098589A5198599A85E08A95EB
:102C6000F1F7000008958AB18C7F8AB985E08A95D2
:102C7000F1F70000519A599885E08A95F1F7000024
:102C8000509A589885E08A95F1F700000895509879
:102C9000589A85E08A95F1F700005198599A85E095
:102CA0008A95F1F700000895CF93DF93D82FC8E0FD
:102CB0008D2F80780E940B16DD0FC150C9F780E080
:102CC0000E940B1685E08A95F1F7000085E08A9551
:102CD000F1F7000080E0DF91CF9108953BB1242F00
:102CE000209523233BB1432B3FB7F894FC01680F99
:102CF000791FE617F70711F43FBF0895819198E017
:102D00004BB9000000C087FF2BB9880F000000C03E
:102D100000C000C02BB900C09A9591F7EACFAF92DE
:102D2000BF92CF92DF92EF92FF920F931F93CF93B8
:102D3000DF938C01EB01CFB6D090BC00F89480916A
:102D4000BC008B7F8093BC000E9427160E94331624
:102D500084E80E945416CC0FDD1FCC0FDD1F7801D4
:102D60005E01A00EB11EEA14FB04A9F40E944716EE
:102D7000CFBED092BC00579A40E8BE01C801DF9197
:102D8000CF911F910F91FF90EF90DF90CF90BF9068
:102D9000AF900C946E16F70181917F010E9454163A
:102DA000E2CFCF93DF93EC0181E08F878F810E9488
:102DB000722488850E9486240E943C24EA81FB813B
:102DC0006A897B89CE010696309719F0DF91CF9101
:102DD0000994DF91CF910895CF93DF93EC0188811F
:102DE000823039F4FB01828193810E945C0881E08A
:102DF0008987DF91CF910895FC018081813029F48A
:102E0000FB01808191810C945C08823021F4FB01EC
:102E100082819381F8CF0895FC018081813029F46B
:102E2000FB01808191810C947108823021F4FB01B7
:102E300082819381F8CF0895EF92FF920F931F93B1
:102E4000CF93DF93EC018885811132C0EB80FC8049
:102E500087E5F81A24E12E9DC0012F9D900D1124C5
:102E6000DC01AE5FBE4F1496ED91FC911597529622
:102E70006D917C91885F9E4F309709F0099584E1B0
:102E80008E9D80018F9D100D11240E5F1E4FF80145
:102E900087810E947824F80180850E948C240E94FA
:102EA0003C2418821F8219861092F2021092F102BD
:102EB000DF91CF911F910F91FF90EF900895DF92D6
:102EC000EF92FF920F931F93CF93DF937C01FB014F
:102ED0008281882391F080917C018F3F71F0C2E064
:102EE000D1E010E000E0DD24D39480917C01082E35
:102EF000000C990B8017910744F4DF91CF911F913B
:102F00000F91FF90EF90DF9008958E818823B9F0A4
:102F100089859A858E159F0539F48091F1029091EB
:102F2000F202E816F90659F0DD868F85811103C09B
:102F3000CE010E94D116CE0106960E941C170F5F8B
:102F40001F4F6496D2CFEF92FF920F931F93CF93B0
:102F5000DF937C0197558F3F910509F0D8F52091BB
:102F60007C01022E000C330B2817390714F48093D0
:102F70007C01FB01228134E1389F8001399F100DD3
:102F80001124E801CE5FDE4F2E8792818E81992336
:102F900049F1FA86E9868F5F8E830E9439269C87E5
:102FA0008B870E94AE248F830E946F2488870E94A3
:102FB00083249885892B8887E881F9816A897B89B0
:102FC000C801885F9E4F309709F00995F092F20290
:102FD000E092F10281E0DF91CF911F910F91FF907C
:102FE000EF9008958823B1F38F85882399F3C80162
:102FF000885F9E4F0E941C17EDCFEF92FF920F93B8
:103000001F93CF93DF9380917C0110E004E18F3F09
:10301000C1F5DF91CF911F910F91FF90EF9008952F
:10302000029FF001039FF00D1124EE5FFE4FE08838
:10303000F188E114F10419F48DE7E82EF12C029FD8
:10304000E001039FD00D1124CE5FDE4F8E818823D7
:10305000B9F08B859C850E944526E816F90680F418
:10306000109F700111248F85811105C0C7018E5FEB
:103070009E4F0E94D116C701885F9E4F0E941C1769
:103080001F5F212F30E080917C01082E000C990BEE
:10309000821793072CF6BDCF9093F8028093F70226
:1030A0000895E091F702F091F802309721F0019035
:1030B000F081E02D099480E00895E091F702F0910D
:1030C000F802309721F00280F381E02D09940895F1
:1030D000E091F702F091F802309721F00480F58139
:1030E000E02D099408952091F5023091F6022817F9
:1030F000390771F09093F6028093F502E091F702A0
:10310000F091F802309721F00680F781E02D0994C4
:1031100008952091F3023091F4022817390771F0D5
:103120009093F4028093F302E091F702F091F80299
:10313000309721F00084F185E02D099408950895D9
:103140000C949F1881E008950E94302685B780680E
:1031500085BF85B7806885BF0E94C5040E94C726C9
:103160000C949312BF92CF92DF92EF92FF920F9343
:103170001F93CF93DF93CDB7DEB72A970FB6F8949E
:10318000DEBF0FBECDBF0E9431050E94A21888236A
:1031900009F471C08AEFC82E82E0D82E10E000E05A
:1031A000B02E802F0E949605E82EF601F1906F0157
:1031B000F81609F45AC08091B50381FD0E949C0560
:1031C00090E080E0FE242F2D30E0482FB901082E3A
:1031D00002C0759567950A94E2F760FF41C08E833F
:1031E000BF8281E090E06C0102C0CC0CDD1C4A95EE
:1031F000E2F72E2D30E02C213D21232B09F480E035
:1032000088870E9439268160782F9A8789874E8126
:103210005F8168858A850E949419F801E650FD4F08
:1032200080818C2580830E945A280E945118909199
:10323000F902891789F10E9451188093F9022A96A0
:103240000FB6F894DEBF0FBECDBFDF91CF911F91B7
:103250000F91FF90EF90DF90CF90BF900C94FC08FF
:1032600001968630910509F0B0CF0F5F1F4F0E30E9
:10327000110509F095CF8FEF89838A831B820E9405
:1032800039268160782F9D838C8349815A816B8197
:103290008D810E949419C7CF2A960FB6F894DEBF8D
:1032A0000FBECDBFDF91CF911F910F91FF90EF9097
:1032B000DF90CF90BF900895CF93DF93DC018C9186
:1032C000682F70E021E030E001C0220F8A95EAF714
:1032D00011964C91119750E0EA01C85FDC4F98813C
:1032E00012968C9112978823C9F080911803882335
:1032F000C1F086E0849FF001859FF00D1124E60F58
:10330000F71FEE0FFF1FE157FE4F408151814D9394
:103310005C93292B2883DF91CF910895892F8223F5
:10332000E6CF20952923F6CFCF93DF93CDB7DEB735
:103330002B970FB6F894DEBF0FBECDBF942F4F83EF
:10334000252F588769877A878B874A855B8581E037
:10335000452B31F02F3F19F481E09F3F09F080E0C9
:1033600080FD04C0CE0107960E945C191E821D825A
:1033700085E0FE013796DE01119601900D928A9547
:10338000E1F749815A816B817C818D819E810E9408
:1033900001212B960FB6F894DEBF0FBECDBFDF9193
:1033A000CF910895FC01808191810E94CA2392955A
:1033B0009F70963041F48091180391E089278093A3
:1033C0001803909317030895CF93C82F882309F407
:1033D000DAC08238C1F40E94511881FDD4C089E35B
:1033E0000E94F8230E943C242FEF81EE94E02150AC
:1033F00080409040E1F700C0000089E30E94FF2375
:10340000CF910C943C248338A1F40E94511880FD84
:10341000BAC083E50E94F8230E943C242FEF81EE7E
:1034200094E0215080409040E1F700C0000083E527
:10343000E5CF8438A1F40E94511882FDA4C087E42E
:103440000E94F8230E943C242FEF81EE94E021504B
:1034500080409040E1F700C0000087E4CFCF8CEFC0
:103460008C0F813A48F48C2F0E94792A81118BC0ED
:103470008C2F0E94F823C4CF80E28C0F883048F450
:10348000C77081E001C0880FCA95EAF70E947224D4
:10349000B7CF8BE58C0F833068F481E890E0C53AB4
:1034A00031F083E890E0C63A11F482E890E0CF91E1
:1034B0000C94731888E58C0F853108F05EC082EE9D
:1034C00090E0C83A09F456C089EE90E0C93A09F490
:1034D00051C08AEE90E0CA3A09F44CC085EB90E006
:1034E000CB3A09F447C086EB90E0CC3A09F442C0ED
:1034F00083EB90E0CB3BF1F184EB90E0CC3BD1F15E
:1035000087EB90E0CD3AB1F18CEC90E0C03B91F1CB
:103510008DEC90E0CE3A71F183E891E0CF3A51F131
:103520008AE891E0C13B31F182E991E0C23B11F1BF
:1035300084E991E0C33BF1F081E292E0C43BD1F039
:1035400083E292E0C53BB1F084E292E0C63B91F0A9
:1035500085E292E0C73B71F086E292E0C83B51F011
:1035600087E292E0C93B31F090E080E0CA3B11F481
:103570008AE292E0CF910C948918C03F20F08C2F02
:10358000CF910C946327CF910895882309F450C0FC
:10359000823871F40E94511881FF4AC089E30E9469
:1035A000F8230E943C2489E30E94FF230C943C24CE
:1035B000833859F40E94511880FF3AC083E50E9475
:1035C000F8230E943C2483E5EFCF843859F40E940D
:1035D000511882FF2DC087E40E94F8230E943C24EA
:1035E00087E4E2CF9CEF980F913AF0F290E2980FC7
:1035F000983050F4877091E001C0990F8A95EAF7EE
:10360000892F0E947824D2CF9BE5980F933020F425
:1036100090E080E00C94731898E5980F953120F4B1
:1036200090E080E00C948918803F10F00C94CB2738
:103630000895882321F00E9472240C943C2408955C
:10364000882321F00E9478240C943C2408958F92C2
:103650009F92AF92BF92DF92EF92FF920F931F93D0
:10366000CF93DF937C01D62FC72FFC0105810295F4
:103670000F70128111110E9494240E943524D82EBB
:10368000882371F0112331F180E28D0F883010F121
:1036900082E00E941F240E94352491E0D82ED92672
:1036A000BC2EB2949FE0B922EB2DF0E0E65AF44E26
:1036B0000C949D356C1B6C1BBC1BBC1BFC1B241C85
:1036C000931D031C661C031C011D011D8A1D031C88
:1036D000031CC51DD12CE4CF0C2F0F70C07F11F03F
:1036E0000295007F1123A9F0002359F080E28D0F8D
:1036F000883010F0D11109C0802F0E9472240E94DE
:103700003C248D2F0E94E41914C0802F0E9486242F
:10371000F6CF8D2F0E94C51A002359F080E28D0F3D
:10372000883010F0D11124C0802F0E9478240E948C
:103730003C24DD2009F454C20E94122480FD50C2B2
:10374000F70112820E940C240E949022C7010E945D
:10375000FC1D0E940C24DF91CF911F910F91FF90CF
:10376000EF90DF90BF90AF909F908F900C94B1221C
:10377000802F0E948C24DBCFFC2FFF70BF2EC07FD8
:10378000C03219F0B29480EFB822DD2339F0D13085
:1037900019F1112359F1002321F1B3CF112381F045
:1037A000011106C00E94AE248B290E94191BC1CFB3
:1037B0000130C1F70E94AE248B290E94A824B9CF02
:1037C000011106C00E94AB248B2D0E94201BB1CF9B
:1037D000013009F4AECFF6CF112329F0023008F002
:1037E000A8CF8B2DE2CF0111A4CFEECF002361F340
:1037F0008D2F0E94C51A9DCF8C2F8695869583703C
:1038000079F08130B9F0F8E0BF1609F49BC0BF161B
:1038100008F48FCF86EF8B0D823008F493C089CFE8
:103820008D2F9C2F9370111102C090E080E00E94B8
:1038300073187FCF8D2F9C2F9370111102C090E0D1
:1038400080E00E94891875CF112309F1D53F99F0C6
:10385000D63FB9F0D43F49F48091280490912904CF
:10386000816090932904809328048D2F0E94632700
:103870000E944F285ECF8091280490912904826095
:10388000F0CF80912804909129048460EACFD53F3D
:1038900089F0D63FA9F0D43F49F480912804909153
:1038A00029048E7F90932904809328048D2F0E94F1
:1038B000CB27DECF80912804909129048D7FF2CF11
:1038C00080912804909129048B7FECCF8C2F8370FA
:1038D00009F04BC0111136C02D2F22952695277067
:1038E000220F220F6D2F6F70862E912CB12CA12CE0
:1038F000022E04C0880C991CAA1CBB1C0A94D2F787
:1039000060E070E0CB01D4FF0FC06FE070E080E0BA
:1039100090E004C0660F771F881F991F2A95D2F781
:103920006095709580959095C695C695C370C23088
:1039300071F0A0F4682979298A299B29C13091F076
:103940000E9444220E9451180E94FC08F2CE68296D
:1039500079298A299B290E945622F4CF0E94442269
:10396000C501B4010E943222EDCF8695112311F0DA
:103970008C2F8170882331F32D2F22952695277067
:10398000220F220F6D2F6F70862E912CB12CA12C3F
:10399000022E04C0880C991CAA1CBB1C0A94D2F7E6
:1039A00060E070E0CB01D4FF0FC06FE070E080E01A
:1039B00090E004C0660F771F881F991F2A95D2F7E1
:1039C0006095709580959095C695C695C370C230E8
:1039D00051F080F4682979298A299B29C13071F036
:1039E0000E940723AFCF682979298A299B290E9441
:1039F0001923A8CF0E940723C501B4010E94F52214
:103A0000A1CFE0E2ED0FE53108F065C0F0E0E55F41
:103A1000F24E0C949D35201D201D201D201D201DC3
:103A2000201D201D201D201D201D201D201D201DAE
:103A3000201D201D201D311D3E1D451D4C1D561DE8
:103A4000DF708C2F8F71112331F00E9490228D2F07
:103A50000E94191BD8CE0E94B1228D2F0E94201BDC
:103A6000D2CE112339F00111CECE8C2F8F710E944E
:103A7000D422C9CE023008F0C6CEF7CF8C2F8F717A
:103A8000112339F00E949022BECE8C2F8F7111230A
:103A9000C9F30E94B122B7CE112329F08C2F8F7168
:103AA0000E947B22B0CE0E947622ADCE112349F037
:103AB000CF718C2F0E94902263E08C2F0E941624DD
:103AC000A2CE81E00E941F24023008F49CCE82E046
:103AD0000E941F2498CE112349F0002321F08D2F3E
:103AE0000E94E41990CE8C2F8F71CCCF002379F0F7
:103AF000D93349F42FEF87EE93E021508040904076
:103B0000E1F700C000008D2F0E94C51A7CCE8C2FDB
:103B10008F71BFCF4C2F4F706D2FC7010E946A0766
:103B20000E94AA2106CED23F71F1C8F4D03F01F124
:103B3000D13FB9F180911703002309F446C08823CF
:103B400041F08091180391E0892780931803109227
:103B500017038D2F112389F10E94E41916C0D43F59
:103B6000D9F078F0D53F31F711110FC081E006C0D0
:103B7000112359F08091180391E08927809318034D
:103B800004C081E01827109318034C2F4F706D2F3D
:103B9000C7010E94EC0B37CE1111F7CF109218031A
:103BA000F4CF112339F080911703882319F3109271
:103BB0001703EBCF0023F1F2E8CF0E94C51A86E08D
:103BC000F70111928A95E9F7E0CF8823F1F21111FC
:103BD000DCCF8091180391E0892780931803E7CF09
:103BE000DF91CF911F910F91FF90EF90DF90BF90E9
:103BF000AF909F908F9008950F931F93CF93DF9373
:103C0000EC01988189812B813C81232B39F08F3FF6
:103C100019F481E09F3F19F080E001C081E080FD50
:103C200017C0CE010E940E09882391F06881798126
:103C30008A810E94D4238C010E942B230E942F2270
:103C4000B801CE01DF91CF911F910F910C94271BEA
:103C5000DF91CF911F910F9108950E9494240E94AB
:103C6000A5240E9406240E943C240E94EE280E9463
:103C70004F2890E080E00E94731890E080E00C9460
:103C800089180E9480240C942D1E0E94CA23E92FBB
:103C9000E295EF70E250EE30E0F4F0E0EE5AF14ED3
:103CA0000C949D35601E601E691E691E6B1E691E88
:103CB000691E691E601E601E701E691E691E701ED0
:103CC000803F19F020F4803E20F481E00895843F85
:103CD000E1F380E00895803EC0F3813FD1F7F5CF56
:103CE00093FB882780F90895CF93DF9300D000D00D
:103CF0001F92CDB7DEB70F900F900F900F900F90DF
:103D0000DF91CF910895CF93DF9300D000D000D002
:103D1000CDB7DEB726960FB6F894DEBF0FBECDBF87
:103D2000DF91CF9108951F93CF93DF93C091190333
:103D300016E080911A038C1304C0DF91CF911F917C
:103D40000895D0E01C9FF0011D9FF00D1124E55E49
:103D5000FC4F4081518162817381848195810E94F1
:103D6000831E2196C770E5CF40914B0350914C03C1
:103D700060914D0370914E0380914F0390915003D9
:103D80000C94831E1F93CF93DF9380915003807F09
:103D9000D1F480914D038823B1F080911903D09123
:103DA0001A03B0914B03C0914C0340914E035091C4
:103DB0004F03A1E0BF3F09F0A0E0BA016095709504
:103DC00016E0D81304C0DF91CF911F91089521E030
:103DD0004115510521F02A2FCF3F09F020E090E056
:103DE00020FD38C0189FF001199FF00D1124E55EE9
:103DF000FC4F21812C132EC020812B132BC022813C
:103E0000211128C0238134812417350700F1241B98
:103E1000350B2D373105F0F4209150032F702061C0
:103E20002093500326E0289FF001299FF00D1124D4
:103E3000E05EFC4F80818F70806180838BE493E033
:103E40000E94FC1DDF91CF911F910C94931E260FB1
:103E5000371FDFCF01968770B4CFAF92BF92CF925A
:103E6000DF92EF92FF920F931F93CF93DF93CDB723
:103E7000DEB761970FB6F894DEBF0FBECDBF8C01E1
:103E800085E0F801DE011D9601900D928A95E1F71B
:103E9000D8014C9111965C9111971296EC9030914B
:103EA0004B0360914C0380914E0390914F0321E0AE
:103EB000009731F06F3F19F421E03F3F09F020E017
:103EC000B22FB170BB2E20FD80C1F801C380D48019
:103ED000A0904D03AA2009F427C1C816D906D0F135
:103EE000D601A81BB90BCD01FF24F3948D379105A2
:103EF00008F0F12C80915003982F907FFF2009F457
:103F0000CEC0911187C0FE2C651329C0341327C081
:103F1000E11025C08F708061809350030E94B41E11
:103F20008BE493E00E94FC1D80915003F80185838F
:103F30008F2D61960FB6F894DEBF0FBECDBFDF9117
:103F4000CF911F910F91FF90EF90DF90CF90BF9096
:103F5000AF900895809590958C0D9D1DC5CF81E003
:103F6000CD2831F05F3F19F481E04F3F09F080E048
:103F700080FD24C081E08E25F82FF170DF2E80FFB8
:103F80003FC08091190320911A0336E0821318C0B4
:103F90004D875E878D859E850E94CA23292F229595
:103FA0002F70223008F1243030F59F7009F1D801CC
:103FB00015969C91907FE1F4FB2CBACF80E0DCCF8A
:103FC00090E0389FF001399FF00D1124E55EFC4F21
:103FD0006181561306C06081461303C062816E1171
:103FE0000FC001968770D2CF9F7011F0882321F304
:103FF000805E883008F3C8010E94FC1DBD2CDCCF18
:10400000EE2009F495CF8091500381608093500396
:10401000F12C8ECF651314C0341312C0E11010C000
:10402000F8018583C8010E94FC1D86E0F801ABE41D
:10403000B3E001900D928A95E1F70E94B41E78CF0B
:104040004D875E878D859E850E94451E882319F1C8
:10405000EE2009F180915003803270F020914B03E3
:1040600030914C0338872F831986DB86CA868C876C
:10407000CE0107960E94FC1D86E0F801ABE4B3E098
:1040800001900D928A95E1F70E94C21E0E94B41E13
:10409000FF24F3944DCFC8010E94FC1DF9CF91116C
:1040A00013C07C2DD98AC88A6E2D89890E94741EFE
:1040B0008BE493E00E94FC1D86E0EBE4F3E0DF017B
:1040C0001D928A95E9F7B9CF651312C0341310C059
:1040D000E1100EC0F8018583C8010E94FC1DEBE4CD
:1040E000F3E086E0DF011D928A95E9F7FA2C20CFF4
:1040F0004D875E878D859E850E94451E882359F2D7
:10410000EE2049F280915003803208F4B5CF20911F
:104110004B0330914C033A8329831B82DD82CC828E
:104120008E83CE010196A6CFC816D90638F1F601C6
:10413000E81BF90BCF01F12C8D37910508F03DC03C
:10414000FE2CEE2009F4A7CF651326C0341324C03B
:104150008091500380FD17C0982F907FA1F0D80167
:1041600015968C931597903F09F45CCF982F907F0C
:10417000905F8F70892B15968C9354CF8095909576
:104180008C0D9D1DD8CF86E0F801ABE4B3E0019023
:104190000D928A95E1F7CCCE4D875E878D859E8501
:1041A0000E94451E811168CF8091500381608093E9
:1041B0005003C8010E94FC1DBBCE7C2DD98AC88A41
:1041C0006E2D89890E94741E77CFEE2009F463CF8B
:1041D0004D875E878D859E850E94451EF82E88231B
:1041E00009F459CF86E0F801ABE4B3E001900D92F9
:1041F0008A95E1F78BE493E00E94D2190E94C21ED7
:104200001CCF1F93CF93DF93CDB7DEB72C970FB69C
:10421000F894DEBF0FBECDBF4F83588769877A877A
:104220008B879C87CE0107960E942D1F882309F457
:1042300042C09F8188852A853B85232B39F08F3F9B
:1042400019F481E09F3F19F080E001C081E080FD1A
:1042500008C04F81588569857A858B859C850E9429
:10426000831E16E08091190390911A03891709F4AF
:1042700067C0819FC0011124855E9C4F0E942D1F45
:10428000882309F45DC0E09119031E9FF0011124F9
:10429000E55EFC4F4081518162817381848195810B
:1042A0000E94831E8091190390E0019687709927E0
:1042B00080931903D7CF86E0FE013796DE01119671
:1042C00001900D928A95E1F79F8188852A853B852B
:1042D000232B39F08F3F19F481E09F3F19F080E0E4
:1042E00001C081E080FDBDCF20911A0330E0C901FB
:1042F000019687709927409119034817190699F07C
:1043000096E0929FD001939FB00D1124A55EBC4F03
:10431000FE01319601900D929A95E1F780931A0370
:104320000E94931E9ECF0E94411E10921A0310926B
:10433000190386E0EBE4F3E0DF011D928A95E9F7CB
:104340002C960FB6F894DEBF0FBECDBFDF91CF9194
:104350001F910895EF92FF920F931F93CF93DF93D6
:104360008C01892B81F0F12CEE24E394E801219655
:10437000F8018491843770F4843008F05FC0813094
:10438000B1F08230A1F1DF91CF911F910F91FF9099
:10439000EF900895853709F44CC008F43DC09CE7C0
:1043A000980F903780F78F770E94C51A49C00E5F2B
:1043B0001F4FFE01849190E2980F983060F487704F
:1043C000FE2D01C0FF0F8A95EAF78F2F0E949724D8
:1043D0000E943C2402C00E94E4198F2D815030F2CB
:1043E000EFE9FFE03197F1F700C00000F7CF0E5F73
:1043F0001F4FFE01849190E2980F983050F487701F
:10440000FE2D01C0FF0F8A95EAF78F2F0E949D2491
:10441000DFCF0E94C51AE1CF0E5F1F4FFE01C4918E
:10442000C150D8F28FE99FE00197F1F700C000007A
:10443000F7CF0E5F1F4FFE01F490CFCF0E94E4191B
:104440008E01CBCF08950E94222260938C0370933B
:104450008D0380938E0390938F030C942D1E0895EB
:104460000C9423220F931F9300918C0310918D03C2
:1044700020918E0330918F03602B712B822B932B15
:104480001F910F910C9423220F931F9300918C0383
:1044900010918D0320918E0330918F03602371233F
:1044A000822393231F910F910C9423220F931F9328
:1044B00000918C0310918D0320918E0330918F0316
:1044C00060277127822793271F910F910C94232235
:1044D0000C94D1070E94682260938803709389032B
:1044E00080938A0390938B030C942D1E60E070E000
:1044F000CB010C946A220F931F9341E050E060E0DF
:1045000070E08A019B0104C0000F111F221F331F9E
:104510008A95D2F7C901B8011F910F910C946A22B4
:104520000F931F9341E050E060E070E004C0440F3F
:10453000551F661F771F8A95D2F780918803909147
:104540008903A0918A03B0918B038A019B01082BF8
:10455000192B2A2B3B2BC901B8011F910F910C94E9
:104560006A220F931F9341E050E060E070E004C0C6
:10457000440F551F661F771F8A95D2F7CB01BA01EA
:1045800060957095809590950091880310918903AE
:1045900020918A0330918B0360237123822393231C
:1045A0001F910F910C946A220F931F9341E050E0EA
:1045B00060E070E004C0440F551F661F771F8A95A6
:1045C000D2F78091880390918903A0918A03B091DA
:1045D0008B038A019B01082719272A273B27C9013A
:1045E000B8011F910F910C946A220F931F930091B1
:1045F00088031091890320918A0330918B03602BEB
:10460000712B822B932B1F910F910C946A220F9385
:104610001F93009188031091890320918A033091A0
:104620008B0360237123822393231F910F910C949A
:104630006A220F931F9300918803109189032091A0
:104640008A0330918B0360277127822793271F915C
:104650000F910C946A220895292F220F920F990F1F
:10466000890F982F977071E001C0770F9A95EAF73C
:1046700086958695869525E0829FC001112450E09D
:1046800040E0A62FB0E0FC01E40FF51FEF5AFC4F0D
:1046900060819D01042E02C0369527950A94E2F7A9
:1046A0002170219526272723262720834F5F5F4FE0
:1046B0004530510541F70895292F220F290F220F68
:1046C000820F982F977086958695869545E0849FF2
:1046D0009001112470E060E080E0F901E60FF71F1F
:1046E000EF5AFC4F408150E0092E02C05695479585
:1046F0000A94E2F741705527062E01C0440F0A9430
:10470000EAF7842B6F5F7F4F6530710531F70895AD
:10471000BF92CF92DF92EF92FF920F931F93CF93AE
:10472000DF938C01C0908803D0908903E0908A03C6
:10473000F0908B0380918C0390918D03A0918E0358
:10474000B0918F03C82AD92AEA2AFB2ACFE1D0E008
:10475000BC2ED701C6010C2E04C0B695A79597951F
:1047600087950A94D2F780FD0EC0219788F7B12C67
:104770008B2DDF91CF911F910F91FF90EF90DF90E4
:10478000CF90BF900895B8018C2F0E94090C01971B
:1047900061F3EECFCF93DF93EC010E948823BE013B
:1047A000DF91CF910C94090C1F93CF93DF93EB0112
:1047B00090911603992331F0CB01DF91CF911F9196
:1047C0000C94CA23882379F0CB010E948823182FE8
:1047D000682FCE010E942C23BE01812FDF91CF9143
:1047E0001F910C94090CCB010E945C23182FF4CF6D
:1047F000682F80917D0190917E010C949825682FFF
:1048000080917D0190917E010C94A32580917D0182
:1048100090917E010C94AE258091900385958595AD
:1048200085950895809190038770089598E0899FF9
:1048300090011124622B609390030C94902290912C
:1048400090038095892380939003282F277061F42B
:10485000282F082E000C330B9217130629F085958C
:10486000859585950C94B122089590919003977049
:1048700081E009F480E00895E0917D01F0917E01EE
:104880008091B4038083E0917D01F0917E0180816D
:104890009091B303892B8083E0917D01F0917E019B
:1048A00080819091B203892B808390919103992309
:1048B00081F0E0917D01F0917E018081892B8083E0
:1048C00080917D0190917E010E943B258111109283
:1048D000910380917D0190917E010C945D188091EF
:1048E000B40308959091B403892B8093B403089581
:1048F000982F90958091B40389238093B4030895F1
:104900001092B40308958091B30308959091B30376
:10491000892B8093B3030895982F90958091B303CA
:1049200089238093B30308951092B303089590915F
:10493000B203892B8093B2030895982F90958091AC
:10494000B20389238093B20308951092B2030895AD
:10495000809391030895109291030895809191039B
:104960000895CF92DF92EF92FF926C01EE24FF2424
:1049700020E0C114D104E104F10419F0C701B6012B
:1049800020E1C72ED82EE92EFF24C114D104E10462
:10499000F10419F0285FC701B6016B017C0154E0F6
:1049A000F694E794D794C7945A95D1F7C114D104DB
:1049B000E104F10419F02C5FC701B6016B017C0121
:1049C00042E0F694E794D794C7944A95D1F7C1147E
:1049D000D104E104F10419F02E5FC701B6019695E8
:1049E000879577956795672B682B692B09F02F5F63
:1049F000822FFF90EF90DF90CF9008956DEE7EEFC5
:104A000090E080E00E94D53560E082E090E00E9476
:104A1000B73560E083E090E00E94B73560E084E065
:104A200090E00E94B73560E085E090E00E94B735E5
:104A300040E050E0BA0188E090E00C94C93590E085
:104A400080E00E94B13521E08D3E9E4F09F020E0CC
:104A5000822F089582E090E00C94A33583E090E0EB
:104A60000C94A33584E090E00C94A335682F84E087
:104A700090E00C94B735FC0131969C01205E3F4FCD
:104A800080E0919191118F5FE217F307D1F70895BC
:104A90009C01FC0132969FEF80E04191461751F056
:104AA0009F3F19F4411101C0982F8F5F8E31A9F7F4
:104AB0009F3F09F40895290F311D97FD3A95F9019B
:104AC00062830895FC01329680962191261303C0DB
:104AD000DF0111971C92E817F907B9F70895E62F3F
:104AE000E695E695E695EF3169F0E80FF92FF11DAF
:104AF000677021E030E001C0220F6A95EAF78181FA
:104B0000822B81830895E62FE695E695E695EF31B1
:104B100071F0E80FF92FF11D677021E030E001C05E
:104B2000220F6A95EAF72095818128232183089531
:104B300020918E01222329F020912E0427FD0C9430
:104B40006F250C94482520918E01222329F0209175
:104B50002E0427FD0C9483250C946225FC013196CC
:104B600080961192E817F907E1F7089508950C94DB
:104B7000B62580913404843049F11092B60388E15F
:104B800090E020E40FB6F894A895809360000FBEE3
:104B90002093600080E00E94FC080E94B72583B744
:104BA000817F846083BF83B7816083BF7894889559
:104BB00083B78E7F83BF0FB6F894A895809160006D
:104BC000886180936000109260000FBE0895089580
:104BD000CF930E94E1040E9431050E94E725C0E0C6
:104BE0008C2F0E949605811105C0CF5FCE30C1F792
:104BF000CF91089581E0FCCF08950C94FC250E948C
:104C0000411E0E9451180E94FC080C94FD251F9221
:104C10000F920FB60F9211248F939F93AF93BF9370
:104C20008091B603811113C080912A0490912B04C6
:104C3000A0912C04B0912D044196A11DB11D80932B
:104C40002A0490932B04A0932C04B0932D04BF91BD
:104C5000AF919F918F910F900FBE0F901F9018955D
:104C600082E084BD93E095BD9AEF97BD80936E007E
:104C700008952FB7F89480912A0490912B04A09165
:104C80002C04B0912D042FBF0895CF92DF92EF92A4
:104C9000FF920F931F932FB7F89440912A045091DD
:104CA0002B0460912C0470912D042FBF6A017B01AD
:104CB000EE24FF248C0130E020E0C016D106E2068D
:104CC000F30650F0481B590BCA011F910F91FF903A
:104CD000EF90DF90CF90089541505109F3CF789431
:104CE0001F920F920FB60F9211248F939F93AF9341
:104CF000BF9380912A0490912B04A0912C04B09131
:104D00002D040196A11DB11D80932A0490932B04BC
:104D1000A0932C04B0932D04BF91AF919F918F91DC
:104D20000F900FBE0F901F901895F89481E080931C
:104D3000E00080E28093D800E9ECF0E010828FE19F
:104D40009EE40197F1F700C000001DBA10926800C0
:104D50001CBC10BE1FBA10927A0010926E00109206
:104D60006F0010927100109272001082ECEBF0E074
:104D7000108214B817B81AB81DB810BA108215B836
:104D800018B81BB81EB811BA0C94003F08950E94C1
:104D90001F25811102C00E94FE240E942A258093B3
:104DA000B5030E94322590E090932F0480932E0447
:104DB0000E942E25682F70E090E080E00C94302255
:104DC0008091BA0380FF12C06091820185E0689FE4
:104DD000B0011124759567957595679560387105D3
:104DE000A8F561157105A1F1862F089581FF09C00D
:104DF0006091820185E0689FB001112475956795E7
:104E0000EDCF82FF07C06091820185E0689FB0010D
:104E10001124E4CF2091BB032223A9F090918101BA
:104E20006091820185E0689FB00111242917B0F6D6
:104E3000269FA001279F500D1124692F70E0CA0101
:104E40000E948935CBCF65E070E0CECF8FE7089523
:104E500081E008958091BA0380FF0CC060918001C9
:104E600070E075956795759567956115710549F1C0
:104E7000862F089581FF06C06091800170E07595CE
:104E80006795F3CF6091800182FD0BC09091BB03C9
:104E90009923A1F060917F0180918001961738F0ED
:104EA000682F70E06038710500F38FE70895899FDF
:104EB000C001112470E00E948935F4CF61E070E0F8
:104EC000D7CF81E00895803F31F40E94E02681959C
:104ED0008093BE030895813F19F40E94E026F8CF25
:104EE000823F31F40E94E02681958093BD030895AE
:104EF000833F19F40E94E026F8CF893F29F40E94ED
:104F00002A278093BF0308958A3F21F40E942A270D
:104F10008195F7CF8B3F31F40E942A2781958093AA
:104F2000C00308958C3F19F40E942A27F8CF843FCC
:104F300031F48091BC0381608093BC030895853F68
:104F400021F48091BC038260F7CF863F21F48091E9
:104F5000BC038460F1CF873F21F48091BC0388605B
:104F6000EBCF883F21F48091BC038061E5CF8D3F7A
:104F700031F48091BA0381608093BA0308958E3F23
:104F800021F48091BA038260F7CF8F3FB9F7809107
:104F9000BA038460F1CF803FC1F48091BE0387FDE6
:104FA0001092BE038091BD0381110EC08091BE039B
:104FB00081110AC08091BF03811106C08091C00396
:104FC000811102C01092BB030895813F29F48091A2
:104FD000BE0318162CF3E6CF9091BD03823F29F44F
:104FE00097FFE0CF1092BD03DDCF833F19F4191670
:104FF000CCF3D8CF893F39F48091BF03181694F6CB
:105000001092BF03CFCF8A3F29F48091BF0387FF5F
:10501000C9CFF6CF8B3F39F48091C00387FFC2CF51
:105020001092C003BFCF8C3F29F48091C0031816A3
:10503000BCF3B8CF843F31F48091BC038E7F809362
:10504000BC03B0CF853F21F48091BC038D7FF7CFA7
:10505000863F21F48091BC038B7FF1CF873F21F401
:105060008091BC03877FEBCF883F21F48091BC0304
:105070008F7EE5CF8D3F31F48091BA038E7F809390
:10508000BA0390CF8E3F21F48091BA038D7FF7CF82
:105090008F3F09F087CF8091BA038B7FF0CF8CEBE5
:1050A00093E00E9468180E9439269093B803809379
:1050B000B70308951F93CF93DF938091B703909127
:1050C000B8030E944526AC019091BB032091830157
:1050D00030E0911106C02091B9038AE0289F900129
:1050E00011244217530780F08091BD03D091BE0375
:1050F0001091BF03C091C00381110AC0D1116AC0D1
:10510000111168C0C11166C0DF91CF911F91089540
:105110009F3F19F09F5F9093BB03181624F40E94E1
:10512000E0268093BD038091BD0387FF05C00E94E8
:10513000E02681958093BD031D1624F40E94E0268D
:105140008093BE038091BE0387FF05C00E94E026C6
:1051500081958093BE033091BD033323C1F020912C
:10516000BE032223A1F045EB3403C0011124892F93
:10517000911101C081E08093BD0345EB24039001B0
:105180001124832F311101C081E08093BE031116D9
:1051900024F40E942A278093BF038091BF0387FFD6
:1051A00005C00E942A2781958093BF031C1624F412
:1051B0000E942A278093C0038091C00387FF05C007
:1051C0000E942A2781958093C003DF91CF911F9180
:1051D0000C944F289F3F09F09DCFAECF85E0ECEBBC
:1051E000F3E0DF011D928A95E9F71092BB0310925C
:1051F000BA030895833081F128F4813059F0823068
:10520000D1F00895853009F449C0B8F1863009F429
:1052100056C008958091B903482F460F5527551F52
:105220004F3F510524F4680F6093B90308958FEF41
:105230008093B903089580918301482F460F552725
:10524000551F4F3F510524F4680F60938301089563
:105250008FEF80938301089580918201482F460F3C
:105260005527551F4F3F510524F4680F6093820165
:1052700008958FEF80938201089580918101482FD6
:10528000460F5527551F4F3F510524F4680F609373
:10529000810108958FEF80938101089580918001AD
:1052A000482F460F5527551F4F3F510524F4680FCF
:1052B0006093800108958FEF80938001089580911D
:1052C0007F01482F460F5527551F4F3F510524F4A6
:1052D000680F60937F0108958FEF80937F01089599
:1052E000833011F128F4813049F0823091F0089533
:1052F000853081F120F18630C1F108958091B903A4
:10530000681720F4861B8093B90308951092B9039F
:10531000089580918301681720F4861B8093830190
:10532000089510928301089580918201681720F4F6
:10533000861B8093820108951092820108958091C6
:105340008101681720F4861B8093810108951092D3
:105350008101089580918001681720F4861B809355
:105360008001089510928001089580917F0168174F
:1053700020F4861B80937F01089510927F01089589
:105380000F931F9341E050E060E070E08A019B01C1
:1053900004C0000F111F221F331F8A95D2F7C901C5
:1053A000B8010E9430221F910F910C94411E873248
:1053B00008F043C08E3108F08BC0803109F47DC005
:1053C000C8F4873009F46AC028F4863009F45CC058
:1053D00080E008958B3009F455C08E30C9F7909164
:1053E000B503892F8B7F92FF84608093B50382FD84
:1053F00020C048C0863109F445C068F4813141F7C6
:105400000E94411E90912E04892F97FB87F98058A6
:1054100080932E0437C08931A9F18B31C9F6909160
:10542000B503892F8D7F91FF82608093B50381FF43
:1054300029C08091B50381603DC0883319F150F4D3
:10544000893221F0853311F0873211F680E00E9415
:10545000C02918C08334D1F328F48A3308F4B8CFB4
:105460008953F5CF883409F0B3CF0E94411E2FEF46
:1054700083ED90E3215080409040E1F700C00000B0
:105480000E94952681E008958091B503817F8E7FEB
:105490008093B50381E08093C20308959091B50392
:1054A000892F8E7F90FF81608093B50380FDEACFC6
:1054B000897F877F8093B503E5CF9091B503892FCE
:1054C000877F93FF88608093B50383FDB2CFDACFE7
:1054D0008D51BDCF80E008950C946A2A8E518A3098
:1054E00030F4E82FF0E0E95CFD4F8081089580E022
:1054F0000895CF93C82F8091C2038130E1F038F036
:10550000823009F43FC01092C20380E012C0E091E3
:105510007D01F0917E018081813111F08232A9F705
:105520008C2F0E946A2A81111DC08C2F0E94D729BE
:105530008170CF910895E0917D01F0917E0180818D
:10554000813171F3823261F38C2F0E946C2A8111B8
:1055500010C0C43181F048F4CB3059F0C03171F043
:1055600080E0E6CF81E090E0E3CFC93221F0C8339C
:10557000B9F781E0DDCF1092C203F2CF82E08093D1
:10558000C203F7CFC93219F188F4C43101F120F414
:10559000C73081F181E0CDCF82EE8C0F8630D0F71D
:1055A0008C2F0E946E2A8093C103F4CFCE3401F178
:1055B00040F46AE0CB3471F78091C1030E94FA286D
:1055C000E9CFC13579F061E0C235B1F3E3CF809125
:1055D000C103882319F01092C103DCCF81E08093CE
:1055E000C203A7CF61E08091C1030E947029D2CF8E
:1055F0006AE0F9CF1092B90384E180938301C093EC
:1056000082018CE38093810188E08093800188E2AD
:1056100080937F01BFCF8091E30308950F931F9381
:10562000CF93DF9300D01F92CDB7DEB78C010E94DD
:105630007D2D823011F0843019F583E089831B833E
:105640000A838093E9008FEF9091E800815095FDE7
:1056500006C095ED9A95F1F700008111F5CF809184
:10566000E80085FF0DC050E040E063E070E0CE014F
:1056700001960E949A2D8091E8008E778093E80031
:105680000F900F900F90DF91CF911F910F91089580
:10569000CF93DF9300D01F92CDB7DEB720913404B3
:1056A000243031F522E02983805891099B838A8335
:1056B00083E08093E9008FEF9091E800815095FDA1
:1056C00006C095ED9A95F1F700008111F5CF809114
:1056D000E80085FF0DC050E040E063E070E0CE01DF
:1056E00001960E949A2D8091E8008E778093E800C1
:1056F0000F900F900F90DF91CF910895CF93DF938C
:10570000EC010E947D2D823011F08430F9F482E0AA
:105710008093E9008FEF9091E800815095FD06C0DD
:1057200095ED9A95F1F700008111F5CF8091E80091
:1057300085FF0CC050E040E065E070E0CE010E94C3
:105740009A2D8091E8008E778093E800DF91CF91C9
:105750000895CF93DF93EC010E947D2D823011F0EC
:105760008430F9F480918E018823F1F080912E0429
:1057700087FF1AC084E08093E9008FEF9091E800E2
:10578000815095FD06C095E19A95F1F700008111D1
:10579000F5CF8091E80050E040E060E270E085FDE8
:1057A0001AC0DF91CF91089581E08093E9008FEFD7
:1057B0009091E800815095FD06C095ED9A95F1F71E
:1057C00000008111F5CF8091E80085FFEACF50E01D
:1057D00040E068E070E0CE010E949A2D8091E800E0
:1057E0008E778093E80080E2FE01A3ECB3E00190A5
:1057F0000D928A95E1F7D5CF80913304811109C0CC
:105800000E942A2F0E94872F8091E200846080935B
:10581000E2000895109233040895089508950C94B9
:10582000FF2542E061EC81E00E94A82E42E061EC9D
:1058300082E00E94A82E42E061EC83E00E94A82E44
:1058400042E261EC84E00C94A82E8091360483300F
:1058500009F455C030F4813071F1823009F491C0FF
:1058600008958A3009F47DC08B3009F463C0893013
:1058700009F044C080913504813209F03FC0809125
:10588000390490913A04009711F00397B9F580918B
:10589000E800877F8093E8008091E80082FF2AC0BB
:1058A0008091F1008093E3038091E8008B778093EF
:1058B000E8000C94DC2E80913504813AF9F4809153
:1058C000E800877F8093E8008091390490913A0442
:1058D000892B61F460E283EC93E070E00E94E92D93
:1058E0008091E8008B778093E800089560E090E075
:1058F00080E0F3CF809134048111CECF0895809160
:105900003504813AD9F78091390490913A04892B72
:10591000A9F78091E800877F8093E8008091E800F4
:1059200080FFFCCF80918E018093F1008091E80090
:105930008E77BDCF80913504813201F78091390493
:1059400090913A04892BD1F68091E800877F80936B
:10595000E8000E94DC2E8091370480938E010C9425
:10596000411E80913504813249F68091E800877F9D
:105970008093E8000E94DC2E809138048093E40339
:10598000089580913504813A09F0B8CF8091E800FC
:10599000877F8093E8008091E80080FFFCCF8091B2
:1059A000E403C2CF84B7877F84BF0FB6F894A8956D
:1059B00080916000886180936000109260000FBE4B
:1059C00080E880936100109261000E94A0180E94FC
:1059D0002A2F0E94872F8091E20084608093E2004A
:1059E00078940E9410320E94A41884E891E00E94EA
:1059F0004C1880913404853029F00E94B2180E941E
:105A0000CC15F7CF0E94B92580913204882389F301
:105A10000E94E825882369F30E94842DEACF0C9424
:105A2000112D292F33272330310579F158F42130F6
:105A30003105F1F02230310519F190E080E030E0DD
:105A400020E01AC021323105C9F122323105A9F70F
:105A50006430710590F7FB01EE0FFF1FEB5BFD4F0C
:105A6000208131816F5B7D4FFB01808190E004C01C
:105A700082E190E022EC36E0FA0131832083089540
:105A80008DE690E025E536E0F7CF99278130910546
:105A900079F040F08230910571F0039771F6EBE1F7
:105AA000F6E002C0E1E5F6E0849190E09F01E4CFEA
:105AB000E9E3F6E0F9CFE1E2F6E0F6CF6430710514
:105AC00008F0BBCF660F771FFB01E35BFD4F208122
:105AD000318189E090E0D0CF0895CF93C82F0E9404
