:100000000C94FF030C941C040C941C040C941C040E
:100010000C941C040C941C040C941C040C941C04E0
:100020000C941C040C941C040C94C82F0C949B304E
:100030000C942A260C941C040C941C040C941C0490
:100040000C941C040C941C040C941C040C941C04B0
:100050000C941C040C9492260C941C040C941C0408
:100060000C941C040C941C040C941C040C941C0490
:100070000C941C040C941C040C941C040C941C0480
:100080000C941C040C941C040C941C040C941C0470
:100090000C941C040C941C040C941C040C941C0460
:1000A0000C941C040C941C040C941C04076342362E
:1000B000B79BD8A71A39685618AEBAAB558C1D3CF9
:1000C000B7CC5763BD6DEDFD753EF6177231BF00BD
:1000D0000000803F05A84CCDB2D44EB93836A902F5
:1000E0000C50B9918688083CA6AAAA2ABE00000036
:1000F000803F606000600002E0616403E0006769C7
:10010000742070757368206F726967696E20484546
:1001100041440A0034313131313131313131313101
:100120003131313100636C6561720A006769742096
:10013000636F6D6D6974202D616D2022002D3E006E
:100140006572676F646F785F657A2F6576616E2080
:100150004020302E362E3131352D312D6737353553
:10016000316530006572676F646F785F657A2F65FF
:1001700076616E204020302E362E3131352D312DD6
:1001800067373535316530000000F0A145002B00A0
:10019000E101E100E00000001E00140004001D0069
:1001A000E30002581F001A0016001B00E20028009E
:1001B0002000080007000600E35C2C002100150069
:1001C000090019002E000158220017000A0005003E
:1001D00000002D002F002F02000026020000290041
:1001E000300030020000270200004C0023001C00F9
:1001F0000B0011000000E05C240018000D0010004E
:100200002102010025000C000E00360001572C00D1
:10021000260012000F00370002573300270013009A
:1002200033003800035734022A0031003400E5005F
:10023000045700000100010001000100010000005E
:1002400001000100010001000100010001000100A6
:1002500001000100DF5CC75C430040003D003A0044
:10026000C45CC85C440041003E003B00C35C01002C
:10027000450042003F003C000000C15C010001005D
:10028000000001000000C05C56005700000058004C
:100290000000010055005F005C00590000000100F3
:1002A000540060005D005A006200010053006100CC
:1002B0005E005B006300010001000100010001001D
:1002C0000100010001000100010001000100010026
:1002D0000100010001000100010000000100010017
:1002E0000100010001000000010001000100010007
:1002F00001000100010001000100010001000100F6
:100300000100E65C0100E25C01000100E45C010028
:10031000010001000100010001001705E15CE55C3E
:1003200000000100010001000000010000000100C8
:1003300001000100000001000000010001000100B7
:1003400001000100000001000100010001000100A6
:100350000100010001000100010001000100010095
:100360000100010001000100010001000100010085
:100370000100010001000100010001000100010075
:100380000100000001000100010001000100000067
:100390000100010001000100010001000100010055
:1003A0000100010001000100010001000100010045
:1003B0000100010001000100010001000100010035
:1003C0000100010001000100000001000100010026
:1003D0000000010000000100010001000000010018
:1003E0000000010001000100010001000000010007
:1003F00001000100010001000100010001000100F5
:1004000001000100010001000100010001000100E4
:1004100001000100010001000100010001000100D4
:1004200001000100010001000100000000000000C7
:10043000000000002A2B280000000000000000003F
:100440000000000000000029000000002C1E3420E5
:10045000212224342627252E362D3738271E1F200B
:100460002122232425263333362E37381F04050650
:100470000708090A0B0C0D0E0F1011121314151694
:100480001718191A1B1C1D2F3130232D3504050692
:100490000708090A0B0C0D0E0F1011121314151674
:1004A0001718191A1B1C1D2F3130354C0000000085
:1004B000000000000000000000000000000000003C
:1004C0000000000000000000000000000001010129
:1004D0000101010001010101000000000000000015
:1004E0000000000000000100010001010101010104
:1004F00001010101010101010101010101010101EC
:1005000001010101010101000000010100000000E2
:1005100000000000000000000000000000000000DB
:10052000000000000000000101010100000468015A
:10053000F000B40078005A007F3F1F643214643228
:1005400014783C1E1E140A05000000000001010181
:100550000101010101010202020202020202020380
:10056000030303030303030404040404040505054F
:10057000050506060606060707070708080808090E
:1005800009090A0A0A0A0B0B0B0C0C0C0D0D0D0EB7
:100590000E0F0F0F10101111111212131314141546
:1005A0001516161717181819191A1A1B1C1C1D1DB9
:1005B0001E1F1F202021222223242525262727280D
:1005C000292A2B2B2C2D2E2F2F3031323334353638
:1005D000363738393A3B3C3D3E3F40414243444642
:1005E0004748494A4B4C4D4F505152535556575816
:1005F0005A5B5C5E5F606263646667696A6C6D6EBD
:10060000707173747678797B7C7E80818384868830
:100610008A8B8D8F91929496989A9B9D9FA1A3A56A
:10062000A7A9ABADAFB1B3B5B7B9BBBDBFC1C4C668
:10063000C8CACCCFD1D3D6D8DADCDFE1E4E6E8EB28
:10064000EDF0F2F5F7FAFCFF0403300000001603AA
:100650004500720067006F0044006F0078002000C2
:1006600045005A00000016034500720067006F0045
:1006700044006F007800200045005A000000040389
:10068000090409026D00040100A0FA090400000138
:100690000301010009211101000122400007058129
:1006A0000308000A090401000103010200092111E5
:1006B000010001224D000705820308000A09040217
:1006C000000103000000092111010001223600078A
:1006D00005830308000A0904030001030000000960
:1006E00021110100012239000705840320000112B5
:1006F00001100100000008EDFE07130100010203D4
:100700000105010906A101050719E029E7150025E2
:1007100001950875018102050819012905950575DE
:100720000191029501750391010507190029F7153B
:1007300000250195F875018102C005010980A1011C
:1007400085021601002603001A81002A8300751015
:1007500095018100C0050C0901A101850316010066
:10076000269C021A01002A9C02751095018100C086
:1007700005010902A1010901A100050919012905C5
:10078000150025019505750181029501750381010B
:100790000501093009311581257F9502750881060B
:1007A00009381581257F950175088106050C0A38E1
:1007B000021581257F950175088106C0C0050109D4
:1007C00006A101050719E029E7150025019508751F
:1007D0000181029501750881010508190129059516
:1007E000057501910295017503910105071900290D
:1007F000FF150026FF00950675088100C000112432
:100800001FBECFEFDAE0DEBFCDBF12E0A0E0B1E067
:10081000E0E2FCE602C005900D92A635B107D9F7DB
:1008200024E0A6E5B2E001C01D92AD33B207E1F7C6
:100830000E94F52C0C940E360C94000080B38C7042
:1008400080BB81B3836F81BB089584B1807F84B9FD
:1008500085B1807F85B98AB1837F8AB98BB1837F67
:100860008BB93E9846980895CF93C82F873080F56E
:100870008091000190910101892B99F564E670E067
:1008800080E40E94BA059093010180930001892BB6
:10089000D1F464E670E082E10E940F0690930101BA
:1008A00080930001892B79F481E090E001C0880FEA
:1008B000CA95EAF764E670E080950E940F0690936F
:1008C00001018093000184E690E0CF910C946206D0
:1008D0008A30B9F040F4883071F0893079F0209A8C
:1008E0002898CF9108958C3091F070F08D30B9F741
:1008F0003E9A4698F6CF219A2998F3CF229A2A98C1
:10090000F0CF239A2B98EDCF529A5B98EACF539A67
:10091000FCCFCF93873008F042C0809100019091C6
:100920000101C0E0892B81F464E670E080E40E945C
:10093000BA059093010180930001892B41F0C0E03A
:1009400084E690E00E9462068C2FCF91089564E6C1
:1009500070E083E10E940F069093010180930001F3
:10096000892B69F764E670E081E40E94BA059093F0
:10097000010180930001892B11F784E690E00E9429
:100980003E0697FF05C09093010180930001D7CFE9
:10099000C82FC0951092010110920001D1CFCFB1A4
:1009A0008FB1869586958C73C3708C2BC82FC0959C
:1009B000CBCF08950C94D9040E94060790E0909341
:1009C0000101809300010E9425040E941E04EBEAAD
:1009D000F2E087E592E01192DC0126E01D922150C1
:1009E000E9F7069622E0E93BF207A9F70C9408091B
:1009F0000E94060790E090930101809300010E94FD
:100A000025040E941E04EBEAF2E0119282E0E93B29
:100A1000F807D9F7089596E0899FF0011124E95A63
:100A2000FD4F30E020E080E041E050E091919923DB
:100A300051F0DF01119791509C932F5F3F4F26306B
:100A40003105A1F70895BA01022E01C0660F0A947C
:100A5000EAF7862BF2CF96E0699FB001112430E0CF
:100A600020E090E04FE0FC01022E02C0F595E795F2
:100A70000A94E2F7E0FF06C0F901E60FF71FE95A12
:100A8000FD4F40832F5F3F4F2630310561F70895BA
:100A9000EF92FF920F931F93CF93DF93809100010A
:100AA00090910101892B91F0809156028F5F809384
:100AB000560281110BC00E94060790E0909301013D
:100AC00080930001892B11F40E94B0060BEA12E01A
:100AD000C0E08C2F0E94340487E0F82EFC0E8F2D8E
:100AE0000E9434048C2F0E940B05E82E8C2F0E944C
:100AF0008904F80191918F01DE2DD095D9238E21A3
:100B0000D82B6C2F892F8D270E942B05F801319748
:100B1000D0838F2D0E940B05E82E8F2D0E94890413
:100B2000F8019681DE2DD095D9238E21D82B6F2DFB
:100B3000892F8D270E942B05F801D6830E9425045A
:100B4000CF5FC73031F60E940A0981E0DF91CF9173
:100B50001F910F91FF90EF900895E82FF0E0E55579
:100B6000FD4F8081089508951092B9008CE0809324
:100B7000B8000895EF92FF920F931F93CF93DF93E6
:100B8000182FEB011092BC0084EA8093BC000E94F5
:100B90005C267C018091BC0087FF0DC08091B9006C
:100BA000887F8830D9F08091B900887F8031B1F09A
:100BB0008FEF9FEF0CC0CF3FDC0761F30E945C26F4
:100BC0008E199F098C179D0728F38EEF9FEFDF91F9
:100BD000CF911F910F91FF90EF9008951093BB005C
:100BE00084E88093BC000E945C268C018091BC004C
:100BF00087FF0AC08091B900887F883111F0803466
:100C0000B9F690E080E0E3CFCF3FDC0779F30E94B4
:100C10005C26801B910B8C179D0740F3D6CF0F935A
:100C20001F93CF93DF93EB018093BB0084E8809305
:100C3000BC000E945C268C018091BC0087FF11C023
:100C40002091B900287F81E090E0283211F490E0F3
:100C500080E0919581959109DF91CF911F910F913E
:100C60000895CF3FDC0741F30E945C26801B910B67
:100C70008C179D0708F38EEF9FEFEECF0F931F9316
:100C8000CF93DF93EC0184E88093BC000E945C2644
:100C90008C018091BC0087FF08C08091BB0090E070
:100CA000DF91CF911F910F910895CF3FDC0789F31A
:100CB0000E945C26801B910B8C179D0750F38EEFD2
:100CC0009FEFEECF0F931F93CF93DF93EC0184E957
:100CD0008093BC000E945C268C018091BC0084FD46
:100CE00007C090E080E0DF91CF911F910F910895B0
:100CF000CF3FDC0791F30E945C26801B910B8C1781
:100D00009D0758F38EEF9FEFEECF259A2D9A089509
:100D1000269A2E9A0895279A2F9A089556985E98A3
:100D2000089525982D98089526982E980895279827
:100D30002F9808950E948E060E9491060E949406A4
:100D40000C94970690E0909389008093880090938C
:100D50008B0080938A0090938D0080938C0008957F
:100D60000E949A068FEF0E94A2060E9485062FEF2E
:100D700080E792E0215080409040E1F700C0000001
:100D80000E9488062FEF80E792E02150804090403B
:100D9000E1F700C000000E948B062FEF80E792E091
:100DA000215080409040E1F700C000000E94910671
:100DB0002FEF80E792E0215080409040E1F700C0A3
:100DC00000000E9494062FEF80E792E021508040BF
:100DD0009040E1F700C000000E9497060C949A062C
:100DE00089EA8093800089E08093810024982C9880
:100DF0003F988AB18F7C8AB96E98479A8BB180638D
:100E00008BB9769A0E94B0060C948E0780E290E02F
:100E100090930101809300018091B90281110EC06D
:100E20000E94B40581E08093B9022FEF83ED90E337
:100E3000215080409040E1F700C0000064E670E07F
:100E400080E40E94BA059093010180930001892BF0
:100E500009F050C064E670E080E00E940F069093B5
:100E6000010180930001892B09F044C064E670E021
:100E700080E00E940F069093010180930001892B6E
:100E8000C9F564E670E08FE30E940F0690930101BC
:100E900080930001892B71F584E690E00E94620640
:100EA00064E670E080E40E94BA05909301018093AB
:100EB0000001892BF9F464E670E08CE00E940F06D3
:100EC0009093010180930001892BA1F464E670E006
:100ED00080E00E940F069093010180930001892B0E
:100EE00049F464E670E08FE30E940F0690930101DD
:100EF0008093000184E690E00E94620680910001E8
:100F00000895611108C0FC018281882321F084E6E4
:100F100091E00E94050990E080E008950895CF9344
:100F2000DF93EC01FB018281882309F44BC00E940E
:100F30005C269093BB028093BA02FE01EC5DFC45F7
:100F4000EB30F10508F04EC0E855F84F0C94C03571
:100F5000B307B907BE07C207CD07D007D307DF071E
:100F6000D607D907DC070E94212580E0DF91CF91C9
:100F7000089580E491E00E940509F7CF81E00E9486
:100F80009412F3CF0E94AA1282E00E9494124CE4C1
:100F90006FEA85E60E94CC10E8CF8DE391E0EBCFBD
:100FA0008CE291E0E8CF85E291E0E5CF84E191E049
:100FB000E2CF8EEF90E0DFCF87EF90E0DCCF85EFE0
:100FC00090E0D9CF8091BA029091BB020E9468262E
:100FD0008E37910538F0C33EDC4521F482EF90E076
:100FE0000E94050981E0C2CFCF92DF92EF92FF927B
:100FF000CF936B017C010E94D424C82F0E948E06DF
:101000000E9491060E9494060E949706C150C73024
:1010100078F4EC2FF0E0E15FF74F0C94C035160840
:1010200022082708200825082C082A080E9485067F
:10103000C701B601CF91FF90EF90DF90CF90089558
:101040000E9485060E948806F3CF0E9485060E94B2
:101050008B06EECF0E9485060E948806F8CF0F937C
:101060001F93CF93DF938C01EB019A9581159F41DC
:10107000B8F410FF03C080EEFB01099511FF03C017
:1010800081EEFE01099512FF03C082EEFE01099573
:1010900013FF03C083EEFE0109950115104128F4EA
:1010A000DF91CF911F910F91089584EEFE01099574
:1010B00085EEFE01099586EEFE01099587EEFE019B
:1010C000DF91CF911F910F910994877091E001C03A
:1010D000990F8A95EAF7892F0E94A9240C945F241E
:1010E0000C946508877091E001C0990F8A95EAF722
:1010F000892F0E94AF240C945F240C947208CF9324
:10110000DF93EC01805E9109089720F065E678E0B6
:10111000209711F460E778E0CE010E942F088C2F11
:10112000DF91CF910C94071ACF93DF93EC010E94CB
:10113000E81ACE01805E9109089720F062E778E016
:10114000209711F46DE778E0CE01DF91CF910C94F8
:101150002F0881E008950C948F07CF9390E0FC0155
:10116000E45DFB4FC49184559B4FFC01849188231F
:1011700069F081EE0E94071A8C2F0E94071A8C2FAB
:101180000E94E81A81EECF910C94E81A8C2F0E94ED
:10119000071A8C2FF8CFFF920F931F93CF93DF93F3
:1011A0008C01F62EF8018491882349F1E8012196FB
:1011B000813049F4FE011491812F0E94071A812F7A
:1011C0000E94E81A06C0823089F4FE0184910E94D0
:1011D000071A8E010F5F1F4F8F2D815018F3EFE913
:1011E000FFE03197F1F700C00000F7CF833019F42A
:1011F000FE018491E5CF0E94AD08E801EACFDF91BE
:10120000CF911F910F91FF90089560E00C94CB084F
:101210000C94F0060E9420180C94DA04282F2F70EA
:1012200041F0822F90E02A3010F44D9608950697F1
:10123000089587E290E0089508950C941C090C9499
:101240001D0908950E94641E0E9421092FEF84E366
:101250009CE0215080409040E1F700C000000C94D9
:10126000B826FF920F931F93CF93DF938C01FC015D
:10127000C081D18180911603811161C08281882350
:1012800009F458C0CE010E94AB23F82E682FCE017E
:101290000E944F23BE018F2D0E94100CEC01B8015B
:1012A0000E948217B801CE010E94AB08882309F47E
:1012B0000EC1B801CE010E94C617882309F407C1E8
:1012C000B801CE010E94810E882309F400C1B80143
:1012D000CE010E94D00E882309F4F9C0C93CFCE578
:1012E000DF0709F42DC108F061C0C13C9CE5D907B6
:1012F00009F4FEC0C8F5C531FCE5DF0728F5C230AA
:101300008CE5D80708F09BC1C1159CE5D90709F405
:10131000D9C0C130DC4509F4E1C081E08093C1024D
:101320008093C202C801DF91CF911F910F91FF906E
:101330000C94A908CE010E947F23F82EABCFCE01DA
:101340000E94AB23BE01A8CFC531FCE5DF0709F43D
:1013500046C2C03CDC4509F7F8018281882309F4C4
:10136000B6C00E943013B3C0F8018281C53CFCE5D1
:10137000DF0709F4D6C068F4C33CECE5DE0709F4E6
:10138000CBC008F4C0C0882309F4A1C00E94D111C9
:101390009EC0C73C9CE5D90709F4CDC008F4C6C07F
:1013A000882309F494C00E942C1291C0C13DFCE531
:1013B000DF0709F414C1F0F5F8018281CD3CFCE5AA
:1013C000DF0709F4D1C0D8F4CB3CECE5DE0709F423
:1013D000C4C008F4BCC0882309F479C00E947B1003
:1013E000623071058105910540F00E947B106530E7
:1013F00071058105910508F48CC082E0B2C0CF3C34
:101400009CE5D90709F4D7C008F4C1C0882309F4C2
:101410005EC00E947B10653171058105910540F029
:101420000E947B10673171058105910508F471C038
:1014300085E197C0C53DFCE5DF0709F4A4C1C0F410
:10144000F8018281C33DFCE5DF0709F4E3C008F43D
:10145000CDC0882309F477C11092C1020E945C2696
:101460009093BE028093BD0282E00E943C1B2FC07D
:10147000C93DECE5DE0709F4D2C0CA3DFCE5DF0753
:1014800009F4D6C0C63DDC4509F047CFF80182819A
:1014900081117DC18091C20281119FC18091BF02E3
:1014A0009091C0020E9468268D37910508F095C181
:1014B00080E20E94431B88E20E94071A88E20E9491
:1014C000E81A05C0F801828181110E94220980E09A
:1014D000DF91CF911F910F91FF900895F8018281C4
:1014E0008823A9F38091B50381608093B503EFCF82
:1014F000F8018281882359F30E949224827249F074
:101500000E94A112E4CF882311F30E9492248272D8
:10151000B9F30E949712DBCF8823C9F20E94B91158
:10152000D6CF8823A1F20E94F011D1CF882379F27F
:101530000E940212CCCF882351F20E941412C7CF0E
:10154000F8018281882319F20E948910C0CF882374
:1015500009F4BDCF0E949E10BACF882309F4B7CFFB
:1015600081E00E949412B3CF882309F4B0CF0E9487
:101570007B10663071058105910538F00E947B1063
:10158000683071058105910520F286E0EACF882355
:1015900009F49DCF0E947B1069307105810591058A
:1015A00040F00E947B106E3071058105910508F4B2
:1015B000B0CF89E0D6CF882309F489CF0E947B1071
:1015C0006F3071058105910540F00E947B106431F8
:1015D00071058105910508F49CCF8FE0C2CFF80119
:1015E0008281882309F473CF88E1BBCF882309F473
:1015F0006ECF0E947B10693171058105910540F025
:101600000E947B10623271058105910508F481CF3B
:1016100089E1A7CF882309F45ACF83E2A2CFF8014A
:101620008281882309F453CF80E00E94902D4FCF10
:10163000F8018281882309F44ACF82E0F6CFF801CD
:101640008281882309F46ECE0E944225811102C056
:101650000E9421250E94552590E090932F048093AD
:101660002E04FE01E350FC4580912E048160E2319E
:10167000F105C8F4E25CF44F0C94C035500B5C0BE0
:10168000600B640B680B6C0B700B740B780B7C0B92
:10169000800B840B880B8C0B900B940B980B9C0B82
:1016A00080912E04826080932E0480912E040E94EB
:1016B00059250E94641E0BCF80912E048460F3CFC5
:1016C00080912E048860EFCF80912E048061EBCF53
:1016D00080912E048062E7CF80912E048064E3CF56
:1016E00080912E048068DFCF80912E048460EACF41
:1016F00080912E048E7FD7CF80912E048D7FD3CF03
:1017000080912E048B7FCFCF80912E04877FCBCF0B
:1017100080912E048F7EC7CF80912E048F7DC3CF02
:1017200080912E048F7BBFCF80912E048F77BBCF0B
:1017300080912E048B7FEACF90912E04892F97FB06
:1017400087F98058B0CF0E94922485FF05C081E0C0
:101750008093C1028093C2028091C10281110FC0A7
:101760008091BD029091BE020E9468268D3791053E
:1017700030F486E20E94071A86E20E94E81A82E0AC
:101780000E94431BA4CEF8018281882351F010925D
:10179000C2020E945C269093C0028093BF0280E246
:1017A00064CE0E94922481FF05C081E08093C10233
:1017B0008093C2028091C20281110FC08091BF024A
:1017C0009091C0020E9468268D37910530F487E21F
:1017D0000E94071A87E20E94E81A80E2D1CF0E9495
:1017E0009224F8019281992381F08A7A91E009F498
:1017F00090E09093BC02811106C089E20E941B24F4
:101800000E945F2464CE85E3F9CF8091BC028111F0
:1018100004C089E20E942224F3CF85E3FBCF089520
:10182000972F70E026E0929F600D711D1124FB013F
:1018300094E5899FE00DF11D1124EE0FFF1FE45781
:10184000FE4F859194910895FC01EE0FFF1FE8571C
:10185000FE4F859194910895CF93DF930E94100CD1
:101860000E94DD0DEC018115904508F043C0C115C3
:1018700080E4D80708F013C1C83ED10528F5C03E62
:10188000D10508F0A7C0C83AD10580F4C53AD10502
:1018900008F096C0C130D10509F49CC020F0C430D6
:1018A000D10508F097C0D0E0C0E094C0CD3BD10591
:1018B00008F494C0CE01805C9109C03CD10598F336
:1018C0000E94240CEC0186C0C11520E2D20750F41E
:1018D000C11581E0D80708F07DC0C03FD10518F3DD
:1018E000D06578C0C11520E3D20708F0CEC0CE0184
:1018F0009F70E6CFC11585E5D80760F5C11524E5D1
:10190000D20708F0FAC0C11582E5D80750F4C11516
:1019100021E5D20708F4C6C0DC2FCC27C16FD06AFE
:1019200059C09C2F969596959E0123703327C1151B
:10193000D34508F0D3C0C1E0D0E002C0CC0FDD1F1A
:101940002A95E2F720E2929FC0011124C82BD92BDF
:10195000DC6840C0C1152AE5D207A0F4C11589E5AD
:10196000D80708F0D5C0C11526E5D20708F4CAC0CB
:10197000C11588E5D80708F496CFDC2FCC27C06FB7
:10198000D06A28C0C1152BE5D20708F48CCFC11549
:101990008CE5D80708F4C9C0CE0190568115904255
:1019A00008F081CF8D2F8F710E945D0EDD27D062F0
:1019B00090E0982F882788279F71C82BD92B0AC0C1
:1019C000C53AD10509F4B4C0C63AD10509F4B3C08B
:1019D000C3E8D0E4CE01DF91CF910895C83AD10594
:1019E00009F4ACC0C93AD10509F4ABC0CA3AD10573
:1019F00009F4AAC0CB3AD10509F4A9C0CC3AD10563
:101A000009F4A8C0CB3BD10509F4A7C0CC3BD10554
:101A100009F4A6C0CD3AD10509F4A5C0C03BD10553
:101A200009F4A4C0CE3AD10509F4A3C0CF3AD10538
:101A300009F4A2C0C13BD10509F4A1C0C23BD10544
:101A400009F4A0C0C33BD10509F49FC0C43BD10534
:101A500009F49EC0C53BD10509F49DC0C63BD10524
:101A600009F49CC0C73BD10509F49BC0C83BD10514
:101A700009F49AC0C93BD10509F499C0CA3BD10504
:101A800009F098C0CAE2D6E4A5CFCE019927D3FFCA
:101A900003C0EC01D86C9ECFEC01D06C9BCFDF7003
:101AA000D06A98CFCE01E4E096958795EA95E1F764
:101AB00083709C2F937021E030E002C0220F331F0F
:101AC0009A95E2F73C68382BC695C695C37080E2BC
:101AD000C89FE0011124C22BD32B7CCFC1E0D0E002
:101AE00002C0CC0FDD1F2A95E2F720E2929FC001D1
:101AF0001124C82BD92BDA686DCFDC2FCC27C46F0B
:101B0000D06A68CFDC2FCC27CC27DF71D06262CFC0
:101B1000CE0134E0969587953A95E1F78F70CF70B6
:101B2000C06ED0E0D06AD82B55CFDD27D06652CF1B
:101B3000C1E8D0E44FCFC2E8D0E44CCFC2EED4E449
:101B400049CFC9EED4E446CFCAEED4E443CFC5EBC7
:101B5000D4E440CFC6EBD4E43DCFC3EBD4E43ACFDA
:101B6000C4EBD4E437CFC7EBD4E434CFCCECD4E42B
:101B700031CFCDECD4E42ECFC3E8D5E42BCFCAE8E7
:101B8000D5E428CFC2E9D5E425CFC4E9D5E422CFF6
:101B9000C1E2D6E41FCFC3E2D6E41CCFC4E2D6E450
:101BA00019CFC5E2D6E416CFC6E2D6E413CFC7E21A
:101BB000D6E410CFC0E0D4E40DCF8238910549F1CE
:101BC000B0F48133910509F45CC048F48932910581
:101BD00009F452C08A32910509F458C0089585333A
:101BE000910509F444C08933910599F00895833E25
:101BF000910531F138F4803E910591F0823E9105D6
:101C0000B1F00895863E910511F1873E910541F1AD
:101C1000089520912E042370C9F080EE90E008957D
:101C200020912E0420FF12C089E390E008952091B6
:101C30002E0422FF0BC024FF2EC090E080E0089508
:101C400020912E0422FD2AC024FDF7CF0895209173
:101C50002E0423FFFBCF24FDF0CF87EE90E0089504
:101C600020912E0423FFF0CF86EE90E0089520917E
:101C70002E0425FD16C0089520912E0425FD14C0C4
:101C8000089520912E0426FD12C0089520912E045F
:101C900026FD10C0089583EE90E0089582EE90E056
:101CA000089589E290E0089585E390E008958AE23E
:101CB00090E0089581E390E0C9CF90912E0492FFC7
:101CC00006C0282F2871283069F4877F846093FF2D
:101CD00006C0282F2871283161F4877E846194FD25
:101CE000877E0895282F2471243089F78B7F8860A0
:101CF000EECF282F2471243191F78B7E8861EFCFAE
:101D000008950F931F93CF938C01FB018281811162
:101D100006C0C1E08C2FCF911F910F910895C09103
:101D2000D002C11125C006311C4599F70E94800ED2
:101D300081E08093D0020E945C269093CF02809332
:101D4000CE021092C3021092C5021092C4021092E9
:101D5000C7021092C6021092C9021092C8021092D5
:101D6000CB021092CA021092CD021092CC02D2CFB6
:101D70008091CE029091CF020E9468268C329140D1
:101D800040F68091C302E82FF0E0EE0FFF1FEC5306
:101D9000FD4F118300838F5F8093C302C0E0BACFF1
:101DA000CF93DF93EC01C13080E8D807C8F0FB0186
:101DB00082818823A9F08091D102811109C08CE031
:101DC00090E00E94C6350E94F40E81E08093D1021B
:101DD0000E94FB0ECE019F770E94C60F0E94780FD3
:101DE00081E0DF91CF9108958093D202682F8CE03B
:101DF00090E00C94DA35E0917D01F0917E018081D4
:101E00008093E60381FF03C081EE0E94E81A80916F
:101E1000E60385FF03C085EE0E94E81A8091E60381
:101E200080FF03C080EE0E94E81A8091E60384FFE1
:101E300003C084EE0E94E81A8091E60382FF03C08B
:101E400082EE0E94E81A8091E60386FF03C086EEC8
:101E50000E94E81A8091E60383FF03C083EE0E948C
:101E6000E81A8091E60387FF03C087EE0E94E81A14
:101E70008091D202823049F158F4882379F0813080
:101E800089F08FE39CE90197F1F700C00000089505
:101E9000843019F18530A9F786EE01C082EE0E94E8
:101EA000071AEFCF80EE0E94071A81EE0E94071AF0
:101EB00088E10E94071A88E10E94E81A81EE0E94D8
:101EC000E81A80EE0E94E81ADCCF82EE0E94071A20
:101ED00087E50E94071A87E5F5CF86EE0E94071A6C
:101EE00086EE0E94E81A88E10E94071A88E1EACF8C
:101EF0008091D202813009F443C0E0F18230D1F107
:101F00008530E1F18091E60381FF03C081EE0E94FC
:101F1000071A8091E60385FF03C085EE0E94071A29
:101F20008091E60380FF03C080EE0E94071A809133
:101F3000E60384FF03C084EE0E94071A8091E60343
:101F400082FF03C082EE0E94071A8091E60386FF9B
:101F500003C086EE0E94071A8091E60383FF03C048
:101F600083EE0E94071A8091E60387FF0EC087EE7A
:101F70000C94071A82EE0E94E81AC4CF86EEFBCFBB
:101F80008CE20E94071A8CE2F6CF0895EF92FF923E
:101F90001F93CF93DF937C01CCE0D0E0C7010C2EE0
:101FA00002C0969587950A94E2F7182F1F70812F2B
:101FB0000E940E090E94071A812F0E940E090E949A
:101FC000E81A2497CC3F8FEFD80741F7DF91CF91E4
:101FD0001F91FF90EF900895CF92DF92EF92FF92C2
:101FE0000F931F93CF93DF93E901662309F466C033
:101FF000E42EF12CEFEFF0E0E61BF109EE9D8001FD
:10200000EF9D100DFE9D100D1124212FE12FFF27B4
:10201000EE1AFF0A5CE3C52ED12CB6010E9498355A
:10202000FB01BC01E69EC001E79E900DF69E900D5F
:102030001124B6010E949835E230F10589F168F467
:10204000812F262F210F309781F0242F461B3197A7
:1020500061F080E020E040E008C0E430F10551F19B
:1020600028F1842F861B3597A1F7E42FF0E0E85B79
:10207000FA4F4491E22FF0E0E85BFA4F9491E82F99
:10208000F0E0E85BFA4FE49149839883EA83DF91BB
:10209000CF911F910F91FF90EF90DF90CF90089517
:1020A000862F810FE42F412F2E2FDFCFE42FE61B49
:1020B000842FF9CF842F462F410FD7CF842F242F81
:1020C000D4CF88E090E00C94CE35AB01BC0188E021
:1020D00090E00C94EC35E7EEF3E083E0808310921F
:1020E000E8038FEF82838383148260817181828110
:1020F00093810C9465106091E70360FF06C06695BC
:102100006F7370E090E080E0089560E070E0CB01D4
:1021100008958091EB0390E001968430910514F0CE
:1021200083E090E08093EB036091E7037091E80314
:102130008091E9039091EA030C9465108091EB0380
:102140008150990B97FF02C090E080E084309105A8
:1021500014F083E090E08093EB036091E7037091CB
:10216000E8038091E9039091EA030C946510809153
:10217000E703ECEEF3E080FF06C06FE070E08CEE6A
:1021800093E00C94B216118210821282349684E08D
:10219000E832F807C1F7F1CF9091E70390FF0CC048
:1021A000ECEEF3E0818360834283349694E0E8327E
:1021B000F907C1F70C94B7100895CF93DF9300D0BF
:1021C00000D0CDB7DEB72091E70320FF0AC09E0103
:1021D0002F5F3F4F0E94EC0F4B8169818A810E94E3
:1021E000CC100F900F900F900F90DF91CF9108952A
:1021F0003F924F925F926F927F928F929F92AF9297
:10220000BF92CF92DF92EF92FF920F931F93CF93E3
:10221000DF9300D000D0CDB7DEB78C01462E542E10
:10222000322E8091E70380FF30C0982F9E77923046
:1022300009F041C09E012F5F3F4FC8010E94EC0F83
:102240004B8169818A810E94CC108091E70300FB59
:1022500087F98093E703902F96958091E803807823
:10226000892B10FB87F98093E8034092E903509291
:10227000EA03332051F06091E7037091E803809105
:10228000E9039091EA030E9465100F900F900F9060
:102290000F90DF91CF911F910F91FF90EF90DF9002
:1022A000CF90BF90AF909F908F907F906F905F90F6
:1022B0004F903F900895E82FE695EF739EE39E0FB1
:1022C0009F73943018F45090EA03BFCF9AE39E0FA7
:1022D0009F73993068F4881F8827881F9091E803BE
:1022E000292F220F022F082B97FB112710F9ADCFB2
:1022F00087E28E0F8F738A3008F0A7CFE951FF0B6A
:102300002FEFE0FF21E0EE7FE25DFA4F859194919F
:102310006FE070E00E94983526033001279F700C13
:102320001124680188E9C81A8EEFD80A8CEEE82ECD
:1023300083E0F82E98E2A92E94E0B92E28E6822EAA
:1023400099249394C601B4010E9498359701452DB4
:10235000642D0E94EC0FC60CD71C84E0E80EF11C23
:10236000AE14BF0479F70E94B7106FCF21E00C9430
:10237000F810E7EEF3E02081221F2227221F309180
:10238000E803432F440F842F822B37FB992790F9C2
:102390000C9668E671E00E94AC35438162810C9432
:1023A000B6112091E703221F2227221F3091E80354
:1023B000432F440F842F822B37FB992790F98C30C1
:1023C000910540F4845A9E4F4091EA036091E903DD
:1023D0000C94B6110C9768E671E00E94AC35F4CF0E
:1023E000E7EEF3E08081881F8827881F9091E8033B
:1023F000292F220F97FB992790F943816FEF822BAA
:102400000C94B611E7EEF3E08081881F8827881FBF
:102410009091E803292F220F97FB992790F9438188
:1024200060E0822B0C94B6114091EA03443F90F493
:10243000445F8091E703881F8827881F9091E803F5
:10244000292F220F97FB992790F96091E903822B9E
:102450000C94B6114FEFEDCF4091EA034C3090F061
:102460004C508091E703881F8827881F9091E803CC
:10247000292F220F97FB992790F96091E903822B6E
:102480000C94B61140E0EDCF20E00C94F810909140
:10249000E70390FF48C09178811128C09260909323
:1024A000E703662351F06091E7037091E8038091A0
:1024B000E9039091EA030E9465108091E703282FB9
:1024C0002E772230D9F41092F002881F8827881FB7
:1024D0009091E803292F220F97FB992790F94091BB
:1024E000EA036091E903822B0C944412853210F0C8
:1024F0009864D5CF8F73880F982BD1CF982F96954E
:102500009F733EE3390F3F73373120F0263411F0CB
:10251000283421F491E09093F002D7CF995D9F7316
:102520009A3098F6D0CF089561E00C9447128091CC
:10253000E70386958F738F5F853208F081E00C94F6
:1025400094128091E70386958F73815009F484E299
:102550000C949412E7EEF3E080818160808386958D
:102560008F730C94941260E00C9447128091B50321
:1025700081608093B5030E944225811104C00E94AE
:1025800021250E946B100E9461106093E7037093F5
:10259000E8038093E9039093EA036E7761F40E9465
:1025A0006B100E9461106093E7037093E8038093BF
:1025B000E9039093EA0381E08093F0028091E703BE
:1025C00080FF04C086958F730C94B3120895909188
:1025D000E70390FF0DC02F3058F494E0299FF001DD
:1025E0001124E451FC4F8183608342830C94B71023
:1025F00008951F93CF93DF9300D000D0CDB7DEB7FF
:10260000122F2091E70320FF0BC09E012F5F3F4F49
:102610000E94EC0F212F4B8169818A810E94E71271
:102620000F900F900F900F90DF91CF911F91089511
:10263000E7EEF3E080818E7F80836081718182810B
:1026400093810E9465101092F0022FEF80E792E0D4
:10265000215080409040E1F700C000000C94B7107A
:102660008091E70380FD0C9418130C94AA12CF9369
:10267000C82F8091EE029091EF020E946826EC2F05
:10268000F0E0EC5BFA4FE491E817190611F008F05E
:1026900042C00E945C269093EF028093EE0260910C
:1026A000ED0270E090E080E00E94993320E030E09D
:1026B0004FE753E40E94BC322BED3FE049E450E485
:1026C0000E94C2340E942F350E9436332BE43AE335
:1026D0004EE25FE30E944F3220EF3BEF48ED52E4C1
:1026E0000E94C2340E946833462F8091E703881FFE
:1026F0008827881F9091E803292F220F97FB99279D
:1027000090F96091E903822B0E94DD108091ED0227
:102710008F5F8093ED02CF910895CF93C82F809162
:10272000EB029091EC020E946826EC2FF0E0EF5B48
:10273000FA4FE491E817190609F0E8F40E945C26C4
:102740009093EC028093EB024091EA036091E903DD
:102750008091E9029091EA020E94DD108091E902E5
:102760009091EA02019668E671E00E949835909394
:10277000EA028093E902CF910895CF92DF92FF920F
:102780000F931F93CF93DF93F82E8091E7029091E0
:10279000E8020E946826EF2DE695F0E0E25CFA4F31
:1027A000E491E817190609F0A8F50E945C269093B9
:1027B000E8028093E7020CEE13E0D0E0C0E088E688
:1027C000C82EDD24D3948091E5029091E6028C0F0F
:1027D0009D1FB6010E94983598014091EA036091CF
:1027E000E9030E94EC0F68960C5F1F4FC83681E02A
:1027F000D80749F70E94B7108091E5029091E60250
:10280000F0FE10C00196BE010E9498359093E6023A
:102810008093E502DF91CF911F910F91FF90DF90A0
:10282000CF9008950197F2CFCF92DF92EF92FF926F
:102830000F931F93CF93DF93C82FFF24FA9480FD4B
:1028400002C0FF24F3948091E3029091E4020E947D
:102850006826C695EC2FF0E0E55CFA4FE491E817A6
:10286000190611F008F051C00E945C269093E40212
:102870008093E3020CEE13E0D0E0C0E0F801118297
:102880001082128294E0C92ED12CE12C8091E202B8
:102890008E0D87FD815F082E000C990BC817D90794
:1028A000E9F48091EA038C9DA0018D9D500D1124C7
:1028B00055954795559547958091E703881F88273B
:1028C000881F9091E803592F550F97FB992790F98E
:1028D00098016091E903852B0E94EC0FEF0CF1E069
:1028E000CF1AD10899F621960C5F1F4FCF30D10532
:1028F00029F60E94B7108091E20291E0F91210C00F
:1029000081110CC08EE08093E202DF91CF911F9184
:102910000F91FF90EF90DF90CF9008958150F3CF0B
:1029200090E00196BE010E94AC35EDCF0F931F934E
:10293000CF93DF93C82F8091E0029091E1020E9433
:102940006826EC2FF0E0E85CFA4FE491E8171906EE
:1029500011F008F052C00E945C269093E10280932F
:10296000E002CCEED3E0FE01118210821282349696
:1029700084E0E832F807C1F710E000E08091DF0260
:10298000082E000C990B08171907E4F180917B01C0
:10299000082E000C990B80179107A4F18091E70392
:1029A000881F8827881F9091E803592F550F97FBA0
:1029B000992790F99E014091EA036091E903852BE4
:1029C0000E94EC0F0F5F1F4F24960F301105B1F6D8
:1029D0000E94B71080917A019091DF02980F909336
:1029E000DF0220917B01280F20937B01121614F443
:1029F0009E301CF0819580937A01DF91CF911F91D9
:102A00000F910895198218821A82DCCFEF92FF92FB
:102A10000F931F93CF93DF938091DD029091DE029D
:102A20000E946826883E9340C8F10E945C269093DD
:102A3000DE028093DD02C091DB02D091DC022196A0
:102A4000C170DD27D093DC02C093DB028CEEE82E50
:102A500083E0F82E10E008E7812F86958C0F9D2FDC
:102A6000911D8170992797014091EA036091E903D4
:102A7000FC010E9FC0010F9F900D11240E94EC0FCE
:102A80001F5FF4E0EF0EF11C1F3031F7DF91CF91A3
:102A90001F910F91FF90EF900C94B710DF91CF91A1
:102AA0001F910F91FF90EF900895CF93DF9300D087
:102AB00000D0CDB7DEB78091D9029091DA020E94A2
:102AC0006826ECE2F5E02591349182179307B8F17E
:102AD0008091D80281110CC09E012F5F3F4F4FEFB4
:102AE0006FEF90E080E00E94EC0F8A818093D80223
:102AF0000E945C269093DA028093D9028091D702DB
:102B0000813069F038F04091D802823009F040E01D
:102B100080E003C08091D80240E060E004C0609192
:102B2000D80240E080E00E94CC108091D70290E073
:102B3000019663E070E00E94AC358093D7020F905D
:102B40000F900F900F90DF91CF910895CF93DF9367
:102B50008091D5029091D6020E946826843F9140D0
:102B6000B8F10E945C269093D6028093D502D0E003
:102B7000C0E04091D3025091D4022C2F6091E90320
:102B80008091E703382F331F3327331F9091E803D9
:102B9000892F880F832B97FB992790F9C730D10590
:102BA000D4F4452BD1F04091EA030E94F91221960A
:102BB000CF30D105F1F60E94B7108091D3029091E9
:102BC000D4020196817099279093D4028093D30206
:102BD000DF91CF910895452B31F340E0E6CF80910E
:102BE000F0028823D1F19091E703892F86958F73A6
:102BF0002EE3280F2F73243018F482500C943713CF
:102C00002AE3280F2F73233018F486500C948D1369
:102C100027E3280F2F73263018F489500C94BD1326
:102C200021E3280F2F73263018F48F500C941414BE
:102C30002BE2280F2F73233018F485510C9496142F
:102C40009E77903311F40C940615963411F40C947D
:102C50005515983411F40C94A61508958823B9F0ED
:102C60005198599A5098589A95E09A95F1F7000022
:102C7000509A589895E09A95F1F70000882311F042
:102C8000519A599885E08A95F1F700000895519A74
:102C90005998E8CF8BB18C7F8BB95098589A51983E
:102CA000599A85E08A95F1F7000008958AB18C7FE2
:102CB0008AB985E08A95F1F70000519A599885E024
:102CC0008A95F1F70000509A589885E08A95F1F7B7
:102CD000000008955098589A85E08A95F1F7000011
:102CE0005198599A85E08A95F1F700000895CF939D
:102CF000DF93D82FC8E08D2F80780E942E16DD0F2D
:102D0000C150C9F780E00E942E1685E08A95F1F740
:102D1000000085E08A95F1F7000080E0DF91CF9117
:102D200008953BB1242F209523233BB1432B3FB77C
:102D3000F894FC01680F791FE617F70711F43FBFFD
:102D40000895819198E04BB9000000C087FF2BB92E
:102D5000880F000000C000C000C02BB900C09A95C9
:102D600091F7EACFAF92BF92CF92DF92EF92FF92AC
:102D70000F931F93CF93DF938C01EB01CFB6D090CD
:102D8000BC00F8948091BC008B7F8093BC000E94B3
:102D90004A160E94561684E80E947716CC0FDD1F53
:102DA000CC0FDD1F78015E01A00EB11EEA14FB04FA
:102DB000A9F40E946A16CFBED092BC00579A40E890
:102DC000BE01C801DF91CF911F910F91FF90EF904D
:102DD000DF90CF90BF90AF900C949116F701819146
:102DE0007F010E947716E2CFCF93DF93EC0181E061
:102DF0008F878F810E94952488850E94A9240E9434
:102E00005F24EA81FB816A897B89CE01069630972F
:102E100019F0DF91CF910994DF91CF910895CF936D
:102E2000DF93EC018881823039F4FB018281938148
:102E30000E947F0881E08987DF91CF910895FC018E
:102E40008081813029F4FB01808191810C947F087D
:102E5000823021F4FB0182819381F8CF0895FC0137
:102E60008081813029F4FB01808191810C94940848
:102E7000823021F4FB0182819381F8CF0895EF9293
:102E8000FF920F931F93CF93DF93EC0188858111FD
:102E900032C0EB80FC8087E5F81A24E12E9DC0014A
:102EA0002F9D900D1124DC01AE5FBE4F1496ED9165
:102EB000FC91159752966D917C91885F9E4F30974B
:102EC00009F0099584E18E9D80018F9D100D1124DC
:102ED0000E5F1E4FF80187810E949B24F8018085B8
:102EE0000E94AF240E945F2418821F8219861092CC
:102EF000F2021092F102DF91CF911F910F91FF909A
:102F0000EF900895DF92EF92FF920F931F93CF936C
:102F1000DF937C01FB018281882391F080917C0109
:102F20008F3F71F0C2E0D1E010E000E0DD24D394E7
:102F300080917C01082E000C990B8017910744F4B6
:102F4000DF91CF911F910F91FF90EF90DF90089547
:102F50008E818823B9F089859A858E159F0539F46D
:102F60008091F1029091F202E816F90659F0DD869F
:102F70008F85811103C0CE010E94F416CE01069602
:102F80000E943F170F5F1F4F6496D2CFEF92FF92C0
:102F90000F931F93CF93DF937C0197558F3F91053C
:102FA00009F0D8F520917C01022E000C330B281774
:102FB000390714F480937C01FB01228134E1389FAE
:102FC0008001399F100D1124E801CE5FDE4F2E875E
:102FD00092818E81992349F1FA86E9868F5F8E83EB
:102FE0000E945C269C878B870E94D1248F830E943D
:102FF000922488870E94A6249885892B8887E88157
:10300000F9816A897B89C801885F9E4F309709F0F2
:103010000995F092F202E092F10281E0DF91CF9106
:103020001F910F91FF90EF9008958823B1F38F8542
:10303000882399F3C801885F9E4F0E943F17EDCF08
:10304000EF92FF920F931F93CF93DF9380917C01B8
:1030500010E004E18F3FC1F5DF91CF911F910F91F7
:10306000FF90EF900895029FF001039FF00D11244F
:10307000EE5FFE4FE088F188E114F10419F48DE76A
:10308000E82EF12C029FE001039FD00D1124CE5FAA
:10309000DE4F8E818823B9F08B859C850E9468263F
:1030A000E816F90680F4109F700111248F858111B4
:1030B00005C0C7018E5F9E4F0E94F416C701885F4E
:1030C0009E4F0E943F171F5F212F30E080917C01AF
:1030D000082E000C990B821793072CF6BDCF909306
:1030E000F8028093F7020895E091F702F091F80258
:1030F000309721F00190F081E02D099480E008954F
:10310000E091F702F091F802309721F00280F3810C
:10311000E02D09940895E091F702F091F8023097BC
:1031200021F00480F581E02D099408952091F502A5
:103130003091F6022817390771F09093F6028093C8
:10314000F502E091F702F091F802309721F0068045
:10315000F781E02D099408952091F3023091F40253
:103160002817390771F09093F4028093F302E091ED
:10317000F702F091F802309721F00084F185E02DFC
:103180000994089508950C94C21881E008950E944E
:10319000532685B7806885BF85B7806885BF0E9444
:1031A000DC040E94EA260C94B612BF92CF92DF9202
:1031B000EF92FF920F931F93CF93DF93CDB7DEB7BC
:1031C0002A970FB6F894DEBF0FBECDBF0E94480508
:1031D0000E94C518882309F471C08AEFC82E82E0C6
:1031E000D82E10E000E0B02E802F0E94AD05E82E12
:1031F000F601F1906F01F81609F45AC08091B503F9
:1032000081FD0E94B30590E080E0FE242F2D30E088
:10321000482FB901082E02C0759567950A94E2F708
:1032200060FF41C08E83BF8281E090E06C0102C0EC
:10323000CC0CDD1C4A95E2F72E2D30E02C213D21EF
:10324000232B09F480E088870E945C268160782F18
:103250009A8789874E815F8168858A850E94B71920
:10326000F801E650FD4F80818C2580830E947D28E7
:103270000E9474189091F902891789F10E947418BC
:103280008093F9022A960FB6F894DEBF0FBECDBF29
:10329000DF91CF911F910F91FF90EF90DF90CF9032
:1032A000BF900C941F0901968630910509F0B0CFAC
:1032B0000F5F1F4F0E30110509F095CF8FEF8983F7
:1032C0008A831B820E945C268160782F9D838C8379
:1032D00049815A816B818D810E94B719C7CF2A9687
:1032E0000FB6F894DEBF0FBECDBFDF91CF911F9117
:1032F0000F91FF90EF90DF90CF90BF900895CF9304
:10330000DF93DC018C91682F70E021E030E001C098
:10331000220F8A95EAF711964C91119750E0EA0135
:10332000C85FDC4F988112968C9112978823C9F060
:10333000809118038823C1F086E0849FF001859F67
:10334000F00D1124E60FF71FEE0FFF1FE157FE4FA0
:10335000408151814D935C93292B2883DF91CF913C
:103360000895892F8223E6CF20952923F6CFCF9386
:10337000DF93CDB7DEB72B970FB6F894DEBF0FBE45
:10338000CDBF942F4F83252F588769877A878B87E6
:103390004A855B8581E0452B31F02F3F19F481E0B0
:1033A0009F3F09F080E080FD04C0CE0107960E9497
:1033B0007F191E821D8285E0FE013796DE0111967F
:1033C00001900D928A95E1F749815A816B817C8148
:1033D0008D819E810E9424212B960FB6F894DEBF2A
:1033E0000FBECDBFDF91CF910895FC018081918107
:1033F0000E94ED2392959F70963041F480911803BE
:1034000091E0892780931803909317030895CF9331
:10341000C82F882309F4DAC08238C1F40E947418D6
:1034200081FDD4C089E30E941B240E945F242FEFFA
:1034300081EE94E0215080409040E1F700C0000010
:1034400089E30E942224CF910C945F248338A1F455
:103450000E94741880FDBAC083E50E941B240E945C
:103460005F242FEF81EE94E0215080409040E1F7FF
:1034700000C0000083E5E5CF8438A1F40E947418F1
:1034800082FDA4C087E40E941B240E945F242FEFCA
:1034900081EE94E0215080409040E1F700C00000B0
:1034A00087E4CFCF8CEF8C0F813A48F48C2F0E94A9
:1034B0009C2A81118BC08C2F0E941B24C4CF80E2D8
:1034C0008C0F883048F4C77081E001C0880FCA951E
:1034D000EAF70E949524B7CF8BE58C0F833068F410
:1034E00081E890E0C53A31F083E890E0C63A11F403
:1034F00082E890E0CF910C94961888E58C0F853186
:1035000008F05EC082EE90E0C83A09F456C089EE39
:1035100090E0C93A09F451C08AEE90E0CA3A09F441
:103520004CC085EB90E0CB3A09F447C086EB90E0C5
:10353000CC3A09F442C083EB90E0CB3BF1F184EB51
:1035400090E0CC3BD1F187EB90E0CD3AB1F18CEC3F
:1035500090E0C03B91F18DEC90E0CE3A71F183E8C0
:1035600091E0CF3A51F18AE891E0C13B31F182E933
:1035700091E0C23B11F184E991E0C33BF1F081E2BB
:1035800092E0C43BD1F083E292E0C53BB1F084E22B
:1035900092E0C63B91F085E292E0C73B71F086E293
:1035A00092E0C83B51F087E292E0C93B31F090E0F5
:1035B00080E0CA3B11F48AE292E0CF910C94AC18FF
:1035C000C03F20F08C2FCF910C948627CF91089587
:1035D000882309F450C0823871F40E94741881FF66
:1035E0004AC089E30E941B240E945F2489E30E9451
:1035F00022240C945F24833859F40E94741880FFAD
:103600003AC083E50E941B240E945F2483E5EFCF2C
:10361000843859F40E94741882FF2DC087E40E94F8
:103620001B240E945F2487E4E2CF9CEF980F913A1D
:10363000F0F290E2980F983050F4877091E001C05A
:10364000990F8A95EAF7892F0E949B24D2CF9BE598
:10365000980F933020F490E080E00C94961898E551
:10366000980F953120F490E080E00C94AC18803FE6
:1036700010F00C94EE270895882321F00E949524E1
:103680000C945F240895882321F00E949B240C94BD
:103690005F2408958F929F92AF92BF92DF92EF9234
:1036A000FF920F931F93CF93DF937C01D62FC72FE9
:1036B000FC01058102950F70128111110E94B7243F
:1036C0000E945824D82E882371F0112331F180E212
:1036D0008D0F883010F182E00E9442240E9458240D
:1036E00091E0D82ED926BC2EB2949FE0B922EB2DC2
:1036F000F0E0E358F44E0C94C0358F1B8F1BDF1B9A
:10370000DF1B1F1C471CB61D261C891C261C241DE4
:10371000241DAD1D261C261CE81DD12CE4CF0C2F2A
:103720000F70C07F11F00295007F1123A9F00023D4
:1037300059F080E28D0F883010F0D11109C0802F30
:103740000E9495240E945F248D2F0E94071A14C0A6
:10375000802F0E94A924F6CF8D2F0E94E81A002303
:1037600059F080E28D0F883010F0D11124C0802FE5
:103770000E949B240E945F24DD2009F454C20E9411
:10378000352480FD50C2F70112820E942F240E942E
:10379000B322C7010E941F1E0E942F24DF91CF91E8
:1037A0001F910F91FF90EF90DF90BF90AF909F908F
:1037B0008F900C94D422802F0E94AF24DBCFFC2F5B
:1037C000FF70BF2EC07FC03219F0B29480EFB822D4
:1037D000DD2339F0D13019F1112359F1002321F102
:1037E000B3CF112381F0011106C00E94D1248B298F
:1037F0000E943C1BC1CF0130C1F70E94D1248B290C
:103800000E94CB24B9CF011106C00E94CE248B2D7B
:103810000E94431BB1CF013009F4AECFF6CF112384
:1038200029F0023008F0A8CF8B2DE2CF0111A4CFF0
:10383000EECF002361F38D2F0E94E81A9DCF8C2FCD
:1038400086958695837079F08130B9F0F8E0BF16DF
:1038500009F49BC0BF1608F48FCF86EF8B0D823022
:1038600008F493C089CF8D2F9C2F9370111102C043
:1038700090E080E00E9496187FCF8D2F9C2F937050
:10388000111102C090E080E00E94AC1875CF1123A6
:1038900009F1D53F99F0D63FB9F0D43F49F4809172
:1038A000280490912904816090932904809328042E
:1038B0008D2F0E9486270E9472285ECF8091280457
:1038C000909129048260F0CF80912804909129047E
:1038D0008460EACFD53F89F0D63FA9F0D43F49F4C0
:1038E00080912804909129048E7F909329048093DD
:1038F00028048D2F0E94EE27DECF8091280490911E
:1039000029048D7FF2CF80912804909129048B7F28
:10391000ECCF8C2F837009F04BC0111136C02D2FC6
:10392000229526952770220F220F6D2F6F70862EFD
:10393000912CB12CA12C022E04C0880C991CAA1C1D
:10394000BB1C0A94D2F760E070E0CB01D4FF0FC03B
:103950006FE070E080E090E004C0660F771F881F82
:10396000991F2A95D2F76095709580959095C69588
:10397000C695C370C23071F0A0F4682979298A29EC
:103980009B29C13091F00E9467220E9474180E9406
:103990001F09F2CE682979298A299B290E94792258
:1039A000F4CF0E946722C501B4010E945522EDCFD9
:1039B0008695112311F08C2F8170882331F32D2FE0
:1039C000229526952770220F220F6D2F6F70862E5D
:1039D000912CB12CA12C022E04C0880C991CAA1C7D
:1039E000BB1C0A94D2F760E070E0CB01D4FF0FC09B
:1039F0006FE070E080E090E004C0660F771F881FE2
:103A0000991F2A95D2F76095709580959095C695E7
:103A1000C695C370C23051F080F4682979298A298B
:103A20009B29C13071F00E942A23AFCF68297929E0
:103A30008A299B290E943C23A8CF0E942A23C501E2
:103A4000B4010E941823A1CFE0E2ED0FE53108F0A8
:103A500065C0F0E0E25DF24E0C94C035431D431D9D
:103A6000431D431D431D431D431D431D431D431D56
:103A7000431D431D431D431D431D431D541D611D17
:103A8000681D6F1D791DDF708C2F8F71112331F030
:103A90000E94B3228D2F0E943C1BD8CE0E94D422BC
:103AA0008D2F0E94431BD2CE112339F00111CECEAF
:103AB0008C2F8F710E94F722C9CE023008F0C6CE3B
:103AC000F7CF8C2F8F71112339F00E94B322BECE15
:103AD0008C2F8F711123C9F30E94D422B7CE1123EA
:103AE00029F08C2F8F710E949E22B0CE0E949922C5
:103AF000ADCE112349F0CF718C2F0E94B32263E029
:103B00008C2F0E943924A2CE81E00E9442240230F0
:103B100008F49CCE82E00E94422498CE112349F002
:103B2000002321F08D2F0E94071A90CE8C2F8F71C9
:103B3000CCCF002379F0D93349F42FEF87EE93E00F
:103B4000215080409040E1F700C000008D2F0E947E
:103B5000E81A7CCE8C2F8F71BFCF4C2F4F706D2FFA
:103B6000C7010E9481070E94CD2106CED23F71F18C
:103B7000C8F4D03F01F1D13FB9F180911703002380
:103B800009F446C0882341F08091180391E0892709
:103B900080931803109217038D2F112389F10E942F
:103BA000071A16C0D43FD9F078F0D53F31F711117C
:103BB0000FC081E006C0112359F08091180391E0F5
:103BC00089278093180304C081E0182710931803F5
:103BD0004C2F4F706D2FC7010E940F0C37CE111163
:103BE000F7CF10921803F4CF112339F08091170307
:103BF000882319F310921703EBCF0023F1F2E8CFDB
:103C00000E94E81A86E0F70111928A95E9F7E0CF61
:103C10008823F1F21111DCCF8091180391E08927FC
:103C200080931803E7CFDF91CF911F910F91FF9001
:103C3000EF90DF90BF90AF909F908F9008950F937B
:103C40001F93CF93DF93EC01988189812B813C8175
:103C5000232B39F08F3F19F481E09F3F19F080E06A
:103C600001C081E080FD17C0CE010E943109882388
:103C700091F0688179818A810E94F7238C010E94EA
:103C80004E230E945222B801CE01DF91CF911F91A5
:103C90000F910C944A1BDF91CF911F910F910895C2
:103CA0000E94B7240E94C8240E9429240E945F24F5
:103CB0000E9411290E94722890E080E00E949618CC
:103CC00090E080E00C94AC180E94A3240C94501E49
:103CD0000E94ED23E92FE295EF70E250EE30E0F420
:103CE000F0E0EB58F14E0C94C035831E831E8C1E01
:103CF0008C1E8E1E8C1E8C1E8C1E831E831E931E7D
:103D00008C1E8C1E931E803F19F020F4803E20F400
:103D100081E00895843FE1F380E00895803EC0F3A0
:103D2000813FD1F7F5CF93FB882780F90895CF9392
:103D3000DF9300D000D01F92CDB7DEB70F900F9069
:103D40000F900F900F90DF91CF910895CF93DF9355
:103D500000D000D000D0CDB7DEB726960FB6F894CD
:103D6000DEBF0FBECDBFDF91CF9108951F93CF93DC
:103D7000DF93C091190316E080911A038C1304C0DD
:103D8000DF91CF911F910895D0E01C9FF0011D9FFE
:103D9000F00D1124E55EFC4F4081518162817381F9
:103DA000848195810E94A61E2196C770E5CF40911F
:103DB0004B0350914C0360914D0370914E038091E1
:103DC0004F03909150030C94A61E1F93CF93DF9343
:103DD00080915003807FD1F480914D038823B1F00E
:103DE00080911903D0911A03B0914B03C0914C03F9
:103DF00040914E0350914F03A1E0BF3F09F0A0E076
:103E0000BA016095709516E0D81304C0DF91CF9188
:103E10001F91089521E04115510521F02A2FCF3F30
:103E200009F020E090E020FD38C0189FF001199FB4
:103E3000F00D1124E55EFC4F21812C132EC0208152
:103E40002B132BC02281211128C0238134812417F8
:103E5000350700F1241B350B2D373105F0F4209187
:103E600050032F7020612093500326E0289FF0011B
:103E7000299FF00D1124E05EFC4F80818F708061DE
:103E800080838BE493E00E941F1EDF91CF911F91EE
:103E90000C94B61E260F371FDFCF01968770B4CF64
:103EA000AF92BF92CF92DF92EF92FF920F931F9348
:103EB000CF93DF93CDB7DEB761970FB6F894DEBF2F
:103EC0000FBECDBF8C0185E0F801DE011D9601908B
:103ED0000D928A95E1F7D8014C9111965C9111975A
:103EE0001296EC9030914B0360914C0380914E03FD
:103EF00090914F0321E0009731F06F3F19F421E0DA
:103F00003F3F09F020E0B22FB170BB2E20FD80C1F1
:103F1000F801C380D480A0904D03AA2009F427C1E2
:103F2000C816D906D0F1D601A81BB90BCD01FF24C4
:103F3000F3948D37910508F0F12C80915003982F60
:103F4000907FFF2009F4CEC0911187C0FE2C65132D
:103F500029C0341327C0E11025C08F708061809381
:103F600050030E94D71E8BE493E00E941F1E809195
:103F70005003F80185838F2D61960FB6F894DEBF4C
:103F80000FBECDBFDF91CF911F910F91FF90EF90AA
:103F9000DF90CF90BF90AF900895809590958C0D55
:103FA0009D1DC5CF81E0CD2831F05F3F19F481E040
:103FB0004F3F09F080E080FD24C081E08E25F82F7E
:103FC000F170DF2E80FF3FC08091190320911A030A
:103FD00036E0821318C04D875E878D859E850E94CE
:103FE000ED23292F22952F70223008F1243030F54F
:103FF0009F7009F1D80115969C91907FE1F4FB2CFC
:10400000BACF80E0DCCF90E0389FF001399FF00D0F
:104010001124E55EFC4F6181561306C06081461392
:1040200003C062816E110FC001968770D2CF9F705E
:1040300011F0882321F3805E883008F3C8010E94C4
:104040001F1EBD2CDCCFEE2009F495CF80915003CC
:10405000816080935003F12C8ECF651314C034130C
:1040600012C0E11010C0F8018583C8010E941F1E14
:1040700086E0F801ABE4B3E001900D928A95E1F798
:104080000E94D71E78CF4D875E878D859E850E94C2
:10409000681E882319F1EE2009F1809150038032C7
:1040A00070F020914B0330914C0338872F83198691
:1040B000DB86CA868C87CE0107960E941F1E86E08B
:1040C000F801ABE4B3E001900D928A95E1F70E940C
:1040D000E51E0E94D71EFF24F3944DCFC8010E9415
:1040E0001F1EF9CF911113C07C2DD98AC88A6E2D5D
:1040F00089890E94971E8BE493E00E941F1E86E030
:10410000EBE4F3E0DF011D928A95E9F7B9CF65137F
:1041100012C0341310C0E1100EC0F8018583C8012D
:104120000E941F1EEBE4F3E086E0DF011D928A95FA
:10413000E9F7FA2C20CF4D875E878D859E850E94FA
:10414000681E882359F2EE2049F280915003803294
:1041500008F4B5CF20914B0330914C033A83298367
:104160001B82DD82CC828E83CE010196A6CFC8163B
:10417000D90638F1F601E81BF90BCF01F12C8D3788
:10418000910508F03DC0FE2CEE2009F4A7CF651381
:1041900026C0341324C08091500380FD17C0982F8F
:1041A000907FA1F0D80115968C931597903F09F454
:1041B0005CCF982F907F905F8F70892B15968C9392
:1041C00054CF809590958C0D9D1DD8CF86E0F80139
:1041D000ABE4B3E001900D928A95E1F7CCCE4D8728
:1041E0005E878D859E850E94681E811168CF8091B3
:1041F0005003816080935003C8010E941F1EBBCEF4
:104200007C2DD98AC88A6E2D89890E94971E77CF06
:10421000EE2009F463CF4D875E878D859E850E94D1
:10422000681EF82E882309F459CF86E0F801ABE424
:10423000B3E001900D928A95E1F78BE493E00E9440
:10424000F5190E94E51E1CCF1F93CF93DF93CDB7C6
:10425000DEB72C970FB6F894DEBF0FBECDBF4F83ED
:10426000588769877A878B879C87CE0107960E943B
:10427000501F882309F442C09F8188852A853B8589
:10428000232B39F08F3F19F481E09F3F19F080E034
:1042900001C081E080FD08C04F81588569857A851D
:1042A0008B859C850E94A61E16E080911903909133
:1042B0001A03891709F467C0819FC0011124855E24
:1042C0009C4F0E94501F882309F45DC0E0911903A0
:1042D0001E9FF0011124E55EFC4F408151816281F7
:1042E0007381848195810E94A61E8091190390E0BC
:1042F00001968770992780931903D7CF86E0FE0136
:104300003796DE01119601900D928A95E1F79F8113
:1043100088852A853B85232B39F08F3F19F481E06E
:104320009F3F19F080E001C081E080FDBDCF20916A
:104330001A0330E0C901019687709927409119034B
:104340004817190699F096E0929FD001939FB00DFF
:104350001124A55EBC4FFE01319601900D929A95F5
:10436000E1F780931A030E94B61E9ECF0E94641E3E
:1043700010921A031092190386E0EBE4F3E0DF01D8
:104380001D928A95E9F72C960FB6F894DEBF0FBE02
:10439000CDBFDF91CF911F910895EF92FF920F93C0
:1043A0001F93CF93DF938C01892B81F0F12CEE24A6
:1043B000E394E8012196F8018491843770F4843005
:1043C00008F05FC08130B1F08230A1F1DF91CF9170
:1043D0001F910F91FF90EF900895853709F44CC01D
:1043E00008F43DC09CE7980F903780F78F770E94C4
:1043F000E81A49C00E5F1F4FFE01849190E2980FAA
:10440000983060F48770FE2D01C0FF0F8A95EAF79F
:104410008F2F0E94BA240E945F2402C00E94071AB4
:104420008F2D815030F2EFE9FFE03197F1F700C0B6
:104430000000F7CF0E5F1F4FFE01849190E2980FAE
:10444000983050F48770FE2D01C0FF0F8A95EAF76F
:104450008F2F0E94C024DFCF0E94E81AE1CF0E5FA9
:104460001F4FFE01C491C150D8F28FE99FE0019720
:10447000F1F700C00000F7CF0E5F1F4FFE01F49070
:10448000CFCF0E94071A8E01CBCF08950E944522FC
:1044900060938C0370938D0380938E0390938F03AE
:1044A0000C94501E08950C9446220F931F93009174
:1044B0008C0310918D0320918E0330918F03602B1C
:1044C000712B822B932B1F910F910C9446220F93EB
:1044D0001F9300918C0310918D0320918E033091D6
:1044E0008F0360237123822393231F910F910C94D8
:1044F00046220F931F9300918C0310918D032091FE
:104500008E0330918F0360277127822793271F9195
:104510000F910C9446220C94F4070E948B22609316
:1045200088037093890380938A0390938B030C9480
:10453000501E60E070E0CB010C948D220F931F930E
:1045400041E050E060E070E08A019B0104C0000F90
:10455000111F221F331F8A95D2F7C901B8011F917D
:104560000F910C948D220F931F9341E050E060E077
:1045700070E004C0440F551F661F771F8A95D2F75D
:104580008091880390918903A0918A03B0918B0355
:104590008A019B01082B192B2A2B3B2BC901B8013F
:1045A0001F910F910C948D220F931F9341E050E0C7
:1045B00060E070E004C0440F551F661F771F8A95A6
:1045C000D2F7CB01BA0160957095809590950091D6
:1045D00088031091890320918A0330918B03602313
:1045E0007123822393231F910F910C948D220F939B
:1045F0001F9341E050E060E070E004C0440F551F9D
:10460000661F771F8A95D2F780918803909189035E
:10461000A0918A03B0918B038A019B010827192777
:104620002A273B27C901B8011F910F910C948D22B5
:104630000F931F93009188031091890320918A039F
:1046400030918B03602B712B822B932B1F910F9139
:104650000C948D220F931F9300918803109189036E
:1046600020918A0330918B0360237123822393234B
:104670001F910F910C948D220F931F93009188032B
:104680001091890320918A0330918B036027712751
:10469000822793271F910F910C948D220895292F23
:1046A000220F920F990F890F982F977071E001C018
:1046B000770F9A95EAF786958695869525E0829FED
:1046C000C001112450E040E0A62FB0E0FC01E40F4F
:1046D000F51FEF5AFC4F60819D01042E02C03695F4
:1046E00027950A94E2F7217021952627272326276C
:1046F00020834F5F5F4F4530510541F70895292FC3
:10470000220F290F220F820F982F9770869586957A
:10471000869545E0849F9001112470E060E080E080
:10472000F901E60FF71FEF5AFC4F408150E0092EC8
:1047300002C0569547950A94E2F741705527062E18
:1047400001C0440F0A94EAF7842B6F5F7F4F6530F6
:10475000710531F70895BF92CF92DF92EF92FF92E9
:104760000F931F93CF93DF938C01C0908803D09059
:104770008903E0908A03F0908B0380918C039091E1
:104780008D03A0918E03B0918F03C82AD92AEA2AFB
:10479000FB2ACFE1D0E0BC2ED701C6010C2E04C00D
:1047A000B695A795979587950A94D2F780FD0EC088
:1047B000219788F7B12C8B2DDF91CF911F910F910D
:1047C000FF90EF90DF90CF90BF900895B8018C2FAD
:1047D0000E942C0C019761F3EECFCF93DF93EC0195
:1047E0000E94AB23BE01DF91CF910C942C0C1F9340
:1047F000CF93DF93EB0190911603992331F0CB0116
:10480000DF91CF911F910C94ED23882379F0CB0198
:104810000E94AB23182F682FCE010E944F23BE01A8
:10482000812FDF91CF911F910C942C0CCB010E9412
:104830007F23182FF4CF682F80917D0190917E0106
:104840000C94BB25682F80917D0190917E010C9482
:10485000C62580917D0190917E010C94D125809197
:10486000900385958595859508958091900387702F
:10487000089598E0899F90011124622B6093900322
:104880000C94B32290919003809589238093900398
:10489000282F277061F4282F082E000C330B921755
:1048A000130629F08595859585950C94D422089555
:1048B00090919003977081E009F480E00895E09171
:1048C0007D01F0917E018091B4038083E0917D01B0
:1048D000F0917E0180819091B303892B8083E091D8
:1048E0007D01F0917E0180819091B203892B8083BC
:1048F00090919103992381F0E0917D01F0917E01E7
:104900008081892B808380917D0190917E010E941E
:104910005E2581111092910380917D0190917E011D
:104920000C9480188091B40308959091B403892B5E
:104930008093B4030895982F90958091B4038923B0
:104940008093B40308951092B40308958091B30343
:1049500008959091B303892B8093B3030895982F02
:1049600090958091B30389238093B30308951092A7
:10497000B30308959091B203892B8093B2030895F5
:10498000982F90958091B20389238093B203089564
:104990001092B203089580939103089510929103A9
:1049A0000895809191030895CF92DF92EF92FF9244
:1049B0006C01EE24FF2420E0C114D104E104F104D1
:1049C00019F0C701B60120E1C72ED82EE92EFF2429
:1049D000C114D104E104F10419F0285FC701B60144
:1049E0006B017C0154E0F694E794D794C7945A95F0
:1049F000D1F7C114D104E104F10419F02C5FC7010F
:104A0000B6016B017C0142E0F694E794D794C79419
:104A10004A95D1F7C114D104E104F10419F02E5FD5
:104A2000C701B6019695879577956795672B682B93
:104A3000692B09F02F5F822FFF90EF90DF90CF90CE
:104A400008956DEE7EEF90E080E00E94F83560E022
:104A500082E090E00E94DA3560E083E090E00E941E
:104A6000DA3560E084E090E00E94DA3560E085E0CD
:104A700090E00E94DA3540E050E0BA0188E090E032
:104A80000C94EC3590E080E00E94D43521E08D3E1E
:104A90009E4F09F020E0822F089582E090E00C9470
:104AA000C63583E090E00C94C63584E090E00C9429
:104AB000C635682F84E090E00C94DA35FC0131961D
:104AC0009C01205E3F4F80E0919191118F5FE21732
:104AD000F307D1F708959C01FC0132969FEF80E027
:104AE0004191461751F09F3F19F4411101C0982F91
:104AF0008F5F8E31A9F79F3F09F40895290F311D6B
:104B000097FD3A95F90162830895FC0132968096EB
:104B10002191261303C0DF0111971C92E817F907B2
:104B2000B9F70895E62FE695E695E695EF3169F039
:104B3000E80FF92FF11D677021E030E001C0220F6E
:104B40006A95EAF78181822B81830895E62FE695A5
:104B5000E695E695EF3171F0E80FF92FF11D6770DA
:104B600021E030E001C0220F6A95EAF720958181AB
:104B700028232183089520918E01222329F020915A
:104B80002E0427FD0C9492250C946B2520918E0108
:104B9000222329F020912E0427FD0C94A6250C94A5
:104BA0008525FC01319680961192E817F907E1F707
:104BB000089508950C94D92580913404843049F1E6
:104BC0001092B60388E190E020E40FB6F894A8951F
:104BD000809360000FBE2093600080E00E941F0958
:104BE0000E94DA2583B7817F846083BF83B78160A9
:104BF00083BF7894889583B78E7F83BF0FB6F89470
:104C0000A895809160008861809360001092600098
:104C10000FBE08950895CF930E94F8040E9448059E
:104C20000E940A26C0E08C2F0E94AD05811105C0AC
:104C3000CF5FCE30C1F7CF91089581E0FCCF0895CA
:104C40000C941F260E94641E0E9474180E941F0963
:104C50000C9420261F920F920FB60F9211248F935F
:104C60009F93AF93BF938091B603811113C080913E
:104C70002A0490912B04A0912C04B0912D0441960C
:104C8000A11DB11D80932A0490932B04A0932C04A2
:104C9000B0932D04BF91AF919F918F910F900FBE54
:104CA0000F901F90189582E084BD93E095BD9AEF18
:104CB00097BD80936E0008952FB7F89480912A04D1
:104CC00090912B04A0912C04B0912D042FBF089536
:104CD000CF92DF92EF92FF920F931F932FB7F8942A
:104CE00040912A0450912B0460912C0470912D0462
:104CF0002FBF6A017B01EE24FF248C0130E020E00D
:104D0000C016D106E206F30650F0481B590BCA0143
:104D10001F910F91FF90EF90DF90CF900895415039
:104D20005109F3CF78941F920F920FB60F9211246E
:104D30008F939F93AF93BF9380912A0490912B04FC
:104D4000A0912C04B0912D040196A11DB11D80935A
:104D50002A0490932B04A0932C04B0932D04BF91AC
:104D6000AF919F918F910F900FBE0F901F9018954C
:104D7000F89481E08093E00080E28093D800E9EC31
:104D8000F0E010828FE19EE40197F1F700C000008F
:104D90001DBA109268001CBC10BE1FBA10927A0097
:104DA00010926E0010926F001092710010927200BB
:104DB0001082ECEBF0E0108214B817B81AB81DB8E6
:104DC00010BA108215B818B81BB81EB811BA0C94D6
:104DD000003F08950E944225811102C00E942125B2
:104DE0000E944D258093B5030E94552590E0909335
:104DF0002F0480932E040E945125682F70E090E0CC
:104E000080E00C9453228091BA0380FF12C060911D
:104E1000820185E0689FB0011124759567957595AD
:104E2000679560387105A8F561157105A1F1862FA8
:104E3000089581FF09C06091820185E0689FB001FB
:104E4000112475956795EDCF82FF07C060918201AF
:104E500085E0689FB0011124E4CF2091BB03222399
:104E6000A9F0909181016091820185E0689FB00175
:104E700011242917B0F6269FA001279F500D112459
:104E8000692F70E0CA010E94AC35CBCF65E070E0BD
:104E9000CECF8FE7089581E008958091BA0380FF17
:104EA0000CC06091800170E0759567957595679568
:104EB0006115710549F1862F089581FF06C0609143
:104EC000800170E075956795F3CF6091800182FD58
:104ED0000BC09091BB039923A1F060917F01809159
:104EE0008001961738F0682F70E06038710500F384
:104EF0008FE70895899FC001112470E00E94AC35AE
:104F0000F4CF61E070E0D7CF81E00895803F31F4C5
:104F10000E94032781958093BE030895813F19F471
:104F20000E940327F8CF823F31F40E940327819526
:104F30008093BD030895833F19F40E940327F8CF9F
:104F4000893F29F40E944D278093BF0308958A3F2B
:104F500021F40E944D278195F7CF8B3F31F40E94B9
:104F60004D2781958093C00308958C3F19F40E94CA
:104F70004D27F8CF843F31F48091BC03816080934A
:104F8000BC030895853F21F48091BC038260F7CF74
:104F9000863F21F48091BC038460F1CF873F21F4E8
:104FA0008091BC038860EBCF883F21F48091BC03E3
:104FB0008061E5CF8D3F31F48091BA0381608093A9
:104FC000BA0308958E3F21F48091BA038260F7CF2F
:104FD0008F3FB9F78091BA038460F1CF803FC1F46D
:104FE0008091BE0387FD1092BE038091BD038111A5
:104FF0000EC08091BE0381110AC08091BF03811150
:1050000006C08091C003811102C01092BB030895B5
:10501000813F29F48091BE0318162CF3E6CF9091BE
:10502000BD03823F29F497FFE0CF1092BD03DDCF8F
:10503000833F19F41916CCF3D8CF893F39F4809106
:10504000BF03181694F61092BF03CFCF8A3F29F4FE
:105050008091BF0387FFC9CFF6CF8B3F39F4809192
:10506000C00387FFC2CF1092C003BFCF8C3F29F48B
:105070008091C0031816BCF3B8CF843F31F48091FF
:10508000BC038E7F8093BC03B0CF853F21F4809119
:10509000BC038D7FF7CF863F21F48091BC038B7FCB
:1050A000F1CF873F21F48091BC03877FEBCF883F0E
:1050B00021F48091BC038F7EE5CF8D3F31F4809148
:1050C000BA038E7F8093BA0390CF8E3F21F48091F4
:1050D000BA038D7FF7CF8F3F09F087CF8091BA0356
:1050E0008B7FF0CF8CEB93E00E948B180E945C26A4
:1050F0009093B8038093B70308951F93CF93DF93E2
:105100008091B7039091B8030E946826AC019091FA
:10511000BB032091830130E0911106C02091B903B7
:105120008AE0289F900111244217530780F0809154
:10513000BD03D091BE031091BF03C091C003811184
:105140000AC0D1116AC0111168C0C11166C0DF91D7
:10515000CF911F9108959F3F19F09F5F9093BB03DC
:10516000181624F40E9403278093BD038091BD0389
:1051700087FF05C00E94032781958093BD031D16FC
:1051800024F40E9403278093BE038091BE0387FF0F
:1051900005C00E94032781958093BE033091BD0313
:1051A0003323C1F02091BE032223A1F045EB340349
:1051B000C0011124892F911101C081E08093BD03AA
:1051C00045EB240390011124832F311101C081E0AC
:1051D0008093BE03111624F40E944D278093BF03D1
:1051E0008091BF0387FF05C00E944D278195809362
:1051F000BF031C1624F40E944D278093C0038091A6
:10520000C00387FF05C00E944D2781958093C0038E
:10521000DF91CF911F910C9472289F3F09F09DCF91
:10522000AECF85E0ECEBF3E0DF011D928A95E9F764
:105230001092BB031092BA030895833081F128F4D1
:10524000813059F08230D1F00895853009F449C099
:10525000B8F1863009F456C008958091B903482FFB
:10526000460F5527551F4F3F510524F4680F609393
:10527000B90308958FEF8093B90308958091830156
:10528000482F460F5527551F4F3F510524F4680FEF
:105290006093830108958FEF809383010895809137
:1052A0008201482F460F5527551F4F3F510524F4C3
:1052B000680F6093820108958FEF809382010895B3
:1052C00080918101482F460F5527551F4F3F5105AB
:1052D00024F4680F6093810108958FEF809381011A
:1052E000089580918001482F460F5527551F4F3F45
:1052F000510524F4680F6093800108958FEF809327
:105300008001089580917F01482F460F5527551F32
:105310004F3F510524F4680F60937F0108958FEF8C
:1053200080937F010895833011F128F4813049F092
:10533000823091F00895853081F120F18630C1F1FD
:1053400008958091B903681720F4861B8093B903F0
:1053500008951092B903089580918301681720F48D
:10536000861B809383010895109283010895809194
:105370008201681720F4861B8093820108951092A1
:105380008201089580918101681720F4861B809323
:10539000810108951092810108958091800168171C
:1053A00020F4861B80938001089510928001089557
:1053B00080917F01681720F4861B80937F010895F8
:1053C00010927F0108950F931F9341E050E060E039
:1053D00070E08A019B0104C0000F111F221F331FC0
:1053E0008A95D2F7C901B8010E9453221F910F91EB
:1053F0000C94641E873208F043C08E3108F08BC0D5
:10540000803109F47DC0C8F4873009F46AC028F4FB
:10541000863009F45CC080E008958B3009F455C0F3
:105420008E30C9F79091B503892F8B7F92FF8460EE
:105430008093B50382FD20C048C0863109F445C081
:1054400068F4813141F70E94641E90912E04892FE7
:1054500097FB87F9805880932E0437C08931A9F1D2
:105460008B31C9F69091B503892F8D7F91FF8260B2
:105470008093B50381FF29C08091B50381603DC051
:10548000883319F150F4893221F0853311F08732D5
:1054900011F680E00E94E32918C08334D1F328F488
:1054A0008A3308F4B8CF8953F5CF883409F0B3CFE5
:1054B0000E94641E2FEF83ED90E3215080409040C6
:1054C000E1F700C000000E94B82681E008958091B5
:1054D000B503817F8E7F8093B50381E08093C20303
:1054E00008959091B503892F8E7F90FF81608093FE
:1054F000B50380FDEACF897F877F8093B503E5CF31
:105500009091B503892F877F93FF88608093B503BF
:1055100083FDB2CFDACF8D51BDCF80E008950C94DA
:105520008D2A8E518A3030F4E82FF0E0E95CFD4F8F
:105530008081089580E00895CF93C82F8091C203A1
:105540008130E1F038F0823009F43FC01092C2039C
:1055500080E012C0E0917D01F0917E018081813177
:1055600011F08232A9F78C2F0E948D2A81111DC063
:105570008C2F0E94FA298170CF910895E0917D01CE
:10558000F0917E018081813171F3823261F38C2F41
:105590000E948F2A811110C0C43181F048F4CB30B1
:1055A00059F0C03171F080E0E6CF81E090E0E3CFC8
:1055B000C93221F0C833B9F781E0DDCF1092C203C0
:1055C000F2CF82E08093C203F7CFC93219F188F499
:1055D000C43101F120F4C73081F181E0CDCF82EEFA
:1055E0008C0F8630D0F78C2F0E94912A8093C103B4
:1055F000F4CFCE3401F140F46AE0CB3471F78091FE
:10560000C1030E941D29E9CFC13579F061E0C2359F
:10561000B1F3E3CF8091C103882319F01092C10345
:10562000DCCF81E08093C203A7CF61E08091C1030A
:105630000E949329D2CF6AE0F9CF1092B90384E196
:1056400080938301C09382018CE38093810188E081
:105650008093800188E280937F01BFCF8091E30334
:1056600008950F931F93CF93DF9300D01F92CDB770
:10567000DEB78C010E94A02D823011F0843019F524
:1056800083E089831B830A838093E9008FEF9091E5
:10569000E800815095FD06C095ED9A95F1F7000060
:1056A0008111F5CF8091E80085FF0DC050E040E00A
:1056B00063E070E0CE0101960E94BD2D8091E8006C
:1056C0008E778093E8000F900F900F90DF91CF912D
:1056D0001F910F910895CF93DF9300D01F92CDB704
:1056E000DEB720913404243031F522E0298380583C
:1056F00091099B838A8383E08093E9008FEF9091E7
:10570000E800815095FD06C095ED9A95F1F70000EF
:105710008111F5CF8091E80085FF0DC050E040E099
:1057200063E070E0CE0101960E94BD2D8091E800FB
:105730008E778093E8000F900F900F90DF91CF91BC
:105740000895CF93DF93EC010E94A02D823011F0D9
:105750008430F9F482E08093E9008FEF9091E800C3
:10576000815095FD06C095ED9A95F1F700008111E5
:10577000F5CF8091E80085FF0CC050E040E065E087
:1057800070E0CE010E94BD2D8091E8008E7780935D
:10579000E800DF91CF910895CF93DF93EC010E9451
:1057A000A02D823011F08430F9F480918E0188238D
:1057B000F1F080912E0487FF1AC084E08093E90005
:1057C0008FEF9091E800815095FD06C095E19A9584
:1057D000F1F700008111F5CF8091E80050E040E042
:1057E00060E270E085FD1AC0DF91CF91089581E0FD
:1057F0008093E9008FEF9091E800815095FD06C0FD
:1058000095ED9A95F1F700008111F5CF8091E800B0
:1058100085FFEACF50E040E068E070E0CE010E94F2
:10582000BD2D8091E8008E778093E80080E2FE0134
:10583000A3ECB3E001900D928A95E1F7D5CF80916A
:105840003304811109C00E944D2F0E94AA2F80911C
:10585000E20084608093E20008951092330408957A
:10586000089508950C94222642E061EC81E00E94A4
:10587000CB2E42E061EC82E00E94CB2E42E061EC54
:1058800083E00E94CB2E42E261EC84E00C94CB2EAC
:1058900080913604833009F455C030F4813071F1C1
:1058A000823009F491C008958A3009F47DC08B30AC
:1058B00009F463C0893009F044C080913504813215
:1058C00009F03FC08091390490913A04009711F09B
:1058D0000397B9F58091E800877F8093E800809175
:1058E000E80082FF2AC08091F1008093E303809159
:1058F000E8008B778093E8000C94FF2E80913504AC
:10590000813AF9F48091E800877F8093E8008091E4
:10591000390490913A04892B61F460E283EC93E0BE
:1059200070E00E940C2E8091E8008B778093E80055
:10593000089560E090E080E0F3CF8091340481111D
:10594000CECF089580913504813AD9F780913904FA
:1059500090913A04892BA9F78091E800877F809382
:10596000E8008091E80080FFFCCF80918E01809359
:10597000F1008091E8008E77BDCF809135048132AF
:1059800001F78091390490913A04892BD1F68091E6
:10599000E800877F8093E8000E94FF2E8091370403
:1059A00080938E010C94641E80913504813249F6F7
:1059B0008091E800877F8093E8000E94FF2E80910D
:1059C00038048093E403089580913504813A09F006
:1059D000B8CF8091E800877F8093E8008091E8004D
:1059E00080FFFCCF8091E403C2CF84B7877F84BF60
:1059F0000FB6F894A895809160008861809360004C
:105A0000109260000FBE80E88093610010926100E8
:105A10000E94C3180E944D2F0E94AA2F8091E2007D
:105A200084608093E20078940E9433320E94C71809
:105A300084E891E00E946F1880913404853029F049
:105A40000E94D5180E94EF15F7CF0E94DC258091A7
:105A50003204882389F30E940B26882369F30E946D
:105A6000A72DEACF0C94342D292F3327233031056D
:105A700079F158F421303105F1F02230310519F176
:105A800090E080E030E020E01AC021323105C9F119
:105A900022323105A9F76430710590F7FB01EE0F52
:105AA000FF1FEB5BFD4F208131816F5B7D4FFB0161
:105AB000808190E004C082E190E02FEE36E0FA01B0
:105AC0003183208308958DE690E022E836E0F7CF19
:105AD00099278130910579F040F08230910571F07D
