:100000000C94FF030C941C040C941C040C941C040E
:100010000C941C040C941C040C941C040C941C04E0
:100020000C941C040C941C040C94BE2F0C94913062
:100030000C9420260C941C040C941C040C941C049A
:100040000C941C040C941C040C941C040C941C04B0
:100050000C941C040C9488260C941C040C941C0412
:100060000C941C040C941C040C941C040C941C0490
:100070000C941C040C941C040C941C040C941C0480
:100080000C941C040C941C040C941C040C941C0470
:100090000C941C040C941C040C941C040C941C0460
:1000A0000C941C040C941C040C941C04076342362E
:1000B000B79BD8A71A39685618AEBAAB558C1D3CF9
:1000C000B7CC5763BD6DEDFD753EF6177231BF00BD
:1000D0000000803F05A84CCDB2D44EB93836A902F5
:1000E0000C50B9918688083CA6AAAA2ABE00000036
:1000F000803F606000600002E0616403E0006769C7
:10010000742070757368206F726967696E20484546
:1001100041440A0034313131313131313131313101
:100120003131313100636C6561720A006769742096
:10013000636F6D6D6974202D616D2022002D3E006E
:100140006572676F646F785F657A2F6576616E2080
:100150004020302E362E3131392D362D676236351E
:10016000653231006572676F646F785F657A2F65FD
:1001700076616E204020302E362E3131392D362DCD
:1001800067623635653231000000F0A145002B0072
:10019000E101E100E00000001E00140004001D0069
:1001A000E30002581F001A0016001B00E20028009E
:1001B0002000080007000600E35C2C002100150069
:1001C000090019002E000158220017000A0005003E
:1001D00000002D002F002F02000026020000290041
:1001E000300030020000270200004C0023001C00F9
:1001F0000B0011000000E05C240018000D0010004E
:100200002102010025000C000E00360001572C00D1
:10021000260012000F00370002573300270013009A
:1002200033003800035734022A0031003400E5005F
:1002300004570000C05CC15CDF5C010001000000ED
:100240000100010001000100C85C01000100010083
:1002500001000100C75C0100430040003D003A007E
:10026000C45C0100440041003E003B00C35C01004F
:10027000450042003F003C00000001000100010079
:100280000000010000000100560057000000580067
:100290000000010055005F005C00590000000100F3
:1002A000540060005D005A006200010053006100CC
:1002B0005E005B006300010001000100010001001D
:1002C0000100010001000100010001000100010026
:1002D0000100010001000100010000000100010017
:1002E0000100010001000000010001000100010007
:1002F00001000100010001000100010001000100F6
:100300000100E65C0100E25C01000100E45C010028
:10031000010001000100010001001705E15CE55C3E
:1003200000000100010001000000010000000100C8
:1003300001000100000001000000010001000100B7
:1003400001000100000001000100010001000100A6
:100350000100010001000100010001000100010095
:100360000100010001000100010001000100010085
:100370000100010001000100010001000100010075
:100380000100000001000100010001000100000067
:100390000100010001000100010001000100010055
:1003A0000100010001000100010001000100010045
:1003B0000100010001000100010001000100010035
:1003C0000100010001000100000001000100010026
:1003D0000000010000000100010001000000010018
:1003E0000000010001000100010001000000010007
:1003F00001000100010001000100010001000100F5
:1004000001000100010001000100010001000100E4
:1004100001000100010001000100010001000100D4
:1004200001000100010001000100000000000000C7
:10043000000000002A2B280000000000000000003F
:100440000000000000000029000000002C1E3420E5
:10045000212224342627252E362D3738271E1F200B
:100460002122232425263333362E37381F04050650
:100470000708090A0B0C0D0E0F1011121314151694
:100480001718191A1B1C1D2F3130232D3504050692
:100490000708090A0B0C0D0E0F1011121314151674
:1004A0001718191A1B1C1D2F3130354C0000000085
:1004B000000000000000000000000000000000003C
:1004C0000000000000000000000000000001010129
:1004D0000101010001010101000000000000000015
:1004E0000000000000000100010001010101010104
:1004F00001010101010101010101010101010101EC
:1005000001010101010101000000010100000000E2
:1005100000000000000000000000000000000000DB
:1005200000000000000000010101010000047F3F05
:100530001F643214643214783C1E1E140A056801CC
:10054000F000B40078005A00000000000001010132
:100550000101010101010202020202020202020380
:10056000030303030303030404040404040505054F
:10057000050506060606060707070708080808090E
:1005800009090A0A0A0A0B0B0B0C0C0C0D0D0D0EB7
:100590000E0F0F0F10101111111212131314141546
:1005A0001516161717181819191A1A1B1C1C1D1DB9
:1005B0001E1F1F202021222223242525262727280D
:1005C000292A2B2B2C2D2E2F2F3031323334353638
:1005D000363738393A3B3C3D3E3F40414243444642
:1005E0004748494A4B4C4D4F505152535556575816
:1005F0005A5B5C5E5F606263646667696A6C6D6EBD
:10060000707173747678797B7C7E80818384868830
:100610008A8B8D8F91929496989A9B9D9FA1A3A56A
:10062000A7A9ABADAFB1B3B5B7B9BBBDBFC1C4C668
:10063000C8CACCCFD1D3D6D8DADCDFE1E4E6E8EB28
:10064000EDF0F2F5F7FAFCFF0403300000001603AA
:100650004500720067006F0044006F0078002000C2
:1006600045005A00000016034500720067006F0045
:1006700044006F007800200045005A000000040389
:10068000090409026D00040100A0FA090400000138
:100690000301010009211101000122400007058129
:1006A0000308000A090401000103010200092111E5
:1006B000010001224D000705820308000A09040217
:1006C000000103000000092111010001223600078A
:1006D00005830308000A0904030001030000000960
:1006E00021110100012239000705840320000112B5
:1006F00001100100000008EDFE07130100010203D4
:100700000105010906A101050719E029E7150025E2
:1007100001950875018102050819012905950575DE
:100720000191029501750391010507190029F7153B
:1007300000250195F875018102C005010980A1011C
:1007400085021601002603001A81002A8300751015
:1007500095018100C0050C0901A101850316010066
:10076000269C021A01002A9C02751095018100C086
:1007700005010902A1010901A100050919012905C5
:10078000150025019505750181029501750381010B
:100790000501093009311581257F9502750881060B
:1007A00009381581257F950175088106050C0A38E1
:1007B000021581257F950175088106C0C0050109D4
:1007C00006A101050719E029E7150025019508751F
:1007D0000181029501750881010508190129059516
:1007E000057501910295017503910105071900290D
:1007F000FF150026FF00950675088100C000112432
:100800001FBECFEFDAE0DEBFCDBF12E0A0E0B1E067
:10081000E6E2FCE602C005900D92A036B107D9F7DA
:1008200024E0A0E6B2E001C01D92A734B207E1F7D0
:100830000E94EB2C0C9411360C94000080B38C7049
:1008400080BB81B3836F81BB089584B1807F84B9FD
:1008500085B1807F85B98AB1837F8AB98BB1837F67
:100860008BB93E9846980895CF93C82F873080F56E
:100870008091000190910101892B99F564E670E067
:1008800080E40E94BA059093010180930001892BB6
:10089000D1F464E670E082E10E940F0690930101BA
:1008A00080930001892B79F481E090E001C0880FEA
:1008B000CA95EAF764E670E080950E940F0690936F
:1008C00001018093000184E690E0CF910C946206D0
:1008D0008A30B9F040F4883071F0893079F0209A8C
:1008E0002898CF9108958C3091F070F08D30B9F741
:1008F0003E9A4698F6CF219A2998F3CF229A2A98C1
:10090000F0CF239A2B98EDCF529A5B98EACF539A67
:10091000FCCFCF93873008F042C0809100019091C6
:100920000101C0E0892B81F464E670E080E40E945C
:10093000BA059093010180930001892B41F0C0E03A
:1009400084E690E00E9462068C2FCF91089564E6C1
:1009500070E083E10E940F069093010180930001F3
:10096000892B69F764E670E081E40E94BA059093F0
:10097000010180930001892B11F784E690E00E9429
:100980003E0697FF05C09093010180930001D7CFE9
:10099000C82FC0951092010110920001D1CFCFB1A4
:1009A0008FB1869586958C73C3708C2BC82FC0959C
:1009B000CBCF08950C94D9040E94060790E0909341
:1009C0000101809300010E9425040E941E04E5EBB2
:1009D000F2E081E692E01192DC0126E01D922150C6
:1009E000E9F7069622E0E33CF207A9F70C94080920
:1009F0000E94060790E090930101809300010E94FD
:100A000025040E941E04E5EBF2E0119282E0E33C33
:100A1000F807D9F7089596E0899FF0011124EF595E
:100A2000FD4F30E020E080E041E050E091919923DB
:100A300051F0DF01119791509C932F5F3F4F26306B
:100A40003105A1F70895BA01022E01C0660F0A947C
:100A5000EAF7862BF2CF96E0699FB001112430E0CF
:100A600020E090E04FE0FC01022E02C0F595E795F2
:100A70000A94E2F7E0FF06C0F901E60FF71FEF590D
:100A8000FD4F40832F5F3F4F2630310561F70895BA
:100A9000EF92FF920F931F93CF93DF93809100010A
:100AA00090910101892B91F0809160028F5F80937A
:100AB000600281110BC00E94060790E09093010133
:100AC00080930001892B11F40E94B00605EB12E01F
:100AD000C0E08C2F0E94340487E0F82EFC0E8F2D8E
:100AE0000E9434048C2F0E940B05E82E8C2F0E944C
:100AF0008904F80191918F01DE2DD095D9238E21A3
:100B0000D82B6C2F892F8D270E942B05F801319748
:100B1000D0838F2D0E940B05E82E8F2D0E94890413
:100B2000F8019681DE2DD095D9238E21D82B6F2DFB
:100B3000892F8D270E942B05F801D6830E9425045A
:100B4000CF5FC73031F60E940A0981E0DF91CF9173
:100B50001F910F91FF90EF900895E82FF0E0EB5474
:100B6000FD4F8081089508951092B9008CE0809324
:100B7000B8000895EF92FF920F931F93CF93DF93E6
:100B8000182FEB011092BC0084EA8093BC000E94F5
:100B900052267C018091BC0087FF0DC08091B90076
:100BA000887F8830D9F08091B900887F8031B1F09A
:100BB0008FEF9FEF0CC0CF3FDC0761F30E945226FE
:100BC0008E199F098C179D0728F38EEF9FEFDF91F9
:100BD000CF911F910F91FF90EF9008951093BB005C
:100BE00084E88093BC000E9452268C018091BC0056
:100BF00087FF0AC08091B900887F883111F0803466
:100C0000B9F690E080E0E3CFCF3FDC0779F30E94B4
:100C10005226801B910B8C179D0740F3D6CF0F9364
:100C20001F93CF93DF93EB018093BB0084E8809305
:100C3000BC000E9452268C018091BC0087FF11C02D
:100C40002091B900287F81E090E0283211F490E0F3
:100C500080E0919581959109DF91CF911F910F913E
:100C60000895CF3FDC0741F30E945226801B910B71
:100C70008C179D0708F38EEF9FEFEECF0F931F9316
:100C8000CF93DF93EC0184E88093BC000E9452264E
:100C90008C018091BC0087FF08C08091BB0090E070
:100CA000DF91CF911F910F910895CF3FDC0789F31A
:100CB0000E945226801B910B8C179D0750F38EEFDC
:100CC0009FEFEECF0F931F93CF93DF93EC0184E957
:100CD0008093BC000E9452268C018091BC0084FD50
:100CE00007C090E080E0DF91CF911F910F910895B0
:100CF000CF3FDC0791F30E945226801B910B8C178B
:100D00009D0758F38EEF9FEFEECF259A2D9A089509
:100D1000269A2E9A0895279A2F9A089556985E98A3
:100D2000089525982D98089526982E980895279827
:100D30002F9808950E948E060E9491060E949406A4
:100D40000C94970690E0909389008093880090938C
:100D50008B0080938A0090938D0080938C0008957F
:100D60000E949A068FEF0E94A2060E9485062FEF2E
:100D700080E792E0215080409040E1F700C0000001
:100D80000E9488062FEF80E792E02150804090403B
:100D9000E1F700C000000E948B062FEF80E792E091
:100DA000215080409040E1F700C000000E94910671
:100DB0002FEF80E792E0215080409040E1F700C0A3
:100DC00000000E9494062FEF80E792E021508040BF
:100DD0009040E1F700C000000E9497060C949A062C
:100DE00089EA8093800089E08093810024982C9880
:100DF0003F988AB18F7C8AB96E98479A8BB180638D
:100E00008BB9769A0E94B0060C948E0780E290E02F
:100E100090930101809300018091C30281110EC063
:100E20000E94B40581E08093C3022FEF83ED90E32D
:100E3000215080409040E1F700C0000064E670E07F
:100E400080E40E94BA059093010180930001892BF0
:100E500009F050C064E670E080E00E940F069093B5
:100E6000010180930001892B09F044C064E670E021
:100E700080E00E940F069093010180930001892B6E
:100E8000C9F564E670E08FE30E940F0690930101BC
:100E900080930001892B71F584E690E00E94620640
:100EA00064E670E080E40E94BA05909301018093AB
:100EB0000001892BF9F464E670E08CE00E940F06D3
:100EC0009093010180930001892BA1F464E670E006
:100ED00080E00E940F069093010180930001892B0E
:100EE00049F464E670E08FE30E940F0690930101DD
:100EF0008093000184E690E00E94620680910001E8
:100F00000895611108C0FC018281882321F084E6E4
:100F100091E00E94050990E080E008950895CF9344
:100F2000DF93EC01FB018281882309F44BC00E940E
:100F300052269093C5028093C402FE01EC5DFC45ED
:100F4000EB30F10508F04EC0E855F84F0C94B6357B
:100F5000B307B907BE07C207CD07D007D307DF071E
:100F6000D607D907DC070E94152580E0DF91CF91D5
:100F7000089580E491E00E940509F7CF81E00E9486
:100F80008812F3CF0E949E1282E00E9488124CE4E5
:100F90006FEA85E60E94CC10E8CF8DE391E0EBCFBD
:100FA0008CE291E0E8CF85E291E0E5CF84E191E049
:100FB000E2CF8EEF90E0DFCF87EF90E0DCCF85EFE0
:100FC00090E0D9CF8091C4029091C5020E945E2624
:100FD0008E37910538F0C33EDC4521F482EF90E076
:100FE0000E94050981E0C2CFCF92DF92EF92FF927B
:100FF000CF936B017C010E94C824C82F0E948E06EB
:101000000E9491060E9494060E949706C150C73024
:1010100078F4EC2FF0E0E15FF74F0C94B63516084A
:1010200022082708200825082C082A080E9485067F
:10103000C701B601CF91FF90EF90DF90CF90089558
:101040000E9485060E948806F3CF0E9485060E94B2
:101050008B06EECF0E9485060E948806F8CF0F937C
:101060001F93CF93DF938C01EB019A9581159F41DC
:10107000B8F410FF03C080EEFB01099511FF03C017
:1010800081EEFE01099512FF03C082EEFE01099573
:1010900013FF03C083EEFE0109950115104128F4EA
:1010A000DF91CF911F910F91089584EEFE01099574
:1010B00085EEFE01099586EEFE01099587EEFE019B
:1010C000DF91CF911F910F910994877091E001C03A
:1010D000990F8A95EAF7892F0E949D240C94532436
:1010E0000C946508877091E001C0990F8A95EAF722
:1010F000892F0E94A3240C9453240C947208CF933C
:10110000DF93EC01805E9109089720F065E678E0B6
:10111000209711F460E778E0CE010E942F088C2F11
:10112000DF91CF910C94FB19CF93DF93EC010E94D8
:10113000DC1ACE01805E9109089720F062E778E022
:10114000209711F46DE778E0CE01DF91CF910C94F8
:101150002F0881E008950C948F07CF9390E0FC0155
:10116000E45DFB4FC49184559B4FFC01849188231F
:1011700069F081EE0E94FB198C2F0E94FB198C2FC5
:101180000E94DC1A81EECF910C94DC1A8C2F0E9405
:10119000FB198C2FF8CFFF920F931F93CF93DF9300
:1011A0008C01F62EF8018491882349F1E8012196FB
:1011B000813049F4FE011491812F0E94FB19812F87
:1011C0000E94DC1A06C0823089F4FE0184910E94DC
:1011D000FB198E010F5F1F4F8F2D815018F3EFE920
:1011E000FFE03197F1F700C00000F7CF833019F42A
:1011F000FE018491E5CF0E94AD08E801EACFDF91BE
:10120000CF911F910F91FF90089560E00C94CB084F
:101210000C94F0060E9414180C94DA04282F2F70F6
:1012200041F0822F90E02A3010F44D9608950697F1
:10123000089587E290E0089508950C941C090C9499
:101240001D0908950E94581E0E9421092FEF84E372
:101250009CE0215080409040E1F700C000000C94D9
:10126000AE26FF920F931F93CF93DF938C01FC0167
:10127000C081D18180912003811161C08281882346
:1012800009F458C0CE010E949F23F82E682FCE018A
:101290000E944323BE018F2D0E94100CEC01B80167
:1012A0000E947617B801CE010E94AB08882309F48A
:1012B0000EC1B801CE010E94BA17882309F407C1F4
:1012C000B801CE010E94810E882309F400C1B80143
:1012D000CE010E94D00E882309F4F9C0C93CFCE578
:1012E000DF0709F42DC108F061C0C13C9CE5D907B6
:1012F00009F4FEC0C8F5C531FCE5DF0728F5C230AA
:101300008CE5D80708F09BC1C1159CE5D90709F405
:10131000D9C0C130DC4509F4E1C081E08093CB0243
:101320008093CC02C801DF91CF911F910F91FF9064
:101330000C94A908CE010E947323F82EABCFCE01E6
:101340000E949F23BE01A8CFC531FCE5DF0709F449
:1013500046C2C03CDC4509F7F8018281882309F4C4
:10136000B6C00E942413B3C0F8018281C53CFCE5DD
:10137000DF0709F4D6C068F4C33CECE5DE0709F4E6
:10138000CBC008F4C0C0882309F4A1C00E94CB11CF
:101390009EC0C73C9CE5D90709F4CDC008F4C6C07F
:1013A000882309F494C00E94261291C0C13DFCE537
:1013B000DF0709F414C1F0F5F8018281CD3CFCE5AA
:1013C000DF0709F4D1C0D8F4CB3CECE5DE0709F423
:1013D000C4C008F4BCC0882309F479C00E947B1003
:1013E000623071058105910540F00E947B106530E7
:1013F00071058105910508F48CC082E0B2C0CF3C34
:101400009CE5D90709F4D7C008F4C1C0882309F4C2
:101410005EC00E947B10653171058105910540F029
:101420000E947B10673171058105910508F471C038
:1014300085E197C0C53DFCE5DF0709F4A4C1C0F410
:10144000F8018281C33DFCE5DF0709F4E3C008F43D
:10145000CDC0882309F477C11092CB020E94522696
:101460009093C8028093C70282E00E94301B2FC075
:10147000C93DECE5DE0709F4D2C0CA3DFCE5DF0753
:1014800009F4D6C0C63DDC4509F047CFF80182819A
:1014900081117DC18091CC0281119FC18091C902CF
:1014A0009091CA020E945E268D37910508F095C181
:1014B00080E20E94371B88E20E94FB1988E20E94AA
:1014C000DC1A05C0F801828181110E94220980E0A6
:1014D000DF91CF911F910F91FF900895F8018281C4
:1014E0008823A9F38091BF0381608093BF03EFCF6E
:1014F000F8018281882359F30E948624827249F080
:101500000E949512E4CF882311F30E9486248272F0
:10151000B9F30E948B12DBCF8823C9F20E94B3116A
:10152000D6CF8823A1F20E94EA11D1CF882379F285
:101530000E94FC11CCCF882351F20E940E12C7CF1B
:10154000F8018281882319F20E948910C0CF882374
:1015500009F4BDCF0E949E10BACF882309F4B7CFFB
:1015600081E00E948812B3CF882309F4B0CF0E9493
:101570007B10663071058105910538F00E947B1063
:10158000683071058105910520F286E0EACF882355
:1015900009F49DCF0E947B1069307105810591058A
:1015A00040F00E947B106E3071058105910508F4B2
:1015B000B0CF89E0D6CF882309F489CF0E947B1071
:1015C0006F3071058105910540F00E947B106431F8
:1015D00071058105910508F49CCF8FE0C2CFF80119
:1015E0008281882309F473CF88E1BBCF882309F473
:1015F0006ECF0E947B10693171058105910540F025
:101600000E947B10623271058105910508F481CF3B
:1016100089E1A7CF882309F45ACF83E2A2CFF8014A
:101620008281882309F453CF80E00E94862D4FCF1A
:10163000F8018281882309F44ACF82E0F6CFF801CD
:101640008281882309F46ECE0E943625811102C062
:101650000E9415250E94492590E0909339048093BB
:101660003804FE01E350FC45809138048160E2318A
:10167000F105C8F4E25CF44F0C94B635500B5C0BEA
:10168000600B640B680B6C0B700B740B780B7C0B92
:10169000800B840B880B8C0B900B940B980B9C0B82
:1016A00080913804826080933804809138040E94CD
:1016B0004D250E94581E0BCF809138048460F3CFD3
:1016C000809138048860EFCF809138048061EBCF3F
:1016D000809138048062E7CF809138048064E3CF42
:1016E000809138048068DFCF809138048460EACF2D
:1016F000809138048E7FD7CF809138048D7FD3CFEF
:10170000809138048B7FCFCF80913804877FCBCFF7
:10171000809138048F7EC7CF809138048F7DC3CFEE
:10172000809138048F7BBFCF809138048F77BBCFF7
:10173000809138048B7FEACF90913804892F97FBF2
:1017400087F98058B0CF0E94862485FF05C081E0CC
:101750008093CB028093CC028091CB0281110FC089
:101760008091C7029091C8020E945E268D37910534
:1017700030F486E20E94FB1986E20E94DC1A82E0C5
:101780000E94371BA4CEF8018281882351F0109269
:10179000CC020E9452269093CA028093C90280E232
:1017A00064CE0E94862481FF05C081E08093CB0235
:1017B0008093CC028091CC0281110FC08091C9022C
:1017C0009091CA020E945E268D37910530F487E21F
:1017D0000E94FB1987E20E94DC1A80E2D1CF0E94AE
:1017E0008624F8019281992381F08A7A91E009F4A4
:1017F00090E09093C602811106C089E20E940F24F6
:101800000E94532464CE85E3F9CF8091C6028111F2
:1018100004C089E20E941624F3CF85E3FBCF08952C
:10182000972F70E026E0929F600D711D1124FB013F
:1018300094E5899FE00DF11D1124EE0FFF1FE45781
:10184000FE4F859194910895FC01EE0FFF1FE8571C
:10185000FE4F859194910895CF93DF930E94100CD1
:101860000E94DD0DEC018115904508F043C0C115C3
:1018700080E4D80708F013C1C83ED10528F5C03E62
:10188000D10508F0A7C0C83AD10580F4C53AD10502
:1018900008F096C0C130D10509F49CC020F0C430D6
:1018A000D10508F097C0D0E0C0E094C0CD3BD10591
:1018B00008F494C0CE01805C9109C03CD10598F336
:1018C0000E94240CEC0186C0C11520E2D20750F41E
:1018D000C11581E0D80708F07DC0C03FD10518F3DD
:1018E000D06578C0C11520E3D20708F0CEC0CE0184
:1018F0009F70E6CFC11585E5D80760F5C11524E5D1
:10190000D20708F0FAC0C11582E5D80750F4C11516
:1019100021E5D20708F4C6C0DC2FCC27C16FD06AFE
:1019200059C09C2F969596959E0123703327C1151B
:10193000D34508F0D3C0C1E0D0E002C0CC0FDD1F1A
:101940002A95E2F720E2929FC0011124C82BD92BDF
:10195000DC6840C0C1152AE5D207A0F4C11589E5AD
:10196000D80708F0D5C0C11526E5D20708F4CAC0CB
:10197000C11588E5D80708F496CFDC2FCC27C06FB7
:10198000D06A28C0C1152BE5D20708F48CCFC11549
:101990008CE5D80708F4C9C0CE0190568115904255
:1019A00008F081CF8D2F8F710E945D0EDD27D062F0
:1019B00090E0982F882788279F71C82BD92B0AC0C1
:1019C000C53AD10509F4B4C0C63AD10509F4B3C08B
:1019D000C3E8D0E4CE01DF91CF910895C83AD10594
:1019E00009F4ACC0C93AD10509F4ABC0CA3AD10573
:1019F00009F4AAC0CB3AD10509F4A9C0CC3AD10563
:101A000009F4A8C0CB3BD10509F4A7C0CC3BD10554
:101A100009F4A6C0CD3AD10509F4A5C0C03BD10553
:101A200009F4A4C0CE3AD10509F4A3C0CF3AD10538
:101A300009F4A2C0C13BD10509F4A1C0C23BD10544
:101A400009F4A0C0C33BD10509F49FC0C43BD10534
:101A500009F49EC0C53BD10509F49DC0C63BD10524
:101A600009F49CC0C73BD10509F49BC0C83BD10514
:101A700009F49AC0C93BD10509F499C0CA3BD10504
:101A800009F098C0CAE2D6E4A5CFCE019927D3FFCA
:101A900003C0EC01D86C9ECFEC01D06C9BCFDF7003
:101AA000D06A98CFCE01E4E096958795EA95E1F764
:101AB00083709C2F937021E030E002C0220F331F0F
:101AC0009A95E2F73C68382BC695C695C37080E2BC
:101AD000C89FE0011124C22BD32B7CCFC1E0D0E002
:101AE00002C0CC0FDD1F2A95E2F720E2929FC001D1
:101AF0001124C82BD92BDA686DCFDC2FCC27C46F0B
:101B0000D06A68CFDC2FCC27CC27DF71D06262CFC0
:101B1000CE0134E0969587953A95E1F78F70CF70B6
:101B2000C06ED0E0D06AD82B55CFDD27D06652CF1B
:101B3000C1E8D0E44FCFC2E8D0E44CCFC2EED4E449
:101B400049CFC9EED4E446CFCAEED4E443CFC5EBC7
:101B5000D4E440CFC6EBD4E43DCFC3EBD4E43ACFDA
:101B6000C4EBD4E437CFC7EBD4E434CFCCECD4E42B
:101B700031CFCDECD4E42ECFC3E8D5E42BCFCAE8E7
:101B8000D5E428CFC2E9D5E425CFC4E9D5E422CFF6
:101B9000C1E2D6E41FCFC3E2D6E41CCFC4E2D6E450
:101BA00019CFC5E2D6E416CFC6E2D6E413CFC7E21A
:101BB000D6E410CFC0E0D4E40DCF8238910549F1CE
:101BC000B0F48133910509F45CC048F48932910581
:101BD00009F452C08A32910509F458C0089585333A
:101BE000910509F444C08933910599F00895833E25
:101BF000910531F138F4803E910591F0823E9105D6
:101C0000B1F00895863E910511F1873E910541F1AD
:101C10000895209138042370C9F080EE90E0089573
:101C20002091380420FF12C089E390E008952091AC
:101C3000380422FF0BC024FF2EC090E080E00895FE
:101C40002091380422FD2AC024FDF7CF0895209169
:101C5000380423FFFBCF24FDF0CF87EE90E00895FA
:101C60002091380423FFF0CF86EE90E00895209174
:101C7000380425FD16C008952091380425FD14C0B0
:101C800008952091380426FD12C00895209138044B
:101C900026FD10C0089583EE90E0089582EE90E056
:101CA000089589E290E0089585E390E008958AE23E
:101CB00090E0089581E390E0C9CF9091380492FFBD
:101CC00006C0282F2871283069F4877F846093FF2D
:101CD00006C0282F2871283161F4877E846194FD25
:101CE000877E0895282F2471243089F78B7F8860A0
:101CF000EECF282F2471243191F78B7E8861EFCFAE
:101D000008950F931F93CF938C01FB018281811162
:101D100006C0C1E08C2FCF911F910F910895C09103
:101D2000DA02C11125C006311C4599F70E94800EC8
:101D300081E08093DA020E9452269093D902809328
:101D4000D8021092CD021092CF021092CE021092C1
:101D5000D1021092D0021092D3021092D2021092AD
:101D6000D5021092D4021092D7021092D602D2CF8E
:101D70008091D8029091D9020E945E268C329140C7
:101D800040F68091CD02E82FF0E0EE0FFF1FE25306
:101D9000FD4F118300838F5F8093CD02C0E0BACFE7
:101DA000CF93DF93EC01C13080E8D807C8F0FB0186
:101DB00082818823A9F08091DB02811109C08CE027
:101DC00090E00E94C9350E94F40E81E08093DB020E
:101DD0000E94FB0ECE019F770E94C60F0E94780FD3
:101DE00081E0DF91CF9108958093DC02682F8CE031
:101DF00090E00C94DD35E0918801F09189018081BB
:101E00008093F00381FF03C081EE0E94DC1A809171
:101E1000F00385FF03C085EE0E94DC1A8091F00379
:101E200080FF03C080EE0E94DC1A8091F00384FFE3
:101E300003C084EE0E94DC1A8091F00382FF03C08D
:101E400082EE0E94DC1A8091F00386FF03C086EECA
:101E50000E94DC1A8091F00383FF03C083EE0E948E
:101E6000DC1A8091F00387FF03C087EE0E94DC1A22
:101E70008091DC02823049F158F4882379F0813076
:101E800089F08FE39CE90197F1F700C00000089505
:101E9000843019F18530A9F786EE01C082EE0E94E8
:101EA000FB19EFCF80EE0E94FB1981EE0E94FB1917
:101EB00088E10E94FB1988E10E94DC1A81EE0E94F1
:101EC000DC1A80EE0E94DC1ADCCF82EE0E94FB1945
:101ED00087E50E94FB1987E5F5CF86EE0E94FB1986
:101EE00086EE0E94DC1A88E10E94FB1988E1EACFA5
:101EF0008091DC02813009F443C0E0F18230D1F1FD
:101F00008530E1F18091F00381FF03C081EE0E94F2
:101F1000FB198091F00385FF03C085EE0E94FB1939
:101F20008091F00380FF03C080EE0E94FB19809136
:101F3000F00384FF03C084EE0E94FB198091F0033C
:101F400082FF03C082EE0E94FB198091F00386FF9E
:101F500003C086EE0E94FB198091F00383FF03C04B
:101F600083EE0E94FB198091F00387FF0EC087EE7D
:101F70000C94FB1982EE0E94DC1AC4CF86EEFBCFD4
:101F80008CE20E94FB198CE2F6CF0895EF92FF924B
:101F90001F93CF93DF937C01CCE0D0E0C7010C2EE0
:101FA00002C0969587950A94E2F7182F1F70812F2B
:101FB0000E940E090E94FB19812F0E940E090E94A7
:101FC000DC1A2497CC3F8FEFD80741F7DF91CF91F0
:101FD0001F91FF90EF900895CF92DF92EF92FF92C2
:101FE0000F931F93CF93DF93E901662309F466C033
:101FF000E42EF12CEFEFF0E0E61BF109EE9D8001FD
:10200000EF9D100DFE9D100D1124212FE12FFF27B4
:10201000EE1AFF0A5CE3C52ED12CB6010E948E3564
:10202000FB01BC01E69EC001E79E900DF69E900D5F
:102030001124B6010E948E35E230F10589F168F471
:10204000812F262F210F309781F0242F461B3197A7
:1020500061F080E020E040E008C0E430F10551F19B
:1020600028F1842F861B3597A1F7E42FF0E0E85B79
:10207000FA4F4491E22FF0E0E85BFA4F9491E82F99
:10208000F0E0E85BFA4FE49149839883EA83DF91BB
:10209000CF911F910F91FF90EF90DF90CF90089517
:1020A000862F810FE42F412F2E2FDFCFE42FE61B49
:1020B000842FF9CF842F462F410FD7CF842F242F81
:1020C000D4CF88E090E00C94D135AB01BC0188E01E
:1020D00090E00C94EF35E1EFF3E083E08083109221
:1020E000F2038FEF82838383148260817181828106
:1020F00093810C9465106091F10360FF06C06695B2
:102100006F7370E090E080E0089560E070E0CB01D4
:1021100008958091F50390E001968430910514F0C4
:1021200083E090E08093F5036091F1037091F203F6
:102130008091F3039091F4030C9465108091F50362
:102140008150990B97FF02C090E080E084309105A8
:1021500014F083E090E08093F5036091F1037091B7
:10216000F2038091F3039091F4030C946510809135
:10217000F103E6EFF3E080FF06C06FE070E086EF6A
:1021800093E00C94A616118210821282349684E099
:10219000E233F807C1F7F1CF9091F10390FF0CC043
:1021A000E6EFF3E0818360834283349694E0E23388
:1021B000F907C1F70C94B7100895CF93DF9300D0BF
:1021C00000D0CDB7DEB72091F10320FF0AC09E01F9
:1021D0002F5F3F4F0E94EC0F4B8169818A810E94E3
:1021E000CC100F900F900F900F90DF91CF9108952A
:1021F0005F926F927F928F929F92AF92BF92CF9297
:10220000DF92EF92FF920F931F93CF93DF9300D053
:1022100000D0CDB7DEB78C01E62EF42E522E809181
:10222000F10380FF30C0982F9E77923009F03FC0B5
:102230009E012F5F3F4FC8010E94EC0F4B816981C7
:102240008A810E94CC108091F10300FB87F9809372
:10225000F103902F96958091F2038078892B10FBE3
:1022600087F98093F203E092F303F092F403552090
:1022700051F06091F1037091F2038091F30390911A
:10228000F4030E9465100F900F900F900F90DF9154
:10229000CF911F910F91FF90EF90DF90CF90BF9063
:1022A000AF909F908F907F906F905F900895E82FF0
:1022B000E695EF739EE39E0F9F73943018F4F090B1
:1022C000F403C1CF9AE39E0F9F73993068F4881F7F
:1022D0008827881F9091F203292F220F022F082BA5
:1022E00097FB112710F9AFCF87E28E0F8F738A30DB
:1022F00008F0A9CFE951FF0B2FEFE0FF21E0EE7FBF
:10230000E25CFA4F859194916FE070E00E948E3507
:1023100026034001279F900C1124580188E9A81A30
:102320008EEFB80A86EFC82E83E0D82E98E6692E85
:1023300077247394C501B3010E948E3596014F2D09
:102340006E2D0E94EC0FA80CB91C84E0C80ED11CA5
:1023500082E3C81684E0D80669F70E94B71073CFED
:1023600021E00C94F810E1EFF3E02081221F2227F6
:10237000221F3091F203432F440F842F822B37FB0F
:10238000992790F90C9668E671E00E94A235438186
:1023900062810C94B0112091F103221F2227221F89
:1023A0003091F203432F440F842F822B37FB992760
:1023B00090F98C30910540F4845A9E4F4091F4037B
:1023C0006091F3030C94B0110C9768E671E00E94E1
:1023D000A235F4CFE1EFF3E08081881F8827881FC2
:1023E0009091F203292F220F97FB992790F94381AF
:1023F0006FEF822B0C94B011E1EFF3E08081881F26
:102400008827881F9091F203292F220F97FB992785
:1024100090F9438160E0822B0C94B0114091F40359
:10242000443F90F4445F8091F103881F8827881F00
:102430009091F203292F220F97FB992790F9609131
:10244000F303822B0C94B0114FEFEDCF4091F403C6
:102450004C3090F04C508091F103881F8827881FE2
:102460009091F203292F220F97FB992790F9609101
:10247000F303822B0C94B01140E0EDCF20E00C94DC
:10248000F810CF939091F10390FF40C091788111A3
:1024900031C092609093F103662351F06091F10393
:1024A0007091F2038091F3039091F4030E94651000
:1024B000C091F1036C2F66956F7370E04BE050E0B4
:1024C0008CE791E00E94BC35892BE1F01092FA0272
:1024D000CC1FCC27CC1F9091F203892F880F97FB3C
:1024E000992790F94091F4036091F3038C2BCF91DD
:1024F0000C943E12853210F09864CCCF8F73880F05
:10250000982BC8CF81E08093FA02E2CFCF91089553
:1025100061E00C9441128091F10386958F738F5F77
:10252000853208F081E00C9488128091F103869541
:102530008F73815009F484E20C948812E1EFF3E088
:1025400080818160808386958F730C94881260E00F
:102550000C9441128091BF0381608093BF030E945D
:102560003625811104C00E9415250E946B100E941F
:1025700061106093F1037093F2038093F3039093DF
:10258000F4036E7761F40E946B100E9461106093F7
:10259000F1037093F2038093F3039093F40381E0CB
:1025A0008093FA028091F10380FF04C086958F73B7
:1025B0000C94A71208959091F10390FF0DC02F3055
:1025C00058F494E0299FF0011124EA50FC4F8183D4
:1025D000608342830C94B71008951F93CF93DF93C9
:1025E00000D000D0CDB7DEB7122F2091F10320FF2D
:1025F0000BC09E012F5F3F4F0E94EC0F212F4B819C
:1026000069818A810E94DB120F900F900F900F90CA
:10261000DF91CF911F910895E1EFF3E080818E7FEC
:10262000808360817181828193810E946510109204
:10263000FA022FEF80E792E0215080409040E1F7CE
:1026400000C000000C94B7108091F10380FD0C9441
:102650000C130C949E12CF93C82F8091F802909186
:10266000F9020E945E26EC2FF0E0E65CFA4FE4915E
:10267000E817190611F008F042C00E945226909304
:10268000F9028093F8026091F70270E090E080E038
:102690000E948F3320E030E04FE753E40E94B232D3
:1026A0002BED3FE049E450E40E94B8340E94253508
:1026B0000E942C332BE43AE34EE25FE30E94453262
:1026C00020EF3BEF48ED52E40E94B8340E945E33A5
:1026D000462F8091F103881F8827881F9091F2036D
:1026E000292F220F97FB992790F96091F303822BF2
:1026F0000E94DD108091F7028F5F8093F702CF91E7
:102700000895CF93C82F8091F5029091F6020E9410
:102710005E26EC2FF0E0E95CFA4FE491E817190629
:1027200009F0E8F40E9452269093F6028093F50295
:102730004091F4036091F3038091F3029091F402CD
:102740000E94DD108091F3029091F402019668E6F8
:1027500071E00E948E359093F4028093F302CF9142
:102760000895CF92DF92FF920F931F93CF93DF9341
:10277000F82E8091F1029091F2020E945E26EF2DD8
:10278000E695F0E0EC5CFA4FE491E817190609F0E1
:10279000A8F50E9452269093F2028093F10206EF70
:1027A00013E0D0E0C0E088E6C82EDD24D394809109
:1027B000EF029091F0028C0F9D1FB6010E948E35A2
:1027C00098014091F4036091F3030E94EC0F689626
:1027D0000C5F1F4FC83681E0D80749F70E94B71039
:1027E0008091EF029091F002F0FE10C00196BE01C0
:1027F0000E948E359093F0028093EF02DF91CF918B
:102800001F910F91FF90DF90CF9008950197F2CF25
:10281000CF92DF92EF92FF920F931F93CF93DF93AC
:10282000C82FFF24FA9480FD02C0FF24F394809106
:10283000ED029091EE020E945E26C695EC2FF0E02C
:10284000EF5CFA4FE491E817190611F008F051C057
:102850000E9452269093EE028093ED0206EF13E061
:10286000D0E0C0E0F80111821082128294E0C92EFB
:10287000D12CE12C8091EC028E0D87FD815F082E1A
:10288000000C990BC817D907E9F48091F4038C9DCB
:10289000A0018D9D500D112455954795559547954F
:1028A0008091F103881F8827881F9091F203592F88
:1028B000550F97FB992790F998016091F303852BA9
:1028C0000E94EC0FEF0CF1E0CF1AD10899F6219697
:1028D0000C5F1F4FCF30D10529F60E94B7108091B1
:1028E000EC0291E0F91210C081110CC08EE08093CF
:1028F000EC02DF91CF911F910F91FF90EF90DF904D
:10290000CF9008958150F3CF90E00196BE010E94D0
:10291000A235EDCF0F931F93CF93DF93C82F8091F4
:10292000EA029091EB020E945E26EC2FF0E0E25D5D
:10293000FA4FE491E817190611F008F052C00E940E
:1029400052269093EB028093EA02C6EFD3E0FE0199
:10295000118210821282349684E0E233F807C1F7C4
:1029600010E000E08091E902082E000C990B081796
:102970001907E4F180917B01082E000C990B801758
:102980009107A4F18091F103881F8827881F9091F7
:10299000F203592F550F97FB992790F99E0140910B
:1029A000F4036091F303852B0E94EC0F0F5F1F4F20
:1029B00024960F301105B1F60E94B71080917A016C
:1029C0009091E902980F9093E90220917B01280FE2
:1029D00020937B01121614F49E301CF08195809395
:1029E0007A01DF91CF911F910F910895198218827A
:1029F0001A82DCCFEF92FF920F931F93CF93DF9356
:102A00008091E7029091E8020E945E26883E934002
:102A1000C8F10E9452269093E8028093E702C09189
:102A2000E502D091E6022196C170DD27D093E6023F
:102A3000C093E50286EFE82E83E0F82E10E008E769
:102A4000812F86958C0F9D2F911D8170992797015D
:102A50004091F4036091F303FC010E9FC0010F9FAE
:102A6000900D11240E94EC0F1F5FF4E0EF0EF11C9B
:102A70001F3031F7DF91CF911F910F91FF90EF90B1
:102A80000C94B710DF91CF911F910F91FF90EF90B1
:102A90000895CF93DF9300D000D0CDB7DEB78091FB
:102AA000E3029091E4020E945E26ECE2F5E02591BB
:102AB000349182179307B8F18091E20281110CC022
:102AC0009E012F5F3F4F4FEF6FEF90E080E00E943D
:102AD000EC0F8A818093E2020E9452269093E402D6
:102AE0008093E3028091E102813069F038F04091F7
:102AF000E202823009F040E080E003C08091E2020F
:102B000040E060E004C06091E20240E080E00E94AA
:102B1000CC108091E10290E0019663E070E00E94A9
:102B2000A2358093E1020F900F900F900F90DF91EC
:102B3000CF910895CF93DF938091DF029091E002CF
:102B40000E945E26843F9140B8F10E9452269093E5
:102B5000E0028093DF02D0E0C0E04091DD025091BE
:102B6000DE022C2F6091F3038091F103382F331F85
:102B70003327331F9091F203892F880F832B97FB04
:102B8000992790F9C730D105D4F4452BD1F0409165
:102B9000F4030E94ED122196CF30D105F1F60E9488
:102BA000B7108091DD029091DE0201968170992725
:102BB0009093DE028093DD02DF91CF910895452B43
:102BC00031F340E0E6CF8091FA028823D1F1909171
:102BD000F103892F86958F732EE3280F2F732430EE
:102BE00018F482500C942B132AE3280F2F732330F0
:102BF00018F486500C94811327E3280F2F73263086
:102C000018F489500C94B11321E3280F2F73263048
:102C100018F48F500C9408142BE2280F2F732330D4
:102C200018F485510C948A149E77903311F40C9407
:102C3000FA14963411F40C944915983411F40C9448
:102C40009A1508958823B9F05198599A5098589A2E
:102C500095E09A95F1F70000509A589895E09A956A
:102C6000F1F70000882311F0519A599885E08A9570
:102C7000F1F700000895519A5998E8CF8BB18C7FF5
:102C80008BB95098589A5198599A85E08A95F1F7DE
:102C9000000008958AB18C7F8AB985E08A95F1F7A2
:102CA0000000519A599885E08A95F1F70000509AF2
:102CB000589885E08A95F1F7000008955098589A41
:102CC00085E08A95F1F700005198599A85E08A9538
:102CD000F1F700000895CF93DF93D82FC8E08D2F30
:102CE00080780E942216DD0FC150C9F780E00E9453
:102CF000221685E08A95F1F7000085E08A95F1F7C4
:102D0000000080E0DF91CF9108953BB1242F209502
:102D100023233BB1432B3FB7F894FC01680F791F85
:102D2000E617F70711F43FBF0895819198E04BB97A
:102D3000000000C087FF2BB9880F000000C000C052
:102D400000C02BB900C09A9591F7EACFAF92BF921D
:102D5000CF92DF92EF92FF920F931F93CF93DF9367
:102D60008C01EB01CFB6D090BC00F8948091BC00F0
:102D70008B7F8093BC000E943E160E944A1684E816
:102D80000E946B16CC0FDD1FCC0FDD1F78015E019A
:102D9000A00EB11EEA14FB04A9F40E945E16CFBE79
:102DA000D092BC00579A40E8BE01C801DF91CF9194
:102DB0001F910F91FF90EF90DF90CF90BF90AF9059
:102DC0000C948516F70181917F010E946B16E2CF6A
:102DD000CF93DF93EC0181E08F878F810E9489245C
:102DE00088850E949D240E945324EA81FB816A8980
:102DF0007B89CE010696309719F0DF91CF91099427
:102E0000DF91CF910895CF93DF93EC0188818230D9
:102E100039F4FB01828193810E947F0881E08987D8
:102E2000DF91CF910895FC018081813029F4FB016D
:102E3000808191810C947F08823021F4FB01828192
:102E40009381F8CF0895FC018081813029F4FB0142
:102E5000808191810C949408823021F4FB0182815D
:102E60009381F8CF0895EF92FF920F931F93CF9322
:102E7000DF93EC018885811132C0EB80FC8087E50F
:102E8000F81A24E12E9DC0012F9D900D1124DC0124
:102E9000AE5FBE4F1496ED91FC91159752966D91D1
:102EA0007C91885F9E4F309709F0099584E18E9D53
:102EB00080018F9D100D11240E5F1E4FF801878138
:102EC0000E948F24F80180850E94A3240E9453242D
:102ED00018821F8219861092FC021092FB02DF9169
:102EE000CF911F910F91FF90EF900895DF92EF9295
:102EF000FF920F931F93CF93DF937C01FB0182819D
:102F0000882391F0809187018F3F71F0C2E0D1E07A
:102F100010E000E0DD24D39480918701082E000C9E
:102F2000990B8017910744F4DF91CF911F910F9176
:102F3000FF90EF90DF9008958E818823B9F0898506
:102F40009A858E159F0539F48091FB029091FC02C1
:102F5000E816F90659F0DD868F85811103C0CE0190
:102F60000E94E816CE0106960E9433170F5F1F4F8E
:102F70006496D2CFEF92FF920F931F93CF93DF937C
:102F80007C0197558F3F910509F0D8F52091870175
:102F9000022E000C330B2817390714F48093870195
:102FA000FB01228134E1389F8001399F100D1124EB
:102FB000E801CE5FDE4F2E8792818E81992349F101
:102FC000FA86E9868F5F8E830E9452269C878B87C4
:102FD0000E94C5248F830E94862488870E949A2499
:102FE0009885892B8887E881F9816A897B89C8015E
:102FF000885F9E4F309709F00995F092FC02E092AD
:10300000FB0281E0DF91CF911F910F91FF90EF9034
:1030100008958823B1F38F85882399F3C801885FC9
:103020009E4F0E943317EDCFEF92FF920F931F93A5
:10303000CF93DF938091870110E004E18F3FC1F5CA
:10304000DF91CF911F910F91FF90EF900895029F14
:10305000F001039FF00D1124EE5FFE4FE088F18830
:10306000E114F10419F48DE7E82EF12C029FE00140
:10307000039FD00D1124CE5FDE4F8E818823B9F0DF
:103080008B859C850E945E26E816F90680F4109FC9
:10309000700111248F85811105C0C7018E5F9E4F7D
:1030A0000E94E816C701885F9E4F0E9433171F5F7A
:1030B000212F30E080918701082E000C990B821798
:1030C00093072CF6BDCF90930203809301030895DC
:1030D000E0910103F0910203309721F00190F0811B
:1030E000E02D099480E00895E0910103F09102033E
:1030F000309721F00280F381E02D09940895E0914A
:103100000103F0910203309721F00480F581E02D56
:10311000099408952091FF02309100032817390780
:1031200071F0909300038093FF02E0910103F0910E
:103130000203309721F00680F781E02D099408956D
:103140002091FD023091FE022817390771F090930B
:10315000FE028093FD02E0910103F091020330979B
:1031600021F00084F185E02D0994089508950C94D0
:10317000B61881E008950E94492685B7806885BF0A
:1031800085B7806885BF0E94DC040E94E0260C940D
:10319000AA12BF92CF92DF92EF92FF920F931F93EA
:1031A000CF93DF93CDB7DEB72A970FB6F894DEBF83
:1031B0000FBECDBF0E9448050E94B918882309F4AC
:1031C00071C084E0C82E83E0D82E10E000E0B02E5D
:1031D000802F0E94AD05E82EF601F1906F01F816E0
:1031E00009F45AC08091BF0381FD0E94B30590E0AD
:1031F00080E0FE242F2D30E0482FB901082E02C0B8
:10320000759567950A94E2F760FF41C08E83BF828F
:1032100081E090E06C0102C0CC0CDD1C4A95E2F725
:103220002E2D30E02C213D21232B09F480E08887CE
:103230000E9452268160782F9A8789874E815F810C
:1032400068858A850E94AB19F801EC5FFC4F80818C
:103250008C2580830E9473280E9468189091030334
:10326000891789F10E946818809303032A960FB684
:10327000F894DEBF0FBECDBFDF91CF911F910F91AC
:10328000FF90EF90DF90CF90BF900C941F090196B4
:103290008630910509F0B0CF0F5F1F4F0E3011053A
:1032A00009F095CF8FEF89838A831B820E94522673
:1032B0008160782F9D838C8349815A816B818D81B8
:1032C0000E94AB19C7CF2A960FB6F894DEBF0FBE87
:1032D000CDBFDF91CF911F910F91FF90EF90DF90C5
:1032E000CF90BF900895CF93DF93DC018C91682F2E
:1032F00070E021E030E001C0220F8A95EAF71196D4
:103300004C91119750E0EA01CE5EDC4F9881129605
:103310008C9112978823C9F0809122038823C1F0F1
:1033200086E0849FF001859FF00D1124E60FF71FC2
:10333000EE0FFF1FE656FE4F408151814D935C9387
:10334000292B2883DF91CF910895892F8223E6CFFF
:1033500020952923F6CFCF93DF93CDB7DEB72B97F8
:103360000FB6F894DEBF0FBECDBF942F4F83252F2D
:10337000588769877A878B874A855B8581E0452BEB
:1033800031F02F3F19F481E09F3F09F080E080FD8C
:1033900004C0CE0107960E9473191E821D8285E02B
:1033A000FE013796DE01119601900D928A95E1F7A4
:1033B00049815A816B817C818D819E810E94182177
:1033C0002B960FB6F894DEBF0FBECDBFDF91CF9125
:1033D0000895FC01808191810E94E12392959F7064
:1033E000963041F48091220391E089278093220353
:1033F000909321030895CF93C82F882309F4DAC04E
:103400008238C1F40E94681881FDD4C089E30E940B
:103410000F240E9453242FEF81EE94E0215080402E
:103420009040E1F700C0000089E30E941624CF918C
:103430000C9453248338A1F40E94681880FDBAC00C
:1034400083E50E940F240E9453242FEF81EE94E025
:10345000215080409040E1F700C0000083E5E5CFB7
:103460008438A1F40E94681882FDA4C087E40E94F9
:103470000F240E9453242FEF81EE94E021508040CE
:103480009040E1F700C0000087E4CFCF8CEF8C0FB5
:10349000813A48F48C2F0E94922A81118BC08C2F84
:1034A0000E940F24C4CF80E28C0F883048F4C7708C
:1034B00081E001C0880FCA95EAF70E948924B7CF3E
:1034C0008BE58C0F833068F481E890E0C53A31F0E9
:1034D00083E890E0C63A11F482E890E0CF910C9432
:1034E0008A1888E58C0F853108F05EC082EE90E086
:1034F000C83A09F456C089EE90E0C93A09F451C0BF
:103500008AEE90E0CA3A09F44CC085EB90E0CB3AE1
:1035100009F447C086EB90E0CC3A09F442C083EB53
:1035200090E0CB3BF1F184EB90E0CC3BD1F187EB29
:1035300090E0CD3AB1F18CEC90E0C03B91F18DEC94
:1035400090E0CE3A71F183E891E0CF3A51F18AE808
:1035500091E0C13B31F182E991E0C23B11F184E994
:1035600091E0C33BF1F081E292E0C43BD1F083E211
:1035700092E0C53BB1F084E292E0C63B91F085E277
:1035800092E0C73B71F086E292E0C83B51F087E2DF
:1035900092E0C93B31F090E080E0CA3B11F48AE24E
:1035A00092E0CF910C94A018C03F20F08C2FCF91C7
:1035B0000C947C27CF910895882309F450C0823859
:1035C00071F40E94681881FF4AC089E30E940F24A9
:1035D0000E94532489E30E9416240C9453248338B8
:1035E00059F40E94681880FF3AC083E50E940F24B6
:1035F0000E94532483E5EFCF843859F40E94681861
:1036000082FF2DC087E40E940F240E94532487E488
:10361000E2CF9CEF980F913AF0F290E2980F983039
:1036200050F4877091E001C0990F8A95EAF7892FCD
:103630000E948F24D2CF9BE5980F933020F490E026
:1036400080E00C948A1898E5980F953120F490E06A
:1036500080E00C94A018803F10F00C94E4270895AB
:10366000882321F00E9489240C94532408958823F0
:1036700021F00E948F240C94532408958F929F92DE
:10368000AF92BF92DF92EF92FF920F931F93CF936F
:10369000DF937C01D62FC72FFC01058102950F70A7
:1036A000128111110E94AB240E944C24D82E882331
:1036B00071F0112331F180E28D0F883010F182E03A
:1036C0000E9436240E944C2491E0D82ED926BC2E8C
:1036D000B2949FE0B922EB2DF0E0EF58F44E0C9439
:1036E000B635831B831BD31BD31B131C3B1CAA1D8A
:1036F0001A1C7D1C1A1C181D181DA11D1A1C1A1C31
:10370000DC1DD12CE4CF0C2F0F70C07F11F002957F
:10371000007F1123A9F0002359F080E28D0F88303B
:1037200010F0D11109C0802F0E9489240E945324D7
:103730008D2F0E94FB1914C0802F0E949D24F6CF6C
:103740008D2F0E94DC1A002359F080E28D0F883003
:1037500010F0D11124C0802F0E948F240E94532486
:10376000DD2009F454C20E94292480FD50C2F701D3
:1037700012820E9423240E94A722C7010E94131EC6
:103780000E942324DF91CF911F910F91FF90EF9022
:10379000DF90BF90AF909F908F900C94C822802FA5
:1037A0000E94A324DBCFFC2FFF70BF2EC07FC0324E
:1037B00019F0B29480EFB822DD2339F0D13019F13D
:1037C000112359F1002321F1B3CF112381F001110D
:1037D00006C00E94C5248B290E94301BC1CF013036
:1037E000C1F70E94C5248B290E94BF24B9CF0111C3
:1037F00006C00E94C2248B2D0E94371BB1CF01301E
:1038000009F4AECFF6CF112329F0023008F0A8CF8B
:103810008B2DE2CF0111A4CFEECF002361F38D2FCA
:103820000E94DC1A9DCF8C2F86958695837079F047
:103830008130B9F0F8E0BF1609F49BC0BF1608F458
:103840008FCF86EF8B0D823008F493C089CF8D2FF8
:103850009C2F9370111102C090E080E00E948A18A2
:103860007FCF8D2F9C2F9370111102C090E080E0CC
:103870000E94A01875CF112309F1D53F99F0D63FCA
:10388000B9F0D43F49F480913204909133048160BF
:1038900090933304809332048D2F0E947C270E94E2
:1038A00068285ECF80913204909133048260F0CF1B
:1038B00080913204909133048460EACFD53F89F03F
:1038C000D63FA9F0D43F49F480913204909133045B
:1038D0008E7F90933304809332048D2F0E94E427CF
:1038E000DECF80913204909133048D7FF2CF8091AE
:1038F0003204909133048B7FECCF8C2F837009F0CE
:103900004BC0111136C02D2F229526952770220FFE
:10391000220F6D2F6F70862E912CB12CA12C022EB0
:1039200004C0880C991CAA1CBB1C0A94D2F760E046
:1039300070E0CB01D4FF0FC06FE070E080E090E05A
:1039400004C0660F771F881F991F2A95D2F76095CC
:10395000709580959095C695C695C370C23071F0EC
:10396000A0F4682979298A299B29C13091F00E9405
:103970005B220E9468180E941F09F2CE68297929EB
:103980008A299B290E946D22F4CF0E945B22C501E7
:10399000B4010E944922EDCF8695112311F08C2F9E
:1039A0008170882331F32D2F229526952770220FC1
:1039B000220F6D2F6F70862E912CB12CA12C022E10
:1039C00004C0880C991CAA1CBB1C0A94D2F760E0A6
:1039D00070E0CB01D4FF0FC06FE070E080E090E0BA
:1039E00004C0660F771F881F991F2A95D2F760952C
:1039F000709580959095C695C695C370C23051F06C
:103A000080F4682979298A299B29C13071F00E94A4
:103A10001E23AFCF682979298A299B290E94302348
:103A2000A8CF0E941E23C501B4010E940C23A1CF80
:103A3000E0E2ED0FE53108F065C0F0E0EE5DF24E3A
:103A40000C94B635371D371D371D371D371D371DF3
:103A5000371D371D371D371D371D371D371D371DC6
:103A6000371D371D481D551D5C1D631D6D1DDF7005
:103A70008C2F8F71112331F00E94A7228D2F0E946D
:103A8000301BD8CE0E94C8228D2F0E94371BD2CE69
:103A9000112339F00111CECE8C2F8F710E94EB22B1
:103AA000C9CE023008F0C6CEF7CF8C2F8F7111230C
:103AB00039F00E94A722BECE8C2F8F711123C9F33B
:103AC0000E94C822B7CE112329F08C2F8F710E943B
:103AD0009222B0CE0E948D22ADCE112349F0CF713B
:103AE0008C2F0E94A72263E08C2F0E942D24A2CE4F
:103AF00081E00E943624023008F49CCE82E00E94CD
:103B0000362498CE112349F0002321F08D2F0E94F6
:103B1000FB1990CE8C2F8F71CCCF002379F0D93345
:103B200049F42FEF87EE93E0215080409040E1F779
:103B300000C000008D2F0E94DC1A7CCE8C2F8F716C
:103B4000BFCF4C2F4F706D2FC7010E9481070E947D
:103B5000C12106CED23F71F1C8F4D03F01F1D13F6F
:103B6000B9F180912103002309F446C0882341F074
:103B70008091220391E089278093220310922103F0
:103B80008D2F112389F10E94FB1916C0D43FD9F063
:103B900078F0D53F31F711110FC081E006C0112335
:103BA00059F08091220391E089278093220304C079
:103BB00081E01827109322034C2F4F706D2FC701FF
:103BC0000E940F0C37CE1111F7CF10922203F4CFC1
:103BD000112339F080912103882319F310922103D6
:103BE000EBCF0023F1F2E8CF0E94DC1A86E0F70168
:103BF00011928A95E9F7E0CF8823F1F21111DCCF19
:103C00008091220391E0892780932203E7CFDF91FF
:103C1000CF911F910F91FF90EF90DF90BF90AF90E9
:103C20009F908F9008950F931F93CF93DF93EC0194
:103C3000988189812B813C81232B39F08F3F19F4A6
:103C400081E09F3F19F080E001C081E080FD17C056
:103C5000CE010E943109882391F0688179818A819F
:103C60000E94EB238C010E9442230E944622B8014D
:103C7000CE01DF91CF911F910F910C943E1BDF91EC
:103C8000CF911F910F9108950E94AB240E94BC24F4
:103C90000E941D240E9453240E9407290E94682824
:103CA00090E080E00E948A1890E080E00C94A018D8
:103CB0000E9497240C94441E0E94E123E92FE29570
:103CC000EF70E250EE30E0F4F0E0E759F14E0C9482
:103CD000B635771E771E801E801E821E801E801EB7
:103CE000801E771E771E871E801E801E871E803FC7
:103CF00019F020F4803E20F481E00895843FE1F340
:103D000080E00895803EC0F3813FD1F7F5CF93FB6B
:103D1000882780F90895CF93DF9300D000D01F92B9
:103D2000CDB7DEB70F900F900F900F900F90DF91EF
:103D3000CF910895CF93DF9300D000D000D0CDB7BE
:103D4000DEB726960FB6F894DEBF0FBECDBFDF916B
:103D5000CF9108951F93CF93DF93C091230316E073
:103D6000809124038C1304C0DF91CF911F9108959B
:103D7000D0E01C9FF0011D9FF00D1124EB5DFC4F66
:103D80004081518162817381848195810E949A1E54
:103D90002196C770E5CF409155035091560360912D
:103DA0005703709158038091590390915A030C94D2
:103DB0009A1E1F93CF93DF9380915A03807FD1F493
:103DC000809157038823B1F080912303D09124037D
:103DD000B0915503C0915603409158035091590337
:103DE000A1E0BF3F09F0A0E0BA016095709516E030
:103DF000D81304C0DF91CF911F91089521E04115A0
:103E0000510521F02A2FCF3F09F020E090E020FD5E
:103E100038C0189FF001199FF00D1124EB5DFC4F85
:103E200021812C132EC020812B132BC02281211124
:103E300028C0238134812417350700F1241B350B5A
:103E40002D373105F0F420915A032F702061209313
:103E50005A0326E0289FF001299FF00D1124E65D0A
:103E6000FC4F80818F708061808385E593E00E94A4
:103E7000131EDF91CF911F910C94AA1E260F371F9E
:103E8000DFCF01968770B4CFAF92BF92CF92DF920F
:103E9000EF92FF920F931F93CF93DF93CDB7DEB7CF
:103EA00061970FB6F894DEBF0FBECDBF8C0185E0E1
:103EB000F801DE011D9601900D928A95E1F7D80177
:103EC0004C9111965C9111971296EC90309155039C
:103ED00060915603809158039091590321E0009717
:103EE00031F06F3F19F421E03F3F09F020E0B22F9D
:103EF000B170BB2E20FD80C1F801C380D480A0909A
:103F00005703AA2009F427C1C816D906D0F1D60153
:103F1000A81BB90BCD01FF24F3948D37910508F050
:103F2000F12C80915A03982F907FFF2009F4CEC086
:103F3000911187C0FE2C651329C0341327C0E110EE
:103F400025C08F70806180935A030E94CB1E85E547
:103F500093E00E94131E80915A03F80185838F2DF0
:103F600061960FB6F894DEBF0FBECDBFDF91CF9143
:103F70001F910F91FF90EF90DF90CF90BF90AF9087
:103F80000895809590958C0D9D1DC5CF81E0CD281D
:103F900031F05F3F19F481E04F3F09F080E080FD90
:103FA00024C081E08E25F82FF170DF2E80FF3FC006
:103FB000809123032091240336E0821318C04D879B
:103FC0005E878D859E850E94E123292F22952F7083
:103FD000223008F1243030F59F7009F1D801159690
:103FE0009C91907FE1F4FB2CBACF80E0DCCF90E095
:103FF000389FF001399FF00D1124EB5DFC4F61817A
:10400000561306C06081461303C062816E110FC053
:1040100001968770D2CF9F7011F0882321F3805EC4
:10402000883008F3C8010E94131EBD2CDCCFEE209F
:1040300009F495CF80915A03816080935A03F12C43
:104040008ECF651314C0341312C0E11010C0F801F4
:104050008583C8010E94131E86E0F801A5E5B3E040
:1040600001900D928A95E1F70E94CB1E78CF4D8783
:104070005E878D859E850E945C1E882319F1EE2047
:1040800009F180915A03803270F0209155033091EC
:10409000560338872F831986DB86CA868C87CE0124
:1040A00007960E94131E86E0F801A5E5B3E0019093
:1040B0000D928A95E1F70E94D91E0E94CB1EFF2423
:1040C000F3944DCFC8010E94131EF9CF911113C074
:1040D0007C2DD98AC88A6E2D89890E948B1E85E520
:1040E00093E00E94131E86E0E5E5F3E0DF011D92F8
:1040F0008A95E9F7B9CF651312C0341310C0E110E7
:104100000EC0F8018583C8010E94131EE5E5F3E0A7
:1041100086E0DF011D928A95E9F7FA2C20CF4D87C2
:104120005E878D859E850E945C1E882359F2EE2055
:1041300049F280915A03803208F4B5CF209155039B
:10414000309156033A8329831B82DD82CC828E8391
:10415000CE010196A6CFC816D90638F1F601E81BA4
:10416000F90BCF01F12C8D37910508F03DC0FE2CE5
:10417000EE2009F4A7CF651326C0341324C0809124
:104180005A0380FD17C0982F907FA1F0D801159693
:104190008C931597903F09F45CCF982F907F905F98
:1041A0008F70892B15968C9354CF809590958C0D9C
:1041B0009D1DD8CF86E0F801A5E5B3E001900D92F2
:1041C0008A95E1F7CCCE4D875E878D859E850E94CE
:1041D0005C1E811168CF80915A03816080935A03DD
:1041E000C8010E94131EBBCE7C2DD98AC88A6E2DB1
:1041F00089890E948B1E77CFEE2009F463CF4D870B
:104200005E878D859E850E945C1EF82E882309F4AA
:1042100059CF86E0F801A5E5B3E001900D928A95AB
:10422000E1F785E593E00E94E9190E94D91E1CCFB1
:104230001F93CF93DF93CDB7DEB72C970FB6F894CB
:10424000DEBF0FBECDBF4F83588769877A878B87C4
:104250009C87CE0107960E94441F882309F442C020
:104260009F8188852A853B85232B39F08F3F19F460
:1042700081E09F3F19F080E001C081E080FD08C02F
:104280004F81588569857A858B859C850E949A1E09
:1042900016E08091230390912403891709F467C0E5
:1042A000819FC00111248B5D9C4F0E94441F882375
:1042B00009F45DC0E09123031E9FF0011124EB5D22
:1042C000FC4F4081518162817381848195810E947C
:1042D0009A1E8091230390E001968770992780931E
:1042E0002303D7CF86E0FE013796DE0111960190B9
:1042F0000D928A95E1F79F8188852A853B85232B3E
:1043000039F08F3F19F481E09F3F19F080E001C040
:1043100081E080FDBDCF2091240330E0C9010196EA
:1043200087709927409123034817190699F096E062
:10433000929FD001939FB00D1124AB5DBC4FFE0145
:10434000319601900D929A95E1F7809324030E9493
:10435000AA1E9ECF0E94581E10922403109223037F
:1043600086E0E5E5F3E0DF011D928A95E9F72C96FA
:104370000FB6F894DEBF0FBECDBFDF91CF911F9176
:104380000895EF92FF920F931F93CF93DF938C01C9
:10439000892B81F0F12CEE24E394E8012196F801B9
:1043A0008491843770F4843008F05FC08130B1F0BC
:1043B0008230A1F1DF91CF911F910F91FF90EF908B
:1043C0000895853709F44CC008F43DC09CE7980F68
:1043D000903780F78F770E94DC1A49C00E5F1F4F1D
:1043E000FE01849190E2980F983060F48770FE2D62
:1043F00001C0FF0F8A95EAF78F2F0E94AE240E941A
:10440000532402C00E94FB198F2D815030F2EFE936
:10441000FFE03197F1F700C00000F7CF0E5F1F4FAC
:10442000FE01849190E2980F983050F48770FE2D31
:1044300001C0FF0F8A95EAF78F2F0E94B424DFCFC7
:104440000E94DC1AE1CF0E5F1F4FFE01C491C150E4
:10445000D8F28FE99FE00197F1F700C00000F7CF95
:104460000E5F1F4FFE01F490CFCF0E94FB198E010B
:10447000CBCF08950E9439226093960370939703DF
:1044800080939803909399030C94441E08950C9480
:104490003A220F931F930091960310919703209156
:1044A000980330919903602B712B822B932B1F91D2
:1044B0000F910C943A220F931F9300919603109141
:1044C00097032091980330919903602371238223ED
:1044D00093231F910F910C943A220F931F930091F5
:1044E00096031091970320919803309199036027C8
:1044F0007127822793271F910F910C943A220C94D5
:10450000F4070E947F226093920370939303809339
:104510009403909395030C94441E60E070E0CB01EB
:104520000C9481220F931F9341E050E060E070E013
:104530008A019B0104C0000F111F221F331F8A959F
:10454000D2F7C901B8011F910F910C9481220F93EA
:104550001F9341E050E060E070E004C0440F551F3D
:10456000661F771F8A95D2F78091920390919303EB
:10457000A0919403B09195038A019B01082B192BFC
:104580002A2B3B2BC901B8011F910F910C9481225A
:104590000F931F9341E050E060E070E004C0440FCF
:1045A000551F661F771F8A95D2F7CB01BA01609518
:1045B00070958095909500919203109193032091AE
:1045C00094033091950360237123822393231F91D9
:1045D0000F910C9481220F931F9341E050E060E013
:1045E00070E004C0440F551F661F771F8A95D2F7ED
:1045F0008091920390919303A0919403B0919503BD
:104600008A019B01082719272A273B27C901B801DE
:104610001F910F910C9481220F931F93009192038D
:10462000109193032091940330919503602B712B8B
:10463000822B932B1F910F910C9481220F931F9328
:10464000009192031091930320919403309195036C
:1046500060237123822393231F910F910C94812255
:104660000F931F9300919203109193032091940351
:104670003091950360277127822793271F910F910F
:104680000C9481220895292F220F920F990F890FE0
:10469000982F977071E001C0770F9A95EAF7869589
:1046A0008695869525E0829FC001112450E040E068
:1046B000A62FB0E0FC01E40FF51FE55AFC4F608126
:1046C0009D01042E02C0369527950A94E2F72170C9
:1046D000219526272723262720834F5F5F4F4530CC
:1046E000510541F70895292F220F290F220F820F1C
:1046F000982F977086958695869545E0849F9001C2
:10470000112470E060E080E0F901E60FF71FE55A40
:10471000FC4F408150E0092E02C0569547950A94FF
:10472000E2F741705527062E01C0440F0A94EAF7BC
:10473000842B6F5F7F4F6530710531F70895BF920D
:10474000CF92DF92EF92FF920F931F93CF93DF935D
:104750008C01C0909203D0909303E0909403F0906A
:1047600095038091960390919703A0919803B0913F
:104770009903C82AD92AEA2AFB2ACFE1D0E0BC2E25
:10478000D701C6010C2E04C0B695A79597958795BD
:104790000A94D2F780FD0EC0219788F7B12C8B2D9B
:1047A000DF91CF911F910F91FF90EF90DF90CF900D
:1047B000BF900895B8018C2F0E942C0C019761F3D3
:1047C000EECFCF93DF93EC010E949F23BE01DF91D8
:1047D000CF910C942C0C1F93CF93DF93EB0190910E
:1047E0002003992331F0CB01DF91CF911F910C94DD
:1047F000E123882379F0CB010E949F23182F682F93
:10480000CE010E944323BE01812FDF91CF911F91E2
:104810000C942C0CCB010E947323182FF4CF682F1B
:1048200080918801909189010C94AF25682F809127
:104830008801909189010C94BA258091880190910A
:1048400089010C94C52580919A0385958595859558
:10485000089580919A038770089598E0899F900148
:104860001124622B60939A030C94A72290919A03CF
:104870008095892380939A03282F277061F4282F2D
:10488000082E000C330B9217130629F08595859599
:1048900085950C94C822089590919A03977081E0B1
:1048A00009F480E00895E0918801F09189018091F8
:1048B000BE038083E0918801F0918901808190910D
:1048C000BD03892B8083E0918801F091890180816B
:1048D0009091BC03892B808390919B03992381F055
:1048E000E0918801F09189018081892B80838091FA
:1048F0008801909189010E945225811110929B0399
:1049000080918801909189010C9474188091BE0364
:1049100008959091BE03892B8093BE030895982F2C
:1049200090958091BE0389238093BE0308951092D1
:10493000BE0308958091BD0308959091BD03892B16
:104940008093BD030895982F90958091BD0389238E
:104950008093BD0308951092BD0308959091BC0308
:10496000892B8093BC030895982F90958091BC0368
:1049700089238093BC0308951092BC03089580930B
:104980009B03089510929B03089580919B030895C3
:10499000CF92DF92EF92FF926C01EE24FF2420E091
:1049A000C114D104E104F10419F0C701B60120E1FA
:1049B000C72ED82EE92EFF24C114D104E104F1043E
:1049C00019F0285FC701B6016B017C0154E0F69431
:1049D000E794D794C7945A95D1F7C114D104E10450
:1049E000F10419F02C5FC701B6016B017C0142E0B4
:1049F000F694E794D794C7944A95D1F7C114D1049B
:104A0000E104F10419F02E5FC701B6019695879570
:104A100077956795672B682B692B09F02F5F822F9D
:104A2000FF90EF90DF90CF9008956DEE7EEF90E0D5
:104A300080E00E94FB3560E082E090E00E94DD357E
:104A400060E083E090E00E94DD3560E084E090E08B
:104A50000E94DD3560E085E090E00E94DD3540E0B9
:104A600050E0BA0188E090E00C94EF3590E080E0EF
:104A70000E94D73521E08D3E9E4F09F020E0822F25
:104A8000089582E090E00C94C93583E090E00C94A6
:104A9000C93584E090E00C94C935682F84E090E03B
:104AA0000C94DD35FC0131969C01205E3F4F80E087
:104AB000919191118F5FE217F307D1F708959C014F
:104AC000FC0132969FEF80E04191461751F09F3FE5
:104AD00019F4411101C0982F8F5F8E31A9F79F3FC4
:104AE00009F40895290F311D97FD3A95F901628364
:104AF0000895FC01329680962191261303C0DF01B0
:104B000011971C92E817F907B9F70895E62FE69573
:104B1000E695E695EF3169F0E80FF92FF11D677022
:104B200021E030E001C0220F6A95EAF78181822BF3
:104B300081830895E62FE695E695E695EF3171F0CD
:104B4000E80FF92FF11D677021E030E001C0220F5E
:104B50006A95EAF720958181282321830895209181
:104B60009901222329F02091380427FD0C948625F1
:104B70000C945F2520919901222329F0209138047B
:104B800027FD0C949A250C947925FC01319680968A
:104B90001192E817F907E1F7089508950C94CD25CF
:104BA0000E94CE2580913E04843049F11092C003CA
:104BB00088E190E020E40FB6F894A8958093600017
:104BC0000FBE2093600080E00E941F090E94CE2546
:104BD00083B7817F846083BF83B7816083BF78940C
:104BE000889583B78E7F83BF0FB6F894A895809180
:104BF0006000886180936000109260000FBE08958D
:104C00000895CF930E94F8040E9448050E94002650
:104C1000C0E08C2F0E94AD05811105C0CF5FCE3062
:104C2000C1F7CF91089581E0FCCF08950C9415262B
:104C30000E94581E0E9468180E941F090C94162694
:104C40001F920F920FB60F9211248F939F93AF93E1
:104C5000BF938091C003811113C08091340490915F
:104C60003504A0913604B09137044196A11DB11DC1
:104C70008093340490933504A0933604B0933704A2
:104C8000BF91AF919F918F910F900FBE0F901F908A
:104C9000189582E084BD93E095BD9AEF97BD80930F
:104CA0006E0008952FB7F8948091340490913504E4
:104CB000A0913604B09137042FBF0895CF92DF92B0
:104CC000EF92FF920F931F932FB7F8944091340403
:104CD0005091350460913604709137042FBF6A01FA
:104CE0007B01EE24FF248C0130E020E0C016D106C9
:104CF000E206F30650F0481B590BCA011F910F91B1
:104D0000FF90EF90DF90CF90089541505109F3CF7D
:104D100078941F920F920FB60F9211248F939F9346
:104D2000AF93BF938091340490913504A0913604E1
:104D3000B09137040196A11DB11D80933404909366
:104D40003504A0933604B0933704BF91AF919F917F
:104D50008F910F900FBE0F901F901895F89481E0DF
:104D60008093E00080E28093D800E9ECF0E01082CC
:104D70008FE19EE40197F1F700C000001DBA109288
:104D800068001CBC10BE1FBA10927A0010926E0010
:104D900010926F0010927100109272001082ECEB72
:104DA000F0E0108214B817B81AB81DB810BA108203
:104DB00015B818B81BB81EB811BA0C94003F089566
:104DC0000E943625811102C00E9415250E944125AE
:104DD0008093BF030E94492590E09093390480930B
:104DE00038040E944525682F70E090E080E00C9424
:104DF00047228091C40380FF12C060918D0185E03D
:104E0000689FB00111247595679575956795603811
:104E10007105A8F561157105A1F1862F089581FF2F
:104E200009C060918D0185E0689FB00111247595DE
:104E30006795EDCF82FF07C060918D0185E0689F87
:104E4000B0011124E4CF2091C5032223A9F0909151
:104E50008C0160918D0185E0689FB00111242917B4
:104E6000B0F6269FA001279F500D1124692F70E0F6
:104E7000CA010E94A235CBCF65E070E0CECF8FE7AC
:104E8000089581E008958091C40380FF0CC0609173
:104E90008B0170E07595679575956795611571053E
:104EA00049F1862F089581FF06C060918B0170E063
:104EB00075956795F3CF60918B0182FD0BC0909142
:104EC000C5039923A1F060918A0180918B01961707
:104ED00038F0682F70E06038710500F38FE70895AF
:104EE000899FC001112470E00E94A235F4CF61E0D7
:104EF00070E0D7CF81E00895803F31F40E94F92619
:104F000081958093C8030895813F19F40E94F92682
:104F1000F8CF823F31F40E94F92681958093C70330
:104F20000895833F19F40E94F926F8CF893F29F4A8
:104F30000E9443278093C90308958A3F21F40E9469
:104F400043278195F7CF8B3F31F40E94432781950A
:104F50008093CA0308958C3F19F40E944327F8CF29
:104F6000843F31F48091C60381608093C603089525
:104F7000853F21F48091C6038260F7CF863F21F4FC
:104F80008091C6038460F1CF873F21F48091C603EE
:104F90008860EBCF883F21F48091C6038061E5CF24
:104FA0008D3F31F48091C40381608093C4030895E0
:104FB0008E3F21F48091C4038260F7CF8F3FB9F711
:104FC0008091C4038460F1CF803FC1F48091C80315
:104FD00087FD1092C8038091C70381110EC0809194
:104FE000C80381110AC08091C903811106C0809154
:104FF000CA03811102C01092C5030895813F29F4AC
:105000008091C80318162CF3E6CF9091C703823F16
:1050100029F497FFE0CF1092C703DDCF833F19F447
:105020001916CCF3D8CF893F39F48091C9031816EB
:1050300094F61092C903CFCF8A3F29F48091C90317
:1050400087FFC9CFF6CF8B3F39F48091CA0387FF22
:10505000C2CF1092CA03BFCF8C3F29F48091CA03FC
:105060001816BCF3B8CF843F31F48091C6038E7F0D
:105070008093C603B0CF853F21F48091C6038D7F16
:10508000F7CF863F21F48091C6038B7FF1CF873F16
:1050900021F48091C603877FEBCF883F21F4809174
:1050A000C6038F7EE5CF8D3F31F48091C4038E7FA0
:1050B0008093C40390CF8E3F21F48091C4038D7FF1
:1050C000F7CF8F3F09F087CF8091C4038B7FF0CF5C
:1050D00086EC93E00E947F180E9452269093C203B0
:1050E0008093C10308951F93CF93DF938091C103F1
:1050F0009091C2030E945E26AC019091C50320915D
:105100008E0130E0911106C02091C3038AE0289FF0
:10511000900111244217530780F08091C703D0916A
:10512000C8031091C903C091CA0381110AC0D111EB
:105130006AC0111168C0C11166C0DF91CF911F9183
:1051400008959F3F19F09F5F9093C503181624F4AC
:105150000E94F9268093C7038091C70387FF05C08B
:105160000E94F92681958093C7031D1624F40E949E
:10517000F9268093C8038091C80387FF05C00E9469
:10518000F92681958093C8033091C7033323C1F07A
:105190002091C8032223A1F045EB3403C001112460
:1051A000892F911101C081E08093C70345EB24034F
:1051B00090011124832F311101C081E08093C80335
:1051C000111624F40E9443278093C9038091C903D8
:1051D00087FF05C00E94432781958093C9031C1651
:1051E00024F40E9443278093CA038091CA0387FF57
:1051F00005C00E94432781958093CA03DF91CF9118
:105200001F910C9468289F3F09F09DCFAECF85E099
:10521000E6ECF3E0DF011D928A95E9F71092C503F1
:105220001092C4030895833081F128F4813059F03D
:105230008230D1F00895853009F449C0B8F1863044
:1052400009F456C008958091C303482F460F55278F
:10525000551F4F3F510524F4680F6093C303089511
:105260008FEF8093C303089580918E01482F460FDE
:105270005527551F4F3F510524F4680F60938E0149
:1052800008958FEF80938E01089580918D01482FAE
:10529000460F5527551F4F3F510524F4680F609363
:1052A0008D0108958FEF80938D01089580918C0179
:1052B000482F460F5527551F4F3F510524F4680FBF
:1052C00060938C0108958FEF80938C0108958091F5
:1052D0008B01482F460F5527551F4F3F510524F48A
:1052E000680F60938B0108958FEF80938B01089571
:1052F00080918A01482F460F5527551F4F3F510572
:1053000024F4680F60938A0108958FEF80938A01D7
:105310000895833011F128F4813049F0823091F002
:105320000895853081F120F18630C1F10895809192
:10533000C303681720F4861B8093C303089510925B
:10534000C303089580918E01681720F4861B809313
:105350008E01089510928E01089580918D01681735
:1053600020F4861B80938D01089510928D0108957D
:1053700080918C01681720F4861B80938C0108951E
:1053800010928C01089580918B01681720F4861B80
:1053900080938B01089510928B01089580918A016A
:1053A000681720F4861B80938A01089510928A0161
:1053B00008950F931F9341E050E060E070E08A0190
:1053C0009B0104C0000F111F221F331F8A95D2F7C3
:1053D000C901B8010E9447221F910F910C94581ED9
:1053E000873208F043C08E3108F08BC0803109F459
:1053F0007DC0C8F4873009F46AC028F4863009F407
:105400005CC080E008958B3009F455C08E30C9F738
:105410009091BF03892F8B7F92FF84608093BF039D
:1054200082FD20C048C0863109F445C068F481314E
:1054300041F70E94581E90913804892F97FB87F9F5
:1054400080588093380437C08931A9F18B31C9F66F
:105450009091BF03892F8D7F91FF82608093BF035E
:1054600081FF29C08091BF0381603DC0883319F15D
:1054700050F4893221F0853311F0873211F680E043
:105480000E94D92918C08334D1F328F48A3308F450
:10549000B8CF8953F5CF883409F0B3CF0E94581E96
:1054A0002FEF83ED90E3215080409040E1F700C062
:1054B00000000E94AE2681E008958091BF03817FA5
:1054C0008E7F8093BF0381E08093CC0308959091F9
:1054D000BF03892F8E7F90FF81608093BF0380FD83
:1054E000EACF897F877F8093BF03E5CF9091BF0389
:1054F000892F877F93FF88608093BF0383FDB2CF9E
:10550000DACF8D51BDCF80E008950C94832A8E515F
:105510008A3030F4E82FF0E0EE5BFD4F8081089593
:1055200080E00895CF93C82F8091CC038130E1F0C3
:1055300038F0823009F43FC01092CC0380E012C0F2
:10554000E0918801F09189018081813111F08232EE
:10555000A9F78C2F0E94832A81111DC08C2F0E94D5
:10556000F0298170CF910895E0918801F09189012F
:105570008081813171F3823261F38C2F0E94852A00
:10558000811110C0C43181F048F4CB3059F0C031E2
:1055900071F080E0E6CF81E090E0E3CFC93221F006
:1055A000C833B9F781E0DDCF1092CC03F2CF82E0AF
:1055B0008093CC03F7CFC93219F188F4C43101F1DB
:1055C00020F4C73081F181E0CDCF82EE8C0F8630A0
:1055D000D0F78C2F0E94872A8093CB03F4CFCE3450
:1055E00001F140F46AE0CB3471F78091CB030E9463
:1055F0001329E9CFC13579F061E0C235B1F3E3CFCA
:105600008091CB03882319F01092CB03DCCF81E08B
:105610008093CC03A7CF61E08091CB030E948929BE
:10562000D2CF6AE0F9CF1092C30384E180938E0158
:10563000C0938D018CE380938C0188E080938B0173
:1056400088E280938A01BFCF8091ED0308950F9384
:105650001F93CF93DF9300D01F92CDB7DEB78C019D
:105660000E94962D823011F0843019F583E08983F1
:105670001B830A838093E9008FEF9091E8008150AB
:1056800095FD06C095ED9A95F1F700008111F5CFD3
:105690008091E80085FF0DC050E040E063E070E0DD
:1056A000CE0101960E94B32D8091E8008E77809301
:1056B000E8000F900F900F90DF91CF911F910F9105
:1056C0000895CF93DF9300D01F92CDB7DEB720911E
:1056D0003E04243031F522E02983805891099B83D0
:1056E0008A8383E08093E9008FEF9091E8008150F6
:1056F00095FD06C095ED9A95F1F700008111F5CF63
:105700008091E80085FF0DC050E040E063E070E06C
:10571000CE0101960E94B32D8091E8008E77809390
:10572000E8000F900F900F90DF91CF910895CF93E5
:10573000DF93EC010E94962D823011F08430F9F451
:1057400082E08093E9008FEF9091E800815095FD11
:1057500006C095ED9A95F1F700008111F5CF809183
:10576000E80085FF0CC050E040E065E070E0CE014D
:105770000E94B32D8091E8008E778093E800DF913E
:10578000CF910895CF93DF93EC010E94962D823044
:1057900011F08430F9F4809199018823F1F080911F
:1057A000380487FF1AC084E08093E9008FEF90915E
:1057B000E800815095FD06C095E19A95F1F700004B
:1057C0008111F5CF8091E80050E040E060E270E0A8
:1057D00085FD1AC0DF91CF91089581E08093E900A3
:1057E0008FEF9091E800815095FD06C095ED9A9558
:1057F000F1F700008111F5CF8091E80085FFEACF35
:1058000050E040E068E070E0CE010E94B32D80914E
:10581000E8008E778093E80080E2FE01ADECB3E013
:1058200001900D928A95E1F7D5CF80913D048111C9
:1058300009C00E94432F0E94A02F8091E200846043
:105840008093E200089510923D040895089508950C
:105850000C94182642E061EC81E00E94C12E42E0E7
:1058600061EC82E00E94C12E42E061EC83E00E9484
:10587000C12E42E261EC84E00C94C12E8091400480
:10588000833009F455C030F4813071F1823009F46D
:1058900091C008958A3009F47DC08B3009F463C04B
:1058A000893009F044C080913F04813209F03FC043
:1058B0008091430490914404009711F00397B9F547
:1058C0008091E800877F8093E8008091E80082FF64
:1058D0002AC08091F1008093ED038091E8008B77DE
:1058E0008093E8000C94F52E80913F04813AF9F4FE
:1058F0008091E800877F8093E80080914304909135
:105900004404892B61F460E28DEC93E070E00E9426
:10591000022E8091E8008B778093E800089560E084
:1059200090E080E0F3CF80913E048111CECF0895C6
:1059300080913F04813AD9F78091430490914404C7
:10594000892BA9F78091E800877F8093E8008091F8
:10595000E80080FFFCCF809199018093F100809155
:10596000E8008E77BDCF80913F04813201F78091AE
:10597000430490914404892BD1F68091E800877FFD
:105980008093E8000E94F52E809141048093990154
:105990000C94581E80913F04813249F68091E800B2
:1059A000877F8093E8000E94F52E809142048093C7
:1059B000EE03089580913F04813A09F0B8CF8091B9
:1059C000E800877F8093E8008091E80080FFFCCFAB
:1059D0008091EE03C2CF84B7877F84BF0FB6F8945F
:1059E000A8958091600088618093600010926000AB
:1059F0000FBE80E880936100109261000E94B7188A
:105A00000E94432F0E94A02F8091E2008460809327
:105A1000E20078940E9429320E94BB188FE891E03E
:105A20000E94631880913E04853029F00E94C918B5
:105A30000E94E315F7CF0E94D02580913C04882373
:105A400089F30E940126882369F30E949D2DEACFE5
:105A50000C942A2D292F33272330310579F158F45E
:105A600021303105F1F02230310519F190E080E06C
:105A700030E020E01AC021323105C9F1223231056F
:105A8000A9F76430710590F7FB01EE0FFF1FE05B93
:105A9000FD4F20813181645B7D4FFB01808190E06F
:105AA00004C082E190E02FEE36E0FA0131832083DA
:105AB00008958DE690E022E836E0F7CF992781300F
:105AC000910579F040F08230910571F0039771F6FD
:105AD000E8E4F6E002C0EEE7F6E0849190E09F0192
