:100000000C94EC030C9409040C9409040C9409045A
:100010000C9409040C9409040C9409040C9409042C
:100020000C9409040C9409040C94682F0C943B3034
:100030000C94D5250C9409040C9409040C9409041F
:100040000C9409040C9409040C9409040C940904FC
:100050000C9409040C943D260C9409040C94090496
:100060000C9409040C9409040C9409040C940904DC
:100070000C9409040C9409040C9409040C940904CC
:100080000C9409040C9409040C9409040C940904BC
:100090000C9409040C9409040C9409040C940904AC
:1000A0000C9409040C9409040C9409040763423667
:1000B000B79BD8A71A39685618AEBAAB558C1D3CF9
:1000C000B7CC5763BD6DEDFD753EF6177231BF00BD
:1000D0000000803F05A84CCDB2D44EB93836A902F5
:1000E0000C50B9918688083CA6AAAA2ABE00000036
:1000F000803F6060006C73202D6C610A006000021C
:10010000E0616403E0006769742070757368206FB4
:10011000726967696E20484541440A0034313131C3
:1001200031313131313131313131313100636C654F
:1001300061720A0067697420636F6D6D6974202DA8
:10014000616D2022002D3E006572676F646F785FDD
:10015000657A2F6576616E204020302E362E32363D
:10016000372D332D67333335323637006572676F7D
:10017000646F785F657A2F6576616E204020302E3F
:10018000362E3236372D332D67333335323637003E
:100190000000F0A145002B00E101E100E0000000BB
:1001A0001E00140004001D00E30002581F001A0086
:1001B00016001B00E20028002000080007000600CF
:1001C000EC5C2C0021001500090019002E000158DC
:1001D000220017000A00050000002D002F00260253
:1001E00000002F000000290030002702000030002E
:1001F00000004C0023001C000B0011000000E95C13
:10020000240018000D0010002102010025000C0040
:100210000E00360001572C00260012000F00370098
:10022000025733002700130034003800035734020C
:100230002A0031002800E50004570000C25CC35CBE
:10024000C85CC75C01000000CA5CC65C010001001C
:1002500001000100C95CC55C010001000100010052
:10026000430040003D003A0001000100440041000D
:100270003E003B0001000100450042003F003C0001
:100280000000010001000100000001000000010069
:1002900056005700000058000000010055005F00A4
:1002A0005C00590000000100540060005D005A002D
:1002B00062000100530061005E005B00630001000A
:1002C0000100010001000100010001000100010026
:1002D0000100010001000100010001000100010016
:1002E0000100000001000100010001000100000008
:1002F00001000100010001000100010001000100F6
:1003000001000100010001000100EF5C0100EB5C55
:1003100001000100ED5C010001000100010001008D
:1003200001001705EA5CEE5C00000100010001001D
:1003300000000100000001000100010000000100B8
:1003400000000100010001000100010000000100A7
:100350000100010001000100010001000100010095
:10036000010001000100010001000100F05C01003A
:100370000100010001000100010001000100010075
:100380000100010001000100010000000100010066
:100390000100010001000000010001000100010056
:1003A0000100010001000100010001000100010045
:1003B0000100010001000100010001000100010035
:1003C0000100010001000100010001000100010025
:1003D0000000010001000100000001000000010018
:1003E0000100010000000100000001000100010007
:1003F00001000100000001000100010001000100F6
:1004000001000100010001000100010001000100E4
:1004100001000100010001000100010001000100D4
:1004200001000100010001000100010001000100C4
:100430000100000000000000000000002A2B28003E
:100440000000000000000000000000000000002983
:10045000000000002C1E3420212224342627252EC3
:10046000362D3738271E1F202122232425263333FB
:10047000362E37381F0405060708090A0B0C0D0E27
:100480000F101112131415161718191A1B1C1D2FF3
:100490003130232D350405060708090A0B0C0D0E13
:1004A0000F101112131415161718191A1B1C1D2FD3
:1004B0003130354C0000000000000000000000005A
:1004C000000000000000000000000000000000002C
:1004D0000000000000010101010101000101010112
:1004E000000000000000000000000000000001000B
:1004F00001000101010101010101010101010101ED
:1005000001010101010101010101010101010100DC
:1005100000000101000000000000000000000000D9
:1005200000000000000000000000000000000001CA
:100530000101010000047F3F1F643214643214780B
:100540003C1E1E140A056801F000B40078005A0031
:10055000000000000001010101010101010102028E
:100560000202020202020203030303030303030461
:100570000404040404050505050506060606060729
:10058000070707080808080909090A0A0A0A0B0BDD
:100590000B0C0C0C0D0D0D0E0E0F0F0F101011117A
:1005A00011121213131414151516161717181819FB
:1005B000191A1A1B1C1C1D1D1E1F1F202021222260
:1005C0002324252526272728292A2B2B2C2D2E2F9F
:1005D0002F30313233343536363738393A3B3C3DBB
:1005E0003E3F4041424344464748494A4B4C4D4FA9
:1005F00050515253555657585A5B5C5E5F60626368
:10060000646667696A6C6D6E707173747678797BF5
:100610007C7E8081838486888A8B8D8F919294964C
:10062000989A9B9D9FA1A3A5A7A9ABADAFB1B3B568
:10063000B7B9BBBDBFC1C4C6C8CACCCFD1D3D6D849
:10064000DADCDFE1E4E6E8EBEDF0F2F5F7FAFCFFE7
:1006500004033000000016034500720067006F00BD
:1006600044006F007800200045005A000000160387
:100670004500720067006F0044006F0078002000A2
:1006800045005A0000000403090409023B0002016E
:1006900000A0FA0904000001030101000921110171
:1006A00000012240000705810308000A0904010037
:1006B000010300000009211101000122C00007050B
:1006C000820320000A1201100100000008EDFE075D
:1006D0001301000102030105010902A101850209BC
:1006E00001A10005091901290515002501950575C8
:1006F0000181029501750381010501093009311558
:1007000081257F95027508810609381581257F9519
:100710000175088106050C0A38021581257F9501AF
:1007200075088106C0C005010980A1018503160175
:10073000002603001A81002A8300751095018100AC
:10074000C0050C0901A1018504160100269C021AAE
:1007500001002A9C02751095018100C0050109065F
:10076000A1018505050719E029E715002501950870
:100770007501810205081901290595057501910288
:100780009501750391010507190029EF1500250151
:1007900095F075018102C005010906A1010507193F
:1007A000E029E7150025019508750181029501757D
:1007B0000881010508190129059505750191029522
:1007C00001750391010507190029FF150026FF0097
:1007D000950675088100C00011241FBECFEFDAE036
:1007E000DEBFCDBF12E0A0E0B1E0EAE7FBE602C069
:1007F00005900D92A635B107D9F724E0A6E5B2E041
:1008000001C01D92A034B207E1F70E94952C0C9410
:10081000BB350C94000080B38C7080BB81B3836FB8
:1008200081BB089584B1807F84B985B1807F85B90B
:100830008AB1837F8AB98BB1837F8BB93E98469802
:100840000895CF93C82F873080F580910001909153
:100850000101892B99F564E670E080E40E9495051A
:100860009093010180930001892BD1F464E670E03C
:1008700082E10E94EA059093010180930001892B97
:1008800079F481E090E001C0880FCA95EAF764E648
:1008900070E080950E94EA05909301018093000129
:1008A00084E690E0CF910C943D068A30B9F040F494
:1008B000883071F0893079F0209A2898CF91089586
:1008C0008C3091F070F08D30B9F73E9A4698F6CFA3
:1008D000219A2998F3CF229A2A98F0CF239A2B981D
:1008E000EDCF529A5A98EACF539A5B98E7CF089582
:1008F0000C947704CF93DF930E94E10690E09093ED
:100900000101809300010E9412040E940B04E9EB94
:10091000F2E0ABEAB2E087E592E011921D92EC01C1
:1009200026E019922150E9F7069622E0E73CF2070B
:10093000A1F7DF91CF910C94E1080E94E10690E0CD
:1009400090930101809300010E9412040E940B0405
:10095000E9EBF2E0119282E0E73CF807D9F708955D
:10096000CF93DF93E62FF0E0E555FD4F4081482718
:10097000808386E0689FF0011124E95AFD4F30E042
:1009800020E080E061E070E050E0AAE0B22F9191B9
:100990009923B9F0EF01219791509883EA0102C0A1
:1009A000D595C795BA95E2F7C0FF03C0EF0121972F
:1009B000A8832F5F3F4F2630310541F7DF91CF915C
:1009C0000895EB01022E01C0CC0F0A94EAF78C2B9C
:1009D000E5CFCF93DF93D82F873008F050C08091B8
:1009E000000190910101C0E0892B81F464E670E080
:1009F00080E40E9495059093010180930001892B6A
:100A0000B1F0C0E084E690E00E943D066D2F8C2F8F
:100A10000E94B004ED2FF0E0E754FD4F982F909521
:100A2000208192238C23892BDF91CF91089564E656
:100A300070E083E10E94EA05909301018093000138
:100A4000892BF9F664E670E081E40E9495059093A5
:100A5000010180930001892BA1F684E690E00E94B9
:100A6000190697FF05C09093010180930001C9CF3B
:100A7000C82FC0951092010110920001C3CFCFB1D1
:100A80008FB1869586958C73C3708C2BC82FC095BB
:100A9000BDCF0F931F93CF93DF938091000190916F
:100AA0000101892B91F0809156028F5F809356024D
:100AB00081110BC00E94E10690E0909301018093A8
:100AC0000001892B11F40E948B0609EB12E0C0E0B3
:100AD0008C2F0E942104D7E0DC0F8D2F0E9421046F
:100AE0008C2F0E94E904F80181938F018D2F0E94C1
:100AF000E904F80186830E941204CF5FC73041F7F2
:100B00000E94EB0881E0DF91CF911F910F91089532
:100B1000E82FF0E0E754FD4F80810895089510928A
:100B2000B9008CE08093B8000895EF92FF920F9384
:100B30001F93CF93DF93182FEB011092BC0084EA30
:100B40008093BC000E9407267C018091BC0087FF37
:100B50000DC08091B900887F8830D9F08091B900AC
:100B6000887F8031B1F08FEF9FEF0CC0CF3FDC0763
:100B700061F30E9407268E199F098C179D0728F3A1
:100B80008EEF9FEFDF91CF911F910F91FF90EF902C
:100B900008951093BB0084E88093BC000E94072650
:100BA0008C018091BC0087FF0AC08091B900887FCA
:100BB000883111F08034B9F690E080E0E3CFCF3F88
:100BC000DC0779F30E940726801B910B8C179D0789
:100BD00040F3D6CF0F931F93CF93DF93EB01809316
:100BE000BB0084E88093BC000E9407268C018091A2
:100BF000BC0087FF11C02091B900287F81E090E000
:100C0000283211F490E080E0919581959109DF916F
:100C1000CF911F910F910895CF3FDC0741F30E94C0
:100C20000726801B910B8C179D0708F38EEF9FEF13
:100C3000EECF0F931F93CF93DF93EC0184E8809363
:100C4000BC000E9407268C018091BC0087FF08C071
:100C50008091BB0090E0DF91CF911F910F9108959B
:100C6000CF3FDC0789F30E940726801B910B8C176E
:100C70009D0750F38EEF9FEFEECF0F931F93CF930F
:100C8000DF93EC0184E98093BC000E9407268C016D
:100C90008091BC0084FD07C090E080E0DF91CF919F
:100CA0001F910F910895CF3FDC0791F30E94072613
:100CB000801B910B8C179D0758F38EEF9FEFEECFA3
:100CC000259A2D9A0895269A2E9A0895279A2F9A52
:100CD000089556985E98089525982D980895269819
:100CE0002E98089527982F9808950E9469060E94CB
:100CF0006C060E946F060C94720690E09093890037
:100D00008093880090938B0080938A0090938D004D
:100D100080938C0008950E9475068FEF0E947D06D7
:100D20000E9460062FEF80E792E0215080409040C3
:100D3000E1F700C000000E9463062FEF80E792E019
:100D4000215080409040E1F700C000000E946606FC
:100D50002FEF80E792E0215080409040E1F700C003
:100D600000000E946C062FEF80E792E02150804047
:100D70009040E1F700C000000E946F062FEF80E76F
:100D800092E0215080409040E1F700C000000E94B6
:100D900072060C94750689EA8093800089E080933E
:100DA000810024982C983F988AB18F7C8AB96E98DC
:100DB000479A8BB180638BB9769A0E948B060C940C
:100DC000690780E290E09093010180930001809197
:100DD000C70281110EC00E948F0581E08093C70277
:100DE0002FEF83ED90E3215080409040E1F700C069
:100DF000000064E670E080E40E9495059093010194
:100E000080930001892B09F050C064E670E080E017
:100E10000E94EA059093010180930001892B09F05B
:100E200044C064E670E080E00E94EA05909301010E
:100E300080930001892BC9F564E670E08FE30E947E
:100E4000EA059093010180930001892B71F584E6F6
:100E500090E00E943D0664E670E080E40E94950503
:100E60009093010180930001892BF9F464E670E00E
:100E70008CE00E94EA059093010180930001892B88
:100E8000A1F464E670E080E00E94EA05909301011D
:100E900080930001892B49F464E670E08FE30E949F
:100EA000EA05909301018093000184E690E00E949E
:100EB0003D06809100010895611108C0FC01828106
:100EC000882321F08CE691E00E94DE0890E080E02B
:100ED00008950895CF93DF93EC01FB01828188236D
:100EE00009F449C00E9407269093C9028093C80262
:100EF000FE01E65EFC45EB30F10508F04CC0ED5715
:100F0000F84F0C9460358E0794079907A307A6073E
:100F1000A907B507AC07AF07B207B8070E94F424CA
:100F200080E0DF91CF91089588E491E00E94DE088F
:100F3000F7CF81E00E94FC1145E469E389E690E087
:100F40000E949511EDCF85E491E0F0CF84E391E02C
:100F5000EDCF8DE291E0EACF8CE191E0E7CF86E042
:100F600091E0E4CF8FEF90E0E1CF8DEF90E0DECF26
:100F700085EF90E0DBCF8091C8029091C9020E947A
:100F800013268E37910538F0CC3EDC4521F482EFF4
:100F900090E00E94DE0881E0C4CFCF92DF92EF9212
:100FA000FF92CF936B017C010E943924C82F0E94CD
:100FB00069060E946C060E946F060E947206C1506C
:100FC000C73078F4EC2FF0E0E851F84F0C9460351E
:100FD000EF07FB070008F907FE07050803080E9452
:100FE0006006C701B601CF91FF90EF90DF90CF90E0
:100FF00008950E9460060E946306F3CF0E94600677
:101000000E946606EECF0E9460060E946306F8CF3B
:101010000F931F93CF93DF938C01EB019A9581156A
:101020009F41B8F410FF03C080EEFB01099511FF4A
:1010300003C081EEFE01099512FF03C082EEFE019E
:10104000099513FF03C083EEFE01099501151041B8
:1010500028F4DF91CF911F910F91089584EEFE0146
:10106000099585EEFE01099586EEFE01099587EE4C
:10107000FE01DF91CF911F910F910994877091E04C
:1010800001C0990F8A95EAF7892F0E940E240C94CB
:10109000C1230C943E08877091E001C0990F8A9596
:1010A000EAF7892F0E9414240C94C1230C944B0856
:1010B000CF93DF93EC01805E9109089720F06EE3F7
:1010C00078E0209711F469E478E0CE010E940808E6
:1010D0008C2FDF91CF910C944D19CF93DF93EC01BE
:1010E0000E943A1ACE01805E9109089720F06BE4C5
:1010F00078E0209711F466E578E0CE01DF91CF919A
:101100000C94080881E008950C946A07CF9390E04E
:10111000FC01EC5CFB4FC4918C549B4FFC0184910F
:10112000882369F081EE0E944D198C2F0E944D1981
:101130008C2F0E943A1A81EECF910C943A1A8C2F80
:101140000E944D198C2FF8CFFF920F931F93CF93CE
:10115000DF938C01F62EF8018491882349F1E80190
:101160002196813049F4FE011491812F0E944D197E
:10117000812F0E943A1A06C0823089F4FE018491C0
:101180000E944D198E010F5F1F4F8F2D815018F354
:10119000EFE9FFE03197F1F700C00000F7CF8330AF
:1011A00019F4FE018491E5CF0E948608E801EACF98
:1011B000DF91CF911F910F91FF90089560E00C9403
:1011C000A4080E948624811102C00E94F4240E9477
:1011D000690E0C94CB060E9451170C947804282FAA
:1011E0002F7041F0822F90E02A3010F44D96089530
:1011F0000697089587E290E0089508950C94FD08FD
:101200000C94FE0808950E94C21D0E9402092FEF4F
:1012100084E39CE0215080409040E1F700C0000052
:101220000C946326FF920F931F93CF93DF938C014F
:10123000FC01C081D1818091150381115BC0828145
:10124000882309F452C0CE010E940D23F82E682F86
:10125000CE010E94B122BE018F2D0E94CF0BEC0166
:10126000B8010E94B116B801CE010E9484088823FB
:1012700009F4EAC0B801CE010E94F716882309F4E8
:10128000E3C0B801CE010E94E40E882309F4DCC05B
:10129000CC3CFCE5DF0709F428C108F071C0C43C70
:1012A0009CE5D90709F4FAC008F048C0C531FCE54F
:1012B000DF0728F5C2308CE5D80708F078C1C115E2
:1012C0009CE5D90709F4BBC0C130DC4509F4C3C0B3
:1012D00081E08093CF028093D002C801DF91CF914B
:1012E0001F910F91FF900C948208CE010E94E12281
:1012F000F82EB1CFCE010E940D23BE01AECFC23C6D
:10130000FCE5DF0709F4B8C008F0BDC0C631DC4514
:10131000F9F60E94F423F8019281992309F434C26A
:101320008A7A91E009F490E09093CA0281112AC26E
:1013300089E20E947D230E94C12386C0F801828138
:10134000C83CFCE5DF0709F4BEC068F4C63CECE528
:10135000DE0709F4B3C008F4ACC0882309F474C0F4
:101360000E94411171C0CA3C9CE5D90709F4B7C07D
:1013700008F4AFC0882309F467C00E94C70F64C097
:10138000C43DFCE5DF0709F4F6C040F5F8018281B1
:10139000C03DFCE5DF0709F4C4C0A8F4CE3CECE591
:1013A000DE0709F4B1C008F4A8C0882309F44CC0D2
:1013B0000E94BE0F863028F00E94BE0F883008F4CD
:1013C00075C086E09EC0C23D9CE5D90709F4C5C042
:1013D00008F4B5C08823C1F188E193C0C83DFCE59D
:1013E000DF0709F4B4C1B0F4F8018281C63DFCE521
:1013F000DF0709F460C108F4CEC0882309F489C16D
:101400001092D0020E9407269093CE028093CD02C4
:1014100080E25CC1CC3DECE5DE0709F4C1C0CD3D06
:10142000FCE5DF0711F1CB3DDC4509F051CFF801B8
:101430008281882349F080E00E94302D05C0F801A8
:10144000828181110E94030980E0DF91CF911F9179
:101450000F91FF900895F80182818823A9F380916C
:10146000B40381608093B403EFCFF80182818823B5
:1014700059F30E94F424E8CFF8018281882321F3F4
:101480000E945412E1CFF80182818823E9F20E9480
:10149000F423827259F00E94F911D6CFF8018281AB
:1014A000882391F20E94F4238272A9F30E94EB1127
:1014B000CBCF882349F20E940711C6CF882321F29F
:1014C0000E942A11C1CF882309F4BECF0E9458116F
:1014D000BBCF882309F4B8CF0E947511B5CF8823FC
:1014E00009F4B2CF0E949211AFCFF8018281882314
:1014F00009F4AACF0E94DC0FA7CF882309F4A4CF58
:1015000081E00E94FC11A0CF882309F49DCF0E94A6
:10151000BE0F823020F00E94BE0F853038F282E08C
:10152000F0CF882309F490CF0E94BE0F893028F0B5
:101530000E94BE0F8E3008F4B9CF89E0E2CF882335
:1015400009F482CF0E94BE0F8F3028F00E94BE0F98
:10155000843108F4ABCF8FE0D4CF882309F474CF63
:101560000E94BE0F853128F00E94BE0F873108F41B
:101570009DCF85E1C6CFF8018281882309F464CF2D
:101580000E94BE0F893128F00E94BE0F823208F4FB
:101590008DCF89E1B6CF882309F456CF83E2B1CF4E
:1015A000F8018281882309F44FCF82E045CFF8010A
:1015B0008281882309F491CE0E948624811102C081
:1015C0000E94F4240E94992490E090933204809326
:1015D0003104FE01E350FC45809131048160E23129
:1015E000F105C8F4EA50F54F0C946035080B140B64
:1015F000180B1C0B200B240B280B2C0B300B340B63
:10160000380B3C0B400B440B480B4C0B500B540B52
:1016100080913104826080933104809131040E9472
:101620009D240E94C21D10CF809131048460F3CFAD
:10163000809131048860EFCF809131048061EBCFDD
:10164000809131048062E7CF809131048064E3CFE0
:10165000809131048068DFCF809131048460EACFCB
:10166000809131048E7FD7CF809131048D7FD3CF8D
:10167000809131048B7FCFCF80913104877FCBCF96
:10168000809131048F7EC7CF809131048F7DC3CF8D
:10169000809131048F7BBFCF809131048F77BBCF96
:1016A000809131048B7FEACF90913104892F97FB91
:1016B00087F98058B0CF882361F01092CF020E9442
:1016C00007269093CC028093CB0282E00E94981A66
:1016D000BBCE0E94F42385FF05C081E08093CF023A
:1016E0008093D0028091CF0281110FC08091CB02F4
:1016F0009091CC020E9413268D37910530F486E23A
:101700000E944D1986E20E943A1A82E00E949F1AB6
:101710009BCE0E94F42381FF05C081E08093CF021D
:101720008093D0028091D00281110FC08091CD02B0
:101730009091CE020E9413268D37910530F487E2F6
:101740000E944D1987E20E943A1A80E2DFCFF80129
:101750008281811155CE8091D0028111F6CF809186
:10176000CD029091CE020E9413268D37910568F725
:1017700080E20E949F1A88E20E944D1988E20E942E
:101780003A1A62CE85E3D5CD8091CA02811104C098
:1017900089E20E948423CFCD85E3FBCF0895972F64
:1017A00070E026E0929F600D711D1124FB0194E50D
:1017B000899FE00DF11D1124EE0FFF1FEC56FE4F27
:1017C000859194910895FC01EE0FFF1FE057FE4FA5
:1017D000859194910895CF93DF930E94CF0B0E943F
:1017E000AF0DEC018115904508F043C0C11580E4B0
:1017F000D80708F01BC1C83ED10528F5C03ED10569
:1018000008F0A7C0C83AD10580F4C53AD10508F060
:1018100096C0C130D10509F49CC020F0C430D10578
:1018200008F097C0D0E0C0E094C0CF3BD10508F4E9
:1018300094C0CE01805C9109C03CD10598F30E9410
:10184000E30BEC0186C0C11520E2D20750F4C115AC
:1018500081E0D80708F07DC0C03FD10518F3D065FE
:1018600078C0C11520E3D20708F0D6C0CE019F7022
:10187000E6CFC11585E5D80760F5C11524E5D20787
:1018800008F002C1C11582E5D80750F4C11521E561
:10189000D20708F4CEC0DC2FCC27C16FD06A59C064
:1018A0009C2F969596959E0123703327C115D3459D
:1018B00008F0DBC0C1E0D0E002C0CC0FDD1F2A95EC
:1018C000E2F720E2929FC0011124C82BD92BDC68DB
:1018D00040C0C1152AE5D207A0F4C11589E5D80793
:1018E00008F0E2C0C11526E5D20708F4D2C0C11540
:1018F00088E5D80708F496CFDC2FCC27C06FD06AD4
:1019000028C0C1152BE5D20708F48CCFC1158CE592
:10191000D80708F4D6C0CE0190568115904208F041
:1019200081CF8D2F8F710E942F0EDD27D06290E026
:10193000982F882788279F71C82BD92B0AC0C53AB2
:10194000D10509F4C1C0C63AD10509F4C0C0C3E845
:10195000D0E4CE01DF91CF910895C83AD10509F4C2
:10196000B9C0C93AD10509F4B8C0CA3AD10509F4D9
:10197000B7C0CB3AD10509F4B6C0CC3AD10509F4C9
:10198000B5C0CB3BD10509F4B4C0CC3BD10509F4BB
:10199000B3C0CD3AD10509F4B2C0C03BD10509F4BA
:1019A000B1C0CE3AD10509F4B0C0CF3AD10509F49F
:1019B000AFC0C13BD10509F4AEC0C23BD10509F4AB
:1019C000ADC0C33BD10509F4ACC0C43BD10509F49B
:1019D000ABC0C53BD10509F4AAC0C63BD10509F48B
:1019E000A9C0C73BD10509F4A8C0C83BD10509F47B
:1019F000A7C0C93BD10509F4A6C0CD3BD10509F468
:101A0000A5C0CE3BD10509F4A4C0CA3BD10509F05D
:101A1000A3C0CAE2D6E49DCFCE019927D3FF03C06D
:101A2000EC01D86C96CFEC01D06C93CFDF70D06A0C
:101A300090CFCE01E4E096958795EA95E1F7837023
:101A40009C2F937021E030E002C0220F331F9A9543
:101A5000E2F73C68382BC695C695C37080E2C89FF4
:101A6000E0011124C22BD32B74CFC1E0D0E002C01F
:101A7000CC0FDD1F2A95E2F720E2929FC0011124CE
:101A8000C82BD92BDA6865CFDC2FCC27C46FD06A7E
:101A900060CF8C2F0E942F0EC82FD0E0DC2FCC27D8
:101AA000CC27DF71D06255CFCE0134E09695879573
:101AB0003A95E1F78F70CF70C06ED0E0D06AD82B26
:101AC00048CFDD27D06645CFC1E8D0E442CFC2E899
:101AD000D0E43FCFC2EED4E43CCFC9EED4E439CF5A
:101AE000CAEED4E436CFC5EBD4E433CFC6EBD4E4AE
:101AF00030CFC3EBD4E42DCFC4EBD4E42ACFC7EB73
:101B0000D4E427CFCCECD4E424CFCDECD4E421CF63
:101B1000C3E8D5E41ECFCAE8D5E41BCFC2E9D5E4BB
:101B200018CFC4E9D5E415CFC1E2D6E412CFC3E2A1
:101B3000D6E40FCFC4E2D6E40CCFC5E2D6E409CF99
:101B4000C6E2D6E406CFC7E2D6E403CFCFE6D4E4BC
:101B500000CFC0E7D4E4FDCEC0E0D4E4FACE8238B2
:101B6000910549F1B0F48133910509F45CC048F462
:101B70008932910509F452C08A32910509F458C09E
:101B800008958533910509F444C08933910599F08E
:101B90000895833E910531F138F4803E910591F02E
:101BA000823E9105B1F00895863E910511F1873E80
:101BB000910541F10895209131042370C9F080EE20
:101BC00090E008952091310420FF12C089E390E055
:101BD00008952091310422FF0BC024FF2EC090E015
:101BE00080E008952091310422FD2AC024FDF7CF22
:101BF00008952091310423FFFBCF24FDF0CF87EE21
:101C000090E008952091310423FFF0CF86EE90E01C
:101C100008952091310425FD16C0089520913104C6
:101C200025FD14C008952091310426FD12C00895A9
:101C30002091310426FD10C0089583EE90E00895B0
:101C400082EE90E0089589E290E0089585E390E0C7
:101C500008958AE290E0089581E390E0C9CF9091E1
:101C6000310492FF06C0282F2871283069F4877F3D
:101C7000846093FF06C0282F2871283161F4877E85
:101C8000846194FD877E0895282F2471243089F77C
:101C90008B7F8860EECF282F2471243191F78B7EC3
:101CA0008861EFCFCF93DF93EC01C13080E8D80794
:101CB00060F0FB018281882341F00E947F0ECE01FB
:101CC0009F770E94C70E0E94B50E81E0DF91CF91F1
:101CD00008958CE090E00E94733590E0B0E0A0E0C1
:101CE0008093E6039093E703A093E803B093E9039E
:101CF00008956091E6038CE090E00C9487350E9493
:101D0000F4238093D1020E9408248091E60381305D
:101D100081F058F08230E9F0843011F18FE39CE9D2
:101D20000197F1F700C00000089582EE0E944D195E
:101D3000F5CF80EE0E944D1981EE0E944D1988E189
:101D40000E94901A81EE0E943A1A80EE0E943A1A7E
:101D5000E5CF82EE0E944D1987E50E94901ADECFF2
:101D600086EE0E94901A88E1F8CF8091E6038130D8
:101D700051F010F0823019F482EE0E943A1A8091EC
:101D8000D1020C9405248CE20E94901AF8CF0F9394
:101D90001F93CF93DF938C01CCE0D0E0C8010C2ED1
:101DA00002C0969587950A94E2F78F700E94EF081B
:101DB0000E94901A2497CC3F8FEFD80779F7DF91D4
:101DC000CF911F910F9108950F931F93CF93DF939E
:101DD000EC018B01FB018281882371F0C23EFCE59E
:101DE000DF0719F188F4C03EECE5DE07C9F081E0B9
:101DF000C13EFCE5DF0789F0B801CE01DF91CF914C
:101E00001F910F910C94520EC33E8CE5D80779F0C8
:101E100084E0C43EECE5DE0779F78093E60302C078
:101E20001092E6030E94790EE7CF82E0F6CF83E0BE
:101E3000F4CFCF92DF92EF92FF920F931F93CF9345
:101E4000DF93E901662309F466C0E42EF12CEFEF7D
:101E5000F0E0E61BF109EE9D8001EF9D100DFE9D67
:101E6000100D1124212FE12FFF27EE1AFF0A5CE34A
:101E7000C52ED12CB6010E943835FB01BC01E69E6F
:101E8000C001E79E900DF69E900D1124B6010E94B0
:101E90003835E230F10589F168F4812F262F210FC2
:101EA000309781F0242F461B319761F080E020E0CD
:101EB00040E008C0E430F10551F128F1842F861B81
:101EC0003597A1F7E42FF0E0E05BFA4F4491E22F61
:101ED000F0E0E05BFA4F9491E82FF0E0E05BFA4F1E
:101EE000E49149839883EA83DF91CF911F910F9109
:101EF000FF90EF90DF90CF900895862F810FE42F11
:101F0000412F2E2FDFCFE42FE61B842FF9CF842F14
:101F1000462F410FD7CF842F242FD4CF88E090E0D5
:101F20000C947B35CF92DF92EF92FF926B017C0194
:101F30000E948E0F6C157D058E059F0551F0B7012F
:101F4000A60188E090E0FF90EF90DF90CF900C9496
:101F50009935FF90EF90DF90CF900895EAEEF3E08F
:101F600083E080831092EB038FEF8283838314825C
:101F700060817181828193810C94920F8091EA0338
:101F800080FF03C086958F73089580E00895809147
:101F9000EE0390E001968430910514F083E090E028
:101FA0008093EE036091EA037091EB038091EC0360
:101FB0009091ED030C94920F8091EE038150990B58
:101FC00097FF02C090E080E08430910514F083E038
:101FD00090E08093EE036091EA037091EB038091AF
:101FE000EC039091ED030C94920F8091EA03EFEED5
:101FF000F3E080FF06C06FE070E08FEE93E00C949A
:10200000DF15118210821282349684E0EB32F807D9
:10201000C1F7F1CF9091EA0390FF0CC0EFEEF3E02F
:10202000818360834283349694E0EB32F907C1F7F1
:102030000C94F50F0895CF93DF9300D000D0CDB767
:10204000DEB72091EA0320FF0AC09E012F5F3F4FB9
:102050000E94190F4B8169818A810E940A100F909A
:102060000F900F900F90DF91CF9108955F926F9234
:102070007F928F929F92AF92BF92CF92DF92EF9218
:10208000FF920F931F93CF93DF9300D000D0CDB773
:10209000DEB78C01E62EF42E522E8091EA0380FFEB
:1020A00030C0982F9E77923009F03FC09E012F5F7D
:1020B0003F4FC8010E94190F4B8169818A810E949C
:1020C0000A108091EA0300FB87F98093EA03902FBE
:1020D00096958091EB038078892B10FB87F980938C
:1020E000EB03E092EC03F092ED03552051F0609188
:1020F000EA037091EB038091EC039091ED030E9451
:10210000920F0F900F900F900F90DF91CF911F9132
:102110000F91FF90EF90DF90CF90BF90AF909F9086
:102120008F907F906F905F900895E82FE695EF7302
:102130009EE39E0F9F73943018F4F090ED03C1CF8F
:102140009AE39E0F9F73993068F4881F8827881F31
:102150009091EB03292F220F022F082B97FB1127B9
:1021600010F9AFCF87E28E0F8F738A3008F0A9CFB6
:10217000E951FF0B2FEFE0FF21E0EE7FEA5BFA4F22
:10218000859194916FE070E00E94383526034001FC
:10219000279F900C1124580188E9A81A8EEFB80ADD
:1021A0008FEEC82E83E0D82E98E6692E772473949C
:1021B000C501B3010E94383596014F2D6E2D0E9446
:1021C000190FA80CB91C84E0C80ED11C8BE2C816EC
:1021D00084E0D80669F70E94F50F73CF282FEAEE46
:1021E000F3E03081331F3327331F4091EB03542F2B
:1021F000550F852F832B47FB992790F90C9668E69E
:1022000071E00E944C35438162810C94361081E06C
:102210000C94EE10282F3091EA03331F3327331F1D
:102220004091EB03542F550F852F832B47FB9927A4
:1022300090F98C30910540F4845A9E4F4091ED0303
:102240006091EC030C9436100C9768E671E00E94E4
:102250004C35F4CF81E00C940A11EAEEF3E03081C2
:10226000331F3327331F9091EB03592F550F97FBE3
:10227000992790F9282F43816FEF852F832B0C949A
:10228000361081E00C942D11EAEEF3E03081331F1B
:102290003327331F9091EB03592F550F97FB992745
:1022A00090F9282F438160E0852F832B0C94361002
:1022B00081E00C9444114091ED03443FA0F4445F4D
:1022C0003091EA03331F3327331F9091EB03592FCB
:1022D000550F97FB992790F9282F6091EC03852FD4
:1022E000832B0C9436104FEFEBCF81E00C945B11F5
:1022F0004091ED034C30A0F04C503091EA03331F75
:102300003327331F9091EB03592F550F97FB9927D4
:1023100090F9282F6091EC03852F832B0C943610B5
:1023200040E0EBCF81E00C94781120E00C94361063
:10233000CF939091EA0390FF40C09178811131C012
:1023400092609093EA03662351F06091EA037091E2
:10235000EB038091EC039091ED030E94920FC091EA
:10236000EA036C2F66956F7370E04BE050E086E8EF
:1023700091E00E946635892BE1F01092EF02CC1FAC
:10238000CC27CC1F9091EB03892F880F97FB9927BF
:1023900090F94091ED036091EC038C2BCF910C945C
:1023A0009511853210F09864CCCF8F73880F982BDD
:1023B000C8CF81E08093EF02E2CFCF910895682FDC
:1023C0009091EA0396959F7381E0890F853208F01A
:1023D00081E00C94981181E00C94DF11682F9091AA
:1023E000EA0396959F738FEF890F09F484E20C94AA
:1023F000981181E00C94EE1161E00C949811EAEED2
:10240000F3E080818160808386958F730C94FC114A
:1024100060E00C9498118091B40381608093B403C0
:102420000E948624811104C00E94F4240E94AE0FF1
:102430000E948E0F6093EA037093EB038093EC038A
:102440009093ED036E7761F40E94AE0F0E948E0FA1
:102450006093EA037093EB038093EC039093ED0396
:1024600081E08093EF028091EA0380FF04C08695AB
:102470008F730C9408120895EAEEF3E080818E7F4A
:10248000808360817181828193810E94920F10927A
:10249000EF022FEF80E792E0215080409040E1F77B
:1024A00000C000000C94F50F8091EA0380FD0C94AD
:1024B0003C120C94FF11CF93C82F8091ED029091A4
:1024C000EE020E941326EC2FF0E0EE5BFA4FE4914F
:1024D000E817190611F008F042C00E9407269093F1
:1024E000EE028093ED026091EC0270E090E080E0FB
:1024F0000E94393320E030E04FE753E40E945C3221
:102500002BED3FE049E450E40E9462340E94CF3456
:102510000E94D6322BE43AE34EE25FE30E94EF31B1
:1025200020EF3BEF48ED52E40E9462340E940833F2
:10253000462F8091EA03881F8827881F9091EB031C
:10254000292F220F97FB992790F96091EC03822B9A
:102550000E941B108091EC028F5F8093EC02CF9160
:102560000895CF93C82F8091EA029091EB020E94C8
:102570001326EC2FF0E0E15CFA4FE491E81719061E
:1025800009F0E8F40E9407269093EB028093EA0298
:102590004091ED036091EC038091E8029091E90293
:1025A0000E941B108091E8029091E902019668E672
:1025B00071E00E9438359093E9028093E802CF9150
:1025C0000895CF92DF92FF920F931F93CF93DF93E3
:1025D000F82E8091E6029091E7020E941326EF2DDB
:1025E000E695F0E0E45CFA4FE491E817190609F08B
:1025F000A8F50E9407269093E7028093E6020FEE6B
:1026000013E0D0E0C0E088E6C82EDD24D3948091AA
:10261000E4029091E5028C0F9D1FB6010E943835AF
:1026200098014091ED036091EC030E94190F6896A8
:102630000C5F1F4FC83681E0D80749F70E94F50F9D
:102640008091E4029091E502F0FE10C00196BE0177
:102650000E9438359093E5028093E402DF91CF9198
:102660001F910F91FF90DF90CF9008950197F2CFC7
:10267000CF92DF92EF92FF920F931F93CF93DF934E
:10268000C82FFF24FA9480FD02C0FF24F3948091A8
:10269000E2029091E3020E941326C695EC2FF0E02F
:1026A000E75CFA4FE491E817190611F008F051C001
:1026B0000E9407269093E3028093E2020FEE13E05C
:1026C000D0E0C0E0F80111821082128294E0C92E9D
:1026D000D12CE12C8091E1028E0D87FD815F082EC7
:1026E000000C990BC817D907E9F48091ED038C9D74
:1026F000A0018D9D500D11245595479555954795F1
:102700008091EA03881F8827881F9091EB03592F37
:10271000550F97FB992790F998016091EC03852B51
:102720000E94190FEF0CF1E0CF1AD10899F621960B
:102730000C5F1F4FCF30D10529F60E94F50F809115
:10274000E10291E0F91210C081110CC08EE080937B
:10275000E102DF91CF911F910F91FF90EF90DF90F9
:10276000CF9008958150F3CF90E00196BE010E9472
:102770004C35EDCF0F931F93CF93DF93C82F8091EC
:10278000DF029091E0020E941326EC2FF0E0EA5C59
:10279000FA4FE491E817190611F008F052C00E94B0
:1027A00007269093E0028093DF02CFEED3E0FE0194
:1027B000118210821282349684E0EB32F807C1F75E
:1027C00010E000E08091DE02082E000C990B081743
:1027D0001907E4F180918501082E000C990B8017F0
:1027E0009107A4F18091EA03881F8827881F9091A0
:1027F000EB03592F550F97FB992790F99E014091B4
:10280000ED036091EC03852B0E94190F0F5F1F4FA2
:1028100024960F301105B1F60E94F50F80918401C6
:102820009091DE02980F9093DE0220918501280F8F
:1028300020938501121614F49E301CF0819580932C
:102840008401DF91CF911F910F9108951982188211
:102850001A82DCCFEF92FF920F931F93CF93DF93F7
:102860008091DC029091DD020E941326883E934005
:10287000C8F10E9407269093DD028093DC02C0918C
:10288000DA02D091DB022196C170DD27D093DB0202
:10289000C093DA028FEEE82E83E0F82E10E008E70E
:1028A000812F86958C0F9D2F911D817099279701FF
:1028B0004091ED036091EC03FC010E9FC0010F9F5E
:1028C000900D11240E94190F1F5FF4E0EF0EF11C10
:1028D0001F3031F7DF91CF911F910F91FF90EF9053
:1028E0000C94F50FDF91CF911F910F91FF90EF9016
:1028F0000895CF93DF9300D000D0CDB7DEB780919D
:10290000D8029091D9020E941326E4E3F5E02591C4
:10291000349182179307B8F18091D70281110CC0CE
:102920009E012F5F3F4F4FEF6FEF90E080E00E94DE
:10293000190F8A818093D7020E9407269093D902AB
:102940008093D8028091D602813069F038F04091AE
:10295000D702823009F040E080E003C08091D702C6
:1029600040E060E004C06091D70240E080E00E9457
:102970000A108091D60290E0019663E070E00E9418
:102980004C358093D6020F900F900F900F90DF91EF
:10299000CF9108950F931F93CF93DF938091D4022B
:1029A0009091D5020E941326843F9140D8F10E9455
:1029B00007269093D5028093D402CFEED3E010E0A7
:1029C00000E04091D2025091D3026091EC038091DB
:1029D000EA03282F221F2227221F9091EB03892F21
:1029E000880F822B97FB992790F907301105FCF48B
:1029F000452BF9F09E014091ED030E94190F0F5FE6
:102A00001F4F24960F301105E1F60E94F50F8091BB
:102A1000D2029091D3020196817099279093D302AC
:102A20008093D202DF91CF911F910F910895452B92
:102A300009F39E0140E0E1CF8091EF028823D1F1BC
:102A40009091EA03892F86958F732EE3280F2F73B9
:102A5000243018F482500C945B122AE3280F2F7351
:102A6000233018F486500C94B11227E3280F2F73EB
:102A7000263018F489500C94E11221E3280F2F73AB
:102A8000263018F48F500C9438132BE2280F2F7334
:102A9000233018F485510C94BA139E77903311F4B7
:102AA0000C942A14963411F40C947914983411F47B
:102AB0000C94CA1408958823B9F05198599A5098E3
:102AC000589A95E09A95F1F70000509A589895E039
:102AD0009A95F1F70000882311F0519A599885E0F2
:102AE0008A95F1F700000895519A5998E8CF8BB173
:102AF0008C7F8BB95098589A5198599A85E08A954D
:102B0000F1F7000008958AB18C7F8AB985E08A9533
:102B1000F1F70000519A599885E08A95F1F7000085
:102B2000509A589885E08A95F1F7000008955098DA
:102B3000589A85E08A95F1F700005198599A85E0F6
:102B40008A95F1F700000895CF93DF93D82FC8E05E
:102B50008D2F80780E945B15DD0FC150C9F780E092
:102B60000E945B1585E08A95F1F7000085E08A9563
:102B7000F1F7000080E0DF91CF9108953BB1242F61
:102B8000209523233BB1432B3FB7F894FC01680FFA
:102B9000791FE617F70711F43FBF0895819198E078
:102BA0004BB9000000C087FF2BB9880F000000C0A0
:102BB00000C000C02BB900C09A9591F7EACFAF9240
:102BC000BF92CF92DF92EF92FF920F931F93CF931A
:102BD000DF938C01EB01CFB6D090BC00F8948091CC
:102BE000BC008B7F8093BC000E9477150E948315E8
:102BF00084E80E94A415CC0FDD1FCC0FDD1F7801E7
:102C00005E01A00EB11EEA14FB04A9F40E94971500
:102C1000CFBED092BC00579A40E8BE01C801DF91F8
:102C2000CF911F910F91FF90EF90DF90CF90BF90C9
:102C3000AF900C94BE15F70181917F010E94A415FD
:102C4000E2CFCF93DF93EC0181E0898B8F810E94EB
:102C5000F72388850E940E240E94C123EA81FB810C
:102C60006C897D89CE010696309719F0DF91CF915E
:102C70000994DF91CF910895CF93DF93EC01888180
:102C8000823039F4FB01828193810E94580881E0EF
:102C90008B87DF91CF910895FC018081813029F4E9
:102CA000FB01808191810C945808823021F4FB0152
:102CB00082819381F8CF0895FC018081813029F4CD
:102CC000FB01808191810C946D08823021F4FB011D
:102CD00082819381F8CF0895EF92FF920F931F9313
:102CE000CF93DF93EC018A85811134C0EB80FC80A7
:102CF00087E5F81A26E12E9DC0012F9D900D112425
:102D0000DC01AE5FBE4F1496ED91FC911597549681
:102D10006D917C91885F9E4F309709F0099586E10F
:102D20008E9D80018F9D100D11240E5F1E4FF801A6
:102D300087810E94FD23F80180850E9414240E944F
:102D4000C123188219861B861E821D821092F102F1
:102D50001092F002DF91CF911F910F91FF90EF90B1
:102D60000895DF92EF92FF920F931F93CF93DF931B
:102D70007C01FB018281882391F0809191018F3F3A
:102D800071F0C2E0D1E010E000E0DD24D394809146
:102D90009101082E000C990B8017910744F4DF91E4
:102DA000CF911F910F91FF90EF90DF9008958E814A
:102DB0008823C9F089859A858E159F0539F48091FD
:102DC000F0029091F1028E159F0569F0DF86FC8676
:102DD000EB868989811103C0CE010E942116CE01A4
:102DE00006960E946C160F5F1F4F6696D0CFEF922B
:102DF000FF920F931F93CF93DF937C0197558F3FE3
:102E0000910509F0D8F520919101022E000C330BA9
:102E10002817390714F480939101FB01228136E1D0
:102E2000389F8001399F100D1124E801CE5FDE4FDD
:102E3000288B92818E81992349F1FA86E9868F5FEA
:102E40008E830E9407269E878D870E9436248F835B
:102E50000E94F42388870E940B249885892B8887F9
:102E6000E881F9816C897D89C801885F9E4F309720
:102E700009F00995F092F102E092F00281E0DF9111
:102E8000CF911F910F91FF90EF9008958823B1F398
:102E90008989882399F3C801885F9E4F0E946C1628
:102EA000EDCFEF92FF920F931F93CF93DF9380911B
:102EB000910110E006E18F3FC1F5DF91CF911F91A5
:102EC0000F91FF90EF900895029FF001039FF00D86
:102ED0001124EE5FFE4FE288F388E114F10419F447
:102EE0008DE7E82EF12C029FE001039FD00D112405
:102EF000CE5FDE4F8E818823B9F08D859E850E943E
:102F00001326E816F90680F4109F700111248989B0
:102F1000811105C0C7018E5F9E4F0E942116C70117
:102F2000885F9E4F0E946C161F5F212F30E08091BA
:102F30009101082E000C990B821793072CF6BDCF38
:102F40009093F7028093F6020895E091F602F091D3
:102F5000F702309721F00190F081E02D099480E094
:102F60000895E091F602F091F702309799F02091E0
:102F7000A301222359F02091310427FF07C0DC016F
:102F80002C9111962C93119725E02C930280F381BC
:102F9000E02D09940895E091F602F091F702309740
:102FA00039F022E0DC012C930480F581E02D0994B6
:102FB00008952091F4023091F5022817390771F035
:102FC0009093F5028093F402E091F602F091F702FB
:102FD000309721F00680F781E02D09940895209123
:102FE000F2023091F3022817390771F09093F3023F
:102FF0008093F202E091F602F091F702309721F00F
:103000000084F185E02D0994089585B7806885BF17
:1030100085B7806885BF089508950E9405180C94AF
:103020000C1881E008950E94FE250E947A040E94F7
:1030300095260C940B12BF92CF92DF92EF92FF92E3
:103040000F931F93CF93DF93CDB7DEB72A970FB6B9
:10305000F894DEBF0FBECDBF0E9449050E94111833
:10306000882309F471C089EFC82E82E0D82E10E0C1
:1030700000E0B02E802F0E948805E82EF601F19026
:103080006F01F81609F45AC08091B40381FD0E94C3
:103090008E0590E080E0FE242F2D30E0482FB9010E
:1030A000082E02C0759567950A94E2F760FF41C04B
:1030B0008E83BF8281E090E06C0102C0CC0CDD1CED
:1030C0004A95E2F72E2D30E02C213D21232B09F4E7
:1030D00080E088870E9407268160782F9A878987F9
:1030E0004E815F8168858A850E94FD18F801E7504E
:1030F000FD4F80818C2580830E9428280E94A5177F
:103100009091F802891789F10E94A5178093F8021F
:103110002A960FB6F894DEBF0FBECDBFDF91CF91D8
:103120001F910F91FF90EF90DF90CF90BF900C9484
:10313000000901968630910509F0B0CF0F5F1F4F4F
:103140000E30110509F095CF8FEF89838A831B829A
:103150000E9407268160782F9D838C8349815A8144
:103160006B818D810E94FD18C7CF2A960FB6F89407
:10317000DEBF0FBECDBFDF91CF911F910F91FF90AA
:10318000EF90DF90CF90BF900895CF93DF93DC0155
:103190008C91682F70E021E030E001C0220F8A9509
:1031A000EAF711964C91119750E0EA01C95FDC4FA4
:1031B000988112968C9112978823C9F080911703F9
:1031C0008823C1F086E0849FF001859FF00D1124D3
:1031D000E60FF71FEE0FFF1FEC55FE4F40815181A8
:1031E0004D935C93292B2883DF91CF910895892FEC
:1031F0008223E6CF20952923F6CFCF93DF93CDB757
:10320000DEB72B970FB6F894DEBF0FBECDBF942F5D
:103210004F83252F588769877A878B874A855B85F7
:1032200081E0452B31F02F3F19F481E09F3F09F0F9
:1032300080E080FD04C0CE0107960E94C5181E8262
:103240001D8285E0FE013796DE01119601900D92F8
:103250008A95E1F749815A816B817C818D819E81BC
:103260000E9484202B960FB6F894DEBF0FBECDBF10
:10327000DF91CF910895FC01808191810E944F23BD
:1032800092959F70963041F48091170391E08927C1
:1032900080931703909316030895CF93C82F882324
:1032A00009F4E6C08238C1F40E94A51781FDE0C090
:1032B00089E30E947D230E94C1232FEF81EE94E0D9
:1032C000215080409040E1F700C0000089E30E9457
:1032D0008423CF910C94C1238338A1F40E94A517B5
:1032E00080FDC6C083E50E947D230E94C1232FEF8D
:1032F00081EE94E0215080409040E1F700C0000052
:1033000083E5E5CF8438A1F40E94A51782FDB0C003
:1033100087E40E947D230E94C1232FEF81EE94E079
:10332000215080409040E1F700C0000087E4CFCFFB
:103330008CEF8C0F813A48F48C2F0E94472A811120
:1033400097C08C2F0E947D23C4CF80E28C0F8830E1
:1033500048F4C77081E001C0880FCA95EAF70E945F
:10336000F723B7CF8BE58C0F833068F481E890E0CA
:10337000C53A31F083E890E0C63A11F482E890E073
:10338000CF910C94D91788E58C0F873108F068C06D
:1033900082EE90E0C83A09F460C089EE90E0C93A44
:1033A00009F45BC08AEE90E0CA3A09F456C085EB96
:1033B00090E0CB3A09F451C086EB90E0CC3A09F4A6
:1033C0004CC083EB90E0CB3B09F447C084EB90E02A
:1033D000CC3B09F442C087EB90E0CD3AF1F18CECA4
:1033E00090E0C03BD1F18DEC90E0CE3AB1F183E8B2
:1033F00091E0CF3A91F18AE891E0C13B71F182E925
:1034000091E0C23B51F184E991E0C33B31F181E2AB
:1034100092E0C43B11F183E292E0C53BF1F084E21B
:1034200092E0C63BD1F085E292E0C73BB1F086E284
:1034300092E0C83B91F087E292E0C93B71F08FE6E1
:1034400090E0CD3B51F080E790E0CE3B31F090E052
:1034500080E0CA3B11F48AE292E0CF910C94EF171E
:10346000C03F30F08C2F0E943127CF910C941D2843
:10347000CF910895882309F452C0823871F40E94D4
:10348000A51781FF4CC089E30E947D230E94C123C0
:1034900089E30E9484230C94C123833859F40E9449
:1034A000A51780FF3CC083E50E947D230E94C123B5
:1034B00083E5EFCF843859F40E94A51782FF2FC00F
:1034C00087E40E947D230E94C12387E4E2CF9CEF22
:1034D000980F913AF0F290E2980F983050F487707C
:1034E00091E001C0990F8A95EAF7892F0E94FD2388
:1034F000D2CF9BE5980F933020F490E080E00C94BD
:10350000D91798E5980F973120F490E080E00C945B
:10351000EF17803F20F00E9499270C941D280895F2
:10352000CF93C82F0E944D198C2FCF910C943A1A2B
:10353000882321F00E94F7230C94C1230895882347
:1035400021F00E94FD230C94C12308958F929F9235
:10355000AF92BF92DF92EF92FF920F931F93CF93A0
:10356000DF937C01D62FC72FFC01058102950F70D8
:10357000128111110E941C240E94BA23D82E882384
:1035800071F0112331F180E28D0F883010F182E06B
:103590000E94A4230E94BA2391E0D82ED926BC2EE3
:1035A000B2949FE0B922EB2DF0E0E752F54E0C9477
:1035B0006035EB1AEB1A3B1B3B1B7B1BA31B121D3D
:1035C000821BE51B821B801C801C091D821B821B29
:1035D000441DD12CE4CF0C2F0F70C07F11F0029549
:1035E000007F1123A9F0002359F080E28D0F88306D
:1035F00010F0D11109C0802F0E94F7230E94C1232F
:103600008D2F0E944D1914C0802F0E940E24F6CFDA
:103610008D2F0E943A1A002359F080E28D0F8830D6
:1036200010F0D11124C0802F0E94FD230E94C123DD
:10363000DD2009F454C20E94972380FD50C2F70197
:1036400012820E9491230E941522C7010E947B1DB5
:103650000E949123DF91CF911F910F91FF90EF90E6
:10366000DF90BF90AF909F908F900C943622802F68
:103670000E941424DBCFFC2FFF70BF2EC07FC0320E
:1036800019F0B29480EFB822DD2339F0D13019F16E
:10369000112359F1002321F1B3CF112381F001113E
:1036A00006C00E9436248B290E94981AC1CF01308F
:1036B000C1F70E9436248B290E943024B9CF011112
:1036C00006C00E9433248B2D0E949F1AB1CF013077
:1036D00009F4AECFF6CF112329F0023008F0A8CFBD
:1036E0008B2DE2CF0111A4CFEECF002361F38D2FFC
:1036F0000E943A1A9DCF8C2F86958695837079F01B
:103700008130B9F0F8E0BF1609F49BC0BF1608F489
:103710008FCF86EF8B0D823008F493C089CF8D2F29
:103720009C2F9370111102C090E080E00E94D91785
:103730007FCF8D2F9C2F9370111102C090E080E0FD
:103740000E94EF1775CF112309F1D53F99F0D63FAD
:10375000B9F0D43F49F480912B0490912C048160FE
:1037600090932C0480932B048D2F0E9431270E946C
:103770001D285ECF80912B0490912C048260F0CFA5
:1037800080912B0490912C048460EACFD53F89F07E
:10379000D63FA9F0D43F49F480912B0490912C049A
:1037A0008E7F90932C0480932B048D2F0E94992759
:1037B000DECF80912B0490912C048D7FF2CF8091ED
:1037C0002B0490912C048B7FECCF8C2F837009F00D
:1037D0004BC0111136C02D2F229526952770220F30
:1037E000220F6D2F6F70862E912CB12CA12C022EE2
:1037F00004C0880C991CAA1CBB1C0A94D2F760E078
:1038000070E0CB01D4FF0FC06FE070E080E090E08B
:1038100004C0660F771F881F991F2A95D2F76095FD
:10382000709580959095C695C695C370C23071F01D
:10383000A0F4682979298A299B29C13091F00E9436
:10384000C9210E94A5170E940009F2CE6829792992
:103850008A299B290E94DB21F4CF0E94C921C5013E
:10386000B4010E94B721EDCF8695112311F08C2F62
:103870008170882331F32D2F229526952770220FF2
:10388000220F6D2F6F70862E912CB12CA12C022E41
:1038900004C0880C991CAA1CBB1C0A94D2F760E0D7
:1038A00070E0CB01D4FF0FC06FE070E080E090E0EB
:1038B00004C0660F771F881F991F2A95D2F760955D
:1038C000709580959095C695C695C370C23051F09D
:1038D00080F4682979298A299B29C13071F00E94D6
:1038E0008C22AFCF682979298A299B290E949E22A0
:1038F000A8CF0E948C22C501B4010E947A22A1CFD8
:10390000E0E2ED0FE53108F065C0F0E0E657F34E78
:103910000C9460359F1C9F1C9F1C9F1C9F1C9F1C10
:103920009F1C9F1C9F1C9F1C9F1C9F1C9F1C9F1CBF
:103930009F1C9F1CB01CBD1CC41CCB1CD51CDF7065
:103940008C2F8F71112331F00E9415228D2F0E9430
:10395000981AD8CE0E9436228D2F0E949F1AD2CE5E
:10396000112339F00111CECE8C2F8F710E94592274
:10397000C9CE023008F0C6CEF7CF8C2F8F7111233D
:1039800039F00E941522BECE8C2F8F711123C9F3FE
:103990000E943622B7CE112329F08C2F8F710E94FE
:1039A0000022B0CE0E94FB21ADCE112349F0CF7191
:1039B0008C2F0E94152263E08C2F0E949B23A2CEA5
:1039C00081E00E94A423023008F49CCE82E00E9491
:1039D000A42398CE112349F0002321F08D2F0E94BB
:1039E0004D1990CE8C2F8F71CCCF002379F0D93325
:1039F00049F42FEF87EE93E0215080409040E1F7AB
:103A000000C000008D2F0E943A1A7CCE8C2F8F713F
:103A1000BFCF4C2F4F706D2FC7010E945C070E94D3
:103A20002D2106CED23F71F1C8F4D03F01F1D13F34
:103A3000B9F180911603002309F446C0882341F0B0
:103A40008091170391E08927809317031092160342
:103A50008D2F112389F10E944D1916C0D43FD9F042
:103A600078F0D53F31F711110FC081E006C0112366
:103A700059F08091170391E089278093170304C0C0
:103A800081E01827109317034C2F4F706D2FC7013B
:103A90000E94CE0B37CE1111F7CF10921703F4CF3F
:103AA000112339F080911603882319F3109216031D
:103AB000EBCF0023F1F2E8CF0E943A1A86E0F7013B
:103AC00011928A95E9F7E0CF8823F1F21111DCCF4A
:103AD0008091170391E0892780931703E7CFDF9147
:103AE000CF911F910F91FF90EF90DF90BF90AF901B
:103AF0009F908F9008950F931F93CF93DF93EC01C6
:103B0000988189812B813C81232B39F08F3F19F4D7
:103B100081E09F3F19F080E001C081E080FD17C087
:103B2000CE010E941209882391F0688179818A81EF
:103B30000E9459238C010E94B0220E94B421B80136
:103B4000CE01DF91CF911F910F910C94A61ADF91B6
:103B5000CF911F910F9108950E941C240E942D2443
:103B60000E94C1230E94BC280E941D2890E080E092
:103B70000E94D91790E080E00C94EF170E948B23ED
:103B80000C94AC1D0E9408240C94BE1DE92FE295F4
:103B9000EF70E250EE30E0F4F0E0EF52F24E0C94B1
:103BA0006035DF1DDF1DE81DE81DEA1DE81DE81D6D
:103BB000E81DDF1DDF1DEF1DE81DE81DEF1D803F27
:103BC00019F020F4803E20F481E00895843FE1F371
:103BD00080E00895803EC0F3813FD1F7F5CF93FB9D
:103BE000882780F908950E944F230C94C61DCF9317
:103BF000DF9300D000D01F92CDB7DEB70F900F90AB
:103C00000F900F900F90DF91CF910895CF93DF9396
:103C100000D000D000D0CDB7DEB726960FB6F8940E
:103C2000DEBF0FBECDBFDF91CF9108951F93CF931D
:103C3000DF93C091180316E0809119038C1304C020
:103C4000DF91CF911F910895D0E01C9FF0011D9F3F
:103C5000F00D1124E65EFC4F408151816281738139
:103C6000848195810E94061E2196C770E5CF409100
:103C70004A0350914B0360914C0370914D03809126
:103C80004E0390914F030C94061E1F93CF93DF9326
:103C900080914F03807FD1F480914C038823B1F051
:103CA00080911803D0911903B0914A03C0914B033E
:103CB00040914D0350914E03A1E0BF3F09F0A0E0B9
:103CC000BA016095709516E0D81304C0DF91CF91CA
:103CD0001F91089521E04115510521F02A2FCF3F72
:103CE00009F020E090E020FD38C0189FF001199FF6
:103CF000F00D1124E65EFC4F21812C132EC0208193
:103D00002B132BC02281211128C023813481241739
:103D1000350700F1241B350B2D373105F0F42091C8
:103D20004F032F70206120934F0326E0289FF0015E
:103D3000299FF00D1124E15EFC4F80818F7080611E
:103D400080838AE493E00E947B1DDF91CF911F91D5
:103D50000C94161E260F371FDFCF01968770B4CF45
:103D6000AF92BF92CF92DF92EF92FF920F931F9389
:103D7000CF93DF93CDB7DEB761970FB6F894DEBF70
:103D80000FBECDBF8C0185E0F801DE011D960190CC
:103D90000D928A95E1F7D8014C9111965C9111979B
:103DA0001296EC9030914A0360914B0380914D0341
:103DB00090914E0321E0009731F06F3F19F421E01C
:103DC0003F3F09F020E0B22FB170BB2E20FD80C133
:103DD000F801C380D480A0904C03AA2009F427C125
:103DE000C816D906D0F1D601A81BB90BCD01FF2406
:103DF000F3948D37910508F0F12C80914F03982FA3
:103E0000907FFF2009F4CEC0911187C0FE2C65136E
:103E100029C0341327C0E11025C08F7080618093C2
:103E20004F030E94371E8AE493E00E947B1D80911D
:103E30004F03F80185838F2D61960FB6F894DEBF8E
:103E40000FBECDBFDF91CF911F910F91FF90EF90EB
:103E5000DF90CF90BF90AF900895809590958C0D96
:103E60009D1DC5CF81E0CD2831F05F3F19F481E081
:103E70004F3F09F080E080FD24C081E08E25F82FBF
:103E8000F170DF2E80FF3FC080911803209119034D
:103E900036E0821318C04D875E878D859E850E940F
:103EA0004F23292F22952F70223008F1243030F52E
:103EB0009F7009F1D80115969C91907FE1F4FB2C3D
:103EC000BACF80E0DCCF90E0389FF001399FF00D51
:103ED0001124E65EFC4F6181561306C060814613D3
:103EE00003C062816E110FC001968770D2CF9F70A0
:103EF00011F0882321F3805E883008F3C8010E9406
:103F00007B1DBD2CDCCFEE2009F495CF80914F03B3
:103F1000816080934F03F12C8ECF651314C034134E
:103F200012C0E11010C0F8018583C8010E947B1DFA
:103F300086E0F801AAE4B3E001900D928A95E1F7DA
:103F40000E94371E78CF4D875E878D859E850E94A3
:103F5000F31D882319F1EE2009F180914F0380327F
:103F600070F020914A0330914B0338872F831986D4
:103F7000DB86CA868C87CE0107960E947B1D86E071
:103F8000F801AAE4B3E001900D928A95E1F70E944E
:103F9000451E0E94371EFF24F3944DCFC8010E9496
:103FA0007B1DF9CF911113C07C2DD98AC88A6E2D43
:103FB00089890E94F71D8AE493E00E947B1D86E0B8
:103FC000EAE4F3E0DF011D928A95E9F7B9CF6513C2
:103FD00012C0341310C0E1100EC0F8018583C8016F
:103FE0000E947B1DEAE4F3E086E0DF011D928A95E2
:103FF000E9F7FA2C20CF4D875E878D859E850E943C
:10400000F31D882359F2EE2049F280914F0380324C
:1040100008F4B5CF20914A0330914B033A832983AA
:104020001B82DD82CC828E83CE010196A6CFC8167C
:10403000D90638F1F601E81BF90BCF01F12C8D37C9
:10404000910508F03DC0FE2CEE2009F4A7CF6513C2
:1040500026C0341324C080914F0380FD17C0982FD1
:10406000907FA1F0D80115968C931597903F09F495
:104070005CCF982F907F905F8F70892B15968C93D3
:1040800054CF809590958C0D9D1DD8CF86E0F8017A
:10409000AAE4B3E001900D928A95E1F7CCCE4D876A
:1040A0005E878D859E850E94F31D811168CF80916A
:1040B0004F03816080934F03C8010E947B1DBBCEDC
:1040C0007C2DD98AC88A6E2D89890E94F71D77CFE9
:1040D000EE2009F463CF4D875E878D859E850E9413
:1040E000F31DF82E882309F459CF86E0F801AAE4DD
:1040F000B3E001900D928A95E1F78AE493E00E9483
:104100003B190E94451E1CCF1F93CF93DF93CDB761
:10411000DEB72C970FB6F894DEBF0FBECDBF4F832E
:10412000588769877A878B879C87CE0107960E947C
:10413000B01E882309F442C09F8188852A853B856B
:10414000232B39F08F3F19F481E09F3F19F080E075
:1041500001C081E080FD08C04F81588569857A855E
:104160008B859C850E94061E16E080911803909115
:104170001903891709F467C0819FC0011124865E65
:104180009C4F0E94B01E882309F45DC0E091180383
:104190001E9FF0011124E65EFC4F40815181628137
:1041A0007381848195810E94061E8091180390E09E
:1041B00001968770992780931803D7CF86E0FE0178
:1041C0003796DE01119601900D928A95E1F79F8155
:1041D00088852A853B85232B39F08F3F19F481E0B0
:1041E0009F3F19F080E001C081E080FDBDCF2091AC
:1041F000190330E0C901019687709927409118038F
:104200004817190699F096E0929FD001939FB00D40
:104210001124A65EBC4FFE01319601900D929A9535
:10422000E1F7809319030E94161E9ECF0E94C21DC3
:10423000109219031092180386E0EAE4F3E0DF011C
:104240001D928A95E9F72C960FB6F894DEBF0FBE43
:10425000CDBFDF91CF911F910895EF92FF920F9301
:104260001F93CF93DF938C01892B81F0F12CEE24E7
:10427000E394E8012196F8018491843770F4843046
:1042800008F05FC08130B1F08230A1F1DF91CF91B1
:104290001F910F91FF90EF900895853709F44CC05E
:1042A00008F43DC09CE7980F903780F78F770E9405
:1042B0003A1A49C00E5F1F4FFE01849190E2980F99
:1042C000983060F48770FE2D01C0FF0F8A95EAF7E1
:1042D0008F2F0E941F240E94C12302C00E944D19EB
:1042E0008F2D815030F2EFE9FFE03197F1F700C0F8
:1042F0000000F7CF0E5F1F4FFE01849190E2980FF0
:10430000983050F48770FE2D01C0FF0F8A95EAF7B0
:104310008F2F0E942524DFCF0E943A1AE1CF0E5F33
:104320001F4FFE01C491C150D8F28FE99FE0019761
:10433000F1F700C00000F7CF0E5F1F4FFE01F490B1
:10434000CFCF0E944D198E01CBCF08950C94A5219B
:104350000E94A62160938B0370938C0380938D033E
:1043600090938E030C94AC1D08950C94A8210F9388
:104370001F9300918B0310918C0320918D0330913A
:104380008E03602B712B822B932B1F910F910C941A
:10439000A8210F931F9300918B0310918C03209100
:1043A0008D0330918E0360237123822393231F9109
:1043B0000F910C94A8210F931F9300918B031091E0
:1043C0008C0320918D0330918E0360277127822703
:1043D00093271F910F910C94A8210C94CD070E9454
:1043E000ED216093870370938803809389039093F2
:1043F0008A030C94AC1D60E070E0CB010C94EF21BB
:104400000F931F9341E050E060E070E08A019B0150
:1044100004C0000F111F221F331F8A95D2F7C90154
:10442000B8011F910F910C94EF210F931F9341E05E
:1044300050E060E070E004C0440F551F661F771F16
:104440008A95D2F78091870390918803A091890380
:10445000B0918A038A019B01082B192B2A2B3B2B35
:10446000C901B8011F910F910C94EF210F931F9375
:1044700041E050E060E070E004C0440F551F661F4B
:10448000771F8A95D2F7CB01BA0160957095809518
:1044900090950091870310918803209189033091B2
:1044A0008A0360237123822393231F910F910C941D
:1044B000EF210F931F9341E050E060E070E004C0F3
:1044C000440F551F661F771F8A95D2F78091870387
:1044D00090918803A0918903B0918A038A019B017E
:1044E000082719272A273B27C901B8011F910F91D7
:1044F0000C94EF210F931F93009187031091880371
:104500002091890330918A03602B712B822B932B8E
:104510001F910F910C94EF210F931F93009187032C
:10452000109188032091890330918A0360237123BD
:10453000822393231F910F910C94EF210F931F93CC
:1045400000918703109188032091890330918A0399
:1045500060277127822793271F910F910C94EF21D9
:104560000895292F220F920F990F890F982F977076
:1045700071E001C0770F9A95EAF786958695869542
:1045800025E0829FC001112450E040E0A62FB0E05A
:10459000FC01E40FF51FE05BFC4F60819D01042EE0
:1045A00002C0369527950A94E2F7217021952627B7
:1045B0002723262720834F5F5F4F4530510541F762
:1045C0000895292F220F290F220F820F982F9770FD
:1045D00086958695869545E0849F9001112470E02C
:1045E00060E080E0F901E60FF71FE05BFC4F4081DF
:1045F00050E0092E02C0569547950A94E2F74170A3
:104600005527062E01C0440F0A94EAF7842B6F5FEA
:104610007F4F6530710531F70895BF92CF92DF92D9
:10462000EF92FF920F931F93CF93DF938C01C09073
:104630008703D0908803E0908903F0908A038091EB
:104640008B0390918C03A0918D03B0918E03C82AA7
:10465000D92AEA2AFB2ACFE1D0E0BC2ED701C60135
:104660000C2E04C0B695A795979587950A94D2F716
:1046700080FD0EC0219788F7B12C8B2DDF91CF9153
:104680001F910F91FF90EF90DF90CF90BF90089512
:10469000B8018C2F0E94EB0B019761F3EECFCF9303
:1046A000DF93EC010E940D23BE01DF91CF910C94AA
:1046B000EB0B1F93CF93DF93EB019091150399239D
:1046C00031F0CB01DF91CF911F910C944F238823C0
:1046D00079F0CB010E940D23182F682FCE010E9484
:1046E000B122BE01812FDF91CF911F910C94EB0B72
:1046F000CB010E94E122182FF4CF682F8091920104
:10470000909193010C945A25682F80919201909179
:1047100093010C94652580919201909193010C94E2
:10472000702580918F038595859585950895809155
:104730008F038770089598E0899F90011124622B60
:1047400060938F030C94152290918F038095892399
:1047500080938F03282F277061F4282F082E000CD8
:10476000330B9217130629F08595859585950C9442
:104770003622089590918F03977081E009F480E0CC
:104780000895E0919201F09193018091B3038083A9
:10479000E0919201F091930180819091B203892B75
:1047A0008083E0919201F091930180819091B10317
:1047B000892B808390919003992381F0E09192015D
:1047C000F09193018081892B808380919201909157
:1047D00093010E94F624811110929003809192011E
:1047E000909193010C94B1178091B3030895909127
:1047F000B303892B8093B3030895982F90958091EC
:10480000B30389238093B30308958093B30308957A
:104810001092B30308958091B20308959091B2036A
:10482000892B8093B2030895982F90958091B203BD
:1048300089238093B20308951092B2030895909152
:10484000B103892B8093B1030895982F909580919F
:10485000B10389238093B10308951092B1030895A1
:10486000809390030895109290030895809190038F
:104870000895CF92DF92EF92FF926C01EE24FF2415
:1048800020E0C114D104E104F10419F0C701B6011C
:1048900020E1C72ED82EE92EFF24C114D104E10453
:1048A000F10419F0285FC701B6016B017C0154E0E7
:1048B000F694E794D794C7945A95D1F7C114D104CC
:1048C000E104F10419F02C5FC701B6016B017C0112
:1048D00042E0F694E794D794C7944A95D1F7C1146F
:1048E000D104E104F10419F02E5FC701B6019695D9
:1048F000879577956795672B682B692B09F02F5F54
:10490000822FFF90EF90DF90CF90089590E080E0AD
:104910000E94813521E08D3E9E4F09F020E0822FDC
:10492000089582E090E00C94733583E090E00C945D
:10493000733584E090E00C947335682F84E090E048
:104940000C948735AB01BC018FE090E00C94993555
:10495000AB01BC0183E190E00C94993560E070E01C
:10496000CB010C94A82460E070E0CB010E94A2244B
:104970000C94AE246DEE7EEF90E080E00E94A535B1
:1049800060E082E090E00E94873560E083E090E0A4
:104990000E94873510928B0310928C0310928D0326
:1049A00010928E0360E084E090E00E94873560E022
:1049B00085E090E00E94873560E086E090E00E940C
:1049C00087356FEF87E090E00E94873540E050E048
:1049D000BA0188E090E00E94993560E08DE090E0B7
:1049E0000E9487350C94B3240C94BA24FC013296AF
:1049F0008091A301882321F0809131049EE187FFFB
:104A000096E080E0915008F4089521912223D1F39B
:104A10008F5FF8CF9C01FC0132969FEF80E04191BF
:104A2000461751F09F3F19F4411101C0982F8F5F35
:104A30008630A9F79F3F09F40895290F311D97FD8E
:104A40003A95F90162830895FC0132960896219106
:104A5000261303C0DF0111971C92E817F907B9F775
:104A60000895E62FE695E695E695EE3168F4E80FB1
:104A7000F92FF11D677021E030E001C0220F6A9527
:104A8000EAF78281822B82830895E62FE695E695E8
:104A9000E695EE3170F4E80FF92FF11D677021E013
:104AA00030E001C0220F6A95EAF720958281282321
:104AB000228308952091A301222329F0209131041B
:104AC00027FD0C9431250C940A252091A301222363
:104AD00029F02091310427FD0C9445250C942425C0
:104AE000FC0132968091A301882351F0809131041A
:104AF00087FF06C08EE1DF011D928A95E9F70895D0
:104B000086E0F9CF08950C9482250E948325809138
:104B10003704843049F11092B50388E190E020E435
:104B20000FB6F894A895809360000FBE20936000A4
:104B300080E00E9400090E94832583B7817F846002
:104B400083BF83B7816083BF7894889583B78E7F56
:104B500083BF0FB6F894A895809160008861809318
:104B60006000109260000FBE08950895CF930E94D8
:104B70009D040E9449050E94B525C0E08C2F0E942B
:104B80008805811105C0CF5FCE30C1F7CF91089560
:104B900081E0FCCF08950C94CA250E94C21D0E949A
:104BA000A5170E9400090C94CB251F920F920FB6F7
:104BB0000F9211248F939F93AF93BF938091B5036E
:104BC000811113C080912D0490912E04A0912F0487
:104BD000B09130044196A11DB11D80932D04909396
:104BE0002E04A0932F04B0933004BF91AF919F91F6
:104BF0008F910F900FBE0F901F90189582E084BD8B
:104C000093E095BD9AEF97BD80936E0008952FB7FE
:104C1000F89480912D0490912E04A0912F04B091CE
:104C200030042FBF0895CF92DF92EF92FF920F933F
:104C30001F932FB7F89440912D0450912E0460914A
:104C40002F04709130042FBF6A017B01EE24FF24F2
:104C50008C0130E020E0C016D106E206F30650F0E9
:104C6000481B590BCA011F910F91FF90EF90DF90E5
:104C7000CF90089541505109F3CF78941F920F922D
:104C80000FB60F9211248F939F93AF93BF93809190
:104C90002D0490912E04A0912F04B0913004019620
:104CA000A11DB11D80932D0490932E04A0932F0479
:104CB000B0933004BF91AF919F918F910F900FBE31
:104CC0000F901F901895F89481E08093E00080E2A7
:104CD0008093D800E9ECF0E010828FE19EE4019728
:104CE000F1F700C000001DBA109268001CBC10BE95
:104CF0001FBA10927A0010926E0010926F001092FC
:104D00007100109272001082ECEBF0E0108214B887
:104D100017B81AB81DB810BA108215B818B81BB851
:104D20001EB811BA0C94003F08950E948624811188
:104D300002C00E94F4240E9491248093B4030E9434
:104D4000992490E090933204809331040E9495243A
:104D5000682F70E090E080E00C94B5218091B90359
:104D600080FF12C06091970185E0689FB001112417
:104D7000759567957595679560387105A8F5611506
:104D80007105A1F1862F089581FF09C060919701F7
:104D900085E0689FB001112475956795EDCF82FF7E
:104DA00007C06091970185E0689FB0011124E4CFAE
:104DB0002091BA032223A9F0909196016091970166
:104DC00085E0689FB00111242917B0F6269FA00145
:104DD000279F500D1124692F70E0CA010E944C35A5
:104DE000CBCF65E070E0CECF8FE7089581E00895E6
:104DF0008091B90380FF0CC06091950170E07595BA
:104E00006795759567956115710549F1862F089528
:104E100081FF06C06091950170E075956795F3CFAD
:104E20006091950182FD0BC09091BA039923A1F086
:104E30006091940180919501961738F0682F70E089
:104E40006038710500F38FE70895899FC001112430
:104E500070E00E944C35F4CF61E070E0D7CF81E084
:104E60000895803F31F40E94AE2681958093BE0361
:104E70000895813F19F40E94AE26F8CF823F31F4A5
:104E80000E94AE2681958093BD030895833F19F457
:104E90000E94AE26F8CF893F29F40E94F82680931D
:104EA000BF0308958A3F21F40E94F8268195F7CF29
:104EB0008B3F31F40E94F82681958093C0030895BA
:104EC0008C3F19F40E94F826F8CF843F31F480918A
:104ED000BC0381608093BC030895853F21F48091D9
:104EE000BC038260F7CF863F21F48091BC038460CD
:104EF000F1CF873F21F48091BC038860EBCF883FDE
:104F000021F48091BC038061E5CF8D3F31F4809125
:104F1000B90381608093B90308958E3F21F4809195
:104F2000B9038260F7CF8F3FB9F78091B9038460EE
:104F3000F1CF803FC1F48091BE0387FD1092BE0384
:104F40008091BD0381110EC08091BE0381110AC002
:104F50008091BF03811106C08091C003811102C0FE
:104F60001092BA030895813F29F48091BE03181668
:104F70002CF3E6CF9091BD03823F29F497FFE0CF59
:104F80001092BD03DDCF833F19F41916CCF3D8CFAF
:104F9000893F39F48091BF03181694F61092BF032D
:104FA000CFCF8A3F29F48091BF0387FFC9CFF6CFC7
:104FB0008B3F39F48091C00387FFC2CF1092C003AA
:104FC000BFCF8C3F29F48091C0031816BCF3B8CF33
:104FD000843F31F48091BC038E7F8093BC03B0CFBB
:104FE000853F21F48091BC038D7FF7CF863F21F46C
:104FF0008091BC038B7FF1CF873F21F48091BC036C
:10500000877FEBCF883F21F48091BC038F7EE5CF73
:105010008D3F31F48091B9038E7F8093B90390CF97
:105020008E3F21F48091B9038D7FF7CF8F3F09F038
:1050300087CF8091B9038B7FF0CF8BEB93E00E94F9
:10504000CB170E9407269093B7038093B603089569
:105050001F93CF93DF938091B6039091B7030E9483
:105060001326AC019091BA032091980130E0911180
:1050700006C02091B8038AE0289F900111244217AE
:10508000530780F08091BD03D091BE031091BF0300
:10509000C091C00381110AC0D1116AC0111168C04A
:1050A000C11166C0DF91CF911F9108959F3F19F004
:1050B0009F5F9093BA03181624F40E94AE26809343
:1050C000BD038091BD0387FF05C00E94AE26819578
:1050D0008093BD031D1624F40E94AE268093BE0368
:1050E0008091BE0387FF05C00E94AE268195809304
:1050F000BE033091BD033323C1F02091BE032223B0
:10510000A1F045EB3403C0011124892F911101C096
:1051100081E08093BD0345EB240390011124832F8C
:10512000311101C081E08093BE03111624F40E9466
:10513000F8268093BF038091BF0387FF05C00E94BC
:10514000F82681958093BF031C1624F40E94F8264C
:105150008093C0038091C00387FF05C00E94F8269A
:1051600081958093C003DF91CF911F910C941D28EE
:105170009F3F09F09DCFAECF86E0EBEBF3E0DF0180
:105180001D928A95E9F71092BA031092B903089517
:10519000833081F128F4813059F08230D1F00895C4
:1051A000853009F449C0B8F1863009F456C0089535
:1051B0008091B803482F460F5527551F4F3F510583
:1051C00024F4680F6093B80308958FEF8093B803B9
:1051D000089580919801482F460F5527551F4F3F3E
:1051E000510524F4680F6093980108958FEF809320
:1051F0009801089580919701482F460F5527551F14
:105200004F3F510524F4680F6093970108958FEF85
:1052100080939701089580919601482F460F552756
:10522000551F4F3F510524F4680F60939601089570
:105230008FEF80939601089580919501482F460F36
:105240005527551F4F3F510524F4680F6093950172
:1052500008958FEF80939501089580919401482FD0
:10526000460F5527551F4F3F510524F4680F609393
:10527000940108958FEF809394010895833011F184
:1052800028F4813049F0823091F00895853081F121
:1052900020F18630C1F108958091B803681720F499
:1052A000861B8093B80308951092B80308958091E7
:1052B0009801681720F4861B809398010895109236
:1052C0009801089580919701681720F4861B8093B8
:1052D000970108951092970108958091960168179B
:1052E00020F4861B809396010895109296010895EC
:1052F00080919501681720F4861B8093950108958D
:1053000010929501089580919401681720F4861BEE
:105310008093940108951092940108950F931F9320
:1053200041E050E060E070E08A019B0104C0000FA2
:10533000111F221F331F8A95D2F7C901B8010E949D
:10534000B5211F910F910C94C21D873208F043C004
:105350008E3108F08BC0803109F47DC0C8F48730ED
:1053600009F46AC028F4863009F45CC080E008952E
:105370008B3009F455C08E30C9F79091B403892F52
:105380008B7F92FF84608093B40382FD20C048C06D
:10539000863109F445C068F4813141F70E94C21D8D
:1053A00090913104892F97FB87F9805880933104BD
:1053B00037C08931A9F18B31C9F69091B403892F97
:1053C0008D7F91FF82608093B40381FF29C080911B
:1053D000B40381603DC0883319F150F4893221F063
:1053E000853311F0873211F680E00E948E2918C0B3
:1053F0008334D1F328F48A3308F4B8CF8953F5CF36
:10540000883409F0B3CF0E94C21D2FEF83ED90E3E3
:10541000215080409040E1F700C000000E946326C8
:1054200081E008958091B403817F8E7F8093B403DF
:1054300081E08093C20308959091B403892F8E7FF9
:1054400090FF81608093B40380FDEACF897F877FDE
:105450008093B403E5CF9091B403892F877F93FFA6
:1054600088608093B40383FDB2CFDACF8D51BDCF76
:1054700080E008950C94382A8E518A3030F4E82F59
:10548000F0E0E45BFD4F8081089580E00895CF93C4
:10549000C82F8091C2038130D9F028F08230F1F119
:1054A0001092C20313C00E94F423813159F48C2F4F
:1054B0000E94382A811122C08C2F0E94A529817058
:1054C000CF9108950E94F423823289F380E0F8CFCF
:1054D0000E94F423813159F30E94F423823239F37C
:1054E0008C2F0E943A2A811110C0C43181F048F4F7
:1054F000CB3059F0C03171F080E0E1CF81E090E035
:10550000DECFC93221F0C833B9F781E0D8CF10928D
:10551000C203F2CF82E08093C203F7CFC93219F100
:1055200088F4C43101F120F4C73081F181E0C8CFA3
:1055300082EE8C0F8630D0F78C2F0E943C2A80930D
:10554000C103F4CFCE3401F140F46AE0CB3471F7FB
:105550008091C1030E94C828E9CFC13579F061E08C
:10556000C235B1F3E3CF8091C103882319F01092C3
:10557000C103DCCF81E08093C203A2CF61E08091C0
:10558000C1030E943E29D2CF6AE0F9CF1092B8033E
:1055900084E180939801C09397018CE380939601F6
:1055A00088E08093950188E280939401BFCF809139
:1055B000E30308950F931F93CF93DF9300D01F92BF
:1055C000CDB7DEB78C010E94402D823011F08430BF
:1055D00021F584E089831B830A8382E08093E900BC
:1055E0008FEF9091E800815095FD06C095ED9A955A
:1055F000F1F700008111F5CF8091E80085FF0DC023
:1056000050E040E063E070E0CE0101960E945D2D25
:105610008091E8008E778093E8000F900F900F90B4
:10562000DF91CF911F910F910895CF93DF9300D019
:105630001F92CDB7DEB720913704243031F523E037
:105640002983805891099B838A8382E08093E900B3
:105650008FEF9091E800815095FD06C095ED9A95E9
:10566000F1F700008111F5CF8091E80085FF0DC0B2
:1056700050E040E063E070E0CE0101960E945D2DB5
:105680008091E8008E778093E8000F900F900F9044
:10569000DF91CF910895CF93DF93EC010E94402DCD
:1056A000823011F08430F9F482E08093E9008FEFCA
:1056B0009091E800815095FD06C095ED9A95F1F71F
:1056C00000008111F5CF8091E80085FF0CC050E00B
:1056D00040E066E070E0CE010E945D2D8091E80020
:1056E0008E778093E800DF91CF910895CF93DF9379
:1056F000EC010E94402D823011F08430B9F5809188
:10570000A3018823B1F18091310487FF32C060E2A8
:1057100082E08093E9008FEF9091E800815095FD41
:1057200006C095ED9A95F1F700008111F5CF8091B3
:10573000E80085FF1BC08091A30170E050E040E0CD
:10574000811104C050E040E068E070E0CE010E94AA
:105750005D2D8091E8008E778093E80080E2FE0165
:10576000A3ECB3E001900D928A95E1F7DF91CF9120
:10577000089568E081E0CDCF80913604811109C0A1
:105780000E94ED2E0E944A2F8091E2008460809357
:10579000E2000895109236040895089508950C9437
:1057A000CD2542E061EC81E00E946B2E42E261EC8B
:1057B00082E00C946B2E80913904833009F462C02E
:1057C00030F48130D9F1823009F49EC008958A30D6
:1057D00009F48AC08B3009F470C0893009F051C0D7
:1057E00080913804813209F04CC080913C04909142
:1057F0003D04029708F045C08091E800877F8093C0
:10580000E8008091E80082FF38C08091F300909119
:10581000F200892798278927029729F48091F100BF
:105820008B7F813021F48091F1008093E30380919C
:10583000E8008B778093E8000C949F2E80913804C9
:10584000813AF9F48091E800877F8093E8008091A5
:105850003C0490913D04892B61F460E283EC93E079
:1058600070E00E94AC2D8091E8008B778093E80077
:10587000089560E090E080E0F3CF809137048111DB
:10588000C0CF089580913804813AD9F780913C04C3
:1058900090913D04892BA9F78091E800877F809340
:1058A000E8008091E80080FFFCCF8091A301809305
:1058B000F1008091E8008E77BDCF8091380481326D
:1058C00001F780913C0490913D04892BD1F68091A1
:1058D000E800877F8093E8000E949F2E80913A0421
:1058E0008093A3010C94C21D80913804813249F643
:1058F0008091E800877F8093E8000E949F2E80912E
:105900003B048093E403089580913804813A09F0C0
:10591000B8CF8091E800877F8093E8008091E8000D
:1059200080FFFCCF8091E403C2CF84B7877F84BF20
:105930000FB6F894A895809160008861809360000C
:10594000109260000FBE80E88093610010926100A9
:105950000E940D180E94ED2E0E944A2F8091E200B5
:1059600084608093E20078940E94D3310E941318DF
:1059700089E991E00E94A01780913704853029F0D1
:105980000E941B180E941C15F7CF0E94852580914C
:105990003504882389F30E94B625882369F30E9481
:1059A000472DEACF0C94D42C292F332723303105EF
:1059B00071F158F421303105E9F02230310511F14F
:1059C00090E080E030E020E019C021323105C1F1E3
:1059D00022323105A9F780E490E027E937E061152C
:1059E000710561F080EC90E027ED36E061307105E3
:1059F00029F0E6CF82E190E025EC36E0FA01318330
:105A0000208308958BE390E02AE836E0F7CF9927CA
:105A10008130910579F040F08230910571F0039763
:105A200079F6E0E5F6E002C0E6E8F6E0849190E081
:105A30009F01E4CFEEE6F6E0F9CFE6E5F6E0F6CF3B
:105A400089E090E02CE936E061157105B9F289E052
:105A500090E025EB36E06130710581F2B1CF089519
:105A6000CF93C82F0E942F2DC093E503CF910895A7
:105A700080913704843011F081E0089582E0089528
:105A80008091E503811102C00C94382D089580E1C6
:105A900089BD82E189BD09B400FEFDCF8091D800A7
:105AA0008F7D8093D8008091E00082608093E00039
:105AB0008091E00081FDFCCF0895AF92BF92CF921C
:105AC000DF92FF920F931F93CF93DF936C01EB0153
:105AD0008A010E94BE2EF82E811123C001151105E6
