:100000000C947B030C9498030C9498030C94980321
:100010000C9498030C9498030C9498030C949803F4
:100020000C9498030C9498030C94172F0C94EA2FBB
:100030000C9479250C9498030C9498030C949803D1
:100040000C9498030C9498030C9498030C949803C4
:100050000C9498030C94E1250C9498030C94980349
:100060000C9498030C9498030C9498030C949803A4
:100070000C9498030C9498030C9498030C94980394
:100080000C9498030C9498030C9498030C94980384
:100090000C9498030C9498030C9498030C94980374
:1000A0000C9498030C9498030C94980307634236BD
:1000B000B79BD8A71A39685618AEBAAB558C1D3CF9
:1000C000B7CC5763BD6DEDFD753EF6177231BF00BD
:1000D0000000803F05A84CCDB2D44EB93836A902F5
:1000E0000C50B9918688083CA6AAAA2ABE00000036
:1000F000803F2D3E006572676F646F785F657A2F71
:100100006576616E204020302E362E31313000650C
:1001100072676F646F785F657A2F6576616E2040D5
:1001200020302E362E313130000000F0A145002B5A
:1001300000E101E100E00000001E00140004001DC9
:1001400000E30001001F001A0016001B00356428A0
:1001500000200008000700060034022C00210015D2
:1001600000090019002E000158220017000A00059E
:100170000000002D002F002F0200002602000029A1
:1001800000300030020000270200004C0023001C59
:10019000000B0011000000E05C240018000D0010AE
:1001A000002102025825000C000E00360001572CD9
:1001B00000260012000F00370002573300270013FB
:1001C0000033003800035701002A0031003400E5F5
:1001D000000457000045000100010001000100007B
:1001E000003A001E02200222020100DF5C3B001FD9
:1001F00002210223020100C75C3C002F0226022FCD
:10020000000100C85C3D00300227023000010001FF
:10021000003E003102350035020000C15C010001E2
:1002200000000001000000290054005500000056A5
:10023000000000C05C3F005F005C0059000000DE71
:100240005C400060005D005A006200C35C410061D8
:10025000005E005B00370058004200010001000111
:10026000002E00570043000100010001000100C4FE
:100270005C44004500010001000100000001000194
:100280000001000100010000000100010001000167
:100290000001000100010001000100010001000156
:1002A0000001000100010001000100010001000146
:1002B0000001000100010001000100010001000136
:1002C0000000000100010001000000010000000129
:1002D0000001000100000001000000010001000118
:1002E0000001000100000001000100010001000107
:1002F00000010001000100010001000100010001F6
:1003000000010001000100010001000100010001E5
:1003100000010001000100010001000100010001D5
:10032000000100000000000000000000002A2B284F
:1003300000000000000000000000000000000000BD
:1003400029000000002C1E342021222434262725D9
:100350002E362D3738271E1F202122232425263311
:1003600033362E37381F0405060708090A0B0C0D13
:100370000E0F101112131415161718191A1B1C1D25
:100380002F3130232D350405060708090A0B0C0D03
:100390000E0F101112131415161718191A1B1C1D05
:1003A0002F3130354C00000000000000000000003C
:1003B000000000000000000000000000000000003D
:1003C0000000000000000101010101010001010124
:1003D000010000000000000000000000000000011B
:1003E00000010001010101010101010101010101FF
:1003F00001010101010101010101010101010101ED
:1004000000000001010000000000000000000000EA
:1004100000000000000000000000000000000000DC
:10042000010101010000046801F000B40078005AE5
:10043000007F3F1F643214643214783C1E1E140A7D
:10044000050000000000010101010101010101029C
:100450000202020202020202030303030303030374
:10046000040404040404050505050506060606063D
:1004700007070707080808080909090A0A0A0A0BF2
:100480000B0B0C0C0C0D0D0D0E0E0F0F0F10101191
:100490001111121213131414151516161717181814
:1004A00019191A1A1B1C1C1D1D1E1F1F202021227A
:1004B000222324252526272728292A2B2B2C2D2EBD
:1004C0002F2F30313233343536363738393A3B3CDA
:1004D0003D3E3F4041424344464748494A4B4C4DCC
:1004E0004F50515253555657585A5B5C5E5F60628D
:1004F00063646667696A6C6D6E707173747678791F
:100500007B7C7E8081838486888A8B8D8F91929478
:1005100096989A9B9D9FA1A3A5A7A9ABADAFB1B398
:10052000B5B7B9BBBDBFC1C4C6C8CACCCFD1D3D67D
:10053000D8DADCDFE1E4E6E8EBEDF0F2F5F7FAFC1F
:10054000FF04033000000016034500720067006FCF
:100550000044006F007800200045005A000000169B
:10056000034500720067006F0044006F00780020B0
:100570000045005A0000000403090409026D00044C
:100580000100A0FA09040000010301010009211182
:100590000100012240000705810308000A09040147
:1005A000000103010200092111010001224D000791
:1005B00005820308000A0904020001030000000983
:1005C00021110100012236000705830308000A09F2
:1005D0000403000103000000092111010001223978
:1005E000000705840320000112011001000000082B
:1005F000EDFE071301000102030105010906A10137
:10060000050719E029E71500250195087501810204
:1006100005081901290595057501910295017503D4
:1006200091010507190029F71500250195F87501B5
:100630008102C005010980A101850216010026037F
:10064000001A81002A8300751095018100C0050CF5
:100650000901A1018503160100269C021A01002A46
:100660009C02751095018100C005010902A10109D4
:1006700001A1000509190129051500250195057538
:1006800001810295017503810105010930093115C8
:1006900081257F95027508810609381581257F958A
:1006A0000175088106050C0A38021581257F950120
:1006B00075088106C0C005010906A101050719E0FA
:1006C00029E7150025019508750181029501750836
:1006D000810105081901290595057501910295010A
:1006E000750391010507190029FF150026FF0095E4
:1006F0000675088100C011241FBECFEFDAE0DEBF0F
:10070000CDBF12E0A0E0B1E0EEEBFAE602C005904A
:100710000D92A635B107D9F724E0A6E5B2E001C0F5
:100720001D92AB33B207E1F70E94442C0C945D3567
:100730000C94000080B38C7080BB81B3836F81BB4D
:10074000089584B1807F84B985B1807F85B98AB1ED
:10075000837F8AB98BB1837F8BB93E984698089581
:10076000CF93C82F873080F58091000190910101CF
:10077000892B99F564E670E080E40E943605909339
:10078000010180930001892BD1F464E670E082E1DD
:100790000E948B059093010180930001892B79F4CD
:1007A00081E090E001C0880FCA95EAF764E670E046
:1007B00080950E948B05909301018093000184E64F
:1007C00090E0CF910C94DE058A30B9F040F4883087
:1007D00071F0893079F0209A2898CF9108958C3063
:1007E00091F070F08D30B9F73E9A4698F6CF219A85
:1007F0002998F3CF229A2A98F0CF239A2B98EDCFFD
:10080000529A5B98EACF539AFCCFCF93873008F087
:1008100042C08091000190910101C0E0892B81F4D8
:1008200064E670E080E40E943605909301018093B5
:100830000001892B41F0C0E084E690E00E94DE05D3
:100840008C2FCF91089564E670E083E10E948B05C0
:100850009093010180930001892B69F764E670E0B1
:1008600081E40E9436059093010180930001892B59
:1008700011F784E690E00E94BA0597FF05C09093B7
:10088000010180930001D7CFC82FC09510920101BC
:1008900010920001D1CFCFB18FB1869586958C7320
:1008A000C3708C2BC82FC095CBCF08950C945504E2
:1008B0000E94820690E090930101809300010E94C3
:1008C000A1030E949A03EBEAF2E087E592E011921D
:1008D000DC0126E01D922150E9F7069622E0E93B73
:1008E000F207A9F70C9457080E94820690E09093B3
:1008F0000101809300010E94A1030E949A03EBEA88
:10090000F2E0119282E0E93BF807D9F7089596E00A
:10091000899FF0011124E95AFD4F30E020E080E08A
:1009200041E050E09191992351F0DF0111979150EE
:100930009C932F5F3F4F26303105A1F70895BA01F0
:10094000022E01C0660F0A94EAF7862BF2CF96E0DA
:10095000699FB001112430E020E090E04FE0FC01FD
:10096000022E02C0F595E7950A94E2F7E0FF06C073
:10097000F901E60FF71FE95AFD4F40832F5F3F4F04
:100980002630310561F70895EF92FF920F931F9380
:10099000CF93DF938091000190910101892B91F019
:1009A000809156028F5F8093560281110BC00E9486
:1009B000820690E09093010180930001892B11F44D
:1009C0000E942C060BEA12E0C0E08C2F0E94B003BC
:1009D00087E0F82EFC0E8F2D0E94B0038C2F0E9412
:1009E0008704E82E8C2F0E940504F80191918F0155
:1009F000DE2DD095D9238E21D82B6C2F892F8D27D2
:100A00000E94A704F8013197D0838F2D0E9487049C
:100A1000E82E8F2D0E940504F8019681DE2DD095D9
:100A2000D9238E21D82B6F2D892F8D270E94A704C3
:100A3000F801D6830E94A103CF5FC73031F60E9430
:100A4000590881E0DF91CF911F910F91FF90EF90B6
:100A50000895E82FF0E0E555FD4F80810895089551
:100A60001092B9008CE08093B8000895EF92FF9245
:100A70000F931F93CF93DF93182FEB011092BC00BD
:100A800084EA8093BC000E94AB257C018091BC006D
:100A900087FF0DC08091B900887F8830D9F08091A0
:100AA000B900887F8031B1F08FEF9FEF0CC0CF3F4E
:100AB000DC0761F30E94AB258E199F098C179D07F7
:100AC00028F38EEF9FEFDF91CF911F910F91FF9051
:100AD000EF9008951093BB0084E88093BC000E94BF
:100AE000AB258C018091BC0087FF0AC08091B900C2
:100AF000887F883111F08034B9F690E080E0E3CF50
:100B0000CF3FDC0779F30E94AB25801B910B8C173C
:100B10009D0740F3D6CF0F931F93CF93DF93EB0145
:100B20008093BB0084E88093BC000E94AB258C01BD
:100B30008091BC0087FF11C02091B900287F81E01F
:100B400090E0283211F490E080E091958195910930
:100B5000DF91CF911F910F910895CF3FDC0741F3B3
:100B60000E94AB25801B910B8C179D0708F38EEF1D
:100B70009FEFEECF0F931F93CF93DF93EC0184E8A9
:100B80008093BC000E94AB258C018091BC0087FF44
:100B900008C08091BB0090E0DF91CF911F910F9131
:100BA0000895CF3FDC0789F30E94AB25801B910B92
:100BB0008C179D0750F38EEF9FEFEECF0F931F938F
:100BC000CF93DF93EC0184E98093BC000E94AB25B6
:100BD0008C018091BC0084FD07C090E080E0DF9133
:100BE000CF911F910F910895CF3FDC0791F30E94A1
:100BF000AB25801B910B8C179D0758F38EEF9FEF51
:100C0000EECF259A2D9A0895269A2E9A0895279A1E
:100C10002F9A089556985E98089525982D980895CE
:100C200026982E98089527982F9808950E940A06CE
:100C30000E940D060E9410060C94130690E09093FB
:100C400089008093880090938B0080938A00909312
:100C50008D0080938C0008950E9416068FEF0E94ED
:100C60001E060E9401062FEF80E792E0215080408F
:100C70009040E1F700C000000E9404062FEF80E7DB
:100C800092E0215080409040E1F700C000000E94B7
:100C900007062FEF80E792E0215080409040E1F777
:100CA00000C000000E940D062FEF80E792E0215067
:100CB00080409040E1F700C000000E9410062FEF36
:100CC00080E792E0215080409040E1F700C00000B2
:100CD0000E9413060C94160689EA8093800089E02E
:100CE0008093810024982C983F988AB18F7C8AB990
:100CF0006E98479A8BB180638BB9769A0E942C06C6
:100D00000C940A0780E290E0909301018093000127
:100D10008091B90281110EC00E94300581E080935C
:100D2000B9022FEF83ED90E3215080409040E1F72E
:100D300000C0000064E670E080E40E9436059093F5
:100D4000010180930001892B09F050C064E670E036
:100D500080E00E948B059093010180930001892B14
:100D600009F044C064E670E080E00E948B05909337
:100D7000010180930001892BC9F564E670E08FE3DF
:100D80000E948B059093010180930001892B71F5DE
:100D900084E690E00E94DE0564E670E080E40E9454
:100DA00036059093010180930001892BF9F464E6E4
:100DB00070E08CE00E948B0590930101809300010C
:100DC000892BA1F464E670E080E00E948B0590938B
:100DD000010180930001892B49F464E670E08FE300
:100DE0000E948B05909301018093000184E690E0BE
:100DF0000E94DE05809100010895611108C0FC0188
:100E00008281882321F08FE091E00E94540890E0D5
:100E100080E0089508959C01FB018281882389F177
:100E20002E3DFCE53F07D1F040F42C3DECE53E07BC
:100E300061F02D3D3C4569F008952F3D9CE5390753
:100E400089F0203E3C45D1F008950E94702480E056
:100E5000089585EF90E00E945408F9CF81E00E9448
:100E6000E311F5CF0E94F91181E00E94E31149EFEF
:100E70006CEA88E590E00E940511E9CF82EF90E0EE
:100E8000EACF81E00895CF92DF92EF92FF92CF9365
:100E90006B017C010E942324C82F0E940A060E9435
:100EA0000D060E9410060E941306C150C73078F448
:100EB000EC2FF0E0E25AF84F0C940F3565077107FC
:100EC00076076F0774077B0779070E940106C70141
:100ED000B601CF91FF90EF90DF90CF9008950E94E0
:100EE00001060E940406F3CF0E9401060E94070635
:100EF000EECF0E9401060E940406F8CF0F931F93C5
:100F0000CF93DF938C01EB019A9581159F41B8F443
:100F100010FF03C080EEFB01099511FF03C081EEB5
:100F2000FE01099512FF03C082EEFE01099513FF31
:100F300003C083EEFE0109950115104128F4DF91ED
:100F4000CF911F910F91089584EEFE01099585EED2
:100F5000FE01099586EEFE01099587EEFE01DF91FF
:100F6000CF911F910F910994877091E001C0990F63
:100F70008A95EAF7892F0E94F8230C94AE230C94EB
:100F8000B407877091E001C0990F8A95EAF7892F1D
:100F90000E94FE230C94AE230C94C107CF93DF93E1
:100FA000EC01805E9109089720F064EB77E02097D0
:100FB00011F46FEB77E0CE010E947E078C2FDF915A
:100FC000CF910C945619CF93DF93EC010E94371AFE
:100FD000CE01805E9109089720F061EC77E02097C0
:100FE00011F46CEC77E0CE01DF91CF910C947E0789
:100FF00081E008950C940B07CF9390E0FC01EB5D2A
:10100000FC4FC4918B559C4FFC018491882369F05F
:1010100081EE0E9456198C2F0E9456198C2F0E9427
:10102000371A81EECF910C94371A8C2F0E945619E3
:101030008C2FF8CFFF920F931F93CF93DF938C01E8
:10104000F62EF8018491882349F1E8012196813038
:1010500049F4FE011491812F0E945619812F0E949C
:10106000371A06C0823089F4FE0184910E94561915
:101070008E010F5F1F4F8F2D815018F3EFE9FFE0B6
:101080003197F1F700C00000F7CF833019F4FE016B
:101090008491E5CF0E94FC07E801EACFDF91CF9170
:1010A0001F910F91FF90089560E00C941A080C9422
:1010B0006C060E946F170C945604282F2F7041F075
:1010C000822F90E02A3010F44D96089506970895E7
:1010D00087E290E0089508950C946B080C946C08D6
:1010E00008950E94B31D0E9470082FEF84E39CE0D6
:1010F000215080409040E1F700C000000C9407268A
:10110000FF920F931F93CF93DF938C01FC01C0815B
:10111000D18180911403811161C08281882309F4F7
:1011200058C0CE010E94FA22F82E682FCE010E94EC
:101130009E22BE018F2D0E945F0BEC01B8010E9420
:10114000D116B801CE010E94FA07882309F40EC116
:10115000B801CE010E941517882309F407C1B80110
:10116000CE010E94D00D882309F400C1B801CE0140
:101170000E941F0E882309F4F9C0C93CFCE5DF0773
:1011800009F42DC108F061C0C13C9CE5D90709F400
:10119000FEC0C8F5C531FCE5DF0728F5C2308CE597
:1011A000D80708F09BC1C1159CE5D90709F4D9C03F
:1011B000C130DC4509F4E1C081E08093BF02809337
:1011C000C002C801DF91CF911F910F91FF900C9445
:1011D000F807CE010E94CE22F82EABCFCE010E949E
:1011E000FA22BE01A8CFC531FCE5DF0709F446C2EB
:1011F000C03CDC4509F7F8018281882309F4B6C0B8
:101200000E947F12B3C0F8018281C53CFCE5DF0774
:1012100009F4D6C068F4C33CECE5DE0709F4CBC0A2
:1012200008F4C0C0882309F4A1C00E9420119EC008
:10123000C73C9CE5D90709F4CDC008F4C6C0882393
:1012400009F494C00E947B1191C0C13DFCE5DF0709
:1012500009F414C1F0F5F8018281CD3CFCE5DF070B
:1012600009F4D1C0D8F4CB3CECE5DE0709F4C4C0E6
:1012700008F4BCC0882309F479C00E94CA0F623008
:1012800071058105910540F00E94CA0F6530710516
:101290008105910508F48CC082E0B2C0CF3C9CE58A
:1012A000D90709F4D7C008F4C1C0882309F45EC087
:1012B0000E94CA0F653171058105910540F00E94B9
:1012C000CA0F673171058105910508F471C085E188
:1012D00097C0C53DFCE5DF0709F4A4C1C0F4F801DF
:1012E0008281C33DFCE5DF0709F4E3C008F4CDC00B
:1012F000882309F477C11092BF020E94AB25909316
:10130000BC028093BB0282E00E948B1A2FC0C93DB1
:10131000ECE5DE0709F4D2C0CA3DFCE5DF0709F4BD
:10132000D6C0C63DDC4509F047CFF8018281811166
:101330007DC18091C00281119FC18091BD029091B9
:10134000BE020E94B7258337910508F095C180E25F
:101350000E94921A88E20E94561988E20E94371A67
:1013600005C0F801828181110E94710880E0DF913F
:10137000CF911F910F91FF900895F80182818823EA
:10138000A9F38091B30381608093B303EFCFF80199
:101390008281882359F30E94E123827249F00E94DE
:1013A000F011E4CF882311F30E94E1238272B9F394
:1013B0000E94E611DBCF8823C9F20E940811D6CF24
:1013C0008823A1F20E943F11D1CF882379F20E9495
:1013D0005111CCCF882351F20E946311C7CFF8017D
:1013E0008281882319F20E94D80FC0CF882309F484
:1013F000BDCF0E94ED0FBACF882309F4B7CF81E0AB
:101400000E94E311B3CF882309F4B0CF0E94CA0F22
:10141000663071058105910538F00E94CA0F683069
:1014200071058105910520F286E0EACF882309F451
:101430009DCF0E94CA0F693071058105910540F06A
:101440000E94CA0F6E3071058105910508F4B0CF76
:1014500089E0D6CF882309F489CF0E94CA0F6F3064
:1014600071058105910540F00E94CA0F6431710534
:101470008105910508F49CCF8FE0C2CFF8018281ED
:10148000882309F473CF88E1BBCF882309F46ECF9A
:101490000E94CA0F693171058105910540F00E94D3
:1014A000CA0F623271058105910508F481CF89E187
:1014B000A7CF882309F45ACF83E2A2CFF801828113
:1014C000882309F453CF80E00E94DF2C4FCFF8012E
:1014D0008281882309F44ACF82E0F6CFF801828125
:1014E000882309F46ECE0E949124811102C00E94CB
:1014F00070240E94A42490E090932D0480932C04E7
:10150000FE01E350FC4580912C048160E231F1053D
:10151000C8F4E357F54F0C940F359F0AAB0AAF0A96
:10152000B30AB70ABB0ABF0AC30AC70ACB0ACF0A63
:10153000D30AD70ADB0ADF0AE30AE70AEB0A80913B
:101540002C04826080932C0480912C040E94A82497
:101550000E94B31D0BCF80912C048460F3CF809147
:101560002C048860EFCF80912C048061EBCF8091B8
:101570002C048062E7CF80912C048064E3CF8091BB
:101580002C048068DFCF80912C048460EACF8091A6
:101590002C048E7FD7CF80912C048D7FD3CF809168
:1015A0002C048B7FCFCF80912C04877FCBCF809171
:1015B0002C048F7EC7CF80912C048F7DC3CF809168
:1015C0002C048F7BBFCF80912C048F77BBCF809171
:1015D0002C048B7FEACF90912C04892F97FB87F9FD
:1015E0008058B0CF0E94E12385FF05C081E0809341
:1015F000BF028093C0028091BF0281110FC0809111
:10160000BB029091BC020E94B7258337910530F44C
:1016100086E20E94561986E20E94371A82E00E94F2
:10162000921AA4CEF8018281882351F01092C00250
:101630000E94AB259093BE028093BD0280E264CEEF
:101640000E94E12381FF05C081E08093BF02809367
:10165000C0028091C00281110FC08091BD029091A3
:10166000BE020E94B7258337910530F487E20E94BD
:10167000561987E20E94371A80E2D1CF0E94E123F7
:10168000F8019281992381F08A7A91E009F490E03F
:101690009093BA02811106C089E20E946A230E94D7
:1016A000AE2364CE85E3F9CF8091BA02811104C0E4
:1016B00089E20E947123F3CF85E3FBCF0895972F32
:1016C00070E026E0929F600D711D1124FB0194E5EE
:1016D000899FE00DF11D1124EE0FFF1FE35DFE4F0A
:1016E000859194910895FC01EE0FFF1FE75DFE4F79
:1016F000859194910895CF93DF930E945F0B0E9490
:101700002C0DEC018115904508F043C0C11580E413
:10171000D80708F013C1C83ED10528F5C03ED10551
:1017200008F0A7C0C83AD10580F4C53AD10508F041
:1017300096C0C130D10509F49CC020F0C430D10559
:1017400008F097C0D0E0C0E094C0CD3BD10508F4CC
:1017500094C0CE01805C9109C03CD10598F30E94F1
:10176000730BEC0186C0C11520E2D20750F4C115FD
:1017700081E0D80708F07DC0C03FD10518F3D065DF
:1017800078C0C11520E3D20708F0CEC0CE019F700B
:10179000E6CFC11585E5D80760F5C11524E5D20768
:1017A00008F0FAC0C11582E5D80750F4C11521E54B
:1017B000D20708F4C6C0DC2FCC27C16FD06A59C04D
:1017C0009C2F969596959E0123703327C115D3457E
:1017D00008F0D3C0C1E0D0E002C0CC0FDD1F2A95D5
:1017E000E2F720E2929FC0011124C82BD92BDC68BC
:1017F00040C0C1152AE5D207A0F4C11589E5D80774
:1018000008F0D5C0C11526E5D20708F4CAC0C11535
:1018100088E5D80708F496CFDC2FCC27C06FD06AB4
:1018200028C0C1152BE5D20708F48CCFC1158CE573
:10183000D80708F4C9C0CE0190568115904208F02F
:1018400081CF8D2F8F710E94AC0DDD27D06290E08B
:10185000982F882788279F71C82BD92B0AC0C53A93
:10186000D10509F4B4C0C63AD10509F4B3C0C3E840
:10187000D0E4CE01DF91CF910895C83AD10509F4A3
:10188000ACC0C93AD10509F4ABC0CA3AD10509F4D4
:10189000AAC0CB3AD10509F4A9C0CC3AD10509F4C4
:1018A000A8C0CB3BD10509F4A7C0CC3BD10509F4B6
:1018B000A6C0CD3AD10509F4A5C0C03BD10509F4B5
:1018C000A4C0CE3AD10509F4A3C0CF3AD10509F49A
:1018D000A2C0C13BD10509F4A1C0C23BD10509F4A6
:1018E000A0C0C33BD10509F49FC0C43BD10509F496
:1018F0009EC0C53BD10509F49DC0C63BD10509F486
:101900009CC0C73BD10509F49BC0C83BD10509F475
:101910009AC0C93BD10509F499C0CA3BD10509F069
:1019200098C0CAE2D6E4A5CFCE019927D3FF03C061
:10193000EC01D86C9ECFEC01D06C9BCFDF70D06AED
:1019400098CFCE01E4E096958795EA95E1F783700C
:101950009C2F937021E030E002C0220F331F9A9534
:10196000E2F73C68382BC695C695C37080E2C89FE5
:10197000E0011124C22BD32B7CCFC1E0D0E002C008
:10198000CC0FDD1F2A95E2F720E2929FC0011124BF
:10199000C82BD92BDA686DCFDC2FCC27C46FD06A67
:1019A00068CFDC2FCC27CC27DF71D06262CFCE018D
:1019B00034E0969587953A95E1F78F70CF70C06EB9
:1019C000D0E0D06AD82B55CFDD27D06652CFC1E802
:1019D000D0E44FCFC2E8D0E44CCFC2EED4E449CF3C
:1019E000C9EED4E446CFCAEED4E443CFC5EBD4E489
:1019F00040CFC6EBD4E43DCFC3EBD4E43ACFC4EB45
:101A0000D4E437CFC7EBD4E434CFCCECD4E431CF3B
:101A1000CDECD4E42ECFC3E8D5E42BCFCAE8D5E48F
:101A200028CFC2E9D5E425CFC4E9D5E422CFC1E26D
:101A3000D6E41FCFC3E2D6E41CCFC4E2D6E419CF6C
:101A4000C5E2D6E416CFC6E2D6E413CFC7E2D6E4A9
:101A500010CFC0E0D4E40DCF8238910549F1B0F445
:101A60008133910509F45CC048F48932910509F489
:101A700052C08A32910509F458C008958533910502
:101A800009F444C08933910599F00895833E910586
:101A900031F138F4803E910591F0823E9105B1F02C
:101AA0000895863E910511F1873E910541F1089513
:101AB00020912C042370C9F080EE90E008952091CD
:101AC0002C0420FF12C089E390E0089520912C049B
:101AD00022FF0BC024FF2EC090E080E008952091EB
:101AE0002C0422FD2AC024FDF7CF089520912C0458
:101AF00023FFFBCF24FDF0CF87EE90E008952091E7
:101B00002C0423FFF0CF86EE90E0089520912C0462
:101B100025FD16C0089520912C0425FD14C00895BC
:101B200020912C0426FD12C0089520912C0426FD3E
:101B300010C0089583EE90E0089582EE90E008953D
:101B400089E290E0089585E390E008958AE290E0CC
:101B5000089581E390E0C9CF90912C0492FF06C0D4
:101B6000282F2871283069F4877F846093FF06C08E
:101B7000282F2871283161F4877E846194FD877E47
:101B80000895282F2471243089F78B7F8860EECF49
:101B9000282F2471243191F78B7E8861EFCF08952F
:101BA0000F931F93CF938C01FB018281811106C09B
:101BB000C1E08C2FCF911F910F910895C091CE025B
:101BC000C11125C006311C4599F70E94CF0D81E057
:101BD0008093CE020E94AB259093CD028093CC02DD
:101BE0001092C1021092C3021092C2021092C5025A
:101BF0001092C4021092C7021092C6021092C9023B
:101C00001092C8021092CB021092CA02D2CF8091D9
:101C1000CC029091CD020E94B7258C32914040F6C3
:101C20008091C102E82FF0E0EE0FFF1FEE53FD4F51
:101C3000118300838F5F8093C102C0E0BACFCF933E
:101C4000DF93EC01C13080E8D807C8F0FB01828146
:101C50008823A9F08091CF02811109C08CE090E027
:101C60000E9415350E94430E81E08093CF020E94AE
:101C70004A0ECE019F770E94150F0E94C70E81E089
:101C8000DF91CF9108958093D002682F8CE090E08F
:101C90000C942935E0917D01F0917E018081809343
:101CA000E40381FF03C081EE0E94371A8091E403B0
:101CB00085FF03C085EE0E94371A8091E40380FF00
:101CC00003C080EE0E94371A8091E40384FF03C0B2
:101CD00084EE0E94371A8091E40382FF03C082EEF3
:101CE0000E94371A8091E40386FF03C086EE0E94AB
:101CF000371A8091E40383FF03C083EE0E94371AF2
:101D00008091E40387FF03C087EE0E94371A809119
:101D1000D002823049F158F4882379F0813089F07B
:101D20008FE39CE90197F1F700C00000089584302B
:101D300019F18530A9F786EE01C082EE0E9456198E
:101D4000EFCF80EE0E94561981EE0E94561988E16D
:101D50000E94561988E10E94371A81EE0E94371AB4
:101D600080EE0E94371ADCCF82EE0E94561987E57A
:101D70000E94561987E5F5CF86EE0E94561986EE29
:101D80000E94371A88E10E94561988E1EACF8091B3
:101D9000D002813009F443C0E0F18230D1F18530C6
:101DA000E1F18091E40381FF03C081EE0E945619A6
:101DB0008091E40385FF03C085EE0E94561980914F
:101DC000E40380FF03C080EE0E9456198091E40373
:101DD00084FF03C084EE0E9456198091E40382FFC1
:101DE00003C082EE0E9456198091E40386FF03C06F
:101DF00086EE0E9456198091E40383FF03C083EEB0
:101E00000E9456198091E40387FF0EC087EE0C9460
:101E1000561982EE0E94371AC4CF86EEFBCF8CE2B1
:101E20000E9456198CE2F6CF0895EF92FF921F930D
:101E3000CF93DF937C01CCE0D0E0C7010C2E02C031
:101E4000969587950A94E2F7182F1F70812F0E94AC
:101E50005D080E945619812F0E945D080E94371A62
:101E60002497CC3F8FEFD80741F7DF91CF911F9197
:101E7000FF90EF900895CF92DF92EF92FF920F9331
:101E80001F93CF93DF93E901662309F466C0E42E24
:101E9000F12CEFEFF0E0E61BF109EE9D8001EF9DE4
:101EA000100DFE9D100D1124212FE12FFF27EE1A9A
:101EB000FF0A5CE3C52ED12CB6010E94E734FB017A
:101EC000BC01E69EC001E79E900DF69E900D112488
:101ED000B6010E94E734E230F10589F168F4812F00
:101EE000262F210F309781F0242F461B319761F068
:101EF00080E020E040E008C0E430F10551F128F135
:101F0000842F861B3597A1F7E42FF0E0EF5BFB4FA2
:101F10004491E22FF0E0EF5BFB4F9491E82FF0E06B
:101F2000EF5BFB4FE49149839883EA83DF91CF9184
:101F30001F910F91FF90EF90DF90CF900895862F23
:101F4000810FE42F412F2E2FDFCFE42FE61B842FAC
:101F5000F9CF842F462F410FD7CF842F242FD4CFF2
:101F600088E090E00C941D35AB01BC0188E090E066
:101F70000C943B35E5EEF3E083E080831092E603BA
:101F80008FEF828383831482608171818281938148
:101F90000C94B40F6091E50360FF06C066956F7303
:101FA00070E090E080E0089560E070E0CB0108957B
:101FB0008091E90390E001968430910514F083E06C
:101FC00090E08093E9036091E5037091E6038091CE
:101FD000E7039091E8030C94B40F8091E9038150DA
:101FE000990B97FF02C090E080E08430910514F0D7
:101FF00083E090E08093E9036091E5037091E6034C
:102000008091E7039091E8030C94B40F8091E5036D
:10201000EAEEF3E080FF06C06FE070E08AEE93E046
:102020000C940116118210821282349684E0E632FA
:10203000F807C1F7F1CF9091E50390FF0CC0EAEEED
:10204000F3E0818360834283349694E0E632F907BB
:10205000C1F70C9406100895CF93DF9300D000D001
:10206000CDB7DEB72091E50320FF0AC09E012F5FA8
:102070003F4F0E943B0F4B8169818A810E941B1058
:102080000F900F900F900F90DF91CF9108953F9296
:102090004F925F926F927F928F929F92AF92BF9278
:1020A000CF92DF92EF92FF920F931F93CF93DF9324
:1020B00000D000D0CDB7DEB78C01462E542E322E84
:1020C0008091E50380FF30C0982F9E77923009F011
:1020D00041C09E012F5F3F4FC8010E943B0F4B81C3
:1020E00069818A810E941B108091E50300FB87F9BA
:1020F0008093E503902F96958091E6038078892B55
:1021000010FB87F98093E6034092E7035092E803BF
:10211000332051F06091E5037091E6038091E7036D
:102120009091E8030E94B40F0F900F900F900F90C2
:10213000DF91CF911F910F91FF90EF90DF90CF90A3
:10214000BF90AF909F908F907F906F905F904F90D7
:102150003F900895E82FE695EF739EE39E0F9F73DF
:10216000943018F45090E803BFCF9AE39E0F9F730A
:10217000993068F4881F8827881F9091E603292FDB
:10218000220F022F082B97FB112710F9ADCF87E202
:102190008E0F8F738A3008F0A7CFE951FF0B2FEF16
:1021A000E0FF21E0EE7FE95DFB4F859194916FE0C8
:1021B00070E00E94E73426033001279F700C112441
:1021C000680188E9C81A8EEFD80A8AEEE82E83E003
:1021D000F82E96E2A92E94E0B92E28E6822E9924B4
:1021E0009394C601B4010E94E7349701452D642DF4
:1021F0000E943B0FC60CD71C84E0E80EF11CAE1405
:10220000BF0479F70E9406106FCF21E00C944710AD
:10221000E5EEF3E02081221F2227221F3091E60302
:10222000432F440F842F822B37FB992790F90C966C
:1022300068E671E00E94FB34438162810C940511D1
:102240002091E503221F2227221F3091E603432F0E
:10225000440F842F822B37FB992790F98C309105FE
:1022600040F4845A9E4F4091E8036091E7030C9438
:1022700005110C9768E671E00E94FB34F4CFE5EE9F
:10228000F3E08081881F8827881F9091E603292F1B
:10229000220F97FB992790F943816FEF822B0C94C3
:1022A0000511E5EEF3E08081881F8827881F909153
:1022B000E603292F220F97FB992790F9438160E0CD
:1022C000822B0C9405114091E803443F90F4445F45
:1022D0008091E503881F8827881F9091E603292FA6
:1022E000220F97FB992790F96091E703822B0C94BA
:1022F00005114FEFEDCF4091E8034C3090F04C507A
:102300008091E503881F8827881F9091E603292F75
:10231000220F97FB992790F96091E703822B0C9489
:10232000051140E0EDCF20E00C9447109091E503BB
:1023300090FF48C09178811128C092609093E50386
:10234000662351F06091E5037091E6038091E70305
:102350009091E8030E94B40F8091E503282F2E7717
:102360002230D9F41092EE02881F8827881F90919E
:10237000E603292F220F97FB992790F94091E80354
:102380006091E703822B0C949311853210F09864CE
:10239000D5CF8F73880F982BD1CF982F96959F7399
:1023A0003EE3390F3F73373120F0263411F02834E3
:1023B00021F491E09093EE02D7CF995D9F739A300C
:1023C00098F6D0CF089561E00C9496118091E503C2
:1023D00086958F738F5F853208F081E00C94E3114E
:1023E0008091E50386958F73815009F484E20C9403
:1023F000E311E5EEF3E080818160808386958F7341
:102400000C94E31160E00C9496118091B303816009
:102410008093B3030E949124811104C00E94702410
:102420000E94BA0F0E94B00F6093E5037093E60319
:102430008093E7039093E8036E7761F40E94BA0FEC
:102440000E94B00F6093E5037093E6038093E70367
:102450009093E80381E08093EE028091E50380FF92
:1024600004C086958F730C94021208959091E50331
:1024700090FF0DC02F3058F494E0299FF0011124F3
:10248000E651FC4F8183608342830C9406100895CB
:102490001F93CF93DF9300D000D0CDB7DEB7122FBC
:1024A0002091E50320FF0BC09E012F5F3F4F0E944C
:1024B0003B0F212F4B8169818A810E9436120F9038
:1024C0000F900F900F90DF91CF911F910895E5EE3F
:1024D000F3E080818E7F808360817181828193812E
:1024E0000E94B40F1092EE022FEF80E792E021508D
:1024F00080409040E1F700C000000C9406108091ED
:10250000E50380FD0C9467120C94F911CF93C82F4A
:102510008091EC029091ED020E94B725EC2FF0E043
:10252000E35CFB4FE491E817190611F008F042C094
:102530000E94AB259093ED028093EC026091EB0238
:1025400070E090E080E00E94E83220E030E04FE769
:1025500053E40E940B322BED3FE049E450E40E942B
:1025600011340E947E340E9485322BE43AE34EE21D
:102570005FE30E949E3120EF3BEF48ED52E40E9462
:1025800011340E94B732462F8091E503881F8827B7
:10259000881F9091E603292F220F97FB992790F926
:1025A0006091E703822B0E942C108091EB028F5FD9
:1025B0008093EB02CF910895CF93C82F8091E902C9
:1025C0009091EA020E94B725EC2FF0E0E65CFB4F09
:1025D000E491E817190609F0E8F40E94AB259093FE
:1025E000EA028093E9024091E8036091E703809159
:1025F000E7029091E8020E942C108091E7029091EE
:10260000E802019668E671E00E94E7349093E802E0
:102610008093E702CF910895CF92DF92FF920F93BC
:102620001F93CF93DF93F82E8091E5029091E602FD
:102630000E94B725EF2DE695F0E0E95CFB4FE491B1
:10264000E817190609F0A8F50E94AB259093E60259
:102650008093E5020AEE13E0D0E0C0E088E6C82EE1
:10266000DD24D3948091E3029091E4028C0F9D1FAE
:10267000B6010E94E73498014091E8036091E703B6
:102680000E943B0F68960C5F1F4FC83681E0D80749
:1026900049F70E9406108091E3029091E402F0FE57
:1026A00010C00196BE010E94E7349093E40280932B
:1026B000E302DF91CF911F910F91FF90DF90CF90B8
:1026C00008950197F2CFCF92DF92EF92FF920F938E
:1026D0001F93CF93DF93C82FFF24FA9480FD02C08D
:1026E000FF24F3948091E1029091E2020E94B725C9
:1026F000C695EC2FF0E0EC5CFB4FE491E81719066F
:1027000011F008F051C00E94AB259093E202809333
:10271000E1020AEE13E0D0E0C0E0F801118210827D
:10272000128294E0C92ED12CE12C8091E0028E0D12
:1027300087FD815F082E000C990BC817D907E9F4B3
:102740008091E8038C9DA0018D9D500D112455951D
:102750004795559547958091E503881F8827881FE1
:102760009091E603592F550F97FB992790F99801FF
:102770006091E703852B0E943B0FEF0CF1E0CF1A2D
:10278000D10899F621960C5F1F4FCF30D10529F65D
:102790000E9406108091E00291E0F91210C08111B0
:1027A0000CC08EE08093E002DF91CF911F910F91DA
:1027B000FF90EF90DF90CF9008958150F3CF90E09D
:1027C0000196BE010E94FB34EDCF0F931F93CF9370
:1027D000DF93C82F8091DE029091DF020E94B7251F
:1027E000EC2FF0E0EF5CFB4FE491E817190611F0D5
:1027F00008F052C00E94AB259093DF028093DE0266
:10280000CAEED3E0FE01118210821282349684E077
:10281000E632F807C1F710E000E08091DD02082EF3
:10282000000C990B08171907E4F180917B01082E21
:10283000000C990B80179107A4F18091E503881F84
:102840008827881F9091E603592F550F97FB9927EA
:1028500090F99E014091E8036091E703852B0E9467
:102860003B0F0F5F1F4F24960F301105B1F60E94EA
:10287000061080917A019091DD02980F9093DD020D
:1028800020917B01280F20937B01121614F49E30B7
:102890001CF0819580937A01DF91CF911F910F9168
:1028A0000895198218821A82DCCFEF92FF920F935B
:1028B0001F93CF93DF938091DB029091DC020E9403
:1028C000B725883E9340C8F10E94AB259093DC0267
:1028D0008093DB02C091D902D091DA022196C170B7
:1028E000DD27D093DA02C093D9028AEEE82E83E086
:1028F000F82E10E008E7812F86958C0F9D2F911DF3
:102900008170992797014091E8036091E703FC01EA
:102910000E9FC0010F9F900D11240E943B0F1F5F5F
:10292000F4E0EF0EF11C1F3031F7DF91CF911F91D2
:102930000F91FF90EF900C940610DF91CF911F91B3
:102940000F91FF90EF900895CF93DF9300D000D0C8
:10295000CDB7DEB78091D7029091D8020E94B725FB
:10296000E5E2F4E02591349182179307B8F1809164
:10297000D60281110CC09E012F5F3F4F4FEF6FEFCA
:1029800090E080E00E943B0F8A818093D6020E94F3
:10299000AB259093D8028093D7028091D5028130E5
:1029A00069F038F04091D602823009F040E080E0D2
:1029B00003C08091D60240E060E004C06091D6027E
:1029C00040E080E00E941B108091D50290E00196CB
:1029D00063E070E00E94FB348093D5020F900F906B
:1029E0000F900F90DF91CF910895CF93DF93809157
:1029F000D3029091D4020E94B725843F9140B8F150
:102A00000E94AB259093D4028093D302D0E0C0E023
:102A10004091D1025091D2022C2F6091E703809116
:102A2000E503382F331F3327331F9091E603892F97
:102A3000880F832B97FB992790F9C730D105D4F4E1
:102A4000452BD1F04091E8030E9448122196CF30E7
:102A5000D105F1F60E9406108091D1029091D20228
:102A60000196817099279093D2028093D102DF91D1
:102A7000CF910895452B31F340E0E6CF8091EE02EF
:102A80008823D1F19091E503892F86958F732EE3EA
:102A9000280F2F73243018F482500C9486122AE3E6
:102AA000280F2F73233018F486500C94DC1227E380
:102AB000280F2F73263018F489500C940C1321E33F
:102AC000280F2F73263018F48F500C9463132BE2C9
:102AD000280F2F73233018F485510C94E5139E773B
:102AE000903311F40C945514963411F40C94A414EE
:102AF000983411F40C94F51408958823B9F0519882
:102B0000599A5098589A95E09A95F1F70000509A82
:102B1000589895E09A95F1F70000882311F0519AA2
:102B2000599885E08A95F1F700000895519A5998CF
:102B3000E8CF8BB18C7F8BB95098589A5198599A9D
:102B400085E08A95F1F7000008958AB18C7F8AB9F3
:102B500085E08A95F1F70000519A599885E08A95A9
:102B6000F1F70000509A589885E08A95F1F7000037
:102B700008955098589A85E08A95F1F70000519889
:102B8000599A85E08A95F1F700000895CF93DF9375
:102B9000D82FC8E08D2F80780E947D15DD0FC150A1
:102BA000C9F780E00E947D1585E08A95F1F7000065
:102BB00085E08A95F1F7000080E0DF91CF910895DC
:102BC0003BB1242F209523233BB1432B3FB7F894EF
:102BD000FC01680F791FE617F70711F43FBF08954E
:102BE000819198E04BB9000000C087FF2BB9880F96
:102BF000000000C000C000C02BB900C09A9591F73A
:102C0000EACFAF92BF92CF92DF92EF92FF920F93F3
:102C10001F93CF93DF938C01EB01CFB6D090BC0014
:102C2000F8948091BC008B7F8093BC000E94991522
:102C30000E94A51584E80E94C615CC0FDD1FCC0F9D
:102C4000DD1F78015E01A00EB11EEA14FB04A9F499
:102C50000E94B915CFBED092BC00579A40E8BE0181
:102C6000C801DF91CF911F910F91FF90EF90DF90FE
:102C7000CF90BF90AF900C94E015F70181917F0148
:102C80000E94C615E2CFCF93DF93EC0181E08F87DE
:102C90008F810E94E42388850E94F8230E94AE233E
:102CA000EA81FB816A897B89CE010696309719F00B
:102CB000DF91CF910994DF91CF910895CF93DF9366
:102CC000EC018881823039F4FB01828193810E947A
:102CD000CE0781E08987DF91CF910895FC01808143
:102CE000813029F4FB01808191810C94CE078230E0
:102CF00021F4FB0182819381F8CF0895FC0180814A
:102D0000813029F4FB01808191810C94E3078230AA
:102D100021F4FB0182819381F8CF0895EF92FF9215
:102D20000F931F93CF93DF93EC018885811132C0FD
:102D3000EB80FC8087E5F81A24E12E9DC0012F9DD1
:102D4000900D1124DC01AE5FBE4F1496ED91FC9105
:102D5000159752966D917C91885F9E4F309709F040
:102D6000099584E18E9D80018F9D100D11240E5FC9
:102D70001E4FF80187810E94EA23F80180850E9496
:102D8000FE230E94AE2318821F8219861092F00241
:102D90001092EF02DF91CF911F910F91FF90EF9072
:102DA0000895DF92EF92FF920F931F93CF93DF93DB
:102DB0007C01FB018281882391F080917C018F3F0F
:102DC00071F0C2E0D1E010E000E0DD24D394809106
:102DD0007C01082E000C990B8017910744F4DF91B9
:102DE000CF911F910F91FF90EF90DF9008958E810A
:102DF0008823B9F089859A858E159F0539F48091CD
:102E0000EF029091F002E816F90659F0DD868F8501
:102E1000811103C0CE010E944316CE0106960E9486
:102E20008E160F5F1F4F6496D2CFEF92FF920F93D3
:102E30001F93CF93DF937C0197558F3F910509F046
:102E4000D8F520917C01022E000C330B281739078E
:102E500014F480937C01FB01228134E1389F8001CE
:102E6000399F100D1124E801CE5FDE4F2E8792812D
:102E70008E81992349F1FA86E9868F5F8E830E94BD
:102E8000AB259C878B870E9420248F830E94E1239F
:102E900088870E94F5239885892B8887E881F981A6
:102EA0006A897B89C801885F9E4F309709F0099530
:102EB000F092F002E092EF0281E0DF91CF911F915A
:102EC0000F91FF90EF9008958823B1F38F858823A9
:102ED00099F3C801885F9E4F0E948E16EDCFEF9246
:102EE000FF920F931F93CF93DF9380917C0110E0AB
:102EF00004E18F3FC1F5DF91CF911F910F91FF90BA
:102F0000EF900895029FF001039FF00D1124EE5FF2
:102F1000FE4FE088F188E114F10419F483E7E82E0C
:102F2000F12C029FE001039FD00D1124CE5FDE4FF4
:102F30008E818823B9F08B859C850E94B725E81681
:102F4000F90680F4109F700111248F85811105C04E
:102F5000C7018E5F9E4F0E944316C701885F9E4F38
:102F60000E948E161F5F212F30E080917C01082E79
:102F7000000C990B821793072CF6BDCF9093F602A5
:102F80008093F5020895E091F502F091F6023097F2
:102F900021F00190F081E02D099480E00895E09106
:102FA000F502F091F602309721F00280F381E02DD6
:102FB00009940895E091F502F091F602309721F01E
:102FC0000480F581E02D099408952091F302309159
:102FD000F4022817390771F09093F4028093F302FA
:102FE000E091F502F091F602309721F00680F7812A
:102FF000E02D099408952091F1023091F2022817F2
:10300000390771F09093F2028093F102E091F5029A
:10301000F091F602309721F00084F185E02D0994BB
:10302000089508950C94111881E008950E94A22536
:1030300085B7806885BF85B7806885BF0E945804C2
:103040000E9439260C940512BF92CF92DF92EF9224
:10305000FF920F931F93CF93DF93CDB7DEB72A97DD
:103060000FB6F894DEBF0FBECDBF0E94C4040E940D
:103070001418882309F471C088EFC82E82E0D82E76
:1030800010E000E0B02E802F0E942905E82EF60106
:10309000F1906F01F81609F45AC08091B30381FDD5
:1030A0000E942F0590E080E0FE242F2D30E0482F75
:1030B000B901082E02C0759567950A94E2F760FF82
:1030C00041C08E83BF8281E090E06C0102C0CC0CD5
:1030D000DD1C4A95E2F72E2D30E02C213D21232BDB
:1030E00009F480E088870E94AB258160782F9A8759
:1030F00089874E815F8168858A850E940619F8015B
:10310000E850FD4F80818C2580830E94CC270E944F
:10311000C3179091F702891789F10E94C317809312
:10312000F7022A960FB6F894DEBF0FBECDBFDF912F
:10313000CF911F910F91FF90EF90DF90CF90BF90B4
:103140000C946E0801968630910509F0B0CF0F5FA0
:103150001F4F0E30110509F095CF8FEF89838A83B9
:103160001B820E94AB258160782F9D838C834981CF
:103170005A816B818D810E940619C7CF2A960FB69E
:10318000F894DEBF0FBECDBFDF91CF911F910F919D
:10319000FF90EF90DF90CF90BF900895CF93DF9393
:1031A000DC018C91682F70E021E030E001C0220F3B
:1031B0008A95EAF711964C91119750E0EA01CA5F9F
:1031C000DC4F988112968C9112978823C9F08091D8
:1031D00016038823C1F086E0849FF001859FF00DDF
:1031E0001124E60FF71FEE0FFF1FE157FE4F40813E
:1031F00051814D935C93292B2883DF91CF910895C2
:10320000892F8223E6CF20952923F6CFCF93DF9312
:10321000CDB7DEB72B970FB6F894DEBF0FBECDBF8C
:10322000942F4F83252F588769877A878B874A8504
:103230005B8581E0452B31F02F3F19F481E09F3F02
:1032400009F080E080FD04C0CE0107960E94CE18F0
:103250001E821D8285E0FE013796DE0111960190E7
:103260000D928A95E1F749815A816B817C818D812C
:103270009E810E9473202B960FB6F894DEBF0FBE7E
:10328000CDBFDF91CF910895FC01808191810E9493
:103290003C2392959F70963041F48091160391E003
:1032A000892780931603909315030895CF93C82F11
:1032B000882309F4DAC08238C1F40E94C31781FD63
:1032C000D4C089E30E946A230E94AE232FEF81EECF
:1032D00094E0215080409040E1F700C0000089E375
:1032E0000E947123CF910C94AE238338A1F40E94E5
:1032F000C31780FDBAC083E50E946A230E94AE23F3
:103300002FEF81EE94E0215080409040E1F700C023
:10331000000083E5E5CF8438A1F40E94C31782FD45
:10332000A4C087E40E946A230E94AE232FEF81EE9F
:1033300094E0215080409040E1F700C0000087E415
:10334000CFCF8CEF8C0F813A48F48C2F0E94EB2961
:1033500081118BC08C2F0E946A23C4CF80E28C0F16
:10336000883048F4C77081E001C0880FCA95EAF739
:103370000E94E423B7CF8BE58C0F833068F481E89B
:1033800090E0C53A31F083E890E0C63A11F482E863
:1033900090E0CF910C94E51788E58C0F853108F00B
:1033A0005EC082EE90E0C83A09F456C089EE90E023
:1033B000C93A09F451C08AEE90E0CA3A09F44CC007
:1033C00085EB90E0CB3A09F447C086EB90E0CC3A2D
:1033D00009F442C083EB90E0CB3BF1F184EB90E049
:1033E000CC3BD1F187EB90E0CD3AB1F18CEC90E0A1
:1033F000C03B91F18DEC90E0CE3A71F183E891E021
:10340000CF3A51F18AE891E0C13B31F182E991E094
:10341000C23B11F184E991E0C33BF1F081E292E01B
:10342000C43BD1F083E292E0C53BB1F084E292E08C
:10343000C63B91F085E292E0C73B71F086E292E0F4
:10344000C83B51F087E292E0C93B31F090E080E068
:10345000CA3B11F48AE292E0CF910C94FB17C03F73
:1034600020F08C2FCF910C94D526CF9108958823EE
:1034700009F450C0823871F40E94C31781FF4AC01A
:1034800089E30E946A230E94AE2389E30E9471238C
:103490000C94AE23833859F40E94C31780FF3AC0BE
:1034A00083E50E946A230E94AE2383E5EFCF843830
:1034B00059F40E94C31782FF2DC087E40E946A233B
:1034C0000E94AE2387E4E2CF9CEF980F913AF0F28E
:1034D00090E2980F983050F4877091E001C0990FF6
:1034E0008A95EAF7892F0E94EA23D2CF9BE5980FAD
:1034F000933020F490E080E00C94E51798E5980F65
:10350000953120F490E080E00C94FB17803F10F0A0
:103510000C943D270895882321F00E94E4230C9405
:10352000AE230895882321F00E94EA230C94AE2351
:1035300008958F929F92AF92BF92DF92EF92FF9287
:103540000F931F93CF93DF937C01D62FC72FFC01DE
:10355000058102950F70128111110E9406240E94AC
:10356000A723D82E882371F0112331F180E28D0F2B
:10357000883010F182E00E9491230E94A72391E0FD
:10358000D82ED926BC2EB2949FE0B922EB2DF0E0C4
:10359000E453F54E0C940F35DE1ADE1A2E1B2E1B4B
:1035A0006E1B961B051D751BD81B751B731C731C8E
:1035B000FC1C751B751B371DD12CE4CF0C2F0F7015
:1035C000C07F11F00295007F1123A9F0002359F06C
:1035D00080E28D0F883010F0D11109C0802F0E9439
:1035E000E4230E94AE238D2F0E94561914C0802F11
:1035F0000E94F823F6CF8D2F0E94371A002359F02E
:1036000080E28D0F883010F0D11124C0802F0E94ED
:10361000EA230E94AE23DD2009F454C20E948423D1
:1036200080FD50C2F70112820E947E230E94022276
:10363000C7010E946E1D0E947E23DF91CF911F91D2
:103640000F91FF90EF90DF90BF90AF909F908F9081
:103650000C942322802F0E94FE23DBCFFC2FFF70CF
:10366000BF2EC07FC03219F0B29480EFB822DD23A4
:1036700039F0D13019F1112359F1002321F1B3CFE1
:10368000112381F0011106C00E9420248B290E9481
:103690008B1AC1CF0130C1F70E9420248B290E94D0
:1036A0001A24B9CF011106C00E941D248B2D0E943F
:1036B000921AB1CF013009F4AECFF6CF112329F021
:1036C000023008F0A8CF8B2DE2CF0111A4CFEECFAE
:1036D000002361F38D2F0E94371A9DCF8C2F869582
:1036E0008695837079F08130B9F0F8E0BF1609F45F
:1036F0009BC0BF1608F48FCF86EF8B0D823008F485
:1037000093C089CF8D2F9C2F9370111102C090E030
:1037100080E00E94E5177FCF8D2F9C2F93701111B1
:1037200002C090E080E00E94FB1775CF112309F1E1
:10373000D53F99F0D63FB9F0D43F49F480912604A3
:1037400090912704816090932704809326048D2F05
:103750000E94D5260E94C1275ECF809126049091B9
:1037600027048260F0CF8091260490912704846022
:10377000EACFD53F89F0D63FA9F0D43F49F48091F4
:103780002604909127048E7F90932704809326042B
:103790008D2F0E943D27DECF809126049091270433
:1037A0008D7FF2CF80912604909127048B7FECCF00
:1037B0008C2F837009F04BC0111136C02D2F22952C
:1037C00026952770220F220F6D2F6F70862E912C59
:1037D000B12CA12C022E04C0880C991CAA1CBB1C65
:1037E0000A94D2F760E070E0CB01D4FF0FC06FE025
:1037F00070E080E090E004C0660F771F881F991F7B
:103800002A95D2F76095709580959095C695C69546
:10381000C370C23071F0A0F4682979298A299B29E4
:10382000C13091F00E94B6210E94C3170E946E0819
:10383000F2CE682979298A299B290E94C821F4CFD0
:103840000E94B621C501B4010E94A421EDCF869546
:10385000112311F08C2F8170882331F32D2F2295A5
:1038600026952770220F220F6D2F6F70862E912CB8
:10387000B12CA12C022E04C0880C991CAA1CBB1CC4
:103880000A94D2F760E070E0CB01D4FF0FC06FE084
:1038900070E080E090E004C0660F771F881F991FDA
:1038A0002A95D2F76095709580959095C695C695A6
:1038B000C370C23051F080F4682979298A299B2984
:1038C000C13071F00E947922AFCF682979298A2905
:1038D0009B290E948B22A8CF0E947922C501B401A6
:1038E0000E946722A1CFE0E2ED0FE53108F065C04C
:1038F000F0E0E358F34E0C940F35921C921C921C8E
:10390000921C921C921C921C921C921C921C921C47
:10391000921C921C921C921C921CA31CB01CB71CE3
:10392000BE1CC81CDF708C2F8F71112331F00E94D8
:1039300002228D2F0E948B1AD8CE0E9423228D2F17
:103940000E94921AD2CE112339F00111CECE8C2FC3
:103950008F710E944622C9CE023008F0C6CEF7CF42
:103960008C2F8F71112339F00E940222BECE8C2F32
:103970008F711123C9F30E942322B7CE112329F09E
:103980008C2F8F710E94ED21B0CE0E94E821ADCE28
:10399000112349F0CF718C2F0E94022263E08C2FFB
:1039A0000E948823A2CE81E00E949123023008F475
:1039B0009CCE82E00E94912398CE112349F00023EF
:1039C00021F08D2F0E94561990CE8C2F8F71CCCF65
:1039D000002379F0D93349F42FEF87EE93E021509B
:1039E00080409040E1F700C000008D2F0E94371A00
:1039F0007CCE8C2F8F71BFCF4C2F4F706D2FC70196
:103A00000E94FD060E941C2106CED23F71F1C8F42F
:103A1000D03F01F1D13FB9F180911503002309F4A2
:103A200046C0882341F08091160391E08927809356
:103A30001603109215038D2F112389F10E94561938
:103A400016C0D43FD9F078F0D53F31F711110FC02F
:103A500081E006C0112359F08091160391E0892777
:103A60008093160304C081E01827109316034C2F8F
:103A70004F706D2FC7010E945E0B37CE1111F7CF2B
:103A800010921603F4CF112339F080911503882387
:103A900019F310921503EBCF0023F1F2E8CF0E9447
:103AA000371A86E0F70111928A95E9F7E0CF88236B
:103AB000F1F21111DCCF8091160391E089278093F8
:103AC0001603E7CFDF91CF911F910F91FF90EF90F9
:103AD000DF90BF90AF909F908F9008950F931F93AA
:103AE000CF93DF93EC01988189812B813C81232B3B
:103AF00039F08F3F19F481E09F3F19F080E001C059
:103B000081E080FD17C0CE010E948008882391F0DB
:103B1000688179818A810E9446238C010E949D22BE
:103B20000E94A121B801CE01DF91CF911F910F9189
:103B30000C94991ADF91CF911F910F9108950E94D3
:103B400006240E9417240E9478230E94AE230E941C
:103B500060280E94C12790E080E00E94E51790E075
:103B600080E00C94FB170E94F2230C949F1D0E948E
:103B70003C23E92FE295EF70E250EE30E0F4F0E004
:103B8000EC53F24E0C940F35D21DD21DDB1DDB1D04
:103B9000DD1DDB1DDB1DDB1DD21DD21DE21DDB1D6E
:103BA000DB1DE21D803F19F020F4803E20F481E00F
:103BB0000895843FE1F380E00895803EC0F3813FA3
:103BC000D1F7F5CF93FB882780F90895CF93DF9342
:103BD00000D000D01F92CDB7DEB70F900F900F909E
:103BE0000F900F90DF91CF910895CF93DF9300D086
:103BF00000D000D0CDB7DEB726960FB6F894DEBF62
:103C00000FBECDBFDF91CF9108951F93CF93DF9368
:103C1000C091170316E0809118038C1304C0DF9144
:103C2000CF911F910895D0E01C9FF0011D9FF00DD2
:103C30001124E75EFC4F4081518162817381848150
:103C400095810E94F51D2196C770E5CF40914903EB
:103C500050914A0360914B0370914C0380914D0346
:103C600090914E030C94F51D1F93CF93DF93809199
:103C70004E03807FD1F480914B038823B1F0809173
:103C80001703D0911803B0914903C0914A034091A2
:103C90004C0350914D03A1E0BF3F09F0A0E0BA01F1
:103CA0006095709516E0D81304C0DF91CF911F91F5
:103CB000089521E04115510521F02A2FCF3F09F049
:103CC00020E090E020FD38C0189FF001199FF00D12
:103CD0001124E75EFC4F21812C132EC020812B1371
:103CE0002BC02281211128C023813481241735075C
:103CF00000F1241B350B23373105F0F420914E03DE
:103D00002F70206120934E0326E0289FF001299F09
:103D1000F00D1124E25EFC4F80818F708061808302
:103D200089E493E00E946E1DDF91CF911F910C9466
:103D3000051E260F371FDFCF01968770B4CFAF92D5
:103D4000BF92CF92DF92EF92FF920F931F93CF9388
:103D5000DF93CDB7DEB761970FB6F894DEBF0FBE25
:103D6000CDBF8C0185E0F801DE011D9601900D921A
:103D70008A95E1F7D8014C9111965C9111971296B2
:103D8000EC903091490360914A0380914C039091EB
:103D90004D0321E0009731F06F3F19F421E03F3FE0
:103DA00009F020E0B22FB170BB2E20FD80C1F801D8
:103DB000C380D480A0904B03AA2009F427C1C81661
:103DC000D906D0F1D601A81BB90BCD01FF24F3947D
:103DD0008337910508F0F12C80914E03982F907F46
:103DE000FF2009F4CEC0911187C0FE2C651329C0B5
:103DF000341327C0E11025C08F70806180934E037B
:103E00000E94261E89E493E00E946E1D80914E035D
:103E1000F80185838F2D61960FB6F894DEBF0FBE33
:103E2000CDBFDF91CF911F910F91FF90EF90DF9069
:103E3000CF90BF90AF900895809590958C0D9D1D6B
:103E4000C5CF81E0CD2831F05F3F19F481E04F3FCD
:103E500009F080E080FD24C081E08E25F82FF1700C
:103E6000DF2E80FF3FC0809117032091180336E0BA
:103E7000821318C04D875E878D859E850E943C23E6
:103E8000292F22952F70223008F1243030F59F70B1
:103E900009F1D80115969C91907FE1F4FB2CBACFE3
:103EA00080E0DCCF90E0389FF001399FF00D1124C5
:103EB000E75EFC4F6181561306C06081461303C064
:103EC00062816E110FC001968770D2CF9F7011F082
:103ED000882321F3805E883008F3C8010E946E1D9C
:103EE000BD2CDCCFEE2009F495CF80914E0381608C
:103EF00080934E03F12C8ECF651314C0341312C07F
:103F0000E11010C0F8018583C8010E946E1D86E093
:103F1000F801A9E4B3E001900D928A95E1F70E94BF
:103F2000261E78CF4D875E878D859E850E94B71DA2
:103F3000882319F1EE2009F180914E03803270F050
:103F40002091490330914A0338872F831986DB86F5
:103F5000CA868C87CE0107960E946E1D86E0F80106
:103F6000A9E4B3E001900D928A95E1F70E94341E16
:103F70000E94261EFF24F3944DCFC8010E946E1D9F
:103F8000F9CF911113C07C2DD98AC88A6E2D8989E9
:103F90000E94E61D89E493E00E946E1D86E0E9E43C
:103FA000F3E0DF011D928A95E9F7B9CF651312C0DE
:103FB000341310C0E1100EC0F8018583C8010E94BF
:103FC0006E1DE9E4F3E086E0DF011D928A95E9F7D2
:103FD000FA2C20CF4D875E878D859E850E94B71D68
:103FE000882359F2EE2049F280914E03803208F482
:103FF000B5CF2091490330914A033A8329831B822C
:10400000DD82CC828E83CE010196A6CFC816D9065A
:1040100038F1F601E81BF90BCF01F12C833791053C
:1040200008F03DC0FE2CEE2009F4A7CF651326C092
:10403000341324C080914E0380FD17C0982F907FC9
:10404000A1F0D80115968C931597903F09F45CCF99
:10405000982F907F905F8F70892B15968C9354CFFB
:10406000809590958C0D9D1DD8CF86E0F801A9E430
:10407000B3E001900D928A95E1F7CCCE4D875E8733
:104080008D859E850E94B71D811168CF80914E035A
:10409000816080934E03C8010E946E1DBBCE7C2DB3
:1040A000D98AC88A6E2D89890E94E61D77CFEE20B5
:1040B00009F463CF4D875E878D859E850E94B71D6D
:1040C000F82E882309F459CF86E0F801A9E4B3E07B
:1040D00001900D928A95E1F789E493E00E944419DA
:1040E0000E94341E1CCF1F93CF93DF93CDB7DEB752
:1040F0002C970FB6F894DEBF0FBECDBF4F83588705
:1041000069877A878B879C87CE0107960E949F1EBE
:10411000882309F442C09F8188852A853B85232B0B
:1041200039F08F3F19F481E09F3F19F080E001C022
:1041300081E080FD08C04F81588569857A858B852F
:104140009C850E94F51D16E080911703909118033D
:10415000891709F467C0819FC0011124875E9C4FB5
:104160000E949F1E882309F45DC0E09117031E9FE3
:10417000F0011124E75EFC4F40815181628173811F
:10418000848195810E94F51D8091170390E001962E
:104190008770992780931703D7CF86E0FE01379663
:1041A000DE01119601900D928A95E1F79F81888535
:1041B0002A853B85232B39F08F3F19F481E09F3FFF
:1041C00019F080E001C081E080FDBDCF209118038F
:1041D00030E0C9010196877099274091170348176D
:1041E000190699F096E0929FD001939FB00D11248B
:1041F000A75EBC4FFE01319601900D929A95E1F7B2
:10420000809318030E94051E9ECF0E94B31D10923A
:1042100018031092170386E0E9E4F3E0DF011D9232
:104220008A95E9F72C960FB6F894DEBF0FBECDBF86
:10423000DF91CF911F910895EF92FF920F931F93FB
:10424000CF93DF938C01892B81F0F12CEE24E39442
:10425000E8012196F8018491843770F4843008F0E5
:104260005FC08130B1F08230A1F1DF91CF911F9119
:104270000F91FF90EF900895853709F44CC008F432
:104280003DC09CE7980F903780F78F770E94371AD0
:1042900049C00E5F1F4FFE01849190E2980F983045
:1042A00060F48770FE2D01C0FF0F8A95EAF78F2F0B
:1042B0000E9409240E94AE2302C00E9456198F2D2D
:1042C000815030F2EFE9FFE03197F1F700C00000D4
:1042D000F7CF0E5F1F4FFE01849190E2980F983048
:1042E00050F48770FE2D01C0FF0F8A95EAF78F2FDB
:1042F0000E940F24DFCF0E94371AE1CF0E5F1F4FBD
:10430000FE01C491C150D8F28FE99FE00197F1F707
:1043100000C00000F7CF0E5F1F4FFE01F490CFCF1B
:104320000E9456198E01CBCF08950E94942160936C
:104330008A0370938B0380938C0390938D030C946A
:104340009F1D08950C9495210F931F9300918A034C
:1043500010918B0320918C0330918D03602B712B76
:10436000822B932B1F910F910C9495210F931F93E8
:1043700000918A0310918B0320918C0330918D035F
:1043800060237123822393231F910F910C94952115
:104390000F931F9300918A0310918B0320918C033C
:1043A00030918D0360277127822793271F910F91EA
:1043B0000C9495210C9443070E94DA2160938603A4
:1043C0007093870380938803909389030C949F1DB7
:1043D00060E070E0CB010C94DC210F931F9341E06F
:1043E00050E060E070E08A019B0104C0000F111FE3
:1043F000221F331F8A95D2F7C901B8011F910F916F
:104400000C94DC210F931F9341E050E060E070E0DA
:1044100004C0440F551F661F771F8A95D2F78091FD
:10442000860390918703A0918803B09189038A0144
:104430009B01082B192B2A2B3B2BC901B8011F917B
:104440000F910C94DC210F931F9341E050E060E04A
:1044500070E004C0440F551F661F771F8A95D2F77E
:10446000CB01BA0160957095809590950091860377
:104470001091870320918803309189036023712371
:10448000822393231F910F910C94DC210F931F9390
:1044900041E050E060E070E004C0440F551F661F2B
:1044A000771F8A95D2F78091860390918703A09118
:1044B0008803B09189038A019B01082719272A27BD
:1044C0003B27C901B8011F910F910C94DC210F9378
:1044D0001F930091860310918703209188033091E8
:1044E0008903602B712B822B932B1F910F910C94BE
:1044F000DC210F931F930091860310918703209175
:1045000088033091890360237123822393231F91B1
:104510000F910C94DC210F931F930091860310914F
:1045200087032091880330918903602771278227B0
:1045300093271F910F910C94DC210895292F220FAE
:10454000920F990F890F982F977071E001C0770F24
:104550009A95EAF786958695869525E0829FC00113
:10456000112450E040E0A62FB0E0FC01E40FF51F5D
:10457000E15BFC4F60819D01042E02C036952795BA
:104580000A94E2F7217021952627272326272083E6
:104590004F5F5F4F4530510541F70895292F220F96
:1045A000290F220F820F982F9770869586958695F2
:1045B00045E0849F9001112470E060E080E0F90103
:1045C000E60FF71FE15BFC4F408150E0092E02C06F
:1045D000569547950A94E2F741705527062E01C07B
:1045E000440F0A94EAF7842B6F5F7F4F65307105A3
:1045F00031F70895BF92CF92DF92EF92FF920F931F
:104600001F93CF93DF938C01C0908603D0908703D4
:10461000E0908803F090890380918A0390918B0346
:10462000A0918C03B0918D03C82AD92AEA2AFB2ACB
:10463000CFE1D0E0BC2ED701C6010C2E04C0B69548
:10464000A795979587950A94D2F780FD0EC021977C
:1046500088F7B12C8B2DDF91CF911F910F91FF9097
:10466000EF90DF90CF90BF900895B8018C2F0E94FB
:104670007B0B019761F3EECFCF93DF93EC010E94A8
:10468000FA22BE01DF91CF910C947B0B1F93CF9345
:10469000DF93EB0190911403992331F0CB01DF916B
:1046A000CF911F910C943C23882379F0CB010E9479
:1046B000FA22182F682FCE010E949E22BE01812F60
:1046C000DF91CF911F910C947B0BCB010E94CE22E6
:1046D000182FF4CF682F80917D0190917E010C946A
:1046E0000A25682F80917D0190917E010C941525FB
:1046F00080917D0190917E010C94202580918E0304
:10470000859585958595089580918E038770089588
:1047100098E0899F90011124622B60938E030C9482
:10472000022290918E038095892380938E03282FF7
:10473000277061F4282F082E000C330B92171306F4
:1047400029F08595859585950C942322089590915F
:104750008E03977081E009F480E00895E0917D0177
:10476000F0917E018091B2038083E0917D01F09110
:104770007E0180819091B103892B8083E0917D013E
:10478000F0917E0180819091B003892B808390917C
:104790008F03992381F0E0917D01F0917E0180816A
:1047A000892B808380917D0190917E010E94AD24B0
:1047B000811110928F0380917D0190917E010C9464
:1047C000CF178091B20308959091B203892B809303
:1047D000B2030895982F90958091B2038923809316
:1047E000B20308951092B20308958091B103089521
:1047F0009091B103892B8093B1030895982F9095E0
:104800008091B10389238093B10308951092B1037D
:1048100008959091B003892B8093B0030895982F49
:1048200090958091B00389238093B00308951092EE
:10483000B003089580938F03089510928F03089515
:1048400080918F030895CF92DF92EF92FF926C01D7
:10485000EE24FF2420E0C114D104E104F10419F096
:10486000C701B60120E1C72ED82EE92EFF24C114BE
:10487000D104E104F10419F0285FC701B6016B010E
:104880007C0154E0F694E794D794C7945A95D1F7F5
:10489000C114D104E104F10419F02C5FC701B60181
:1048A0006B017C0142E0F694E794D794C7944A9553
:1048B000D1F7C114D104E104F10419F02E5FC7014E
:1048C000B6019695879577956795672B682B692B29
:1048D00009F02F5F822FFF90EF90DF90CF90089527
:1048E0006DEE7EEF90E080E00E94473560E082E070
:1048F00090E00E94293560E083E090E00E94293535
:1049000060E084E090E00E94293560E085E090E07E
:104910000E94293540E050E0BA0188E090E00C9414
:104920003B3590E080E00E94233521E08D3E9E4F94
:1049300009F020E0822F089582E090E00C94153574
:1049400083E090E00C94153584E090E00C941535EC
:10495000682F84E090E00C942935FC0131969C018D
:10496000205E3F4F80E0919191118F5FE217F30736
:10497000D1F708959C01FC0132969FEF80E04191B0
:10498000461751F09F3F19F4411101C0982F8F5FD6
:104990008E31A9F79F3F09F40895290F311D97FD26
:1049A0003A95F90162830895FC013296809621912F
:1049B000261303C0DF0111971C92E817F907B9F716
:1049C0000895E62FE695E695E695EF3169F0E80F54
:1049D000F92FF11D677021E030E001C0220F6A95C8
:1049E000EAF78181822B81830895E62FE695E6958B
:1049F000E695EF3171F0E80FF92FF11D677021E0B6
:104A000030E001C0220F6A95EAF7209581812823C2
:104A10002183089520918E01222329F020912C04D6
:104A200027FD0C94E1240C94BA2420918E012223BA
:104A300029F020912C0427FD0C94F5240C94D42407
:104A4000FC01319680961192E817F907E1F7089575
:104A500008950C94282580913204843049F11092F5
:104A6000B40388E190E020E40FB6F894A895809311
:104A700060000FBE2093600080E00E946E080E94DC
:104A8000292583B7817F846083BF83B7816083BF1B
:104A90007894889583B78E7F83BF0FB6F894A895D6
:104AA00080916000886180936000109260000FBE6A
:104AB00008950895CF930E9474040E94C4040E9434
:104AC0005925C0E08C2F0E942905811105C0CF5FB8
:104AD000CE30C1F7CF91089581E0FCCF08950C94BA
:104AE0006E250E94B31D0E94C3170E946E080C948D
:104AF0006F251F920F920FB60F9211248F939F93E1
:104B0000AF93BF938091B403811113C080912804A7
:104B100090912904A0912A04B0912B044196A11DE3
:104B2000B11D8093280490932904A0932A04B09384
:104B30002B04BF91AF919F918F910F900FBE0F905B
:104B40001F90189582E084BD93E095BD9AEF97BDC4
:104B500080936E0008952FB7F89480912804909167
:104B60002904A0912A04B0912B042FBF0895CF925D
:104B7000DF92EF92FF920F931F932FB7F89440911B
:104B800028045091290460912A0470912B042FBFAE
:104B90006A017B01EE24FF248C0130E020E0C01686
:104BA000D106E206F30650F0481B590BCA011F91CB
:104BB0000F91FF90EF90DF90CF90089541505109F1
:104BC000F3CF78941F920F920FB60F9211248F9308
:104BD0009F93AF93BF938091280490912904A09153
:104BE0002A04B0912B040196A11DB11D80932804C5
:104BF00090932904A0932A04B0932B04BF91AF9102
:104C00009F918F910F900FBE0F901F901895F89461
:104C100081E08093E00080E28093D800E9ECF0E04E
:104C200010828FE19EE40197F1F700C000001DBAE9
:104C3000109268001CBC10BE1FBA10927A0010922D
:104C40006E0010926F00109271001092720010822C
:104C5000ECEBF0E0108214B817B81AB81DB810BA0F
:104C6000108215B818B81BB81EB811BA0C94003FC2
:104C700008950E949124811102C00E9470240E9414
:104C80009C248093B3030E94A42490E090932D046D
:104C900080932C040E94A024682F70E090E080E0B4
:104CA0000C94A2218091B80380FF12C06091820110
:104CB00085E0689FB0011124759567957595679596
:104CC00060387105A8F561157105A1F1862F089569
:104CD00081FF09C06091820185E0689FB0011124C5
:104CE00075956795EDCF82FF07C06091820185E0E1
:104CF000689FB0011124E4CF2091B9032223A9F0C9
:104D0000909181016091820185E0689FB00111243A
:104D10002917B0F6269FA001279F500D1124692F57
:104D200070E0CA010E94FB34CBCF65E070E0CECFCB
:104D30008FE7089581E008958091B80380FF0CC04B
:104D40006091800170E0759567957595679561151F
:104D5000710549F1862F089581FF06C06091800199
:104D600070E075956795F3CF6091800182FD0BC06F
:104D70009091B9039923A1F060917F018091800106
:104D8000961738F0682F70E06038710500F38FE7F0
:104D90000895899FC001112470E00E94FB34F4CF74
:104DA00061E070E0D7CF81E00895803F31F40E9448
:104DB000522681958093BC030895813F19F40E9487
:104DC0005226F8CF823F31F40E945226819580937B
:104DD000BB030895833F19F40E945226F8CF893F00
:104DE00029F40E949C268093BD0308958A3F21F4F4
:104DF0000E949C268195F7CF8B3F31F40E949C2620
:104E000081958093BE0308958C3F19F40E949C26DF
:104E1000F8CF843F31F48091BA0381608093BA0364
:104E20000895853F21F48091BA038260F7CF863FD1
:104E300021F48091BA038460F1CF873F21F48091FF
:104E4000BA038860EBCF883F21F48091BA03806178
:104E5000E5CF8D3F31F48091B80381608093B80332
:104E600008958E3F21F48091B8038260F7CF8F3F81
:104E7000B9F78091B8038460F1CF803FC1F480918D
:104E8000BC0387FD1092BC038091BB0381110EC04F
:104E90008091BC0381110AC08091BD03811106C0BD
:104EA0008091BE03811102C01092B9030895813F21
:104EB00029F48091BC0318162CF3E6CF9091BB0324
:104EC000823F29F497FFE0CF1092BB03DDCF833FF1
:104ED00019F41916CCF3D8CF893F39F48091BD036A
:104EE000181694F61092BD03CFCF8A3F29F4809113
:104EF000BD0387FFC9CFF6CF8B3F39F48091BE0346
:104F000087FFC2CF1092BE03BFCF8C3F29F48091A0
:104F1000BE031816BCF3B8CF843F31F48091BA03B6
:104F20008E7F8093BA03B0CF853F21F48091BA037E
:104F30008D7FF7CF863F21F48091BA038B7FF1CF2D
:104F4000873F21F48091BA03877FEBCF883F21F41C
:104F50008091BA038F7EE5CF8D3F31F48091B80305
:104F60008E7F8093B80390CF8E3F21F48091B80359
:104F70008D7FF7CF8F3F09F087CF8091B8038B7F6C
:104F8000F0CF8AEB93E00E94DA170E94AB25909352
:104F9000B6038093B50308951F93CF93DF93809159
:104FA000B5039091B6030E94B725AC019091B90367
:104FB0002091830130E0911106C02091B7038AE06F
:104FC000289F900111244217530780F08091BB0362
:104FD000D091BC031091BD03C091BE0381110AC0E2
:104FE000D1116AC0111168C0C11166C0DF91CF91A3
:104FF0001F9108959F3F19F09F5F9093B903181672
:1050000024F40E9452268093BB038091BB0387FF48
:1050100005C00E94522681958093BB031D1624F47F
:105020000E9452268093BC038091BC0387FF05C079
:105030000E94522681958093BC033091BB03332399
:10504000C1F02091BC032223A1F045EB3403C00141
:105050001124892F911101C081E08093BB0345EB9E
:10506000240390011124832F311101C081E080932A
:10507000BC03111624F40E949C268093BD038091EA
:10508000BD0387FF05C00E949C2681958093BD03C8
:105090001C1624F40E949C268093BE038091BE03BC
:1050A00087FF05C00E949C2681958093BE03DF91F7
:1050B000CF911F910C94C1279F3F09F09DCFAECF98
:1050C00085E0EAEBF3E0DF011D928A95E9F71092A3
:1050D000B9031092B8030895833081F128F4813028
:1050E00059F08230D1F00895853009F449C0B8F103
:1050F000863009F456C008958091B703482F460FB3
:105100005527551F4F3F510524F4680F6093B7038F
:1051100008958FEF8093B703089580918301482FFE
:10512000460F5527551F4F3F510524F4680F6093D4
:10513000830108958FEF8093830108958091820108
:10514000482F460F5527551F4F3F510524F4680F30
:105150006093820108958FEF80938201089580917A
:105160008101482F460F5527551F4F3F510524F405
:10517000680F6093810108958FEF809381010895F6
:1051800080918001482F460F5527551F4F3F5105ED
:1051900024F4680F6093800108958FEF809380015D
:1051A000089580917F01482F460F5527551F4F3F87
:1051B000510524F4680F60937F0108958FEF809369
:1051C0007F010895833011F128F4813049F0823055
:1051D00091F00895853081F120F18630C1F1089574
:1051E0008091B703681720F4861B8093B703089556
:1051F0001092B703089580918301681720F4861BED
:105200008093830108951092830108958091820113
:10521000681720F4861B8093820108951092820102
:10522000089580918101681720F4861B8093810185
:10523000089510928101089580918001681720F4EB
:10524000861B8093800108951092800108958091BB
:105250007F01681720F4861B80937F0108951092C8
:105260007F0108950F931F9341E050E060E070E0EC
:105270008A019B0104C0000F111F221F331F8A9552
:10528000D2F7C901B8010E94A2211F910F910C947D
:10529000B31D873208F043C08E3108F08BC08031D7
:1052A00009F47DC0C8F4873009F46AC028F4863058
:1052B00009F45CC080E008958B3009F455C08E304D
:1052C000C9F79091B303892F8B7F92FF84608093FD
:1052D000B30382FD20C048C0863109F445C068F49C
:1052E000813141F70E94B31D90912C04892F97FBC7
:1052F00087F9805880932C0437C08931A9F18B310C
:10530000C9F69091B303892F8D7F91FF82608093BE
:10531000B30381FF29C08091B30381603DC088330E
:1053200019F150F4893221F0853311F0873211F6EA
:1053300080E00E94322918C08334D1F328F48A33E4
:1053400008F4B8CF8953F5CF883409F0B3CF0E9461
:10535000B31D2FEF83ED90E3215080409040E1F7A3
:1053600000C000000E94072681E008958091B303E9
:10537000817F8E7F8093B30381E08093C003089583
:105380009091B303892F8E7F90FF81608093B30348
:1053900080FDEACF897F877F8093B303E5CF90912B
:1053A000B303892F877F93FF88608093B30383FDC6
:1053B000B2CFDACF8D51BDCF80E008950C94DC29B7
:1053C0008E518A3030F4E82FF0E0E95CFD4F8081A7
:1053D000089580E00895CF93C82F8091C003813055
:1053E000E1F038F0823009F43FC01092C00380E051
:1053F00012C0E0917D01F0917E018081813111F038
:105400008232A9F78C2F0E94DC2981111DC08C2FBC
:105410000E9449298170CF910895E0917D01F0911A
:105420007E018081813171F3823261F38C2F0E9481
:10543000DE29811110C0C43181F048F4CB3059F01D
:10544000C03171F080E0E6CF81E090E0E3CFC93277
:1054500021F0C833B9F781E0DDCF1092C003F2CF5D
:1054600082E08093C003F7CFC93219F188F4C431C8
:1054700001F120F4C73081F181E0CDCF82EE8C0FB5
:105480008630D0F78C2F0E94E0298093BF03F4CFA1
:10549000CE3401F140F46AE0CB3471F78091BF0360
:1054A0000E946C28E9CFC13579F061E0C235B1F3D3
:1054B000E3CF8091BF03882319F01092BF03DCCFA4
:1054C00081E08093C003A7CF61E08091BF030E9479
:1054D000E228D2CF6AE0F9CF1092B70384E180933B
:1054E0008301C09382018CE38093810188E08093E3
:1054F000800188E280937F01BFCF8091E10308950E
:105500000F931F93CF93DF9300D01F92CDB7DEB7D9
:105510008C010E94EF2C823011F0843019F583E069
:1055200089831B830A838093E9008FEF9091E800C1
:10553000815095FD06C095ED9A95F1F70000811117
:10554000F5CF8091E80085FF0DC050E040E063E0BA
:1055500070E0CE0101960E940C2D8091E8008E77BC
:105560008093E8000F900F900F90DF91CF911F91E3
:105570000F910895CF93DF9300D01F92CDB7DEB780
:1055800020913204243031F522E02983805891099A
:105590009B838A8383E08093E9008FEF9091E800FA
:1055A000815095FD06C095ED9A95F1F700008111A7
:1055B000F5CF8091E80085FF0DC050E040E063E04A
:1055C00070E0CE0101960E940C2D8091E8008E774C
:1055D0008093E8000F900F900F90DF91CF91089586
:1055E000CF93DF93EC010E94EF2C823011F08430D6
:1055F000F9F482E08093E9008FEF9091E800815008
:1056000095FD06C095ED9A95F1F700008111F5CF53
:105610008091E80085FF0CC050E040E065E070E05C
:10562000CE010E940C2D8091E8008E778093E800D7
:10563000DF91CF910895CF93DF93EC010E94EF2C7F
:10564000823011F08430F9F480918E018823F1F0DA
:1056500080912C0487FF1AC084E08093E9008FEFCB
:105660009091E800815095FD06C095E19A95F1F77B
:1056700000008111F5CF8091E80050E040E060E249
:1056800070E085FD1AC0DF91CF91089581E080938D
:10569000E9008FEF9091E800815095FD06C095EDEF
:1056A0009A95F1F700008111F5CF8091E80085FF10
:1056B000EACF50E040E068E070E0CE010E940C2D9F
:1056C0008091E8008E778093E80080E2FE01A1ECF3
:1056D000B3E001900D928A95E1F7D5CF8091310426
:1056E000811109C00E949C2E0E94F92E8091E20037
:1056F00084608093E2000895109231040895089523
:1057000008950C94712542E061EC81E00E941A2E0C
:1057100042E061EC82E00E941A2E42E061EC83E0FC
:105720000E941A2E42E261EC84E00C941A2E8091C1
:105730003404833009F455C030F4813071F1823083
:1057400009F491C008958A3009F47DC08B3009F4C2
:1057500063C0893009F044C080913304813209F07C
:105760003FC08091370490913804009711F003975F
:10577000B9F58091E800877F8093E8008091E80088
:1057800082FF2AC08091F1008093E1038091E800BC
:105790008B778093E8000C944E2E80913304813AED
:1057A000F9F48091E800877F8093E80080913704C6
:1057B00090913804892B61F460E281EC93E070E011
:1057C0000E945B2D8091E8008B778093E80008951C
:1057D00060E090E080E0F3CF809132048111CECF81
:1057E000089580913304813AD9F7809137049091DC
:1057F0003804892BA9F78091E800877F8093E8001F
:105800008091E80080FFFCCF80918E018093F100B1
:105810008091E8008E77BDCF80913304813201F70B
:105820008091370490913804892BD1F68091E8005B
:10583000877F8093E8000E944E2E809135048093EC
:105840008E010C94B31D80913304813249F680910E
:10585000E800877F8093E8000E944E2E80913604F6
:105860008093E203089580913304813A09F0B8CF20
:105870008091E800877F8093E8008091E80080FFB6
:10588000FCCF8091E203C2CF84B7877F84BF0FB67D
:10589000F894A895809160008861809360001092D0
:1058A00060000FBE80E880936100109261000E944A
:1058B00012180E949C2E0E94F92E8091E2008460B2
:1058C0008093E20078940E9482310E94161884E846
:1058D00091E00E94BE1780913204853029F00E9429
:1058E00024180E943E15F7CF0E942B25809130048A
:1058F000882389F30E945A25882369F30E94F62C95
:10590000EACF0C94832C292F33272330310579F1EA
:1059100058F421303105F1F02230310519F190E0D1
:1059200080E030E020E01AC021323105C9F1223296
:105930003105A9F76430710590F7FB01EE0FFF1FE9
:10594000EB5BFD4F208131816F5B7D4FFB018081DF
:1059500090E004C082E190E028EE35E0FA01318366
:10596000208308958DE690E02BE735E0F7CF992767
:105970008130910579F040F08230910571F0039704
:1059800071F6E1E4F5E002C0E7E7F5E0849190E02C
:105990009F01E4CFEFE5F5E0F9CFE7E4F5E0F6CFDE
:1059A0006430710508F0BBCF660F771FFB01E35B26
:1059B000FD4F2081318189E090E0D0CF0895CF93D1
:1059C000C82F0E94DE2CC093E303CF9108958091ED
:1059D0003204843011F081E0089582E008958091CE
:1059E000E303811102C00C94E72C089580E189BD86
:1059F00082E189BD09B400FEFDCF8091D8008F7D82
:105A00008093D8008091E00082608093E0008091D4
:105A1000E00081FDFCCF0895AF92BF92CF92DF925C
:105A2000FF920F931F93CF93DF936C01EB018A01D9
:105A30000E946D2EF82E811123C00115110539F039
:105A4000F80180819181C81BD90BC80ED91EB12CD9
:105A5000A12C2097A9F08091E80085FD22C08091BB
:105A6000E8008E778093E80001151105A1F0F80198
:105A700080819181A80EB91EB182A08285E0F82EA6
:105A80008F2DDF91CF911F910F91FF90DF90CF90DD
:105A9000BF90AF9008950E946D2E8823D1F2F82E0A
:105AA000EFCFF60181916F018093F1002197FFEF15
:105AB000AF1ABF0ACECFFC018091390490913A040D
:105AC00086179707A0F06115710529F49091E800F9
:105AD0009E779093E80090E06115710551F4911163
