:100000000C9400040C941D040C941D040C941D0409
:100010000C941D040C941D040C941D040C941D04DC
:100020000C941D040C941D040C94622F0C94353018
:100030000C94C4250C941D040C941D040C941D04F4
:100040000C941D040C941D040C941D040C941D04AC
:100050000C941D040C942C260C941D040C941D046B
:100060000C941D040C941D040C941D040C941D048C
:100070000C941D040C941D040C941D040C941D047C
:100080000C941D040C941D040C941D040C941D046C
:100090000C941D040C941D040C941D040C941D045C
:1000A0000C941D040C941D040C941D04076342362B
:1000B000B79BD8A71A39685618AEBAAB558C1D3CF9
:1000C000B7CC5763BD6DEDFD753EF6177231BF00BD
:1000D0000000803F05A84CCDB2D44EB93836A902F5
:1000E0000C50B9918688083CA6AAAA2ABE00000036
:1000F000803F606000600002E0616403E0006769C7
:10010000742070757368206F726967696E20484546
:1001100041440A0034313131313131313131313101
:100120003131313100636C6561720A006769742096
:10013000636F6D6D6974202D616D2022002D3E006E
:100140006572676F646F785F657A2F6576616E2080
:100150004020302E362E3132312D32342D67393059
:1001600031326634006572676F646F785F657A2F2D
:100170006576616E204020302E362E3132312D32A0
:10018000342D67393031326634000000F0A145006B
:100190002B00E101E100E00000001E00140004005B
:1001A0001D00E30002581F001A0016001B00E200A9
:1001B00028002000080007000600E25C2C00210057
:1001C0001500090019002E000158220017000A002E
:1001D000050000002D002F002F0200002602000065
:1001E0002900300030020000270200004C002300EC
:1001F0001C000B0011000000DF5C240018000D0043
:1002000010002102010025000C000E0036000157ED
:100210002C00260012000F00370002573300270081
:10022000130034003800035734022A00310028003C
:10023000E50004570000C05CC15CDE5CC55CC65CC8
:1002400000000100010001000100C85C0100010084
:10025000010001000100C75C0100430040003D00B7
:100260003A00C45C0100440041003E003B00C35C16
:100270000100450042003F003C0000000100010079
:1002800001000000010000000100560057000000BE
:1002900058000000010055005F005C00590000009C
:1002A0000100540060005D005A006200010053002C
:1002B00061005E005B0063000100010001000100BD
:1002C0000100010001000100010001000100010026
:1002D0000100010001000100010001000000010017
:1002E0000100010001000100000001000100010007
:1002F00001000100010001000100010001000100F6
:1003000001000100E55C0100E15C01000100E35C2B
:100310000100010001000100010001001705E05C7F
:10032000E45C000001000100010000000100000089
:1003300001000100010000000100000001000100B7
:1003400001000100010000000100010001000100A6
:100350000100010001000100010001000100010095
:100360000100010001000100010001000100010085
:100370000100010001000100010001000100010075
:100380000100010000000100010001000100010066
:100390000000010001000100010001000100010056
:1003A0000100010001000100010001000100010045
:1003B0000100010001000100010001000100010035
:1003C0000100010001000100010000000100010026
:1003D0000100000001000000010001000100000018
:1003E0000100000001000100010001000100000007
:1003F00001000100010001000100010001000100F5
:1004000001000100010001000100010001000100E4
:1004100001000100010001000100010001000100D4
:1004200001000100010001000100010000000000C6
:100430000000000000002A2B28000000000000003F
:1004400000000000000000000029000000002C1E39
:100450003420212224342627252E362D3738271EF6
:100460001F202122232425263333362E37381F041C
:1004700005060708090A0B0C0D0E0F1011121314B4
:1004800015161718191A1B1C1D2F3130232D350472
:1004900005060708090A0B0C0D0E0F101112131494
:1004A00015161718191A1B1C1D2F3130354C00005A
:1004B000000000000000000000000000000000003C
:1004C000000000000000000000000000000000012B
:1004D0000101010101000101010100000000000013
:1004E0000000000000000000010001000101010106
:1004F00001010101010101010101010101010101EC
:1005000001010101010101010100000001010000E0
:1005100000000000000000000000000000000000DB
:1005200000000000000000000001010101000004C3
:100530007F3F1F643214643214783C1E1E140A0577
:100540006801F000B40078005A00000000000001CB
:100550000101010101010101020202020202020283
:100560000203030303030303030404040404040554
:100570000505050506060606060707070708080815
:10058000080909090A0A0A0A0B0B0B0C0C0C0D0DC1
:100590000D0E0E0F0F0F1010111111121213131454
:1005A00014151516161717181819191A1A1B1C1CCA
:1005B0001D1D1E1F1F202021222223242525262722
:1005C0002728292A2B2B2C2D2E2F2F303132333454
:1005D0003536363738393A3B3C3D3E3F4041424361
:1005E00044464748494A4B4C4D4F5051525355563B
:1005F00057585A5B5C5E5F606263646667696A6CE9
:100600006D6E707173747678797B7C7E8081838463
:1006100086888A8B8D8F91929496989A9B9D9FA1A4
:10062000A3A5A7A9ABADAFB1B3B5B7B9BBBDBFC1AA
:10063000C4C6C8CACCCFD1D3D6D8DADCDFE1E4E671
:10064000E8EBEDF0F2F5F7FAFCFF040330000000F0
:1006500016034500720067006F0044006F007800C9
:10066000200045005A000000160345007200670094
:100670006F0044006F007800200045005A00000021
:100680000403090409026D00040100A0FA09040032
:1006900000010301010009211101000122400007AE
:1006A00005810308000A0904010001030102000991
:1006B0002111010001224D000705820308000A09EB
:1006C000040200010300000009211101000122368B
:1006D000000705830308000A090403000103000062
:1006E00000092111010001223900070584032000BF
:1006F000011201100100000008EDFE0713010001C6
:1007000002030105010906A101050719E029E71502
:100710000025019508750181020508190129059533
:1007200005750191029501750391010507190029CD
:10073000F71500250195F875018102C005010980B2
:10074000A10185021601002603001A81002A8300F8
:10075000751095018100C0050C0901A101850316E2
:100760000100269C021A01002A9C02751095018145
:1007700000C005010902A1010901A1000509190133
:10078000290515002501950575018102950175035F
:1007900081010501093009311581257F9502750810
:1007A000810609381581257F950175088106050C9C
:1007B0000A38021581257F950175088106C0C0059C
:1007C000010906A101050719E029E7150025019592
:1007D0000875018102950175088101050819012933
:1007E000059505750191029501750391010507199C
:1007F0000029FF150026FF00950675088100C0003E
:1008000011241FBECFEFDAE0DEBFCDBF12E0A0E0C3
:10081000B1E0EEE6FBE602C005900D92A036B1070E
:10082000D9F724E0A0E6B2E001C01D92A933B207D7
:10083000E1F70E948F2C0C94B5350C94000080B326
:100840008C7080BB81B3836F81BB089584B1807F3E
:1008500084B985B1807F85B98AB1837F8AB98BB12C
:10086000837F8BB93E9846980895CF93C82F8730E1
:1008700080F58091000190910101892B99F564E642
:1008800070E080E40E94BB05909301018093000119
:10089000892BD1F464E670E082E10E941006909307
:1008A000010180930001892B79F481E090E001C07F
:1008B000880FCA95EAF764E670E080950E941006FA
:1008C000909301018093000184E690E0CF910C9415
:1008D00063068A30B9F040F4883071F0893079F0DD
:1008E000209A2898CF9108958C3091F070F08D3037
:1008F000B9F73E9A4698F6CF219A2998F3CF229AD3
:100900002A98F0CF239A2B98EDCF529A5B98EACF92
:10091000539AFCCFCF93873008F042C080910001FA
:1009200090910101C0E0892B81F464E670E080E4DD
:100930000E94BB059093010180930001892B41F037
:10094000C0E084E690E00E9463068C2FCF9108956A
:1009500064E670E083E10E941006909301018093A9
:100960000001892B69F764E670E081E40E94BB0511
:100970009093010180930001892B11F784E690E0A8
:100980000E943F0697FF05C09093010180930001EC
:10099000D7CFC82FC0951092010110920001D1CF7E
:1009A000CFB18FB1869586958C73C3708C2BC82F71
:1009B000C095CBCF08950C94DA040E94070790E00D
:1009C00090930101809300010E9426040E941F045D
:1009D000E5EBF2E081E692E01192DC0126E01D9267
:1009E0002150E9F7069622E0E33CF207A9F70C94C0
:1009F00003090E94070790E0909301018093000192
:100A00000E9426040E941F04E5EBF2E0119282E0AE
:100A1000E33CF807D9F7089596E0899FF001112487
:100A2000EF59FD4F30E020E080E041E050E091914F
:100A3000992351F0DF01119791509C932F5F3F4F05
:100A400026303105A1F70895BA01022E01C0660FC4
:100A50000A94EAF7862BF2CF96E0699FB001112441
:100A600030E020E090E04FE0FC01022E02C0F5955E
:100A7000E7950A94E2F7E0FF06C0F901E60FF71FD9
:100A8000EF59FD4F40832F5F3F4F2630310561F70F
:100A90000895EF92FF920F931F93CF93DF9380916E
:100AA000000190910101892B91F0809160028F5F8C
:100AB0008093600281110BC00E94070790E0909321
:100AC000010180930001892B11F40E94B10605EB0E
:100AD00012E0C0E08C2F0E94350487E0F82EFC0E57
:100AE0008F2D0E9435048C2F0E940C05E82E8C2F30
:100AF0000E948A04F80191918F01DE2DD095D923AF
:100B00008E21D82B6C2F892F8D270E942C05F80160
:100B10003197D0838F2D0E940C05E82E8F2D0E94D7
:100B20008A04F8019681DE2DD095D9238E21D82B09
:100B30006F2D892F8D270E942C05F801D6830E94E6
:100B40002604CF5FC73031F60E94050981E0DF91AE
:100B5000CF911F910F91FF90EF900895E82FF0E053
:100B6000EB54FD4F8081089508951092B9008CE0F8
:100B70008093B8000895EF92FF920F931F93CF9345
:100B8000DF93182FEB011092BC0084EA8093BC0025
:100B90000E94F6257C018091BC0087FF0DC08091EA
:100BA000B900887F8830D9F08091B900887F803182
:100BB000B1F08FEF9FEF0CC0CF3FDC0761F30E94D5
:100BC000F6258E199F098C179D0728F38EEF9FEF4E
:100BD000DF91CF911F910F91FF90EF9008951093A7
:100BE000BB0084E88093BC000E94F6258C018091B4
:100BF000BC0087FF0AC08091B900887F883111F05E
:100C00008034B9F690E080E0E3CFCF3FDC0779F3A2
:100C10000E94F625801B910B8C179D0740F3D6CFC1
:100C20000F931F93CF93DF93EB018093BB0084E876
:100C30008093BC000E94F6258C018091BC0087FF48
:100C400011C02091B900287F81E090E0283211F492
:100C500090E080E0919581959109DF91CF911F916E
:100C60000F910895CF3FDC0741F30E94F625801BCA
:100C7000910B8C179D0708F38EEF9FEFEECF0F932C
:100C80001F93CF93DF93EC0184E88093BC000E9414
:100C9000F6258C018091BC0087FF08C08091BB00C5
:100CA00090E0DF91CF911F910F910895CF3FDC0726
:100CB00089F30E94F625801B910B8C179D0750F33A
:100CC0008EEF9FEFEECF0F931F93CF93DF93EC0147
:100CD00084E98093BC000E94F6258C018091BC00C1
:100CE00084FD07C090E080E0DF91CF911F910F91CC
:100CF0000895CF3FDC0791F30E94F625801B910BEE
:100D00008C179D0758F38EEF9FEFEECF259A2D9A03
:100D10000895269A2E9A0895279A2F9A08955698FC
:100D20005E98089525982D98089526982E980895F0
:100D300027982F9808950E948F060E9492060E947D
:100D400095060C94980690E0909389008093880013
:100D500090938B0080938A0090938D0080938C00F9
:100D600008950E949B068FEF0E94A3060E948606AC
:100D70002FEF80E792E0215080409040E1F700C0E3
:100D800000000E9489062FEF80E792E0215080400A
:100D90009040E1F700C000000E948C062FEF80E732
:100DA00092E0215080409040E1F700C000000E9496
:100DB00092062FEF80E792E0215080409040E1F7CB
:100DC00000C000000E9495062FEF80E792E02150BE
:100DD00080409040E1F700C000000E9498060C940B
:100DE0009B0689EA8093800089E0809381002498A3
:100DF0002C983F988AB18F7C8AB96E98479A8BB1AC
:100E000080638BB9769A0E94B1060C948F0780E2BA
:100E100090E090930101809300018091C3028111C1
:100E20000EC00E94B50581E08093C3022FEF83EDD1
:100E300090E3215080409040E1F700C0000064E65C
:100E400070E080E40E94BB05909301018093000153
:100E5000892B09F050C064E670E080E00E94100623
:100E60009093010180930001892B09F044C064E64E
:100E700070E080E00E9410069093010180930001D1
:100E8000892BC9F564E670E08FE30E941006909309
:100E9000010180930001892B71F584E690E00E94A6
:100EA000630664E670E080E40E94BB059093010154
:100EB00080930001892BF9F464E670E08CE00E94D5
:100EC00010069093010180930001892BA1F464E640
:100ED00070E080E00E941006909301018093000171
:100EE000892B49F464E670E08FE30E94100690932A
:100EF00001018093000184E690E00E9463068091E6
:100F000000010895611108C0FC018281882321F04D
:100F100085E691E00E94000990E080E00895089540
:100F2000CF93DF93EC01FB018281882309F445C054
:100F30000E94F6259093C5028093C402FE01EC5DE9
:100F4000FC45EA30F10508F048C0E755F84F0C942D
:100F50005A35B307B907BE07C807CB07CE07DA076C
:100F6000D107D407D7070E94B92480E0DF91CF9141
:100F7000089580E491E00E940009F7CF81E00E948B
:100F80002C1245E469E389E690E00E94E211EDCF7E
:100F90008DE391E0F0CF8CE291E0EDCF85E291E03E
:100FA000EACF84E191E0E7CF8EEF90E0E4CF87EFE6
:100FB00090E0E1CF85EF90E0DECF8091C402909188
:100FC000C5020E9402268E37910538F0C23EDC45EC
:100FD00021F482EF90E00E94000981E0C7CFCF9218
:100FE000DF92EF92FF92CF936B017C010E946C2401
:100FF000C82F0E948F060E9492060E9495060E94AA
:101000009806C150C73078F4EC2FF0E0E65FF74F58
:101010000C945A3511081D0822081B0820082708BF
:1010200025080E948606C701B601CF91FF90EF9078
:10103000DF90CF9008950E9486060E948906F3CF24
:101040000E9486060E948C06EECF0E9486060E94B1
:101050008906F8CF0F931F93CF93DF938C01EB0199
:101060009A9581159F41B8F410FF03C080EEFB01F3
:10107000099511FF03C081EEFE01099512FF03C01F
:1010800082EEFE01099513FF03C083EEFE01099570
:101090000115104128F4DF91CF911F910F91089510
:1010A00084EEFE01099585EEFE01099586EEFE01AE
:1010B000099587EEFE01DF91CF911F910F91099461
:1010C000877091E001C0990F8A95EAF7892F0E94F5
:1010D00041240C94F7230C946008877091E001C0C0
:1010E000990F8A95EAF7892F0E9447240C94F723D9
:1010F0000C946D08CF93DF93EC01805E9109089703
:1011000020F060E678E0209711F46BE678E0CE01FD
:101110000E942A088C2FDF91CF910C949F19CF93B6
:10112000DF93EC010E94801ACE01805E910908973E
:1011300020F06DE678E0209711F468E778E0CE01C2
:10114000DF91CF910C942A0881E008950C949007C8
:10115000CF9390E0FC01E25DFB4FC49182559B4F21
:10116000FC018491882369F081EE0E949F198C2FE5
:101170000E949F198C2F0E94801A81EECF910C94AF
:10118000801A8C2F0E949F198C2FF8CFFF920F93FB
:101190001F93CF93DF938C01F62EF801849188235F
:1011A00049F1E8012196813049F4FE011491812F23
:1011B0000E949F19812F0E94801A06C0823089F4F4
:1011C000FE0184910E949F198E010F5F1F4F8F2D8A
:1011D000815018F3EFE9FFE03197F1F700C000000C
:1011E000F7CF833019F4FE018491E5CF0E94A8085F
:1011F000E801EACFDF91CF911F910F91FF90089501
:1012000060E00C94C6080C94F1060E94B8170C9488
:10121000DB04282F2F7041F0822F90E02A3010F449
:101220004D9608950697089587E290E008950895F1
:101230000C9417090C94180908950E94FC1D0E9433
:101240001C092FEF84E39CE0215080409040E1F79F
:1012500000C000000C945226FF920F931F93CF936F
:10126000DF938C01FC01C081D18180911203811137
:101270005AC08281882309F451C0CE010E944323C1
:10128000F82E682FCE010E94E722BE018F2D0E940A
:10129000040CEC01B8010E941A17B801CE010E949B
:1012A000A608882309F407C1B801CE010E945E1781
:1012B000882309F400C1B801CE010E94740E88236E
:1012C00009F4F9C0C93CFCE5DF0709F42DC108F0B9
:1012D00061C0C13C9CE5D90709F4FEC0C8F5C53121
:1012E000FCE5DF0728F5C2308CE5D80708F09BC184
:1012F000C1159CE5D90709F4D9C0C130DC4509F412
:10130000E1C081E08093CB028093CC02C801DF91E1
:10131000CF911F910F91FF900C94A408CE010E94D1
:101320001723F82EB2CFCE010E944323BE01AFCFC8
:10133000C631FCE5DF0709F446C2C03CDC4509F7CD
:10134000F8018281882309F4B6C00E94C812B3C094
:10135000F8018281C53CFCE5DF0709F4D6C068F4DA
:10136000C33CECE5DE0709F4CBC008F4C0C0882319
:1013700009F4A1C00E946F119EC0C73C9CE5D9072B
:1013800009F4CDC008F4C6C0882309F494C00E94B3
:10139000CA1191C0C13DFCE5DF0709F414C1F0F5A5
:1013A000F8018281CD3CFCE5DF0709F4D1C0D8F417
:1013B000CB3CECE5DE0709F4C4C008F4BCC08823CC
:1013C00009F479C00E941F106230710581059105F2
:1013D00040F00E941F10653071058105910508F4E9
:1013E0008CC082E0B2C0CF3C9CE5D90709F4D7C0DD
:1013F00008F4C1C0882309F45EC00E941F10653143
:1014000071058105910540F00E941F10673171053B
:101410008105910508F471C085E197C0C53DFCE5E3
:10142000DF0709F4A4C1C0F4F8018281C33DFCE5E3
:10143000DF0709F4E3C008F4CDC0882309F477C1BD
:101440001092CB020E94F6259093C8028093C702A7
:1014500082E00E94D41A2FC0C93DECE5DE0709F4F2
:10146000D2C0CA3DFCE5DF0709F4D6C0C63DDC4565
:1014700009F047CFF801828181117DC18091CC02B2
:1014800081119FC18091C9029091CA020E940226D7
:101490008D37910508F095C180E20E94DB1A88E241
:1014A0000E949F1988E20E94801A05C0F80182817B
:1014B00081110E941D0980E0DF91CF911F910F9152
:1014C000FF900895F80182818823A9F38091B103E8
:1014D00081608093B103EFCFF8018281882359F3B3
:1014E0000E942A24827249F00E943912E4CF882394
:1014F00011F30E942A248272B9F30E942F12DBCFCB
:101500008823C9F20E945711D6CF8823A1F20E94E6
:101510008E11D1CF882379F20E94A011CCCF8823DD
:1015200051F20E94B211C7CFF8018281882319F2CB
:101530000E942D10C0CF882309F4BDCF0E94421015
:10154000BACF882309F4B7CF81E00E942C12B3CF21
:10155000882309F4B0CF0E941F1066307105810501
:10156000910538F00E941F106830710581059105C2
:1015700020F286E0EACF882309F49DCF0E941F1055
:10158000693071058105910540F00E941F106E3091
:1015900071058105910508F4B0CF89E0D6CF882385
:1015A00009F489CF0E941F106F30710581059105E4
:1015B00040F00E941F10643171058105910508F407
:1015C0009CCF8FE0C2CFF8018281882309F473CFCA
:1015D00088E1BBCF882309F46ECF0E941F106931C8
:1015E00071058105910540F00E941F10623271055E
:1015F0008105910508F481CF89E1A7CF882309F4FB
:101600005ACF83E2A2CFF8018281882309F453CF15
:1016100080E00E942A2D4FCFF8018281882309F4AF
:101620004ACF82E0F6CFF8018281882309F46ECE9A
:101630000E94DA24811102C00E94B9240E94ED2484
:1016400090E090932B0480932A04FE01E350FC4524
:1016500080912A048160E231F105C8F4EE5CF44F18
:101660000C945A35440B500B540B580B5C0B600B0D
:10167000640B680B6C0B700B740B780B7C0B800B82
:10168000840B880B8C0B900B80912A0482608093D2
:101690002A0480912A040E94F1240E94FC1D0BCF91
:1016A00080912A048460F3CF80912A048860EFCF70
:1016B00080912A048061EBCF80912A048062E7CF79
:1016C00080912A048064E3CF80912A048068DFCF70
:1016D00080912A048460EACF80912A048E7FD7CF3C
:1016E00080912A048D7FD3CF80912A048B7FCFCF26
:1016F00080912A04877FCBCF80912A048F7EC7CF29
:1017000080912A048F7DC3CF80912A048F7BBFCF25
:1017100080912A048F77BBCF80912A048B7FEACFF8
:1017200090912A04892F97FB87F98058B0CF0E94A7
:101730002A2485FF05C081E08093CB028093CC02F0
:101740008091CB0281110FC08091C7029091C80295
:101750000E9402268D37910530F486E20E949F197F
:1017600086E20E94801A82E00E94DB1AA4CEF80171
:101770008281882351F01092CC020E94F62590932A
:10178000CA028093C90280E264CE0E942A2481FFAB
:1017900005C081E08093CB028093CC028091CC0283
:1017A00081110FC08091C9029091CA020E94022645
:1017B0008D37910530F487E20E949F1987E20E94DD
:1017C000801A80E2D1CF0E942A24F80192819923C5
:1017D00081F08A7A91E009F490E09093C602811139
:1017E00006C089E20E94B3230E94F72364CE85E3FA
:1017F000F9CF8091C602811104C089E20E94BA2308
:10180000F3CF85E3FBCF0895972F70E026E0929FFA
:10181000600D711D1124FB0194E5899FE00DF11D00
:101820001124EE0FFF1FE257FE4F8591949108950A
:10183000FC01EE0FFF1FE657FE4F8591949108952E
:10184000CF93DF930E94040C0E94D10DEC0181150F
:10185000904508F043C0C11580E4D80708F013C1D3
:10186000C83ED10528F5C03ED10508F0A7C0C83A4A
:10187000D10580F4C53AD10508F096C0C130D10534
:1018800009F49CC020F0C430D10508F097C0D0E026
:10189000C0E094C0CD3BD10508F494C0CE01805C7B
:1018A0009109C03CD10598F30E94180CEC0186C048
:1018B000C11520E2D20750F4C11581E0D80708F025
:1018C0007DC0C03FD10518F3D06578C0C11520E3B5
:1018D000D20708F0CEC0CE019F70E6CFC11585E5D6
:1018E000D80760F5C11524E5D20708F0FAC0C11584
:1018F00082E5D80750F4C11521E5D20708F4C6C027
:10190000DC2FCC27C16FD06A59C09C2F9695969535
:101910009E0123703327C115D34508F0D3C0C1E021
:10192000D0E002C0CC0FDD1F2A95E2F720E2929FA3
:10193000C0011124C82BD92BDC6840C0C1152AE591
:10194000D207A0F4C11589E5D80708F0D5C0C115A4
:1019500026E5D20708F4CAC0C11588E5D80708F4FF
:1019600096CFDC2FCC27C06FD06A28C0C1152BE5DD
:10197000D20708F48CCFC1158CE5D80708F4C9C08C
:10198000CE0190568115904208F081CF8D2F8F7136
:101990000E94510EDD27D06290E0982F882788277B
:1019A0009F71C82BD92B0AC0C53AD10509F4B4C020
:1019B000C63AD10509F4B3C0C3E8D0E4CE01DF9143
:1019C000CF910895C83AD10509F4ACC0C93AD10500
:1019D00009F4ABC0CA3AD10509F4AAC0CB3AD10583
:1019E00009F4A9C0CC3AD10509F4A8C0CB3BD10574
:1019F00009F4A7C0CC3BD10509F4A6C0CD3AD10566
:101A000009F4A5C0C03BD10509F4A4C0CE3AD10564
:101A100009F4A3C0CF3AD10509F4A2C0C13BD10556
:101A200009F4A1C0C23BD10509F4A0C0C33BD10554
:101A300009F49FC0C43BD10509F49EC0C53BD10544
:101A400009F49DC0C63BD10509F49CC0C73BD10534
:101A500009F49BC0C83BD10509F49AC0C93BD10524
:101A600009F499C0CA3BD10509F098C0CAE2D6E48E
:101A7000A5CFCE019927D3FF03C0EC01D86C9ECF30
:101A8000EC01D06C9BCFDF70D06A98CFCE01E4E040
:101A900096958795EA95E1F783709C2F937021E0E6
:101AA00030E002C0220F331F9A95E2F73C68382BD2
:101AB000C695C695C37080E2C89FE0011124C22B71
:101AC000D32B7CCFC1E0D0E002C0CC0FDD1F2A9524
:101AD000E2F720E2929FC0011124C82BD92BDA68CB
:101AE0006DCFDC2FCC27C46FD06A68CFDC2FCC271A
:101AF000CC27DF71D06262CFCE0134E09695879516
:101B00003A95E1F78F70CF70C06ED0E0D06AD82BD5
:101B100055CFDD27D06652CFC1E8D0E44FCFC2E821
:101B2000D0E44CCFC2EED4E449CFC9EED4E446CFE2
:101B3000CAEED4E443CFC5EBD4E440CFC6EBD4E443
:101B40003DCFC3EBD4E43ACFC4EBD4E437CFC7EBFB
:101B5000D4E434CFCCECD4E431CFCDECD4E42ECFEC
:101B6000C3E8D5E42BCFCAE8D5E428CFC2E9D5E451
:101B700025CFC4E9D5E422CFC1E2D6E41FCFC3E22A
:101B8000D6E41CCFC4E2D6E419CFC5E2D6E416CF22
:101B9000C6E2D6E413CFC7E2D6E410CFC0E0D4E467
:101BA0000DCF8238910549F1B0F48133910509F4E4
:101BB0005CC048F48932910509F452C08A3291051B
:101BC00009F458C008958533910509F444C0893358
:101BD000910599F00895833E910531F138F4803EE6
:101BE000910591F0823E9105B1F00895863E9105F0
:101BF00011F1873E910541F1089520912A04237047
:101C0000C9F080EE90E0089520912A0420FF12C0D0
:101C100089E390E0089520912A0422FF0BC024FF5D
:101C20002EC090E080E0089520912A0422FD2AC071
:101C300024FDF7CF089520912A0423FFFBCF24FD34
:101C4000F0CF87EE90E0089520912A0423FFF0CF93
:101C500086EE90E0089520912A0425FD16C008958F
:101C600020912A0425FD14C0089520912A0426FD00
:101C700012C0089520912A0426FD10C0089583EE15
:101C800090E0089582EE90E0089589E290E0089552
:101C900085E390E008958AE290E0089581E390E082
:101CA000C9CF90912A0492FF06C0282F28712830AE
:101CB00069F4877F846093FF06C0282F287128313C
:101CC00061F4877E846194FD877E0895282F2471B6
:101CD000243089F78B7F8860EECF282F2471243140
:101CE00091F78B7E8861EFCFCF93DF93EC01C1300A
:101CF00080E8D807C8F0FB0182818823A9F0809191
:101D0000CD02811109C08CE090E00E946D350E94E7
:101D1000980E81E08093CD020E949F0ECE019F77A6
:101D20000E946A0F0E941C0F81E0DF91CF910895FD
:101D30008093CE02682F8CE090E00C948135E09186
:101D40008801F091890180818093E20381FF03C0C3
:101D500081EE0E94801A8091E20385FF03C085EE28
:101D60000E94801A8091E20380FF03C080EE0E94EF
:101D7000801A8091E20384FF03C084EE0E94801ADF
:101D80008091E20382FF03C082EE0E94801A80915C
:101D9000E20386FF03C086EE0E94801A8091E20370
:101DA00083FF03C083EE0E94801A8091E20387FFC5
:101DB00003C087EE0E94801A8091CE02823049F1E2
:101DC00058F4882379F0813089F08FE39CE90197FA
:101DD000F1F700C000000895843019F18530A9F7AB
:101DE00086EE01C082EE0E949F19EFCF80EE0E9426
:101DF0009F1981EE0E949F1988E10E949F1988E136
:101E00000E94801A81EE0E94801A80EE0E94801A41
:101E1000DCCF82EE0E949F1987E50E949F1987E51B
:101E2000F5CF86EE0E949F1986EE0E94801A88E107
:101E30000E949F1988E1EACF8091CE02813009F497
:101E400043C0E0F18230D1F18530E1F18091E203CD
:101E500081FF03C081EE0E949F198091E20385FFFC
:101E600003C085EE0E949F198091E20380FF03C0AA
:101E700080EE0E949F198091E20384FF03C084EEEC
:101E80000E949F198091E20382FF03C082EE0E94AC
:101E90009F198091E20386FF03C086EE0E949F197E
:101EA0008091E20383FF03C083EE0E949F1980911B
:101EB000E20387FF0EC087EE0C949F1982EE0E940A
:101EC000801AC4CF86EEFBCF8CE20E949F198CE271
:101ED000F6CF0895EF92FF921F93CF93DF937C018B
:101EE000CCE0D0E0C7010C2E02C0969587950A94ED
:101EF000E2F7182F1F70812F0E9409090E949F1975
:101F0000812F0E9409090E94801A2497CC3F8FEFED
:101F1000D80741F7DF91CF911F91FF90EF9008957F
:101F2000CF92DF92EF92FF920F931F93CF93DF93A5
:101F3000E901662309F466C0E42EF12CEFEFF0E02E
:101F4000E61BF109EE9D8001EF9D100DFE9D100D29
:101F50001124212FE12FFF27EE1AFF0A5CE3C52E83
:101F6000D12CB6010E943235FB01BC01E69EC001B6
:101F7000E79E900DF69E900D1124B6010E94323519
:101F8000E230F10589F168F4812F262F210F309777
:101F900081F0242F461B319761F080E020E040E083
:101FA00008C0E430F10551F128F1842F861B3597E4
:101FB000A1F7E42FF0E0E65BFA4F4491E22FF0E066
:101FC000E65BFA4F9491E82FF0E0E65BFA4FE4917C
:101FD00049839883EA83DF91CF911F910F91FF90FE
:101FE000EF90DF90CF900895862F810FE42F412F3F
:101FF0002E2FDFCFE42FE61B842FF9CF842F462F1F
:10200000410FD7CF842F242FD4CF88E090E00C94B9
:102010007535AB01BC0188E090E00C949335E3EE9C
:10202000F3E083E080831092E4038FEF8283838365
:10203000148260817181828193810C940910609176
:10204000E30360FF06C066956F7370E090E080E088
:10205000089560E070E0CB0108958091E70390E07F
:1020600001968430910514F083E090E08093E703BB
:102070006091E3037091E4038091E5039091E6039E
:102080000C9409108091E7038150990B97FF02C0CF
:1020900090E080E08430910514F083E090E080933C
:1020A000E7036091E3037091E4038091E50390916D
:1020B000E6030C9409108091E303E8EEF3E080FF5F
:1020C00006C06FE070E088EE93E00C944A1611822F
:1020D00010821282349684E0E432F807C1F7F1CF1F
:1020E0009091E30390FF0CC0E8EEF3E081836083FE
:1020F0004283349694E0E432F907C1F70C945B1004
:102100000895CF93DF9300D000D0CDB7DEB72091F4
:10211000E30320FF0AC09E012F5F3F4F0E94900FF4
:102120004B8169818A810E9470100F900F900F90EF
:102130000F90DF91CF9108955F926F927F928F926F
:102140009F92AF92BF92CF92DF92EF92FF920F9346
:102150001F93CF93DF9300D000D0CDB7DEB78C01B3
:10216000E62EF42E522E8091E30380FF30C0982F8C
:102170009E77923009F03FC09E012F5F3F4FC8010C
:102180000E94900F4B8169818A810E94701080911A
:10219000E30300FB87F98093E303902F96958091EA
:1021A000E4038078892B10FB87F98093E403E092A5
:1021B000E503F092E603552051F06091E30370913E
:1021C000E4038091E5039091E6030E9409100F90CB
:1021D0000F900F900F90DF91CF911F910F91FF9073
:1021E000EF90DF90CF90BF90AF909F908F907F90B7
:1021F0006F905F900895E82FE695EF739EE39E0F32
:102200009F73943018F4F090E603C1CF9AE39E0FC9
:102210009F73993068F4881F8827881F9091E40382
:10222000292F220F022F082B97FB112710F9AFCF70
:1022300087E28E0F8F738A3008F0A9CFE951FF0B28
:102240002FEFE0FF21E0EE7FE05CFA4F8591949163
:102250006FE070E00E94323526034001279F900C0A
:102260001124580188E9A81A8EEFB80A88EEC82E02
:1022700083E0D82E98E6692E77247394C501B301C4
:102280000E94323596014F2D6E2D0E94900FA80CA2
:10229000B91C84E0C80ED11C84E2C81684E0D806BC
:1022A00069F70E945B1073CF21E00C949C10E3EE61
:1022B000F3E02081221F2227221F3091E403432FC5
:1022C000440F842F822B37FB992790F90C9668E6F0
:1022D00071E00E944635438162810C945411209133
:1022E000E303221F2227221F3091E403432F440FD0
:1022F000842F822B37FB992790F98C30910540F47D
:10230000845A9E4F4091E6036091E5030C9454116A
:102310000C9768E671E00E944635F4CFE3EEF3E0F7
:102320008081881F8827881F9091E403292F220F1E
:1023300097FB992790F943816FEF822B0C945411EE
:10234000E3EEF3E08081881F8827881F9091E403E3
:10235000292F220F97FB992790F9438160E0822B68
:102360000C9454114091E603443F90F4445F8091F3
:10237000E303881F8827881F9091E403292F220FE9
:1023800097FB992790F96091E503822B0C945411E7
:102390004FEFEDCF4091E6034C3090F04C508091E0
:1023A000E303881F8827881F9091E403292F220FB9
:1023B00097FB992790F96091E503822B0C945411B7
:1023C00040E0EDCF20E00C949C10CF939091E3037C
:1023D00090FF40C09178811131C092609093E303E7
:1023E000662351F06091E3037091E4038091E5036B
:1023F0009091E6030E940910C091E3036C2F66954B
:102400006F7370E04BE050E08CE791E00E94603524
:10241000892BE1F01092EC02CC1FCC27CC1F9091BD
:10242000E403892F880F97FB992790F94091E603E1
:102430006091E5038C2BCF910C94E211853210F062
:102440009864CCCF8F73880F982BC8CF81E080938E
:10245000EC02E2CFCF91089561E00C94E5118091F8
:10246000E30386958F738F5F853208F081E00C94CB
:102470002C128091E30386958F73815009F484E2D6
:102480000C942C12E3EEF3E08081816080838695CA
:102490008F730C942C1260E00C94E5118091B103C1
:1024A00081608093B1030E94DA24811104C00E94EC
:1024B000B9240E940F100E9405106093E3037093EB
:1024C000E4038093E5039093E6036E7761F40E9442
:1024D0000F100E9405106093E3037093E403809350
:1024E000E5039093E60381E08093EC028091E3039F
:1024F00080FF04C086958F730C944B1208959091C1
:10250000E30390FF0DC02F3058F494E0299FF001B1
:102510001124E851FC4F8183608342830C945B104B
:1025200008951F93CF93DF9300D000D0CDB7DEB7CF
:10253000122F2091E30320FF0BC09E012F5F3F4F1E
:102540000E94900F212F4B8169818A810E947F1206
:102550000F900F900F900F90DF91CF911F910895E2
:10256000E3EEF3E080818E7F8083608171818281E0
:1025700093810E9409101092EC022FEF80E792E005
:10258000215080409040E1F700C000000C945B10A7
:102590008091E30380FD0C94B0120C944212CF930F
:1025A000C82F8091EA029091EB020E940226EC2F44
:1025B000F0E0E45CFA4FE491E817190611F008F036
:1025C00042C00E94F6259093EB028093EA0260914C
:1025D000E90270E090E080E00E94333320E030E0D8
:1025E0004FE753E40E9456322BED3FE049E450E4BC
:1025F0000E945C340E94C9340E94D0322BE43AE33A
:102600004EE25FE30E94E93120EF3BEF48ED52E4F8
:102610000E945C340E940233462F8091E303881F9E
:102620008827881F9091E403292F220F97FB992771
:1026300090F96091E503822B0E9481108091E9025C
:102640008F5F8093E902CF910895CF93C82F809137
:10265000E7029091E8020E940226EC2FF0E0E75C8E
:10266000FA4FE491E817190609F0E8F40E94F625FC
:102670009093E8028093E7024091E6036091E503BE
:102680008091E5029091E6020E9481108091E5021E
:102690009091E602019668E671E00E9432359093CF
:1026A000E6028093E502CF910895CF92DF92FF92E8
:1026B0000F931F93CF93DF93F82E8091E3029091B5
:1026C000E4020E940226EF2DE695F0E0EA5CFA4F64
:1026D000E491E817190609F0A8F50E94F6259093F1
:1026E000E4028093E30208EE13E0D0E0C0E088E665
:1026F000C82EDD24D3948091E1029091E2028C0FE8
:102700009D1FB6010E94323598014091E603609109
:10271000E5030E94900F68960C5F1F4FC83681E05A
:10272000D80749F70E945B108091E1029091E20284
:10273000F0FE10C00196BE010E9432359093E20275
:102740008093E102DF91CF911F910F91FF90DF9075
:10275000CF9008950197F2CFCF92DF92EF92FF9240
:102760000F931F93CF93DF93C82FFF24FA9480FD1C
:1027700002C0FF24F3948091DF029091E0020E9456
:102780000226C695EC2FF0E0ED5CFA4FE491E817D5
:10279000190611F008F051C00E94F6259093E0024E
:1027A0008093DF0208EE13E0D0E0C0E0F801118270
:1027B0001082128294E0C92ED12CE12C8091DE028D
:1027C0008E0D87FD815F082E000C990BC817D90765
:1027D000E9F48091E6038C9DA0018D9D500D11249C
:1027E00055954795559547958091E303881F882710
:1027F000881F9091E403592F550F97FB992790F963
:1028000098016091E503852B0E94900FEF0CF1E099
:10281000CF1AD10899F621960C5F1F4FCF30D10502
:1028200029F60E945B108091DE0291E0F91210C03F
:1028300081110CC08EE08093DE02DF91CF911F9159
:102840000F91FF90EF90DF90CF9008958150F3CFDC
:1028500090E00196BE010E944635EDCF0F931F9385
:10286000CF93DF93C82F8091DC029091DD020E940C
:102870000226EC2FF0E0E05DFA4FE491E81719062C
:1028800011F008F052C00E94F6259093DD0280936B
:10289000DC02C8EED3E0FE0111821082128234966F
:1028A00084E0E432F807C1F710E000E08091DB0239
:1028B000082E000C990B08171907E4F180917B0191
:1028C000082E000C990B80179107A4F18091E30367
:1028D000881F8827881F9091E403592F550F97FB75
:1028E000992790F99E014091E6036091E503852BBD
:1028F0000E94900F0F5F1F4F24960F301105B1F605
:102900000E945B1080917A019091DB02980F909366
:10291000DB0220917B01280F20937B01121614F417
:102920009E301CF0819580937A01DF91CF911F91A9
:102930000F910895198218821A82DCCFEF92FF92CC
:102940000F931F93CF93DF938091D9029091DA0276
:102950000E940226883E9340C8F10E94F62590937B
:10296000DA028093D902C091D702D091D802219681
:10297000C170DD27D093D802C093D70288EEE82E2D
:1029800083E0F82E10E008E7812F86958C0F9D2FAD
:10299000911D8170992797014091E6036091E503AD
:1029A000FC010E9FC0010F9F900D11240E94900FFB
:1029B0001F5FF4E0EF0EF11C1F3031F7DF91CF9174
:1029C0001F910F91FF90EF900C945B10DF91CF91CE
:1029D0001F910F91FF90EF900895CF93DF9300D058
:1029E00000D0CDB7DEB78091D5029091D6020E947B
:1029F0000226EEE2F5E02591349182179307B8F1B3
:102A00008091D40281110CC09E012F5F3F4F4FEF88
:102A10006FEF90E080E00E94900F8A818093D40253
:102A20000E94F6259093D6028093D5028091D3021E
:102A3000813069F038F04091D402823009F040E0F2
:102A400080E003C08091D40240E060E004C0609167
:102A5000D40240E080E00E9470108091D30290E0A8
:102A6000019663E070E00E9446358093D3020F9098
:102A70000F900F900F90DF91CF910895CF93DF9338
:102A80008091D1029091D2020E940226843F91400F
:102A9000B8F10E94F6259093D2028093D102D0E043
:102AA000C0E04091CF025091D0022C2F6091E503FD
:102AB0008091E303382F331F3327331F9091E403B2
:102AC000892F880F832B97FB992790F9C730D10561
:102AD000D4F4452BD1F04091E6030E949112219647
:102AE000CF30D105F1F60E945B108091CF0290911A
:102AF000D0020196817099279093D0028093CF02E3
:102B0000DF91CF910895452B31F340E0E6CF8091DE
:102B1000EC028823D1F19091E303892F86958F737E
:102B20002EE3280F2F73243018F482500C94CF1208
:102B30002AE3280F2F73233018F486500C942513A2
:102B400027E3280F2F73263018F489500C9455135F
:102B500021E3280F2F73263018F48F500C94AC13F8
:102B60002BE2280F2F73233018F485510C942E1468
:102B70009E77903311F40C949E14963411F40C94B7
:102B8000ED14983411F40C943E1508958823B9F08F
:102B90005198599A5098589A95E09A95F1F70000F3
:102BA000509A589895E09A95F1F70000882311F013
:102BB000519A599885E08A95F1F700000895519A45
:102BC0005998E8CF8BB18C7F8BB95098589A51980F
:102BD000599A85E08A95F1F7000008958AB18C7FB3
:102BE0008AB985E08A95F1F70000519A599885E0F5
:102BF0008A95F1F70000509A589885E08A95F1F788
:102C0000000008955098589A85E08A95F1F70000E1
:102C10005198599A85E08A95F1F700000895CF936D
:102C2000DF93D82FC8E08D2F80780E94C615DD0F66
:102C3000C150C9F780E00E94C61585E08A95F1F77A
:102C4000000085E08A95F1F7000080E0DF91CF91E8
:102C500008953BB1242F209523233BB1432B3FB74D
:102C6000F894FC01680F791FE617F70711F43FBFCE
:102C70000895819198E04BB9000000C087FF2BB9FF
:102C8000880F000000C000C000C02BB900C09A959A
:102C900091F7EACFAF92BF92CF92DF92EF92FF927D
:102CA0000F931F93CF93DF938C01EB01CFB6D0909E
:102CB000BC00F8948091BC008B7F8093BC000E9484
:102CC000E2150E94EE1584E80E940F16CC0FDD1F5E
:102CD000CC0FDD1F78015E01A00EB11EEA14FB04CB
:102CE000A9F40E940216CFBED092BC00579A40E8C9
:102CF000BE01C801DF91CF911F910F91FF90EF901E
:102D0000DF90CF90BF90AF900C942916F70181917E
:102D10007F010E940F16E2CFCF93DF93EC0181E099
:102D20008F878F810E942D2488850E9441240E94D4
:102D3000F723EA81FB816A897B89CE010696309769
:102D400019F0DF91CF910994DF91CF910895CF933E
:102D5000DF93EC018881823039F4FB018281938119
:102D60000E947A0881E08987DF91CF910895FC0164
:102D70008081813029F4FB01808191810C947A0853
:102D8000823021F4FB0182819381F8CF0895FC0108
:102D90008081813029F4FB01808191810C948F081E
:102DA000823021F4FB0182819381F8CF0895EF9264
:102DB000FF920F931F93CF93DF93EC0188858111CE
:102DC00032C0EB80FC8087E5F81A24E12E9DC0011B
:102DD0002F9D900D1124DC01AE5FBE4F1496ED9136
:102DE000FC91159752966D917C91885F9E4F30971C
:102DF00009F0099584E18E9D80018F9D100D1124AD
:102E00000E5F1E4FF80187810E943324F8018085F0
:102E10000E9447240E94F72318821F82198610926D
:102E2000EE021092ED02DF91CF911F910F91FF9072
:102E3000EF900895DF92EF92FF920F931F93CF933D
:102E4000DF937C01FB018281882391F080918701CF
:102E50008F3F71F0C2E0D1E010E000E0DD24D394B8
:102E600080918701082E000C990B8017910744F47C
:102E7000DF91CF911F910F91FF90EF90DF90089518
:102E80008E818823B9F089859A858E159F0539F43E
:102E90008091ED029091EE02E816F90659F0DD8678
:102EA0008F85811103C0CE010E948C16CE0106963B
:102EB0000E94D7160F5F1F4F6496D2CFEF92FF92FA
:102EC0000F931F93CF93DF937C0197558F3F91050D
:102ED00009F0D8F520918701022E000C330B28173A
:102EE000390714F480938701FB01228134E1389F74
:102EF0008001399F100D1124E801CE5FDE4F2E872F
:102F000092818E81992349F1FA86E9868F5F8E83BB
:102F10000E94F6259C878B870E9469248F830E94DC
:102F20002A2488870E943E249885892B8887E881F7
:102F3000F9816A897B89C801885F9E4F309709F0C3
:102F40000995F092EE02E092ED0281E0DF91CF91DF
:102F50001F910F91FF90EF9008958823B1F38F8513
:102F6000882399F3C801885F9E4F0E94D716EDCF42
:102F7000EF92FF920F931F93CF93DF93809187017E
:102F800010E004E18F3FC1F5DF91CF911F910F91C8
:102F9000FF90EF900895029FF001039FF00D112420
:102FA000EE5FFE4FE088F188E114F10419F48DE73B
:102FB000E82EF12C029FE001039FD00D1124CE5F7B
:102FC000DE4F8E818823B9F08B859C850E94022676
:102FD000E816F90680F4109F700111248F85811185
:102FE00005C0C7018E5F9E4F0E948C16C701885F87
:102FF0009E4F0E94D7161F5F212F30E080918701DE
:10300000082E000C990B821793072CF6BDCF9093D6
:10301000F4028093F3020895E091F302F091F40238
:10302000309721F00190F081E02D099480E008951F
:10303000E091F302F091F402309721F00280F381E5
:10304000E02D09940895E091F302F091F402309795
:1030500021F00480F581E02D099408952091F1027A
:103060003091F2022817390771F09093F2028093A1
:10307000F102E091F302F091F402309721F0068022
:10308000F781E02D099408952091EF023091F0022C
:103090002817390771F09093F0028093EF02E091C6
:1030A000F302F091F402309721F00084F185E02DD5
:1030B0000994089508950C945A1881E008950E9487
:1030C000ED2585B7806885BF85B7806885BF0E947C
:1030D000DD040E9484260C944E12BF92CF92DF92A0
:1030E000EF92FF920F931F93CF93DF93CDB7DEB78D
:1030F0002A970FB6F894DEBF0FBECDBF0E944905D8
:103100000E945D18882309F471C086EFC82E82E002
:10311000D82E10E000E0B02E802F0E94AE05E82EE1
:10312000F601F1906F01F81609F45AC08091B103CD
:1031300081FD0E94B40590E080E0FE242F2D30E058
:10314000482FB901082E02C0759567950A94E2F7D9
:1031500060FF41C08E83BF8281E090E06C0102C0BD
:10316000CC0CDD1C4A95E2F72E2D30E02C213D21C0
:10317000232B09F480E088870E94F6258160782F50
:103180009A8789874E815F8168858A850E944F1959
:10319000F801EA50FD4F80818C2580830E9417281A
:1031A0000E940C189091F502891789F10E940C1861
:1031B0008093F5022A960FB6F894DEBF0FBECDBFFE
:1031C000DF91CF911F910F91FF90EF90DF90CF9003
:1031D000BF900C941A0901968630910509F0B0CF82
:1031E0000F5F1F4F0E30110509F095CF8FEF8983C8
:1031F0008A831B820E94F6258160782F9D838C83B1
:1032000049815A816B818D810E944F19C7CF2A96BF
:103210000FB6F894DEBF0FBECDBFDF91CF911F91E7
:103220000F91FF90EF90DF90CF90BF900895CF93D4
:10323000DF93DC018C91682F70E021E030E001C069
:10324000220F8A95EAF711964C91119750E0EA0106
:10325000CC5FDC4F988112968C9112978823C9F02D
:10326000809114038823C1F086E0849FF001859F3C
:10327000F00D1124E60FF71FEE0FFF1FE656FE4F6D
:10328000408151814D935C93292B2883DF91CF910D
:103290000895892F8223E6CF20952923F6CFCF9357
:1032A000DF93CDB7DEB72B970FB6F894DEBF0FBE16
:1032B000CDBF942F4F83252F588769877A878B87B7
:1032C0004A855B8581E0452B31F02F3F19F481E081
:1032D0009F3F09F080E080FD04C0CE0107960E9468
:1032E00017191E821D8285E0FE013796DE011196B8
:1032F00001900D928A95E1F749815A816B817C8119
:103300008D819E810E94BC202B960FB6F894DEBF63
:103310000FBECDBFDF91CF910895FC0180819181D7
:103320000E94852392959F70963041F480911403FA
:1033300091E0892780931403909313030895CF930A
:10334000C82F882309F4DAC08238C1F40E940C180F
:1033500081FDD4C089E30E94B3230E94F7232FEF9D
:1033600081EE94E0215080409040E1F700C00000E1
:1033700089E30E94BA23CF910C94F7238338A1F4F8
:103380000E940C1880FDBAC083E50E94B3230E94FE
:10339000F7232FEF81EE94E0215080409040E1F739
:1033A00000C0000083E5E5CF8438A1F40E940C182A
:1033B00082FDA4C087E40E94B3230E94F7232FEF6D
:1033C00081EE94E0215080409040E1F700C0000081
:1033D00087E4CFCF8CEF8C0F813A48F48C2F0E947A
:1033E000362A81118BC08C2F0E94B323C4CF80E278
:1033F0008C0F883048F4C77081E001C0880FCA95EF
:10340000EAF70E942D24B7CF8BE58C0F833068F448
:1034100081E890E0C53A31F083E890E0C63A11F4D3
:1034200082E890E0CF910C942E1888E58C0F8531BE
:1034300008F05EC082EE90E0C83A09F456C089EE0A
:1034400090E0C93A09F451C08AEE90E0CA3A09F412
:103450004CC085EB90E0CB3A09F447C086EB90E096
:10346000CC3A09F442C083EB90E0CB3BF1F184EB22
:1034700090E0CC3BD1F187EB90E0CD3AB1F18CEC10
:1034800090E0C03B91F18DEC90E0CE3A71F183E891
:1034900091E0CF3A51F18AE891E0C13B31F182E904
:1034A00091E0C23B11F184E991E0C33BF1F081E28C
:1034B00092E0C43BD1F083E292E0C53BB1F084E2FC
:1034C00092E0C63B91F085E292E0C73B71F086E264
:1034D00092E0C83B51F087E292E0C93B31F090E0C6
:1034E00080E0CA3B11F48AE292E0CF910C94441838
:1034F000C03F20F08C2FCF910C942027CF910895BE
:10350000882309F450C0823871F40E940C1881FF9E
:103510004AC089E30E94B3230E94F72389E30E94F3
:10352000BA230C94F723833859F40E940C1880FFB7
:103530003AC083E50E94B3230E94F72383E5EFCFCF
:10354000843859F40E940C1882FF2DC087E40E9431
:10355000B3230E94F72387E4E2CF9CEF980F913AC0
:10356000F0F290E2980F983050F4877091E001C02B
:10357000990F8A95EAF7892F0E943324D2CF9BE5D1
:10358000980F933020F490E080E00C942E1898E58A
:10359000980F953120F490E080E00C944418803F1F
:1035A00010F00C9488270895882321F00E942D2480
:1035B0000C94F7230895882321F00E9433240C945F
:1035C000F72308958F929F92AF92BF92DF92EF926E
:1035D000FF920F931F93CF93DF937C01D62FC72FBA
:1035E000FC01058102950F70128111110E944F2478
:1035F0000E94F023D82E882371F0112331F180E24C
:103600008D0F883010F182E00E94DA230E94F023AF
:1036100091E0D82ED926BC2EB2949FE0B922EB2D92
:10362000F0E0EB5EF44E0C945A35271B271B771BFA
:10363000771BB71BDF1B4E1DBE1B211CBE1BBC1CFA
:10364000BC1C451DBE1BBE1B801DD12CE4CF0C2F06
:103650000F70C07F11F00295007F1123A9F00023A5
:1036600059F080E28D0F883010F0D11109C0802F01
:103670000E942D240E94F7238D2F0E949F1914C0B1
:10368000802F0E944124F6CF8D2F0E94801A0023A4
:1036900059F080E28D0F883010F0D11124C0802FB6
:1036A0000E9433240E94F723DD2009F454C20E94B3
:1036B000CD2380FD50C2F70112820E94C7230E94D1
:1036C0004B22C7010E94B71D0E94C723DF91CF91F3
:1036D0001F910F91FF90EF90DF90BF90AF909F9060
:1036E0008F900C946C22802F0E944724DBCFFC2FFC
:1036F000FF70BF2EC07FC03219F0B29480EFB822A5
:10370000DD2339F0D13019F1112359F1002321F1D2
:10371000B3CF112381F0011106C00E9469248B29C7
:103720000E94D41AC1CF0130C1F70E9469248B29AD
:103730000E946324B9CF011106C00E9466248B2D1C
:103740000E94DB1AB1CF013009F4AECFF6CF1123BE
:1037500029F0023008F0A8CF8B2DE2CF0111A4CFC1
:10376000EECF002361F38D2F0E94801A9DCF8C2F06
:1037700086958695837079F08130B9F0F8E0BF16B0
:1037800009F49BC0BF1608F48FCF86EF8B0D8230F3
:1037900008F493C089CF8D2F9C2F9370111102C014
:1037A00090E080E00E942E187FCF8D2F9C2F937089
:1037B000111102C090E080E00E94441875CF1123DF
:1037C00009F1D53F99F0D63FB9F0D43F49F4809143
:1037D000240490912504816090932504809324040F
:1037E0008D2F0E9420270E940C285ECF80912404F8
:1037F000909125048260F0CF80912404909125045B
:103800008460EACFD53F89F0D63FA9F0D43F49F490
:1038100080912404909125048E7F909325048093B9
:1038200024048D2F0E948827DECF8091240490915C
:1038300025048D7FF2CF80912404909125048B7F05
:10384000ECCF8C2F837009F04BC0111136C02D2F97
:10385000229526952770220F220F6D2F6F70862ECE
:10386000912CB12CA12C022E04C0880C991CAA1CEE
:10387000BB1C0A94D2F760E070E0CB01D4FF0FC00C
:103880006FE070E080E090E004C0660F771F881F53
:10389000991F2A95D2F76095709580959095C69559
:1038A000C695C370C23071F0A0F4682979298A29BD
:1038B0009B29C13091F00E94FF210E940C180E94A8
:1038C0001A09F2CE682979298A299B290E94112296
:1038D000F4CF0E94FF21C501B4010E94ED21EDCF7C
:1038E0008695112311F08C2F8170882331F32D2FB1
:1038F000229526952770220F220F6D2F6F70862E2E
:10390000912CB12CA12C022E04C0880C991CAA1C4D
:10391000BB1C0A94D2F760E070E0CB01D4FF0FC06B
:103920006FE070E080E090E004C0660F771F881FB2
:10393000991F2A95D2F76095709580959095C695B8
:10394000C695C370C23051F080F4682979298A295C
:103950009B29C13071F00E94C222AFCF682979291A
:103960008A299B290E94D422A8CF0E94C222C50185
:10397000B4010E94B022A1CFE0E2ED0FE53108F0E2
:1039800065C0F0E0EA53F34E0C945A35DB1CDB1CA7
:10399000DB1CDB1CDB1CDB1CDB1CDB1CDB1CDB1C6F
:1039A000DB1CDB1CDB1CDB1CDB1CDB1CEC1CF91C30
:1039B000001D071D111DDF708C2F8F71112331F039
:1039C0000E944B228D2F0E94D41AD8CE0E946C22C6
:1039D0008D2F0E94DB1AD2CE112339F00111CECEE9
:1039E0008C2F8F710E948F22C9CE023008F0C6CE74
:1039F000F7CF8C2F8F71112339F00E944B22BECE4E
:103A00008C2F8F711123C9F30E946C22B7CE112322
:103A100029F08C2F8F710E943622B0CE0E94312265
:103A2000ADCE112349F0CF718C2F0E944B2263E061
:103A30008C2F0E94D123A2CE81E00E94DA23023093
:103A400008F49CCE82E00E94DA2398CE112349F03C
:103A5000002321F08D2F0E949F1990CE8C2F8F7103
:103A6000CCCF002379F0D93349F42FEF87EE93E0E0
:103A7000215080409040E1F700C000008D2F0E944F
:103A8000801A7CCE8C2F8F71BFCF4C2F4F706D2F33
:103A9000C7010E9482070E94652106CED23F71F1C4
:103AA000C8F4D03F01F1D13FB9F180911303002355
:103AB00009F446C0882341F08091140391E08927DE
:103AC00080931403109213038D2F112389F10E9408
:103AD0009F1916C0D43FD9F078F0D53F31F71111B6
:103AE0000FC081E006C0112359F08091140391E0CA
:103AF00089278093140304C081E0182710931403CE
:103B00004C2F4F706D2FC7010E94030C37CE11113F
:103B1000F7CF10921403F4CF112339F080911303DF
:103B2000882319F310921303EBCF0023F1F2E8CFAF
:103B30000E94801A86E0F70111928A95E9F7E0CF9A
:103B40008823F1F21111DCCF8091140391E08927D1
:103B500080931403E7CFDF91CF911F910F91FF90D6
:103B6000EF90DF90BF90AF909F908F9008950F934C
:103B70001F93CF93DF93EC01988189812B813C8146
:103B8000232B39F08F3F19F481E09F3F19F080E03B
:103B900001C081E080FD17C0CE010E942C0988235E
:103BA00091F0688179818A810E948F238C010E9423
:103BB000E6220E94EA21B801CE01DF91CF911F9148
:103BC0000F910C94E21ADF91CF911F910F910895FC
:103BD0000E944F240E9460240E94C1230E94F72368
:103BE0000E94AB280E940C2890E080E00E942E18D2
:103BF00090E080E00C9444180E943B240C94E81D53
:103C00000E948523E92FE295EF70E250EE30E0F458
:103C1000F0E0E35FF14E0C945A351B1E1B1E241E70
:103C2000241E261E241E241E241E1B1E1B1E2B1E8D
:103C3000241E241E2B1E803F19F020F4803E20F409
:103C400081E00895843FE1F380E00895803EC0F371
:103C5000813FD1F7F5CF93FB882780F90895CF9363
:103C6000DF9300D000D01F92CDB7DEB70F900F903A
:103C70000F900F900F90DF91CF910895CF93DF9326
:103C800000D000D000D0CDB7DEB726960FB6F8949E
:103C9000DEBF0FBECDBFDF91CF9108951F93CF93AD
:103CA000DF93C091150316E0809116038C1304C0B6
:103CB000DF91CF911F910895D0E01C9FF0011D9FCF
:103CC000F00D1124E95EFC4F4081518162817381C6
:103CD000848195810E943E1E2196C770E5CF409158
:103CE0004703509148036091490370914A038091C2
:103CF0004B0390914C030C943E1E1F93CF93DF9384
:103D000080914C03807FD1F4809149038823B1F0E6
:103D100080911503D0911603B0914703C0914803D9
:103D200040914A0350914B03A1E0BF3F09F0A0E04E
:103D3000BA016095709516E0D81304C0DF91CF9159
:103D40001F91089521E04115510521F02A2FCF3F01
:103D500009F020E090E020FD38C0189FF001199F85
:103D6000F00D1124E95EFC4F21812C132EC020811F
:103D70002B132BC02281211128C0238134812417C9
:103D8000350700F1241B350B2D373105F0F4209158
:103D90004C032F70206120934C0326E0289FF001F4
:103DA000299FF00D1124E45EFC4F80818F708061AB
:103DB000808387E493E00E94B71DDF91CF911F912C
:103DC0000C944E1E260F371FDFCF01968770B4CF9D
:103DD000AF92BF92CF92DF92EF92FF920F931F9319
:103DE000CF93DF93CDB7DEB761970FB6F894DEBF00
:103DF0000FBECDBF8C0185E0F801DE011D9601905C
:103E00000D928A95E1F7D8014C9111965C9111972A
:103E10001296EC90309147036091480380914A03D9
:103E200090914B0321E0009731F06F3F19F421E0AE
:103E30003F3F09F020E0B22FB170BB2E20FD80C1C2
:103E4000F801C380D480A0904903AA2009F427C1B7
:103E5000C816D906D0F1D601A81BB90BCD01FF2495
:103E6000F3948D37910508F0F12C80914C03982F35
:103E7000907FFF2009F4CEC0911187C0FE2C6513FE
:103E800029C0341327C0E11025C08F708061809352
:103E90004C030E946F1E87E493E00E94B71D80913F
:103EA0004C03F80185838F2D61960FB6F894DEBF21
:103EB0000FBECDBFDF91CF911F910F91FF90EF907B
:103EC000DF90CF90BF90AF900895809590958C0D26
:103ED0009D1DC5CF81E0CD2831F05F3F19F481E011
:103EE0004F3F09F080E080FD24C081E08E25F82F4F
:103EF000F170DF2E80FF3FC08091150320911603E3
:103F000036E0821318C04D875E878D859E850E949E
:103F10008523292F22952F70223008F1243030F587
:103F20009F7009F1D80115969C91907FE1F4FB2CCC
:103F3000BACF80E0DCCF90E0389FF001399FF00DE0
:103F40001124E95EFC4F6181561306C0608146135F
:103F500003C062816E110FC001968770D2CF9F702F
:103F600011F0882321F3805E883008F3C8010E9495
:103F7000B71DBD2CDCCFEE2009F495CF80914C030A
:103F8000816080934C03F12C8ECF651314C03413E1
:103F900012C0E11010C0F8018583C8010E94B71D4E
:103FA00086E0F801A7E4B3E001900D928A95E1F76D
:103FB0000E946F1E78CF4D875E878D859E850E94FB
:103FC000001E882319F1EE2009F180914C03803204
:103FD00070F0209147033091480338872F8319866A
:103FE000DB86CA868C87CE0107960E94B71D86E0C5
:103FF000F801A7E4B3E001900D928A95E1F70E94E1
:104000007D1E0E946F1EFF24F3944DCFC8010E94B5
:10401000B71DF9CF911113C07C2DD98AC88A6E2D96
:1040200089890E942F1E87E493E00E94B71D86E0D5
:10403000E7E4F3E0DF011D928A95E9F7B9CF651354
:1040400012C0341310C0E1100EC0F8018583C801FE
:104050000E94B71DE7E4F3E086E0DF011D928A9538
:10406000E9F7FA2C20CF4D875E878D859E850E94CB
:10407000001E882359F2EE2049F280914C038032D1
:1040800008F4B5CF20914703309148033A83298340
:104090001B82DD82CC828E83CE010196A6CFC8160C
:1040A000D90638F1F601E81BF90BCF01F12C8D3759
:1040B000910508F03DC0FE2CEE2009F4A7CF651352
:1040C00026C0341324C080914C0380FD17C0982F64
:1040D000907FA1F0D80115968C931597903F09F425
:1040E0005CCF982F907F905F8F70892B15968C9363
:1040F00054CF809590958C0D9D1DD8CF86E0F8010A
:10410000A7E4B3E001900D928A95E1F7CCCE4D87FC
:104110005E878D859E850E94001E811168CF8091EB
:104120004C03816080934C03C8010E94B71DBBCE35
:104130007C2DD98AC88A6E2D89890E942F1E77CF3F
:10414000EE2009F463CF4D875E878D859E850E94A2
:10415000001EF82E882309F459CF86E0F801A7E461
:10416000B3E001900D928A95E1F787E493E00E9415
:104170008D190E947D1E1CCF1F93CF93DF93CDB767
:10418000DEB72C970FB6F894DEBF0FBECDBF4F83BE
:10419000588769877A878B879C87CE0107960E940C
:1041A000E81E882309F442C09F8188852A853B85C3
:1041B000232B39F08F3F19F481E09F3F19F080E005
:1041C00001C081E080FD08C04F81588569857A85EE
:1041D0008B859C850E943E1E16E080911503909170
:1041E0001603891709F467C0819FC0011124895EF5
:1041F0009C4F0E94E81E882309F45DC0E0911503DE
:104200001E9FF0011124E95EFC4F408151816281C3
:104210007381848195810E943E1E8091150390E0F8
:1042200001968770992780931503D7CF86E0FE010A
:104230003796DE01119601900D928A95E1F79F81E4
:1042400088852A853B85232B39F08F3F19F481E03F
:104250009F3F19F080E001C081E080FDBDCF20913B
:10426000160330E0C9010196877099274091150324
:104270004817190699F096E0929FD001939FB00DD0
:104280001124A95EBC4FFE01319601900D929A95C2
:10429000E1F7809316030E944E1E9ECF0E94FC1DE4
:1042A000109216031092150386E0E7E4F3E0DF01B5
:1042B0001D928A95E9F72C960FB6F894DEBF0FBED3
:1042C000CDBFDF91CF911F910895EF92FF920F9391
:1042D0001F93CF93DF938C01892B81F0F12CEE2477
:1042E000E394E8012196F8018491843770F48430D6
:1042F00008F05FC08130B1F08230A1F1DF91CF9141
:104300001F910F91FF90EF900895853709F44CC0ED
:1043100008F43DC09CE7980F903780F78F770E9494
:10432000801A49C00E5F1F4FFE01849190E2980FE2
:10433000983060F48770FE2D01C0FF0F8A95EAF770
:104340008F2F0E9452240E94F72302C00E949F19BF
:104350008F2D815030F2EFE9FFE03197F1F700C087
:104360000000F7CF0E5F1F4FFE01849190E2980F7F
:10437000983050F48770FE2D01C0FF0F8A95EAF740
:104380008F2F0E945824DFCF0E94801AE1CF0E5F4A
:104390001F4FFE01C491C150D8F28FE99FE00197F1
:1043A000F1F700C00000F7CF0E5F1F4FFE01F49041
:1043B000CFCF0E949F198E01CBCF08950E94DD219F
:1043C000609388037093890380938A0390938B038F
:1043D0000C94E81D08950C94DE210F931F93009117
:1043E00088031091890320918A0330918B03602BFD
:1043F000712B822B932B1F910F910C94DE210F9325
:104400001F93009188031091890320918A033091B2
:104410008B0360237123822393231F910F910C94AC
:10442000DE210F931F93009188031091890320913F
:104430008A0330918B0360277127822793271F916E
:104440000F910C94DE210C94EF070E9423226093BD
:1044500084037093850380938603909387030C9461
:10446000E81D60E070E0CB010C9425220F931F93B0
:1044700041E050E060E070E08A019B0104C0000F61
:10448000111F221F331F8A95D2F7C901B8011F914E
:104490000F910C9425220F931F9341E050E060E0B0
:1044A00070E004C0440F551F661F771F8A95D2F72E
:1044B0008091840390918503A0918603B091870336
:1044C0008A019B01082B192B2A2B3B2BC901B80110
:1044D0001F910F910C9425220F931F9341E050E000
:1044E00060E070E004C0440F551F661F771F8A9577
:1044F000D2F7CB01BA0160957095809590950091A7
:1045000084031091850320918603309187036023F3
:104510007123822393231F910F910C9425220F93D3
:104520001F9341E050E060E070E004C0440F551F6D
:10453000661F771F8A95D2F7809184039091850337
:10454000A0918603B09187038A019B010827192750
:104550002A273B27C901B8011F910F910C942522EE
:104560000F931F930091840310918503209186037C
:1045700030918703602B712B822B932B1F910F910E
:104580000C9425220F931F930091840310918503AF
:104590002091860330918703602371238223932324
:1045A0001F910F910C9425220F931F930091840368
:1045B000109185032091860330918703602771272E
:1045C000822793271F910F910C9425220895292F5C
:1045D000220F920F990F890F982F977071E001C0E9
:1045E000770F9A95EAF786958695869525E0829FBE
:1045F000C001112450E040E0A62FB0E0FC01E40F20
:10460000F51FE35BFC4F60819D01042E02C03695CF
:1046100027950A94E2F7217021952627272326273C
:1046200020834F5F5F4F4530510541F70895292F93
:10463000220F290F220F820F982F9770869586954B
:10464000869545E0849F9001112470E060E080E051
:10465000F901E60FF71FE35BFC4F408150E0092EA4
:1046600002C0569547950A94E2F741705527062EE9
:1046700001C0440F0A94EAF7842B6F5F7F4F6530C7
:10468000710531F70895BF92CF92DF92EF92FF92BA
:104690000F931F93CF93DF938C01C0908403D0902E
:1046A0008503E0908603F0908703809188039091C2
:1046B0008903A0918A03B0918B03C82AD92AEA2AD8
:1046C000FB2ACFE1D0E0BC2ED701C6010C2E04C0DE
:1046D000B695A795979587950A94D2F780FD0EC059
:1046E000219788F7B12C8B2DDF91CF911F910F91DE
:1046F000FF90EF90DF90CF90BF900895B8018C2F7E
:104700000E94200C019761F3EECFCF93DF93EC0171
:104710000E944323BE01DF91CF910C94200C1F9384
:10472000CF93DF93EB0190911203992331F0CB01EA
:10473000DF91CF911F910C948523882379F0CB01D1
:104740000E944323182F682FCE010E94E722BE014A
:10475000812FDF91CF911F910C94200CCB010E94EF
:104760001723182FF4CF682F809188019091890129
:104770000C945325682F80918801909189010C94A5
:104780005E2580918801909189010C946925809122
:104790008C03859585958595089580918C03877008
:1047A000089598E0899F90011124622B60938C03F7
:1047B0000C944B2290918C038095892380938C03D9
:1047C000282F277061F4282F082E000C330B921726
:1047D000130629F08595859585950C946C2208958E
:1047E00090918C03977081E009F480E00895E09146
:1047F0008801F09189018091B0038083E091880164
:10480000F091890180819091AF03892B8083E091A1
:104810008801F091890180819091AE03892B80837A
:1048200090918D03992381F0E0918801F0918901A5
:104830008081892B808380918801909189010E94D9
:10484000F624811110928D03809188019091890145
:104850000C9418188091B00308959091B003892B9F
:104860008093B0030895982F90958091B003892389
:104870008093B00308951092B00308958091AF0320
:1048800008959091AF03892B8093AF030895982FDB
:1048900090958091AF0389238093AF030895109280
:1048A000AF0308959091AE03892B8093AE030895D2
:1048B000982F90958091AE0389238093AE0308953D
:1048C0001092AE03089580938D03089510928D0386
:1048D000089580918D030895CF92DF92EF92FF9219
:1048E0006C01EE24FF2420E0C114D104E104F104A2
:1048F00019F0C701B60120E1C72ED82EE92EFF24FA
:10490000C114D104E104F10419F0285FC701B60114
:104910006B017C0154E0F694E794D794C7945A95C0
:10492000D1F7C114D104E104F10419F02C5FC701DF
:10493000B6016B017C0142E0F694E794D794C794EA
:104940004A95D1F7C114D104E104F10419F02E5FA6
:10495000C701B6019695879577956795672B682B64
:10496000692B09F02F5F822FFF90EF90DF90CF909F
:1049700008956DEE7EEF90E080E00E949F3560E04C
:1049800082E090E00E94813560E083E090E00E9448
:10499000813560E084E090E00E94813560E085E050
:1049A00090E00E94813540E050E0BA0188E090E05C
:1049B0000C94933590E080E00E947B3521E08D3EA1
:1049C0009E4F09F020E0822F089582E090E00C9441
:1049D0006D3583E090E00C946D3584E090E00C94AC
:1049E0006D35682F84E090E00C948135FC013196A0
:1049F0009C01205E3F4F80E0919191118F5FE21703
:104A0000F307D1F708959C01FC0132969FEF80E0F7
:104A10004191461751F09F3F19F4411101C0982F61
:104A20008F5F8E31A9F79F3F09F40895290F311D3B
:104A300097FD3A95F90162830895FC0132968096BC
:104A40002191261303C0DF0111971C92E817F90783
:104A5000B9F70895E62FE695E695E695EF3169F00A
:104A6000E80FF92FF11D677021E030E001C0220F3F
:104A70006A95EAF78181822B81830895E62FE69576
:104A8000E695E695EF3171F0E80FF92FF11D6770AB
:104A900021E030E001C0220F6A95EAF7209581817C
:104AA00028232183089520919901222329F0209120
:104AB0002A0427FD0C942A250C94032520919901A2
:104AC000222329F020912A0427FD0C943E250C94E2
:104AD0001D25FC01319680961192E817F907E1F740
:104AE000089508950C9471250E94722580913004D8
:104AF000843049F11092B20388E190E020E40FB6CF
:104B0000F894A895809360000FBE2093600080E029
:104B10000E941A090E94722583B7817F846083BF37
:104B200083B7816083BF7894889583B78E7F83BF76
:104B30000FB6F894A895809160008861809360001A
:104B4000109260000FBE08950895CF930E94F9045B
:104B50000E9449050E94A425C0E08C2F0E94AE054A
:104B6000811105C0CF5FCE30C1F7CF91089581E0AC
:104B7000FCCF08950C94B9250E94FC1D0E940C18CE
:104B80000E941A090C94BA251F920F920FB60F9229
:104B900011248F939F93AF93BF938091B2038111A0
:104BA00013C08091260490912704A0912804B0910D
:104BB00029044196A11DB11D8093260490932704DA
:104BC000A0932804B0932904BF91AF919F918F9136
:104BD0000F900FBE0F901F90189582E084BD93E058
:104BE00095BD9AEF97BD80936E0008952FB7F89406
:104BF0008091260490912704A0912804B091290463
:104C00002FBF0895CF92DF92EF92FF920F931F93E1
:104C10002FB7F894409126045091270460912804FE
:104C2000709129042FBF6A017B01EE24FF248C01BF
:104C300030E020E0C016D106E206F30650F0481B33
:104C4000590BCA011F910F91FF90EF90DF90CF9009
:104C5000089541505109F3CF78941F920F920FB6E7
:104C60000F9211248F939F93AF93BF93809126044B
:104C700090912704A0912804B09129040196A11DC8
:104C8000B11D8093260490932704A0932804B09329
:104C90002904BF91AF919F918F910F900FBE0F90FC
:104CA0001F901895F89481E08093E00080E2809353
:104CB000D800E9ECF0E010828FE19EE40197F1F773
:104CC00000C000001DBA109268001CBC10BE1FBAC4
:104CD00010927A0010926E0010926F001092710084
:104CE000109272001082ECEBF0E0108214B817B84A
:104CF0001AB81DB810BA108215B818B81BB81EB86B
:104D000011BA0C94003F08950E94DA24811102C068
:104D10000E94B9240E94E5248093B1030E94ED24EF
:104D200090E090932B0480932A040E94E924682F3A
:104D300070E090E080E00C94EB218091B60380FF5E
:104D400012C060918D0185E0689FB00111247595B6
:104D500067957595679560387105A8F561157105BA
:104D6000A1F1862F089581FF09C060918D0185E032
:104D7000689FB001112475956795EDCF82FF07C03C
:104D800060918D0185E0689FB0011124E4CF2091EE
:104D9000B7032223A9F090918C0160918D0185E0E9
:104DA000689FB00111242917B0F6269FA001279F04
:104DB000500D1124692F70E0CA010E944635CBCFF7
:104DC00065E070E0CECF8FE7089581E0089580918F
:104DD000B60380FF0CC060918B0170E075956795FC
:104DE000759567956115710549F1862F089581FFC5
:104DF00006C060918B0170E075956795F3CF609167
:104E00008B0182FD0BC09091B7039923A1F06091B3
:104E10008A0180918B01961738F0682F70E0603816
:104E2000710500F38FE70895899FC001112470E098
:104E30000E944635F4CF61E070E0D7CF81E008955D
:104E4000803F31F40E949D2681958093BA03089596
:104E5000813F19F40E949D26F8CF823F31F40E94D1
:104E60009D2681958093B9030895833F19F40E948C
:104E70009D26F8CF893F29F40E94E7268093BB0343
:104E800008958A3F21F40E94E7268195F7CF8B3F52
:104E900031F40E94E72681958093BC0308958C3FEE
:104EA00019F40E94E726F8CF843F31F48091B803CB
:104EB00081608093B8030895853F21F48091B80301
:104EC0008260F7CF863F21F48091B8038460F1CFF0
:104ED000873F21F48091B8038860EBCF883F21F4AD
:104EE0008091B8038061E5CF8D3F31F48091B603A6
:104EF00081608093B60308958E3F21F48091B603BC
:104F00008260F7CF8F3FB9F78091B6038460F1CF0D
:104F1000803FC1F48091BA0387FD1092BA0380915B
:104F2000B90381110EC08091BA0381110AC080912A
:104F3000BB03811106C08091BC03811102C0109295
:104F4000B7030895813F29F48091BA0318162CF312
:104F5000E6CF9091B903823F29F497FFE0CF1092FA
:104F6000B903DDCF833F19F41916CCF3D8CF893FAD
:104F700039F48091BB03181694F61092BB03CFCF7F
:104F80008A3F29F48091BB0387FFC9CFF6CF8B3FBF
:104F900039F48091BC0387FFC2CF1092BC03BFCF0E
:104FA0008C3F29F48091BC031816BCF3B8CF843F22
:104FB00031F48091B8038E7F8093B803B0CF853FE2
:104FC00021F48091B8038D7FF7CF863F21F4809143
:104FD000B8038B7FF1CF873F21F48091B803877F9F
:104FE000EBCF883F21F48091B8038F7EE5CF8D3FD2
:104FF00031F48091B6038E7F8093B60390CF8E3FBD
:1050000021F48091B6038D7FF7CF8F3F09F087CFD2
:105010008091B6038B7FF0CF88EB93E00E9423183A
:105020000E94F6259093B4038093B30308951F93D1
:10503000CF93DF938091B3039091B4030E94022633
:10504000AC019091B70320918E0130E0911106C020
:105050002091B5038AE0289F90011124421753073D
:1050600080F08091B903D091BA031091BB03C09135
:10507000BC0381110AC0D1116AC0111168C0C111ED
:1050800066C0DF91CF911F9108959F3F19F09F5FF8
:105090009093B703181624F40E949D268093B903B9
:1050A0008091B90387FF05C00E949D26819580935A
:1050B000B9031D1624F40E949D268093BA038091A3
:1050C000BA0387FF05C00E949D2681958093BA038D
:1050D0003091B9033323C1F02091BA032223A1F008
:1050E00045EB3403C0011124892F911101C081E0E7
:1050F0008093B90345EB240390011124832F3111D0
:1051000001C081E08093BA03111624F40E94E726BF
:105110008093BB038091BB0387FF05C00E94E726F5
:1051200081958093BB031C1624F40E94E72680938C
:10513000BC038091BC0387FF05C00E94E7268195D0
:105140008093BC03DF91CF911F910C940C289F3F5B
:1051500009F09DCFAECF85E0E8EBF3E0DF011D92D3
:105160008A95E9F71092B7031092B6030895833039
:1051700081F128F4813059F08230D1F008958530E2
:1051800009F449C0B8F1863009F456C008958091F9
:10519000B503482F460F5527551F4F3F510524F49F
:1051A000680F6093B50308958FEF8093B50308955A
:1051B00080918E01482F460F5527551F4F3F5105AF
:1051C00024F4680F60938E0108958FEF80938E0111
:1051D000089580918D01482F460F5527551F4F3F49
:1051E000510524F4680F60938D0108958FEF80932B
:1051F0008D01089580918C01482F460F5527551F2A
:105200004F3F510524F4680F60938C0108958FEF90
:1052100080938C01089580918B01482F460F55276C
:10522000551F4F3F510524F4680F60938B0108957B
:105230008FEF80938B01089580918A01482F460F4C
:105240005527551F4F3F510524F4680F60938A017D
:1052500008958FEF80938A010895833011F128F427
:10526000813049F0823091F00895853081F120F14C
:105270008630C1F108958091B503681720F4861B2C
:105280008093B50308951092B503089580918E011F
:10529000681720F4861B80938E01089510928E016A
:1052A000089580918D01681720F4861B80938D01ED
:1052B000089510928D01089580918C01681720F453
:1052C000861B80938C01089510928C010895809123
:1052D0008B01681720F4861B80938B010895109230
:1052E0008B01089580918A01681720F4861B8093B2
:1052F0008A01089510928A0108950F931F9341E047
:1053000050E060E070E08A019B0104C0000F111FB3
:10531000221F331F8A95D2F7C901B8010E94EB21E1
:105320001F910F910C94FC1D873208F043C08E3101
:1053300008F08BC0803109F47DC0C8F4873009F4CF
:105340006AC028F4863009F45CC080E008958B3090
:1053500009F455C08E30C9F79091B103892F8B7F26
:1053600092FF84608093B10382FD20C048C08631E3
:1053700009F445C068F4813141F70E94FC1D909109
:105380002A04892F97FB87F9805880932A0437C015
:105390008931A9F18B31C9F69091B103892F8D7FA5
:1053A00091FF82608093B10381FF29C08091B10396
:1053B00081603DC0883319F150F4893221F0853382
:1053C00011F0873211F680E00E947D2918C08334E5
:1053D000D1F328F48A3308F4B8CF8953F5CF883451
:1053E00009F0B3CF0E94FC1D2FEF83ED90E3215015
:1053F00080409040E1F700C000000E94522681E00A
:1054000008958091B103817F8E7F8093B10381E005
:105410008093BE0308959091B103892F8E7F90FFF2
:1054200081608093B10380FDEACF897F877F80937D
:10543000B103E5CF9091B103892F877F93FF8860F7
:105440008093B10383FDB2CFDACF8D51BDCF80E021
:1054500008950C94272A8E518A3030F4E82FF0E01A
:10546000EE5BFD4F8081089580E00895CF93C82FB3
:105470008091BE038130E1F038F0823009F43FC002
:105480001092BE0380E012C0E0918801F091890182
:105490008081813111F08232A9F78C2F0E94272A56
:1054A00081111DC08C2F0E9494298170CF91089585
:1054B000E0918801F09189018081813171F382321C
:1054C00061F38C2F0E94292A811110C0C43181F010
:1054D00048F4CB3059F0C03171F080E0E6CF81E084
:1054E00090E0E3CFC93221F0C833B9F781E0DDCFD6
:1054F0001092BE03F2CF82E08093BE03F7CFC93291
:1055000019F188F4C43101F120F4C73081F181E050
:10551000CDCF82EE8C0F8630D0F78C2F0E942B2AB5
:105520008093BD03F4CFCE3401F140F46AE0CB3474
:1055300071F78091BD030E94B728E9CFC13579F09A
:1055400061E0C235B1F3E3CF8091BD03882319F048
:105550001092BD03DCCF81E08093BE03A7CF61E052
:105560008091BD030E942D29D2CF6AE0F9CF10921D
:10557000B50384E180938E01C0938D018CE3809309
:105580008C0188E080938B0188E280938A01BFCFF1
:105590008091DF0308950F931F93CF93DF9300D083
:1055A0001F92CDB7DEB78C010E943A2D823011F0E8
:1055B000843019F583E089831B830A838093E90093
:1055C0008FEF9091E800815095FD06C095ED9A957A
:1055D000F1F700008111F5CF8091E80085FF0DC043
:1055E00050E040E063E070E0CE0101960E94572D4C
:1055F0008091E8008E778093E8000F900F900F90D5
:10560000DF91CF911F910F910895CF93DF9300D039
:105610001F92CDB7DEB720913004243031F522E05F
:105620002983805891099B838A8383E08093E900D2
:105630008FEF9091E800815095FD06C095ED9A9509
:10564000F1F700008111F5CF8091E80085FF0DC0D2
:1056500050E040E063E070E0CE0101960E94572DDB
:105660008091E8008E778093E8000F900F900F9064
:10567000DF91CF910895CF93DF93EC010E943A2DF3
:10568000823011F08430F9F482E08093E9008FEFEA
:105690009091E800815095FD06C095ED9A95F1F73F
:1056A00000008111F5CF8091E80085FF0CC050E02B
:1056B00040E065E070E0CE010E94572D8091E80047
:1056C0008E778093E800DF91CF910895CF93DF9399
:1056D000EC010E943A2D823011F08430F9F480916F
:1056E00099018823F1F080912A0487FF1AC084E091
:1056F0008093E9008FEF9091E800815095FD06C0FE
:1057000095E19A95F1F700008111F5CF8091E800BD
:1057100050E040E060E270E085FD1AC0DF91CF917B
:10572000089581E08093E9008FEF9091E800815027
:1057300095FD06C095ED9A95F1F700008111F5CF22
:105740008091E80085FFEACF50E040E068E070E03B
:10575000CE010E94572D8091E8008E778093E8005B
:1057600080E2FE01AFEBB3E001900D928A95E1F784
:10577000D5CF80912F04811109C00E94E72E0E948D
:10578000442F8091E20084608093E200089510929B
:105790002F040895089508950C94BC2542E061EC0F
:1057A00081E00E94652E42E061EC82E00E94652E5D
:1057B00042E061EC83E00E94652E42E261EC84E00D
:1057C0000C94652E80913204833009F455C030F476
:1057D000813071F1823009F491C008958A3009F462
:1057E0007DC08B3009F463C0893009F044C08091DA
:1057F0003104813209F03FC0809135049091360424
:10580000009711F00397B9F58091E800877F8093A6
:10581000E8008091E80082FF2AC08091F100809327
:10582000DF038091E8008B778093E8000C94992E39
:1058300080913104813AF9F48091E800877F809368
:10584000E8008091350490913604892B61F460E280
:105850008FEB93E070E00E94A62D8091E8008B779B
:105860008093E800089560E090E080E0F3CF8091BD
:1058700030048111CECF089580913104813AD9F757
:105880008091350490913604892BA9F78091E80026
:10589000877F8093E8008091E80080FFFCCF8091B3
:1058A00099018093F1008091E8008E77BDCF8091BF
:1058B0003104813201F78091350490913604892BAF
:1058C000D1F68091E800877F8093E8000E94992EAE
:1058D00080913304809399010C94FC1D80913104D4
:1058E000813249F68091E800877F8093E8000E942A
:1058F000992E809134048093E003089580913104BF
:10590000813A09F0B8CF8091E800877F8093E80062
:105910008091E80080FFFCCF8091E003C2CF84B784
:10592000877F84BF0FB6F894A89580916000886146
:1059300080936000109260000FBE80E88093610049
:10594000109261000E945B180E94E72E0E94442F73
:105950008091E20084608093E20078940E94CD31CF
:105960000E945F188FE891E00E9407188091300430
:10597000853029F00E946D180E948715F7CF0E948C
:10598000742580912E04882389F30E94A5258823FD
:1059900069F30E94412DEACF0C94CE2C292F332796
:1059A0002330310579F158F421303105F1F02230FE
:1059B000310519F190E080E030E020E01AC021329A
:1059C0003105C9F122323105A9F76430710590F72C
:1059D000FB01EE0FFF1FE05BFD4F20813181645B17
:1059E0007D4FFB01808190E004C082E190E021EFD7
:1059F00036E0FA013183208308958DE690E024E8B3
:105A000036E0F7CF99278130910579F040F0823068
:105A1000910571F0039771F6EAE4F6E002C0E0E860
:105A2000F6E0849190E09F01E4CFE8E6F6E0F9CF5C
:105A3000E0E5F6E0F6CF6430710508F0BBCF660F05
:105A4000771FFB01E85AFD4F2081318189E090E00A
:105A5000D0CF0895CF93C82F0E94292DC093E10382
:105A6000CF91089580913004843011F081E0089541
:105A700082E008958091E103811102C00C94322DDF
:105A8000089580E189BD82E189BD09B400FEFDCFA2
:105A90008091D8008F7D8093D8008091E000826053
:105AA0008093E0008091E00081FDFCCF0895AF92EB
:105AB000BF92CF92DF92FF920F931F93CF93DF930A
:105AC0006C01EB018A010E94B82EF82E811123C0CF
:105AD0000115110539F0F80180819181C81BD90B9E
