:100000000C94D8030C94F5030C94F5030C94F503AD
:100010000C94F5030C94F5030C94F5030C94F50380
:100020000C94F5030C94F5030C94772F0C944A3040
:100030000C94D9250C94F5030C94F5030C94F5035A
:100040000C94F5030C94F5030C94F5030C94F50350
:100050000C94F5030C9441260C94F5030C94F503D1
:100060000C94F5030C94F5030C94F5030C94F50330
:100070000C94F5030C94F5030C94F5030C94F50320
:100080000C94F5030C94F5030C94F5030C94F50310
:100090000C94F5030C94F5030C94F5030C94F50300
:1000A0000C94F5030C94F5030C94F50307634236A6
:1000B000B79BD8A71A39685618AEBAAB558C1D3CF9
:1000C000B7CC5763BD6DEDFD753EF6177231BF00BD
:1000D0000000803F05A84CCDB2D44EB93836A902F5
:1000E0000C50B9918688083CA6AAAA2ABE00000036
:1000F000803F67697420636F6D6D6974202D616D39
:100100002022002D3E006572676F646F785F657A0C
:100110002F6576616E204020302E362E3131320030
:100120006572676F646F785F657A2F6576616E20A0
:100130004020302E362E313132000000F0A1450033
:100140002B00E101E100E00000001E0014000400AB
:100150001D00E30001001F001A0016001B0035649B
:100160002800200008000700060034022C002100AF
:100170001500090019002E000158220017000A007E
:10018000050000002D002F002F02000026020000B5
:100190002900300030020000270200004C0023003C
:1001A0001C000B0011000000E05C240018000D0092
:1001B00010002102025825000C000E0036000157E5
:1001C0002C00260012000F003700025733002700D2
:1001D000130033003800035701002A0031003400B7
:1001E000E500045700004500010001000100010086
:1001F00000003A001E02200222020100DF5C3B00E8
:100200001F02210223020100C75C3C002F022602CC
:100210002F000100C85C3D003002270230000100C1
:1002200001003E003102350035020000C15C0100D2
:1002300001000000010000002900540055000000EA
:1002400056000000C05C3F005F005C0059000000E9
:10025000DE5C400060005D005A006200C35C41004B
:1002600061005E005B0037005800420001000100A1
:1002700001002E00570043000100010001000100B1
:10028000C45C4400450001000100010000000100C1
:100290000100010001000100000001000100010057
:1002A0000100010001000100010001000100010046
:1002B0000100010001000100010001000100010036
:1002C0000100010001000100010001001765E15C6F
:1002D0000100000001000100010000000100000019
:1002E0000100010001000000010000000100010008
:1002F00001000100010000000100010001000100F7
:1003000001000100010001000100010001000100E5
:1003100001000100010001000100010001000100D5
:1003200001000100010001000100010001000100C5
:1003300001000100000001000100010001000100B6
:1003400000000100010001000100010001000100A6
:100350000100010001000100010001000100010095
:100360000100010001000100010001000100010085
:100370000100010001000100010000000100010076
:100380000100000001000000010001000100000068
:100390000100000001000100010001000100000057
:1003A0000100010001000100010001000100010045
:1003B0000100010001000100010001000100010035
:1003C0000100010001000100010001000100010025
:1003D0000100010001000100010001000000000017
:1003E0000000000000002A2B280000000000000090
:1003F00000000000000000000029000000002C1E8A
:100400003420212224342627252E362D3738271E46
:100410001F202122232425263333362E37381F046C
:1004200005060708090A0B0C0D0E0F101112131404
:1004300015161718191A1B1C1D2F3130232D3504C2
:1004400005060708090A0B0C0D0E0F1011121314E4
:1004500015161718191A1B1C1D2F3130354C0000AA
:10046000000000000000000000000000000000008C
:10047000000000000000000000000000000000017B
:100480000101010101000101010100000000000063
:100490000000000000000000010001000101010156
:1004A000010101010101010101010101010101013C
:1004B0000101010101010101010000000101000031
:1004C000000000000000000000000000000000002C
:1004D0000000000000000000000101010100000414
:1004E0006801F000B40078005A007F3F1F643214A6
:1004F000643214783C1E1E140A050000000000013E
:1005000001010101010101010202020202020202D3
:1005100002030303030303030304040404040405A4
:100520000505050506060606060707070708080865
:10053000080909090A0A0A0A0B0B0B0C0C0C0D0D11
:100540000D0E0E0F0F0F10101111111212131314A4
:1005500014151516161717181819191A1A1B1C1C1A
:100560001D1D1E1F1F202021222223242525262772
:100570002728292A2B2B2C2D2E2F2F3031323334A4
:100580003536363738393A3B3C3D3E3F40414243B1
:1005900044464748494A4B4C4D4F5051525355568B
:1005A00057585A5B5C5E5F606263646667696A6C39
:1005B0006D6E707173747678797B7C7E80818384B4
:1005C00086888A8B8D8F91929496989A9B9D9FA1F5
:1005D000A3A5A7A9ABADAFB1B3B5B7B9BBBDBFC1FB
:1005E000C4C6C8CACCCFD1D3D6D8DADCDFE1E4E6C2
:1005F000E8EBEDF0F2F5F7FAFCFF04033000000041
:1006000016034500720067006F0044006F00780019
:10061000200045005A0000001603450072006700E4
:100620006F0044006F007800200045005A00000071
:100630000403090409026D00040100A0FA09040082
:1006400000010301010009211101000122400007FE
:1006500005810308000A09040100010301020009E1
:100660002111010001224D000705820308000A093B
:1006700004020001030000000921110100012236DB
:10068000000705830308000A0904030001030000B2
:10069000000921110100012239000705840320000F
:1006A000011201100100000008EDFE071301000116
:1006B00002030105010906A101050719E029E71553
:1006C0000025019508750181020508190129059584
:1006D000057501910295017503910105071900291E
:1006E000F71500250195F875018102C00501098003
:1006F000A10185021601002603001A81002A830049
:10070000751095018100C0050C0901A10185031632
:100710000100269C021A01002A9C02751095018195
:1007200000C005010902A1010901A1000509190183
:1007300029051500250195057501810295017503AF
:1007400081010501093009311581257F9502750860
:10075000810609381581257F950175088106050CEC
:100760000A38021581257F950175088106C0C005EC
:10077000010906A101050719E029E71500250195E2
:100780000875018102950175088101050819012983
:1007900005950575019102950175039101050719EC
:1007A0000029FF150026FF00950675088100C0008E
:1007B00011241FBECFEFDAE0DEBFCDBF12E0A0E014
:1007C000B1E0EEE7FBE602C005900D92A635B10759
:1007D000D9F724E0A6E5B2E001C01D92AB33B20721
:1007E000E1F70E94A42C0C94BD350C94000080B35A
:1007F0008C7080BB81B3836F81BB089584B1807F8F
:1008000084B985B1807F85B98AB1837F8AB98BB17C
:10081000837F8BB93E9846980895CF93C82F873031
:1008200080F58091000190910101892B99F564E692
:1008300070E080E40E949305909301018093000191
:10084000892BD1F464E670E082E10E94E805909380
:10085000010180930001892B79F481E090E001C0CF
:10086000880FCA95EAF764E670E080950E94E80573
:10087000909301018093000184E690E0CF910C9465
:100880003B068A30B9F040F4883071F0893079F055
:10089000209A2898CF9108958C3091F070F08D3087
:1008A000B9F73E9A4698F6CF219A2998F3CF229A23
:1008B0002A98F0CF239A2B98EDCF529A5B98EACFE3
:1008C000539AFCCFCF93873008F042C0809100014B
:1008D00090910101C0E0892B81F464E670E080E42E
:1008E0000E9493059093010180930001892B41F0B0
:1008F000C0E084E690E00E943B068C2FCF910895E3
:1009000064E670E083E10E94E80590930101809322
:100910000001892B69F764E670E081E40E94930589
:100920009093010180930001892B11F784E690E0F8
:100930000E94170697FF05C0909301018093000164
:10094000D7CFC82FC0951092010110920001D1CFCE
:10095000CFB18FB1869586958C73C3708C2BC82FC1
:10096000C095CBCF08950C94B2040E94DF0690E0AE
:1009700090930101809300010E94FE030E94F703FF
:10098000EBEAF2E087E592E01192DC0126E01D92AD
:100990002150E9F7069622E0E93BF207A9F70C940B
:1009A000B7080E94DF0690E0909301018093000158
:1009B0000E94FE030E94F703EBEAF2E0119282E04C
:1009C000E93BF807D9F7089596E0899FF0011124D3
:1009D000E95AFD4F30E020E080E041E050E09191A5
:1009E000992351F0DF01119791509C932F5F3F4F56
:1009F00026303105A1F70895BA01022E01C0660F15
:100A00000A94EAF7862BF2CF96E0699FB001112491
:100A100030E020E090E04FE0FC01022E02C0F595AE
:100A2000E7950A94E2F7E0FF06C0F901E60FF71F29
:100A3000E95AFD4F40832F5F3F4F2630310561F764
:100A40000895EF92FF920F931F93CF93DF938091BE
:100A5000000190910101892B91F0809156028F5FE6
:100A60008093560281110BC00E94DF0690E09093A4
:100A7000010180930001892B11F40E9489060BEA81
:100A800012E0C0E08C2F0E940D0487E0F82EFC0ECF
:100A90008F2D0E940D048C2F0E94E404E82E8C2FD1
:100AA0000E946204F80191918F01DE2DD095D92327
:100AB0008E21D82B6C2F892F8D270E940405F801D9
:100AC0003197D0838F2D0E94E404E82E8F2D0E9451
:100AD0006204F8019681DE2DD095D9238E21D82B82
:100AE0006F2D892F8D270E940405F801D6830E945F
:100AF000FE03CF5FC73031F60E94B90881E0DF9175
:100B0000CF911F910F91FF90EF900895E82FF0E0A3
:100B1000E555FD4F8081089508951092B9008CE04D
:100B20008093B8000895EF92FF920F931F93CF9395
:100B3000DF93182FEB011092BC0084EA8093BC0075
:100B40000E940B267C018091BC0087FF0DC0809124
:100B5000B900887F8830D9F08091B900887F8031D2
:100B6000B1F08FEF9FEF0CC0CF3FDC0761F30E9425
:100B70000B268E199F098C179D0728F38EEF9FEF88
:100B8000DF91CF911F910F91FF90EF9008951093F7
:100B9000BB0084E88093BC000E940B268C018091EE
:100BA000BC0087FF0AC08091B900887F883111F0AE
:100BB0008034B9F690E080E0E3CFCF3FDC0779F3F3
:100BC0000E940B26801B910B8C179D0740F3D6CFFC
:100BD0000F931F93CF93DF93EB018093BB0084E8C7
:100BE0008093BC000E940B268C018091BC0087FF83
:100BF00011C02091B900287F81E090E0283211F4E3
:100C000090E080E0919581959109DF91CF911F91BE
:100C10000F910895CF3FDC0741F30E940B26801B04
:100C2000910B8C179D0708F38EEF9FEFEECF0F937C
:100C30001F93CF93DF93EC0184E88093BC000E9464
:100C40000B268C018091BC0087FF08C08091BB00FF
:100C500090E0DF91CF911F910F910895CF3FDC0776
:100C600089F30E940B26801B910B8C179D0750F374
:100C70008EEF9FEFEECF0F931F93CF93DF93EC0197
:100C800084E98093BC000E940B268C018091BC00FB
:100C900084FD07C090E080E0DF91CF911F910F911C
:100CA0000895CF3FDC0791F30E940B26801B910B28
:100CB0008C179D0758F38EEF9FEFEECF259A2D9A54
:100CC0000895269A2E9A0895279A2F9A089556984D
:100CD0005E98089525982D98089526982E98089541
:100CE00027982F9808950E9467060E946A060E941E
:100CF0006D060C94700690E09093890080938800B4
:100D000090938B0080938A0090938D0080938C0049
:100D100008950E9473068FEF0E947B060E945E0674
:100D20002FEF80E792E0215080409040E1F700C033
:100D300000000E9461062FEF80E792E02150804082
:100D40009040E1F700C000000E9464062FEF80E7AA
:100D500092E0215080409040E1F700C000000E94E6
:100D60006A062FEF80E792E0215080409040E1F743
:100D700000C000000E946D062FEF80E792E0215036
:100D800080409040E1F700C000000E9470060C9483
:100D9000730689EA8093800089E08093810024981B
:100DA0002C983F988AB18F7C8AB96E98479A8BB1FC
:100DB00080638BB9769A0E9489060C94670780E25B
:100DC00090E090930101809300018091B90281111C
:100DD0000EC00E948D0581E08093B9022FEF83ED54
:100DE00090E3215080409040E1F700C0000064E6AD
:100DF00070E080E40E9493059093010180930001CC
:100E0000892B09F050C064E670E080E00E94E8059C
:100E10009093010180930001892B09F044C064E69E
:100E200070E080E00E94E80590930101809300014A
:100E3000892BC9F564E670E08FE30E94E805909382
:100E4000010180930001892B71F584E690E00E94F6
:100E50003B0664E670E080E40E94930590930101F4
:100E600080930001892BF9F464E670E08CE00E9425
:100E7000E8059093010180930001892BA1F464E6B9
:100E800070E080E00E94E8059093010180930001EA
:100E9000892B49F464E670E08FE30E94E8059093A3
:100EA00001018093000184E690E00E943B0680915E
:100EB00000010895611108C0FC018281882321F09E
:100EC00080E291E00E94B40890E080E008950895E7
:100ED0009C01FB0182818823A1F12E3DFCE53F07A7
:100EE000D9F040F42C3DECE53E0769F02D3D3C4542
:100EF00071F00895203E9CE53907E9F088F0213E25
:100F00003C45E1F008950E94D02480E0089586E0F9
:100F100091E00E94B408F9CF81E00E944312F5CF1E
:100F20000E94591282E00E9443124CE46FEA85E667
:100F30000E947B10EACF83E091E0EBCF82EF90E05C
:100F4000E8CF81E00895CF92DF92EF92FF92CF93A6
:100F50006B017C010E948324C82F0E9467060E94B7
:100F60006A060E946D060E947006C150C73078F470
:100F7000EC2FF0E0E254F84F0C946F35C507D10721
:100F8000D607CF07D407DB07D9070E945E06C70143
:100F9000B601CF91FF90EF90DF90CF9008950E941F
:100FA0005E060E946106F3CF0E945E060E94640600
:100FB000EECF0E945E060E946106F8CF0F931F934A
:100FC000CF93DF938C01EB019A9581159F41B8F483
:100FD00010FF03C080EEFB01099511FF03C081EEF5
:100FE000FE01099512FF03C082EEFE01099513FF71
:100FF00003C083EEFE0109950115104128F4DF912D
:10100000CF911F910F91089584EEFE01099585EE11
:10101000FE01099586EEFE01099587EEFE01DF913E
:10102000CF911F910F910994877091E001C0990FA2
:101030008A95EAF7892F0E9458240C940E240C9468
:101040001408877091E001C0990F8A95EAF7892FFB
:101050000E945E240C940E240C942108CF93DF93FD
:10106000EC01805E9109089720F064E178E0209718
:1010700011F46FE178E0CE010E94DE078C2FDF9142
:10108000CF910C94B619CF93DF93EC010E94971A7D
:10109000CE01805E9109089720F061E278E0209708
:1010A00011F46CE278E0CE01DF91CF910C94DE0771
:1010B00081E008950C946807CF9390E0FC01E25220
:1010C000FC4FC491825A9B4FFC018491882369F0A4
:1010D00081EE0E94B6198C2F0E94B6198C2F0E94A7
:1010E000971A81EECF910C94971A8C2F0E94B61903
:1010F0008C2FF8CFFF920F931F93CF93DF938C0128
:10110000F62EF8018491882349F1E8012196813077
:1011100049F4FE011491812F0E94B619812F0E947B
:10112000971A06C0823089F4FE0184910E94B61994
:101130008E010F5F1F4F8F2D815018F3EFE9FFE0F5
:101140003197F1F700C00000F7CF833019F4FE01AA
:101150008491E5CF0E945C08E801EACFDF91CF914E
:101160001F910F91FF90089560E00C947A080C9401
:10117000C9060E94CF170C94B304282F2F7041F09A
:10118000822F90E02A3010F44D9608950697089526
:1011900087E290E0089508950C94CB080C94CC0855
:1011A00008950E94131E0E94D0082FEF84E39CE054
:1011B000215080409040E1F700C000000C94672669
:1011C000FF920F931F93CF93DF938C01FC01C0819B
:1011D000D18180911403811161C08281882309F437
:1011E00058C0CE010E945A23F82E682FCE010E94CB
:1011F000FE22BE018F2D0E94BF0BEC01B8010E94A0
:101200003117B801CE010E945A08882309F40EC193
:10121000B801CE010E947517882309F407C1B801EF
:10122000CE010E94300E882309F400C1B801CE011E
:101230000E947F0E882309F4F9C0C93CFCE5DF0752
:1012400009F42DC108F061C0C13C9CE5D90709F43F
:10125000FEC0C8F5C531FCE5DF0728F5C2308CE5D6
:10126000D80708F09BC1C1159CE5D90709F4D9C07E
:10127000C130DC4509F4E1C081E08093BF02809376
:10128000C002C801DF91CF911F910F91FF900C9484
:101290005808CE010E942E23F82EABCFCE010E941B
:1012A0005A23BE01A8CFC531FCE5DF0709F446C2C9
:1012B000C03CDC4509F7F8018281882309F4B6C0F7
:1012C0000E94DF12B3C0F8018281C53CFCE5DF0754
:1012D00009F4D6C068F4C33CECE5DE0709F4CBC0E2
:1012E00008F4C0C0882309F4A1C00E9480119EC0E8
:1012F000C73C9CE5D90709F4CDC008F4C6C08823D3
:1013000009F494C00E94DB1191C0C13DFCE5DF07E8
:1013100009F414C1F0F5F8018281CD3CFCE5DF074A
:1013200009F4D1C0D8F4CB3CECE5DE0709F4C4C025
:1013300008F4BCC0882309F479C00E942A106230E6
:1013400071058105910540F00E942A1065307105F4
:101350008105910508F48CC082E0B2C0CF3C9CE5C9
:10136000D90709F4D7C008F4C1C0882309F45EC0C6
:101370000E942A10653171058105910540F00E9497
:101380002A10673171058105910508F471C085E166
:1013900097C0C53DFCE5DF0709F4A4C1C0F4F8011E
:1013A0008281C33DFCE5DF0709F4E3C008F4CDC04A
:1013B000882309F477C11092BF020E940B269093F4
:1013C000BC028093BB0282E00E94EB1A2FC0C93D91
:1013D000ECE5DE0709F4D2C0CA3DFCE5DF0709F4FD
:1013E000D6C0C63DDC4509F047CFF80182818111A6
:1013F0007DC18091C00281119FC18091BD029091F9
:10140000BE020E9417268337910508F095C180E23D
:101410000E94F21A88E20E94B61988E20E94971A86
:1014200005C0F801828181110E94D10880E0DF911E
:10143000CF911F910F91FF900895F8018281882329
:10144000A9F38091B30381608093B303EFCFF801D8
:101450008281882359F30E944124827249F00E94BC
:101460005012E4CF882311F30E9441248272B9F311
:101470000E944612DBCF8823C9F20E946811D6CFA2
:101480008823A1F20E949F11D1CF882379F20E9474
:10149000B111CCCF882351F20E94C311C7CFF801FC
:1014A0008281882319F20E943810C0CF882309F462
:1014B000BDCF0E944D10BACF882309F4B7CF81E089
:1014C0000E944312B3CF882309F4B0CF0E942A10A0
:1014D000663071058105910538F00E942A10683048
:1014E00071058105910520F286E0EACF882309F491
:1014F0009DCF0E942A10693071058105910540F049
:101500000E942A106E3071058105910508F4B0CF54
:1015100089E0D6CF882309F489CF0E942A106F3042
:1015200071058105910540F00E942A106431710512
:101530008105910508F49CCF8FE0C2CFF80182812C
:10154000882309F473CF88E1BBCF882309F46ECFD9
:101550000E942A10693171058105910540F00E94B1
:101560002A10623271058105910508F481CF89E165
:10157000A7CF882309F45ACF83E2A2CFF801828152
:10158000882309F453CF80E00E943F2D4FCFF8010C
:101590008281882309F44ACF82E0F6CFF801828164
:1015A000882309F46ECE0E94F124811102C00E94AA
:1015B000D0240E94042590E090932D0480932C0465
:1015C000FE01E350FC4580912C048160E231F1057D
:1015D000C8F4E351F54F0C946F35FF0A0B0B0F0B5A
:1015E000130B170B1B0B1F0B230B270B2B0B2F0B9B
:1015F000330B370B3B0B3F0B430B470B4B0B8091D4
:101600002C04826080932C0480912C040E94082575
:101610000E94131E0BCF80912C048460F3CF809125
:101620002C048860EFCF80912C048061EBCF8091F7
:101630002C048062E7CF80912C048064E3CF8091FA
:101640002C048068DFCF80912C048460EACF8091E5
:101650002C048E7FD7CF80912C048D7FD3CF8091A7
:101660002C048B7FCFCF80912C04877FCBCF8091B0
:101670002C048F7EC7CF80912C048F7DC3CF8091A7
:101680002C048F7BBFCF80912C048F77BBCF8091B0
:101690002C048B7FEACF90912C04892F97FB87F93C
:1016A0008058B0CF0E94412485FF05C081E080931F
:1016B000BF028093C0028091BF0281110FC0809150
:1016C000BB029091BC020E9417268337910530F42B
:1016D00086E20E94B61986E20E94971A82E00E9472
:1016E000F21AA4CEF8018281882351F01092C00230
:1016F0000E940B269093BE028093BD0280E264CECE
:101700000E94412481FF05C081E08093BF02809345
:10171000C0028091C00281110FC08091BD029091E2
:10172000BE020E9417268337910530F487E20E949B
:10173000B61987E20E94971A80E2D1CF0E94412415
:10174000F8019281992381F08A7A91E009F490E07E
:101750009093BA02811106C089E20E94CA230E94B6
:101760000E2464CE85E3F9CF8091BA02811104C0C2
:1017700089E20E94D123F3CF85E3FBCF0895972F11
:1017800070E026E0929F600D711D1124FB0194E52D
:10179000899FE00DF11D1124EE0FFF1FE25CFE4F4B
:1017A000859194910895FC01EE0FFF1FE65CFE4FBA
:1017B000859194910895CF93DF930E94BF0B0E946F
:1017C0008C0DEC018115904508F043C0C11580E4F3
:1017D000D80708F013C1C83ED10528F5C03ED10591
:1017E00008F0A7C0C83AD10580F4C53AD10508F081
:1017F00096C0C130D10509F49CC020F0C430D10599
:1018000008F097C0D0E0C0E094C0CD3BD10508F40B
:1018100094C0CE01805C9109C03CD10598F30E9430
:10182000D30BEC0186C0C11520E2D20750F4C115DC
:1018300081E0D80708F07DC0C03FD10518F3D0651E
:1018400078C0C11520E3D20708F0CEC0CE019F704A
:10185000E6CFC11585E5D80760F5C11524E5D207A7
:1018600008F0FAC0C11582E5D80750F4C11521E58A
:10187000D20708F4C6C0DC2FCC27C16FD06A59C08C
:101880009C2F969596959E0123703327C115D345BD
:1018900008F0D3C0C1E0D0E002C0CC0FDD1F2A9514
:1018A000E2F720E2929FC0011124C82BD92BDC68FB
:1018B00040C0C1152AE5D207A0F4C11589E5D807B3
:1018C00008F0D5C0C11526E5D20708F4CAC0C11575
:1018D00088E5D80708F496CFDC2FCC27C06FD06AF4
:1018E00028C0C1152BE5D20708F48CCFC1158CE5B3
:1018F000D80708F4C9C0CE0190568115904208F06F
:1019000081CF8D2F8F710E940C0EDD27D06290E069
:10191000982F882788279F71C82BD92B0AC0C53AD2
:10192000D10509F4B4C0C63AD10509F4B3C0C3E87F
:10193000D0E4CE01DF91CF910895C83AD10509F4E2
:10194000ACC0C93AD10509F4ABC0CA3AD10509F413
:10195000AAC0CB3AD10509F4A9C0CC3AD10509F403
:10196000A8C0CB3BD10509F4A7C0CC3BD10509F4F5
:10197000A6C0CD3AD10509F4A5C0C03BD10509F4F4
:10198000A4C0CE3AD10509F4A3C0CF3AD10509F4D9
:10199000A2C0C13BD10509F4A1C0C23BD10509F4E5
:1019A000A0C0C33BD10509F49FC0C43BD10509F4D5
:1019B0009EC0C53BD10509F49DC0C63BD10509F4C5
:1019C0009CC0C73BD10509F49BC0C83BD10509F4B5
:1019D0009AC0C93BD10509F499C0CA3BD10509F0A9
:1019E00098C0CAE2D6E4A5CFCE019927D3FF03C0A1
:1019F000EC01D86C9ECFEC01D06C9BCFDF70D06A2D
:101A000098CFCE01E4E096958795EA95E1F783704B
:101A10009C2F937021E030E002C0220F331F9A9573
:101A2000E2F73C68382BC695C695C37080E2C89F24
:101A3000E0011124C22BD32B7CCFC1E0D0E002C047
:101A4000CC0FDD1F2A95E2F720E2929FC0011124FE
:101A5000C82BD92BDA686DCFDC2FCC27C46FD06AA6
:101A600068CFDC2FCC27CC27DF71D06262CFCE01CC
:101A700034E0969587953A95E1F78F70CF70C06EF8
:101A8000D0E0D06AD82B55CFDD27D06652CFC1E841
:101A9000D0E44FCFC2E8D0E44CCFC2EED4E449CF7B
:101AA000C9EED4E446CFCAEED4E443CFC5EBD4E4C8
:101AB00040CFC6EBD4E43DCFC3EBD4E43ACFC4EB84
:101AC000D4E437CFC7EBD4E434CFCCECD4E431CF7B
:101AD000CDECD4E42ECFC3E8D5E42BCFCAE8D5E4CF
:101AE00028CFC2E9D5E425CFC4E9D5E422CFC1E2AD
:101AF000D6E41FCFC3E2D6E41CCFC4E2D6E419CFAC
:101B0000C5E2D6E416CFC6E2D6E413CFC7E2D6E4E8
:101B100010CFC0E0D4E40DCF8238910549F1B0F484
:101B20008133910509F45CC048F48932910509F4C8
:101B300052C08A32910509F458C008958533910541
:101B400009F444C08933910599F00895833E9105C5
:101B500031F138F4803E910591F0823E9105B1F06B
:101B60000895863E910511F1873E910541F1089552
:101B700020912C042370C9F080EE90E0089520910C
:101B80002C0420FF12C089E390E0089520912C04DA
:101B900022FF0BC024FF2EC090E080E0089520912A
:101BA0002C0422FD2AC024FDF7CF089520912C0497
:101BB00023FFFBCF24FDF0CF87EE90E00895209126
:101BC0002C0423FFF0CF86EE90E0089520912C04A2
:101BD00025FD16C0089520912C0425FD14C00895FC
:101BE00020912C0426FD12C0089520912C0426FD7E
:101BF00010C0089583EE90E0089582EE90E008957D
:101C000089E290E0089585E390E008958AE290E00B
:101C1000089581E390E0C9CF90912C0492FF06C013
:101C2000282F2871283069F4877F846093FF06C0CD
:101C3000282F2871283161F4877E846194FD877E86
:101C40000895282F2471243089F78B7F8860EECF88
:101C5000282F2471243191F78B7E8861EFCF08956E
:101C60000F931F93CF938C01FB018281811106C0DA
:101C7000C1E08C2FCF911F910F910895C091CE029A
:101C8000C11125C006311C4599F70E942F0E81E035
:101C90008093CE020E940B269093CD028093CC02BB
:101CA0001092C1021092C3021092C2021092C50299
:101CB0001092C4021092C7021092C6021092C9027A
:101CC0001092C8021092CB021092CA02D2CF809119
:101CD000CC029091CD020E9417268C32914040F6A2
:101CE0008091C102E82FF0E0EE0FFF1FEE53FD4F91
:101CF000118300838F5F8093C102C0E0BACFCF937E
:101D0000DF93EC01C13080E8D807C8F0FB01828185
:101D10008823A9F08091CF02811109C08CE090E066
:101D20000E9475350E94A30E81E08093CF020E942D
:101D3000AA0ECE019F770E94750F0E94270F81E0A7
:101D4000DF91CF9108958093D002682F8CE090E0CE
:101D50000C948935E0917D01F0917E018081809322
:101D6000E40381FF03C081EE0E94971A8091E4038F
:101D700085FF03C085EE0E94971A8091E40380FFDF
:101D800003C080EE0E94971A8091E40384FF03C091
:101D900084EE0E94971A8091E40382FF03C082EED2
:101DA0000E94971A8091E40386FF03C086EE0E948A
:101DB000971A8091E40383FF03C083EE0E94971A71
:101DC0008091E40387FF03C087EE0E94971A8091F9
:101DD000D002823049F158F4882379F0813089F0BB
:101DE0008FE39CE90197F1F700C00000089584306B
:101DF00019F18530A9F786EE01C082EE0E94B6196E
:101E0000EFCF80EE0E94B61981EE0E94B61988E1EC
:101E10000E94B61988E10E94971A81EE0E94971AD3
:101E200080EE0E94971ADCCF82EE0E94B61987E5F9
:101E30000E94B61987E5F5CF86EE0E94B61986EEA8
:101E40000E94971A88E10E94B61988E1EACF809132
:101E5000D002813009F443C0E0F18230D1F1853005
:101E6000E1F18091E40381FF03C081EE0E94B61985
:101E70008091E40385FF03C085EE0E94B61980912E
:101E8000E40380FF03C080EE0E94B6198091E40352
:101E900084FF03C084EE0E94B6198091E40382FFA0
:101EA00003C082EE0E94B6198091E40386FF03C04E
:101EB00086EE0E94B6198091E40383FF03C083EE8F
:101EC0000E94B6198091E40387FF0EC087EE0C9440
:101ED000B61982EE0E94971AC4CF86EEFBCF8CE231
:101EE0000E94B6198CE2F6CF0895EF92FF921F93ED
:101EF000CF93DF937C01CCE0D0E0C7010C2E02C071
:101F0000969587950A94E2F7182F1F70812F0E94EB
:101F1000BD080E94B619812F0E94BD080E94971A21
:101F20002497CC3F8FEFD80741F7DF91CF911F91D6
:101F3000FF90EF900895CF92DF92EF92FF920F9370
:101F40001F93CF93DF93E901662309F466C0E42E63
:101F5000F12CEFEFF0E0E61BF109EE9D8001EF9D23
:101F6000100DFE9D100D1124212FE12FFF27EE1AD9
:101F7000FF0A5CE3C52ED12CB6010E944735FB0158
:101F8000BC01E69EC001E79E900DF69E900D1124C7
:101F9000B6010E944735E230F10589F168F4812FDE
:101FA000262F210F309781F0242F461B319761F0A7
:101FB00080E020E040E008C0E430F10551F128F174
:101FC000842F861B3597A1F7E42FF0E0E650FB4FF6
:101FD0004491E22FF0E0E650FB4F9491E82FF0E0BF
:101FE000E650FB4FE49149839883EA83DF91CF91D8
:101FF0001F910F91FF90EF90DF90CF900895862F63
:10200000810FE42F412F2E2FDFCFE42FE61B842FEB
:10201000F9CF842F462F410FD7CF842F242FD4CF31
:1020200088E090E00C947D35AB01BC0188E090E045
:102030000C949B35E5EEF3E083E080831092E60399
:102040008FEF828383831482608171818281938187
:102050000C9414106091E50360FF06C066956F73E1
:1020600070E090E080E0089560E070E0CB010895BA
:102070008091E90390E001968430910514F083E0AB
:1020800090E08093E9036091E5037091E60380910D
:10209000E7039091E8030C9414108091E9038150B8
:1020A000990B97FF02C090E080E08430910514F016
:1020B00083E090E08093E9036091E5037091E6038B
:1020C0008091E7039091E8030C9414108091E5034C
:1020D000EAEEF3E080FF06C06FE070E08AEE93E086
:1020E0000C946116118210821282349684E0E632DA
:1020F000F807C1F7F1CF9091E50390FF0CC0EAEE2D
:10210000F3E0818360834283349694E0E632F907FA
:10211000C1F70C9466100895CF93DF9300D000D0E0
:10212000CDB7DEB72091E50320FF0AC09E012F5FE7
:102130003F4F0E949B0F4B8169818A810E947B10D7
:102140000F900F900F900F90DF91CF9108953F92D5
:102150004F925F926F927F928F929F92AF92BF92B7
:10216000CF92DF92EF92FF920F931F93CF93DF9363
:1021700000D000D0CDB7DEB78C01462E542E322EC3
:102180008091E50380FF30C0982F9E77923009F050
:1021900041C09E012F5F3F4FC8010E949B0F4B81A2
:1021A00069818A810E947B108091E50300FB87F999
:1021B0008093E503902F96958091E6038078892B94
:1021C00010FB87F98093E6034092E7035092E803FF
:1021D000332051F06091E5037091E6038091E703AD
:1021E0009091E8030E9414100F900F900F900F90A1
:1021F000DF91CF911F910F91FF90EF90DF90CF90E3
:10220000BF90AF909F908F907F906F905F904F9016
:102210003F900895E82FE695EF739EE39E0F9F731E
:10222000943018F45090E803BFCF9AE39E0F9F7349
:10223000993068F4881F8827881F9091E603292F1A
:10224000220F022F082B97FB112710F9ADCF87E241
:102250008E0F8F738A3008F0A7CFE951FF0B2FEF55
:10226000E0FF21E0EE7FE052FB4F859194916FE01B
:1022700070E00E94473526033001279F700C11241F
:10228000680188E9C81A8EEFD80A8AEEE82E83E042
:10229000F82E96E2A92E94E0B92E28E6822E9924F3
:1022A0009394C601B4010E9447359701452D642DD2
:1022B0000E949B0FC60CD71C84E0E80EF11CAE14E4
:1022C000BF0479F70E9466106FCF21E00C94A7102D
:1022D000E5EEF3E02081221F2227221F3091E60342
:1022E000432F440F842F822B37FB992790F90C96AC
:1022F00068E671E00E945B35438162810C94651150
:102300002091E503221F2227221F3091E603432F4D
:10231000440F842F822B37FB992790F98C3091053D
:1023200040F4845A9E4F4091E8036091E7030C9477
:1023300065110C9768E671E00E945B35F4CFE5EE1D
:10234000F3E08081881F8827881F9091E603292F5A
:10235000220F97FB992790F943816FEF822B0C9402
:102360006511E5EEF3E08081881F8827881F909132
:10237000E603292F220F97FB992790F9438160E00C
:10238000822B0C9465114091E803443F90F4445F24
:102390008091E503881F8827881F9091E603292FE5
:1023A000220F97FB992790F96091E703822B0C94F9
:1023B00065114FEFEDCF4091E8034C3090F04C5059
:1023C0008091E503881F8827881F9091E603292FB5
:1023D000220F97FB992790F96091E703822B0C94C9
:1023E000651140E0EDCF20E00C94A7109091E5033B
:1023F00090FF48C09178811128C092609093E503C6
:10240000662351F06091E5037091E6038091E70344
:102410009091E8030E9414108091E503282F2E77F5
:102420002230D9F41092EE02881F8827881F9091DD
:10243000E603292F220F97FB992790F94091E80393
:102440006091E703822B0C94F311853210F09864AD
:10245000D5CF8F73880F982BD1CF982F96959F73D8
:102460003EE3390F3F73373120F0263411F0283422
:1024700021F491E09093EE02D7CF995D9F739A304B
:1024800098F6D0CF089561E00C94F6118091E503A1
:1024900086958F738F5F853208F081E00C9443122C
:1024A0008091E50386958F73815009F484E20C9442
:1024B0004312E5EEF3E080818160808386958F731F
:1024C0000C94431260E00C94F6118091B303816088
:1024D0008093B3030E94F124811104C00E94D02490
:1024E0000E941A100E9410106093E5037093E60397
:1024F0008093E7039093E8036E7761F40E941A10CB
:102500000E9410106093E5037093E6038093E70345
:102510009093E80381E08093EE028091E50380FFD1
:1025200004C086958F730C94621208959091E50310
:1025300090FF0DC02F3058F494E0299FF001112432
:10254000E651FC4F8183608342830C9466100895AA
:102550001F93CF93DF9300D000D0CDB7DEB7122FFB
:102560002091E50320FF0BC09E012F5F3F4F0E948B
:102570009B0F212F4B8169818A810E9496120F90B7
:102580000F900F900F90DF91CF911F910895E5EE7E
:10259000F3E080818E7F808360817181828193816D
:1025A0000E9414101092EE022FEF80E792E021506B
:1025B00080409040E1F700C000000C9466108091CC
:1025C000E50380FD0C94C7120C945912CF93C82FC9
:1025D0008091EC029091ED020E941726EC2FF0E022
:1025E000EA50FB4FE491E817190611F008F042C0D9
:1025F0000E940B269093ED028093EC026091EB0217
:1026000070E090E080E00E94483320E030E04FE747
:1026100053E40E946B322BED3FE049E450E40E940A
:1026200071340E94DE340E94E5322BE43AE34EE23C
:102630005FE30E94FE3120EF3BEF48ED52E40E9441
:1026400071340E941733462F8091E503881F882735
:10265000881F9091E603292F220F97FB992790F965
:102660006091E703822B0E948C108091EB028F5FB8
:102670008093EB02CF910895CF93C82F8091E90208
:102680009091EA020E941726EC2FF0E0ED50FB4FEC
:10269000E491E817190609F0E8F40E940B269093DC
:1026A000EA028093E9024091E8036091E703809198
:1026B000E7029091E8020E948C108091E7029091CD
:1026C000E802019668E671E00E9447359093E802BF
:1026D0008093E702CF910895CF92DF92FF920F93FC
:1026E0001F93CF93DF93F82E8091E5029091E6023D
:1026F0000E941726EF2DE695F0E0E051FB4FE491A4
:10270000E817190609F0A8F50E940B269093E60237
:102710008093E5020AEE13E0D0E0C0E088E6C82E20
:10272000DD24D3948091E3029091E4028C0F9D1FED
:10273000B6010E94473598014091E8036091E70394
:102740000E949B0F68960C5F1F4FC83681E0D80728
:1027500049F70E9466108091E3029091E402F0FE36
:1027600010C00196BE010E9447359093E402809309
:10277000E302DF91CF911F910F91FF90DF90CF90F7
:1027800008950197F2CFCF92DF92EF92FF920F93CD
:102790001F93CF93DF93C82FFF24FA9480FD02C0CC
:1027A000FF24F3948091E1029091E2020E941726A7
:1027B000C695EC2FF0E0E351FB4FE491E8171906C2
:1027C00011F008F051C00E940B269093E202809312
:1027D000E1020AEE13E0D0E0C0E0F80111821082BD
:1027E000128294E0C92ED12CE12C8091E0028E0D52
:1027F00087FD815F082E000C990BC817D907E9F4F3
:102800008091E8038C9DA0018D9D500D112455955C
:102810004795559547958091E503881F8827881F20
:102820009091E603592F550F97FB992790F998013E
:102830006091E703852B0E949B0FEF0CF1E0CF1A0C
:10284000D10899F621960C5F1F4FCF30D10529F69C
:102850000E9466108091E00291E0F91210C081118F
:102860000CC08EE08093E002DF91CF911F910F9119
:10287000FF90EF90DF90CF9008958150F3CF90E0DC
:102880000196BE010E945B35EDCF0F931F93CF934E
:10289000DF93C82F8091DE029091DF020E941726FD
:1028A000EC2FF0E0E651FB4FE491E817190611F028
:1028B00008F052C00E940B269093DF028093DE0244
:1028C000CAEED3E0FE01118210821282349684E0B7
:1028D000E632F807C1F710E000E08091DD02082E33
:1028E000000C990B08171907E4F180917B01082E61
:1028F000000C990B80179107A4F18091E503881FC4
:102900008827881F9091E603592F550F97FB992729
:1029100090F99E014091E8036091E703852B0E94A6
:102920009B0F0F5F1F4F24960F301105B1F60E94C9
:10293000661080917A019091DD02980F9093DD02EC
:1029400020917B01280F20937B01121614F49E30F6
:102950001CF0819580937A01DF91CF911F910F91A7
:102960000895198218821A82DCCFEF92FF920F939A
:102970001F93CF93DF938091DB029091DC020E9442
:102980001726883E9340C8F10E940B269093DC02E4
:102990008093DB02C091D902D091DA022196C170F6
:1029A000DD27D093DA02C093D9028AEEE82E83E0C5
:1029B000F82E10E008E7812F86958C0F9D2F911D32
:1029C0008170992797014091E8036091E703FC012A
:1029D0000E9FC0010F9F900D11240E949B0F1F5F3F
:1029E000F4E0EF0EF11C1F3031F7DF91CF911F9112
:1029F0000F91FF90EF900C946610DF91CF911F9193
:102A00000F91FF90EF900895CF93DF9300D000D007
:102A1000CDB7DEB78091D7029091D8020E941726D9
:102A2000EEEDF4E02591349182179307B8F180918F
:102A3000D60281110CC09E012F5F3F4F4FEF6FEF09
:102A400090E080E00E949B0F8A818093D6020E94D2
:102A50000B269093D8028093D7028091D5028130C3
:102A600069F038F04091D602823009F040E080E011
:102A700003C08091D60240E060E004C06091D602BD
:102A800040E080E00E947B108091D50290E00196AA
:102A900063E070E00E945B358093D5020F900F9049
:102AA0000F900F90DF91CF910895CF93DF93809196
:102AB000D3029091D4020E941726843F9140B8F12E
:102AC0000E940B269093D4028093D302D0E0C0E002
:102AD0004091D1025091D2022C2F6091E703809156
:102AE000E503382F331F3327331F9091E603892FD7
:102AF000880F832B97FB992790F9C730D105D4F421
:102B0000452BD1F04091E8030E94A8122196CF30C6
:102B1000D105F1F60E9466108091D1029091D20207
:102B20000196817099279093D2028093D102DF9110
:102B3000CF910895452B31F340E0E6CF8091EE022E
:102B40008823D1F19091E503892F86958F732EE329
:102B5000280F2F73243018F482500C94E6122AE3C5
:102B6000280F2F73233018F486500C943C1327E35E
:102B7000280F2F73263018F489500C946C1321E31E
:102B8000280F2F73263018F48F500C94C3132BE2A8
:102B9000280F2F73233018F485510C9445149E7719
:102BA000903311F40C94B514963411F40C9404156C
:102BB000983411F40C94551508958823B9F0519860
:102BC000599A5098589A95E09A95F1F70000509AC2
:102BD000589895E09A95F1F70000882311F0519AE2
:102BE000599885E08A95F1F700000895519A59980F
:102BF000E8CF8BB18C7F8BB95098589A5198599ADD
:102C000085E08A95F1F7000008958AB18C7F8AB932
:102C100085E08A95F1F70000519A599885E08A95E8
:102C2000F1F70000509A589885E08A95F1F7000076
:102C300008955098589A85E08A95F1F700005198C8
:102C4000599A85E08A95F1F700000895CF93DF93B4
:102C5000D82FC8E08D2F80780E94DD15DD0FC15080
:102C6000C9F780E00E94DD1585E08A95F1F7000044
:102C700085E08A95F1F7000080E0DF91CF9108951B
:102C80003BB1242F209523233BB1432B3FB7F8942E
:102C9000FC01680F791FE617F70711F43FBF08958D
:102CA000819198E04BB9000000C087FF2BB9880FD5
:102CB000000000C000C000C02BB900C09A9591F779
:102CC000EACFAF92BF92CF92DF92EF92FF920F9333
:102CD0001F93CF93DF938C01EB01CFB6D090BC0054
:102CE000F8948091BC008B7F8093BC000E94F91502
:102CF0000E94051684E80E942616CC0FDD1FCC0F1B
:102D0000DD1F78015E01A00EB11EEA14FB04A9F4D8
:102D10000E941916CFBED092BC00579A40E8BE015F
:102D2000C801DF91CF911F910F91FF90EF90DF903D
:102D3000CF90BF90AF900C944016F70181917F0126
:102D40000E942616E2CFCF93DF93EC0181E08F87BC
:102D50008F810E94442488850E9458240E940E245A
:102D6000EA81FB816A897B89CE010696309719F04A
:102D7000DF91CF910994DF91CF910895CF93DF93A5
:102D8000EC018881823039F4FB01828193810E94B9
:102D90002E0881E08987DF91CF910895FC01808121
:102DA000813029F4FB01808191810C942E088230BE
:102DB00021F4FB0182819381F8CF0895FC01808189
:102DC000813029F4FB01808191810C944308823089
:102DD00021F4FB0182819381F8CF0895EF92FF9255
:102DE0000F931F93CF93DF93EC018885811132C03D
:102DF000EB80FC8087E5F81A24E12E9DC0012F9D11
:102E0000900D1124DC01AE5FBE4F1496ED91FC9144
:102E1000159752966D917C91885F9E4F309709F07F
:102E2000099584E18E9D80018F9D100D11240E5F08
:102E30001E4FF80187810E944A24F80180850E9474
:102E40005E240E940E2418821F8219861092F002BE
:102E50001092EF02DF91CF911F910F91FF90EF90B1
:102E60000895DF92EF92FF920F931F93CF93DF931A
:102E70007C01FB018281882391F080917C018F3F4E
:102E800071F0C2E0D1E010E000E0DD24D394809145
:102E90007C01082E000C990B8017910744F4DF91F8
:102EA000CF911F910F91FF90EF90DF9008958E8149
:102EB0008823B9F089859A858E159F0539F480910C
:102EC000EF029091F002E816F90659F0DD868F8541
:102ED000811103C0CE010E94A316CE0106960E9466
:102EE000EE160F5F1F4F6496D2CFEF92FF920F93B3
:102EF0001F93CF93DF937C0197558F3F910509F086
:102F0000D8F520917C01022E000C330B28173907CD
:102F100014F480937C01FB01228134E1389F80010D
:102F2000399F100D1124E801CE5FDE4F2E8792816C
:102F30008E81992349F1FA86E9868F5F8E830E94FC
:102F40000B269C878B870E9480248F830E944124BC
:102F500088870E9455249885892B8887E881F98184
:102F60006A897B89C801885F9E4F309709F009956F
:102F7000F092F002E092EF0281E0DF91CF911F9199
:102F80000F91FF90EF9008958823B1F38F858823E8
:102F900099F3C801885F9E4F0E94EE16EDCFEF9225
:102FA000FF920F931F93CF93DF9380917C0110E0EA
:102FB00004E18F3FC1F5DF91CF911F910F91FF90F9
:102FC000EF900895029FF001039FF00D1124EE5F32
:102FD000FE4FE088F188E114F10419F483E7E82E4C
:102FE000F12C029FE001039FD00D1124CE5FDE4F34
:102FF0008E818823B9F08B859C850E941726E81660
:10300000F90680F4109F700111248F85811105C08D
:10301000C7018E5F9E4F0E94A316C701885F9E4F17
:103020000E94EE161F5F212F30E080917C01082E58
:10303000000C990B821793072CF6BDCF9093F602E4
:103040008093F5020895E091F502F091F602309731
:1030500021F00190F081E02D099480E00895E09145
:10306000F502F091F602309721F00280F381E02D15
:1030700009940895E091F502F091F602309721F05D
:103080000480F581E02D099408952091F302309198
:10309000F4022817390771F09093F4028093F30239
:1030A000E091F502F091F602309721F00680F78169
:1030B000E02D099408952091F1023091F202281731
:1030C000390771F09093F2028093F102E091F502DA
:1030D000F091F602309721F00084F185E02D0994FB
:1030E000089508950C94711881E008950E940226B5
:1030F00085B7806885BF85B7806885BF0E94B504A5
:103100000E9499260C946512BF92CF92DF92EF92A3
:10311000FF920F931F93CF93DF93CDB7DEB72A971C
:103120000FB6F894DEBF0FBECDBF0E9421050E94EE
:103130007418882309F471C088EFC82E82E0D82E55
:1031400010E000E0B02E802F0E948605E82EF601E8
:10315000F1906F01F81609F45AC08091B30381FD14
:103160000E948C0590E080E0FE242F2D30E0482F57
:10317000B901082E02C0759567950A94E2F760FFC1
:1031800041C08E83BF8281E090E06C0102C0CC0C14
:10319000DD1C4A95E2F72E2D30E02C213D21232B1A
:1031A00009F480E088870E940B268160782F9A8737
:1031B00089874E815F8168858A850E946619F8013A
:1031C000E850FD4F80818C2580830E942C280E942E
:1031D00023189091F702891789F10E942318809390
:1031E000F7022A960FB6F894DEBF0FBECDBFDF916F
:1031F000CF911F910F91FF90EF90DF90CF90BF90F4
:103200000C94CE0801968630910509F0B0CF0F5F7F
:103210001F4F0E30110509F095CF8FEF89838A83F8
:103220001B820E940B268160782F9D838C834981AD
:103230005A816B818D810E946619C7CF2A960FB67D
:10324000F894DEBF0FBECDBFDF91CF911F910F91DC
:10325000FF90EF90DF90CF90BF900895CF93DF93D2
:10326000DC018C91682F70E021E030E001C0220F7A
:103270008A95EAF711964C91119750E0EA01CA5FDE
:10328000DC4F988112968C9112978823C9F0809117
:1032900016038823C1F086E0849FF001859FF00D1E
:1032A0001124E60FF71FEE0FFF1FE157FE4F40817D
:1032B00051814D935C93292B2883DF91CF91089501
:1032C000892F8223E6CF20952923F6CFCF93DF9352
:1032D000CDB7DEB72B970FB6F894DEBF0FBECDBFCC
:1032E000942F4F83252F588769877A878B874A8544
:1032F0005B8581E0452B31F02F3F19F481E09F3F42
:1033000009F080E080FD04C0CE0107960E942E19CE
:103310001E821D8285E0FE013796DE011196019026
:103320000D928A95E1F749815A816B817C818D816B
:103330009E810E94D3202B960FB6F894DEBF0FBE5D
:10334000CDBFDF91CF910895FC01808191810E94D2
:103350009C2392959F70963041F48091160391E0E2
:10336000892780931603909315030895CF93C82F50
:10337000882309F4DAC08238C1F40E94231881FD41
:10338000D4C089E30E94CA230E940E242FEF81EE4D
:1033900094E0215080409040E1F700C0000089E3B4
:1033A0000E94D123CF910C940E248338A1F40E9463
:1033B000231880FDBAC083E50E94CA230E940E2410
:1033C0002FEF81EE94E0215080409040E1F700C063
:1033D000000083E5E5CF8438A1F40E94231882FD24
:1033E000A4C087E40E94CA230E940E242FEF81EE1E
:1033F00094E0215080409040E1F700C0000087E455
:10340000CFCF8CEF8C0F813A48F48C2F0E944B2A3F
:1034100081118BC08C2F0E94CA23C4CF80E28C0FF5
:10342000883048F4C77081E001C0880FCA95EAF778
:103430000E944424B7CF8BE58C0F833068F481E879
:1034400090E0C53A31F083E890E0C63A11F482E8A2
:1034500090E0CF910C94451888E58C0F853108F0E9
:103460005EC082EE90E0C83A09F456C089EE90E062
:10347000C93A09F451C08AEE90E0CA3A09F44CC046
:1034800085EB90E0CB3A09F447C086EB90E0CC3A6C
:1034900009F442C083EB90E0CB3BF1F184EB90E088
:1034A000CC3BD1F187EB90E0CD3AB1F18CEC90E0E0
:1034B000C03B91F18DEC90E0CE3A71F183E891E060
:1034C000CF3A51F18AE891E0C13B31F182E991E0D4
:1034D000C23B11F184E991E0C33BF1F081E292E05B
:1034E000C43BD1F083E292E0C53BB1F084E292E0CC
:1034F000C63B91F085E292E0C73B71F086E292E034
:10350000C83B51F087E292E0C93B31F090E080E0A7
:10351000CA3B11F48AE292E0CF910C945B18C03F51
:1035200020F08C2FCF910C943527CF9108958823CC
:1035300009F450C0823871F40E94231881FF4AC0F8
:1035400089E30E94CA230E940E2489E30E94D123AA
:103550000C940E24833859F40E94231880FF3AC03B
:1035600083E50E94CA230E940E2483E5EFCF8438AE
:1035700059F40E94231882FF2DC087E40E94CA23B9
:103580000E940E2487E4E2CF9CEF980F913AF0F26C
:1035900090E2980F983050F4877091E001C0990F35
:1035A0008A95EAF7892F0E944A24D2CF9BE5980F8B
:1035B000933020F490E080E00C94451898E5980F43
:1035C000953120F490E080E00C945B18803F10F07F
:1035D0000C949D270895882321F00E9444240C9484
:1035E0000E240895882321F00E944A240C940E246E
:1035F00008958F929F92AF92BF92DF92EF92FF92C7
:103600000F931F93CF93DF937C01D62FC72FFC011D
:10361000058102950F70128111110E9466240E948B
:103620000724D82E882371F0112331F180E28D0F09
:10363000883010F182E00E94F1230E94072491E07B
:10364000D82ED926BC2EB2949FE0B922EB2DF0E003
:10365000E45DF44E0C946F353E1B3E1B8E1B8E1B9F
:10366000CE1BF61B651DD51B381CD51BD31CD31CCC
:103670005C1DD51BD51B971DD12CE4CF0C2F0F70D3
:10368000C07F11F00295007F1123A9F0002359F0AB
:1036900080E28D0F883010F0D11109C0802F0E9478
:1036A00044240E940E248D2F0E94B61914C0802F2E
:1036B0000E945824F6CF8D2F0E94971A002359F0AC
:1036C00080E28D0F883010F0D11124C0802F0E942D
:1036D0004A240E940E24DD2009F454C20E94E423EF
:1036E00080FD50C2F70112820E94DE230E946222F6
:1036F000C7010E94CE1D0E94DE23DF91CF911F9152
:103700000F91FF90EF90DF90BF90AF909F908F90C0
:103710000C948322802F0E945E24DBCFFC2FFF704D
:10372000BF2EC07FC03219F0B29480EFB822DD23E3
:1037300039F0D13019F1112359F1002321F1B3CF20
:10374000112381F0011106C00E9480248B290E9460
:10375000EB1AC1CF0130C1F70E9480248B290E944F
:103760007A24B9CF011106C00E947D248B2D0E94BE
:10377000F21AB1CF013009F4AECFF6CF112329F000
:10378000023008F0A8CF8B2DE2CF0111A4CFEECFED
:10379000002361F38D2F0E94971A9DCF8C2F869561
:1037A0008695837079F08130B9F0F8E0BF1609F49E
:1037B0009BC0BF1608F48FCF86EF8B0D823008F4C4
:1037C00093C089CF8D2F9C2F9370111102C090E070
:1037D00080E00E9445187FCF8D2F9C2F9370111190
:1037E00002C090E080E00E945B1875CF112309F1C0
:1037F000D53F99F0D63FB9F0D43F49F480912604E3
:1038000090912704816090932704809326048D2F44
:103810000E9435270E9421285ECF80912604909136
:1038200027048260F0CF8091260490912704846061
:10383000EACFD53F89F0D63FA9F0D43F49F4809133
:103840002604909127048E7F90932704809326046A
:103850008D2F0E949D27DECF809126049091270412
:103860008D7FF2CF80912604909127048B7FECCF3F
:103870008C2F837009F04BC0111136C02D2F22956B
:1038800026952770220F220F6D2F6F70862E912C98
:10389000B12CA12C022E04C0880C991CAA1CBB1CA4
:1038A0000A94D2F760E070E0CB01D4FF0FC06FE064
:1038B00070E080E090E004C0660F771F881F991FBA
:1038C0002A95D2F76095709580959095C695C69586
:1038D000C370C23071F0A0F4682979298A299B2924
:1038E000C13091F00E9416220E9423180E94CE0837
:1038F000F2CE682979298A299B290E942822F4CFAF
:103900000E941622C501B4010E940422EDCF8695C3
:10391000112311F08C2F8170882331F32D2F2295E4
:1039200026952770220F220F6D2F6F70862E912CF7
:10393000B12CA12C022E04C0880C991CAA1CBB1C03
:103940000A94D2F760E070E0CB01D4FF0FC06FE0C3
:1039500070E080E090E004C0660F771F881F991F19
:103960002A95D2F76095709580959095C695C695E5
:10397000C370C23051F080F4682979298A299B29C3
:10398000C13071F00E94D922AFCF682979298A29E4
:103990009B290E94EB22A8CF0E94D922C501B40125
:1039A0000E94C722A1CFE0E2ED0FE53108F065C02B
:1039B000F0E0E352F34E0C946F35F21CF21CF21C53
:1039C000F21CF21CF21CF21CF21CF21CF21CF21C87
:1039D000F21CF21CF21CF21CF21C031D101D171D20
:1039E0001E1D281DDF708C2F8F71112331F00E9456
:1039F00062228D2F0E94EB1AD8CE0E9483228D2F37
:103A00000E94F21AD2CE112339F00111CECE8C2FA2
:103A10008F710E94A622C9CE023008F0C6CEF7CF21
:103A20008C2F8F71112339F00E946222BECE8C2F11
:103A30008F711123C9F30E948322B7CE112329F07D
:103A40008C2F8F710E944D22B0CE0E944822ADCEA5
:103A5000112349F0CF718C2F0E94622263E08C2FDA
:103A60000E94E823A2CE81E00E94F123023008F4F4
:103A70009CCE82E00E94F12398CE112349F00023CE
:103A800021F08D2F0E94B61990CE8C2F8F71CCCF44
:103A9000002379F0D93349F42FEF87EE93E02150DA
:103AA00080409040E1F700C000008D2F0E94971ADF
:103AB0007CCE8C2F8F71BFCF4C2F4F706D2FC701D5
:103AC0000E945A070E947C2106CED23F71F1C8F4B1
:103AD000D03F01F1D13FB9F180911503002309F4E2
:103AE00046C0882341F08091160391E08927809396
:103AF0001603109215038D2F112389F10E94B61918
:103B000016C0D43FD9F078F0D53F31F711110FC06E
:103B100081E006C0112359F08091160391E08927B6
:103B20008093160304C081E01827109316034C2FCE
:103B30004F706D2FC7010E94BE0B37CE1111F7CF0A
:103B400010921603F4CF112339F0809115038823C6
:103B500019F310921503EBCF0023F1F2E8CF0E9486
:103B6000971A86E0F70111928A95E9F7E0CF88234A
:103B7000F1F21111DCCF8091160391E08927809337
:103B80001603E7CFDF91CF911F910F91FF90EF9038
:103B9000DF90BF90AF909F908F9008950F931F93E9
:103BA000CF93DF93EC01988189812B813C81232B7A
:103BB00039F08F3F19F481E09F3F19F080E001C098
:103BC00081E080FD17C0CE010E94E008882391F0BB
:103BD000688179818A810E94A6238C010E94FD223E
:103BE0000E940122B801CE01DF91CF911F910F9168
:103BF0000C94F91ADF91CF911F910F9108950E94B3
:103C000066240E9477240E94D8230E940E240E94DA
:103C1000C0280E94212890E080E00E94451890E092
:103C200080E00C945B180E9452240C94FF1D0E94AB
:103C30009C23E92FE295EF70E250EE30E0F4F0E0E3
:103C4000EC5DF14E0C946F35321E321E3B1E3B1E56
:103C50003D1E3B1E3B1E3B1E321E321E421E3B1EA5
:103C60003B1E421E803F19F020F4803E20F481E08C
:103C70000895843FE1F380E00895803EC0F3813FE2
:103C8000D1F7F5CF93FB882780F90895CF93DF9381
:103C900000D000D01F92CDB7DEB70F900F900F90DD
:103CA0000F900F90DF91CF910895CF93DF9300D0C5
:103CB00000D000D0CDB7DEB726960FB6F894DEBFA1
:103CC0000FBECDBFDF91CF9108951F93CF93DF93A8
:103CD000C091170316E0809118038C1304C0DF9184
:103CE000CF911F910895D0E01C9FF0011D9FF00D12
:103CF0001124E75EFC4F4081518162817381848190
:103D000095810E94551E2196C770E5CF40914903C9
:103D100050914A0360914B0370914C0380914D0385
:103D200090914E030C94551E1F93CF93DF93809177
:103D30004E03807FD1F480914B038823B1F08091B2
:103D40001703D0911803B0914903C0914A034091E1
:103D50004C0350914D03A1E0BF3F09F0A0E0BA0130
:103D60006095709516E0D81304C0DF91CF911F9134
:103D7000089521E04115510521F02A2FCF3F09F088
:103D800020E090E020FD38C0189FF001199FF00D51
:103D90001124E75EFC4F21812C132EC020812B13B0
:103DA0002BC02281211128C023813481241735079B
:103DB00000F1241B350B23373105F0F420914E031D
:103DC0002F70206120934E0326E0289FF001299F49
:103DD000F00D1124E25EFC4F80818F708061808342
:103DE00089E493E00E94CE1DDF91CF911F910C9446
:103DF000651E260F371FDFCF01968770B4CFAF92B5
:103E0000BF92CF92DF92EF92FF920F931F93CF93C7
:103E1000DF93CDB7DEB761970FB6F894DEBF0FBE64
:103E2000CDBF8C0185E0F801DE011D9601900D9259
:103E30008A95E1F7D8014C9111965C9111971296F1
:103E4000EC903091490360914A0380914C0390912A
:103E50004D0321E0009731F06F3F19F421E03F3F1F
:103E600009F020E0B22FB170BB2E20FD80C1F80117
:103E7000C380D480A0904B03AA2009F427C1C816A0
:103E8000D906D0F1D601A81BB90BCD01FF24F394BC
:103E90008337910508F0F12C80914E03982F907F85
:103EA000FF2009F4CEC0911187C0FE2C651329C0F4
:103EB000341327C0E11025C08F70806180934E03BA
:103EC0000E94861E89E493E00E94CE1D80914E03DD
:103ED000F80185838F2D61960FB6F894DEBF0FBE73
:103EE000CDBFDF91CF911F910F91FF90EF90DF90A9
:103EF000CF90BF90AF900895809590958C0D9D1DAB
:103F0000C5CF81E0CD2831F05F3F19F481E04F3F0C
:103F100009F080E080FD24C081E08E25F82FF1704B
:103F2000DF2E80FF3FC0809117032091180336E0F9
:103F3000821318C04D875E878D859E850E949C23C5
:103F4000292F22952F70223008F1243030F59F70F0
:103F500009F1D80115969C91907FE1F4FB2CBACF22
:103F600080E0DCCF90E0389FF001399FF00D112404
:103F7000E75EFC4F6181561306C06081461303C0A3
:103F800062816E110FC001968770D2CF9F7011F0C1
:103F9000882321F3805E883008F3C8010E94CE1D7B
:103FA000BD2CDCCFEE2009F495CF80914E038160CB
:103FB00080934E03F12C8ECF651314C0341312C0BE
:103FC000E11010C0F8018583C8010E94CE1D86E073
:103FD000F801A9E4B3E001900D928A95E1F70E94FF
:103FE000861E78CF4D875E878D859E850E94171E21
:103FF000882319F1EE2009F180914E03803270F090
:104000002091490330914A0338872F831986DB8634
:10401000CA868C87CE0107960E94CE1D86E0F801E5
:10402000A9E4B3E001900D928A95E1F70E94941EF5
:104030000E94861EFF24F3944DCFC8010E94CE1D1E
:10404000F9CF911113C07C2DD98AC88A6E2D898928
:104050000E94461E89E493E00E94CE1D86E0E9E4BA
:10406000F3E0DF011D928A95E9F7B9CF651312C01D
:10407000341310C0E1100EC0F8018583C8010E94FE
:10408000CE1DE9E4F3E086E0DF011D928A95E9F7B1
:10409000FA2C20CF4D875E878D859E850E94171E46
:1040A000882359F2EE2049F280914E03803208F4C1
:1040B000B5CF2091490330914A033A8329831B826B
:1040C000DD82CC828E83CE010196A6CFC816D9069A
:1040D00038F1F601E81BF90BCF01F12C833791057C
:1040E00008F03DC0FE2CEE2009F4A7CF651326C0D2
:1040F000341324C080914E0380FD17C0982F907F09
:10410000A1F0D80115968C931597903F09F45CCFD8
:10411000982F907F905F8F70892B15968C9354CF3A
:10412000809590958C0D9D1DD8CF86E0F801A9E46F
:10413000B3E001900D928A95E1F7CCCE4D875E8772
:104140008D859E850E94171E811168CF80914E0338
:10415000816080934E03C8010E94CE1DBBCE7C2D92
:10416000D98AC88A6E2D89890E94461E77CFEE2093
:1041700009F463CF4D875E878D859E850E94171E4B
:10418000F82E882309F459CF86E0F801A9E4B3E0BA
:1041900001900D928A95E1F789E493E00E94A419B9
:1041A0000E94941E1CCF1F93CF93DF93CDB7DEB731
:1041B0002C970FB6F894DEBF0FBECDBF4F83588744
:1041C00069877A878B879C87CE0107960E94FF1E9E
:1041D000882309F442C09F8188852A853B85232B4B
:1041E00039F08F3F19F481E09F3F19F080E001C062
:1041F00081E080FD08C04F81588569857A858B856F
:104200009C850E94551E16E080911703909118031B
:10421000891709F467C0819FC0011124875E9C4FF4
:104220000E94FF1E882309F45DC0E09117031E9FC2
:10423000F0011124E75EFC4F40815181628173815E
:10424000848195810E94551E8091170390E001960C
:104250008770992780931703D7CF86E0FE013796A2
:10426000DE01119601900D928A95E1F79F81888574
:104270002A853B85232B39F08F3F19F481E09F3F3E
:1042800019F080E001C081E080FDBDCF20911803CE
:1042900030E0C901019687709927409117034817AC
:1042A000190699F096E0929FD001939FB00D1124CA
:1042B000A75EBC4FFE01319601900D929A95E1F7F1
:1042C000809318030E94651E9ECF0E94131E1092B9
:1042D00018031092170386E0E9E4F3E0DF011D9272
:1042E0008A95E9F72C960FB6F894DEBF0FBECDBFC6
:1042F000DF91CF911F910895EF92FF920F931F933B
:10430000CF93DF938C01892B81F0F12CEE24E39481
:10431000E8012196F8018491843770F4843008F024
:104320005FC08130B1F08230A1F1DF91CF911F9158
:104330000F91FF90EF900895853709F44CC008F471
:104340003DC09CE7980F903780F78F770E94971AAF
:1043500049C00E5F1F4FFE01849190E2980F983084
:1043600060F48770FE2D01C0FF0F8A95EAF78F2F4A
:104370000E9469240E940E2402C00E94B6198F2D4B
:10438000815030F2EFE9FFE03197F1F700C0000013
:10439000F7CF0E5F1F4FFE01849190E2980F983087
:1043A00050F48770FE2D01C0FF0F8A95EAF78F2F1A
:1043B0000E946F24DFCF0E94971AE1CF0E5F1F4F3C
:1043C000FE01C491C150D8F28FE99FE00197F1F747
:1043D00000C00000F7CF0E5F1F4FFE01F490CFCF5B
:1043E0000E94B6198E01CBCF08950E94F4216093EC
:1043F0008A0370938B0380938C0390938D030C94AA
:10440000FF1D08950C94F5210F931F9300918A03CB
:1044100010918B0320918C0330918D03602B712BB5
:10442000822B932B1F910F910C94F5210F931F93C7
:1044300000918A0310918B0320918C0330918D039E
:1044400060237123822393231F910F910C94F521F4
:104450000F931F9300918A0310918B0320918C037B
:1044600030918D0360277127822793271F910F9129
:104470000C94F5210C94A3070E943A2260938603C2
:104480007093870380938803909389030C94FF1D96
:1044900060E070E0CB010C943C220F931F9341E04D
:1044A00050E060E070E08A019B0104C0000F111F22
:1044B000221F331F8A95D2F7C901B8011F910F91AE
:1044C0000C943C220F931F9341E050E060E070E0B9
:1044D00004C0440F551F661F771F8A95D2F780913D
:1044E000860390918703A0918803B09189038A0184
:1044F0009B01082B192B2A2B3B2BC901B8011F91BB
:104500000F910C943C220F931F9341E050E060E028
:1045100070E004C0440F551F661F771F8A95D2F7BD
:10452000CB01BA01609570958095909500918603B6
:1045300010918703209188033091890360237123B0
:10454000822393231F910F910C943C220F931F936E
:1045500041E050E060E070E004C0440F551F661F6A
:10456000771F8A95D2F78091860390918703A09157
:104570008803B09189038A019B01082719272A27FC
:104580003B27C901B8011F910F910C943C220F9356
:104590001F93009186031091870320918803309127
:1045A0008903602B712B822B932B1F910F910C94FD
:1045B0003C220F931F930091860310918703209153
:1045C00088033091890360237123822393231F91F1
:1045D0000F910C943C220F931F930091860310912E
:1045E00087032091880330918903602771278227F0
:1045F00093271F910F910C943C220895292F220F8D
:10460000920F990F890F982F977071E001C0770F63
:104610009A95EAF786958695869525E0829FC00152
:10462000112450E040E0A62FB0E0FC01E40FF51F9C
:10463000E15BFC4F60819D01042E02C036952795F9
:104640000A94E2F721702195262727232627208325
:104650004F5F5F4F4530510541F70895292F220FD5
:10466000290F220F820F982F977086958695869531
:1046700045E0849F9001112470E060E080E0F90142
:10468000E60FF71FE15BFC4F408150E0092E02C0AE
:10469000569547950A94E2F741705527062E01C0BA
:1046A000440F0A94EAF7842B6F5F7F4F65307105E2
:1046B00031F70895BF92CF92DF92EF92FF920F935E
:1046C0001F93CF93DF938C01C0908603D090870314
:1046D000E0908803F090890380918A0390918B0386
:1046E000A0918C03B0918D03C82AD92AEA2AFB2A0B
:1046F000CFE1D0E0BC2ED701C6010C2E04C0B69588
:10470000A795979587950A94D2F780FD0EC02197BB
:1047100088F7B12C8B2DDF91CF911F910F91FF90D6
:10472000EF90DF90CF90BF900895B8018C2F0E943A
:10473000DB0B019761F3EECFCF93DF93EC010E9487
:104740005A23BE01DF91CF910C94DB0B1F93CF93C3
:10475000DF93EB0190911403992331F0CB01DF91AA
:10476000CF911F910C949C23882379F0CB010E9458
:104770005A23182F682FCE010E94FE22BE01812FDE
:10478000DF91CF911F910C94DB0BCB010E942E2364
:10479000182FF4CF682F80917D0190917E010C94A9
:1047A0006A25682F80917D0190917E010C9475257A
:1047B00080917D0190917E010C94802580918E03E3
:1047C000859585958595089580918E0387700895C8
:1047D00098E0899F90011124622B60938E030C94C2
:1047E000622290918E038095892380938E03282FD7
:1047F000277061F4282F082E000C330B9217130634
:1048000029F08595859585950C948322089590913E
:104810008E03977081E009F480E00895E0917D01B6
:10482000F0917E018091B2038083E0917D01F0914F
:104830007E0180819091B103892B8083E0917D017D
:10484000F0917E0180819091B003892B80839091BB
:104850008F03992381F0E0917D01F0917E018081A9
:10486000892B808380917D0190917E010E940D258E
:10487000811110928F0380917D0190917E010C94A3
:104880002F188091B20308959091B203892B8093E1
:10489000B2030895982F90958091B2038923809355
:1048A000B20308951092B20308958091B103089560
:1048B0009091B103892B8093B1030895982F90951F
:1048C0008091B10389238093B10308951092B103BD
:1048D00008959091B003892B8093B0030895982F89
:1048E00090958091B00389238093B003089510922E
:1048F000B003089580938F03089510928F03089555
:1049000080918F030895CF92DF92EF92FF926C0116
:10491000EE24FF2420E0C114D104E104F10419F0D5
:10492000C701B60120E1C72ED82EE92EFF24C114FD
:10493000D104E104F10419F0285FC701B6016B014D
:104940007C0154E0F694E794D794C7945A95D1F734
:10495000C114D104E104F10419F02C5FC701B601C0
:104960006B017C0142E0F694E794D794C7944A9592
:10497000D1F7C114D104E104F10419F02E5FC7018D
:10498000B6019695879577956795672B682B692B68
:1049900009F02F5F822FFF90EF90DF90CF90089566
:1049A0006DEE7EEF90E080E00E94A73560E082E04F
:1049B00090E00E94893560E083E090E00E948935B4
:1049C00060E084E090E00E94893560E085E090E05E
:1049D0000E94893540E050E0BA0188E090E00C94F4
:1049E0009B3590E080E00E94833521E08D3E9E4F14
:1049F00009F020E0822F089582E090E00C94753554
:104A000083E090E00C94753584E090E00C9475356B
:104A1000682F84E090E00C948935FC0131969C016C
:104A2000205E3F4F80E0919191118F5FE217F30775
:104A3000D1F708959C01FC0132969FEF80E04191EF
:104A4000461751F09F3F19F4411101C0982F8F5F15
:104A50008E31A9F79F3F09F40895290F311D97FD65
:104A60003A95F90162830895FC013296809621916E
:104A7000261303C0DF0111971C92E817F907B9F755
:104A80000895E62FE695E695E695EF3169F0E80F93
:104A9000F92FF11D677021E030E001C0220F6A9507
:104AA000EAF78181822B81830895E62FE695E695CA
:104AB000E695EF3171F0E80FF92FF11D677021E0F5
:104AC00030E001C0220F6A95EAF720958181282302
:104AD0002183089520918E01222329F020912C0416
:104AE00027FD0C9441250C941A2520918E01222338
:104AF00029F020912C0427FD0C9455250C94342585
:104B0000FC01319680961192E817F907E1F70895B4
:104B100008950C94882580913204843049F11092D4
:104B2000B40388E190E020E40FB6F894A895809350
:104B300060000FBE2093600080E00E94CE080E94BB
:104B4000892583B7817F846083BF83B7816083BFFA
:104B50007894889583B78E7F83BF0FB6F894A89515
:104B600080916000886180936000109260000FBEA9
:104B700008950895CF930E94D1040E9421050E94B8
:104B8000B925C0E08C2F0E948605811105C0CF5F3A
:104B9000CE30C1F7CF91089581E0FCCF08950C94F9
:104BA000CE250E94131E0E9423180E94CE080C944A
:104BB000CF251F920F920FB60F9211248F939F93C0
:104BC000AF93BF938091B403811113C080912804E7
:104BD00090912904A0912A04B0912B044196A11D23
:104BE000B11D8093280490932904A0932A04B093C4
:104BF0002B04BF91AF919F918F910F900FBE0F909B
:104C00001F90189582E084BD93E095BD9AEF97BD03
:104C100080936E0008952FB7F894809128049091A6
:104C20002904A0912A04B0912B042FBF0895CF929C
:104C3000DF92EF92FF920F931F932FB7F89440915A
:104C400028045091290460912A0470912B042FBFED
:104C50006A017B01EE24FF248C0130E020E0C016C5
:104C6000D106E206F30650F0481B590BCA011F910A
:104C70000F91FF90EF90DF90CF9008954150510930
:104C8000F3CF78941F920F920FB60F9211248F9347
:104C90009F93AF93BF938091280490912904A09192
:104CA0002A04B0912B040196A11DB11D8093280404
:104CB00090932904A0932A04B0932B04BF91AF9141
:104CC0009F918F910F900FBE0F901F901895F894A1
:104CD00081E08093E00080E28093D800E9ECF0E08E
:104CE00010828FE19EE40197F1F700C000001DBA29
:104CF000109268001CBC10BE1FBA10927A0010926D
:104D00006E0010926F00109271001092720010826B
:104D1000ECEBF0E0108214B817B81AB81DB810BA4E
:104D2000108215B818B81BB81EB811BA0C94003F01
:104D300008950E94F124811102C00E94D0240E9493
:104D4000FC248093B3030E94042590E090932D04EB
:104D500080932C040E940025682F70E090E080E092
:104D60000C9402228091B80380FF12C060918201EE
:104D700085E0689FB00111247595679575956795D5
:104D800060387105A8F561157105A1F1862F0895A8
:104D900081FF09C06091820185E0689FB001112404
:104DA00075956795EDCF82FF07C06091820185E020
:104DB000689FB0011124E4CF2091B9032223A9F008
:104DC000909181016091820185E0689FB00111247A
:104DD0002917B0F6269FA001279F500D1124692F97
:104DE00070E0CA010E945B35CBCF65E070E0CECFAA
:104DF0008FE7089581E008958091B80380FF0CC08B
:104E00006091800170E0759567957595679561155E
:104E1000710549F1862F089581FF06C060918001D8
:104E200070E075956795F3CF6091800182FD0BC0AE
:104E30009091B9039923A1F060917F018091800145
:104E4000961738F0682F70E06038710500F38FE72F
:104E50000895899FC001112470E00E945B35F4CF52
:104E600061E070E0D7CF81E00895803F31F40E9487
:104E7000B22681958093BC030895813F19F40E9466
:104E8000B226F8CF823F31F40E94B22681958093FA
:104E9000BB030895833F19F40E94B226F8CF893FDF
:104EA00029F40E94FC268093BD0308958A3F21F4D3
:104EB0000E94FC268195F7CF8B3F31F40E94FC269F
:104EC00081958093BE0308958C3F19F40E94FC26BF
:104ED000F8CF843F31F48091BA0381608093BA03A4
:104EE0000895853F21F48091BA038260F7CF863F11
:104EF00021F48091BA038460F1CF873F21F480913F
:104F0000BA038860EBCF883F21F48091BA038061B7
:104F1000E5CF8D3F31F48091B80381608093B80371
:104F200008958E3F21F48091B8038260F7CF8F3FC0
:104F3000B9F78091B8038460F1CF803FC1F48091CC
:104F4000BC0387FD1092BC038091BB0381110EC08E
:104F50008091BC0381110AC08091BD03811106C0FC
:104F60008091BE03811102C01092B9030895813F60
:104F700029F48091BC0318162CF3E6CF9091BB0363
:104F8000823F29F497FFE0CF1092BB03DDCF833F30
:104F900019F41916CCF3D8CF893F39F48091BD03A9
:104FA000181694F61092BD03CFCF8A3F29F4809152
:104FB000BD0387FFC9CFF6CF8B3F39F48091BE0385
:104FC00087FFC2CF1092BE03BFCF8C3F29F48091E0
:104FD000BE031816BCF3B8CF843F31F48091BA03F6
:104FE0008E7F8093BA03B0CF853F21F48091BA03BE
:104FF0008D7FF7CF863F21F48091BA038B7FF1CF6D
:10500000873F21F48091BA03877FEBCF883F21F45B
:105010008091BA038F7EE5CF8D3F31F48091B80344
:105020008E7F8093B80390CF8E3F21F48091B80398
:105030008D7FF7CF8F3F09F087CF8091B8038B7FAB
:10504000F0CF8AEB93E00E943A180E940B269093CF
:10505000B6038093B50308951F93CF93DF93809198
:10506000B5039091B6030E941726AC019091B90345
:105070002091830130E0911106C02091B7038AE0AE
:10508000289F900111244217530780F08091BB03A1
:10509000D091BC031091BD03C091BE0381110AC021
:1050A000D1116AC0111168C0C11166C0DF91CF91E2
:1050B0001F9108959F3F19F09F5F9093B9031816B1
:1050C00024F40E94B2268093BB038091BB0387FF28
:1050D00005C00E94B22681958093BB031D1624F45F
:1050E0000E94B2268093BC038091BC0387FF05C059
:1050F0000E94B22681958093BC033091BB03332379
:10510000C1F02091BC032223A1F045EB3403C00180
:105110001124892F911101C081E08093BB0345EBDD
:10512000240390011124832F311101C081E0809369
:10513000BC03111624F40E94FC268093BD038091C9
:10514000BD0387FF05C00E94FC2681958093BD03A7
:105150001C1624F40E94FC268093BE038091BE039B
:1051600087FF05C00E94FC2681958093BE03DF91D6
:10517000CF911F910C9421289F3F09F09DCFAECF76
:1051800085E0EAEBF3E0DF011D928A95E9F71092E2
:10519000B9031092B8030895833081F128F4813067
:1051A00059F08230D1F00895853009F449C0B8F142
:1051B000863009F456C008958091B703482F460FF2
:1051C0005527551F4F3F510524F4680F6093B703CF
:1051D00008958FEF8093B703089580918301482F3E
:1051E000460F5527551F4F3F510524F4680F609314
:1051F000830108958FEF8093830108958091820148
:10520000482F460F5527551F4F3F510524F4680F6F
:105210006093820108958FEF8093820108958091B9
:105220008101482F460F5527551F4F3F510524F444
:10523000680F6093810108958FEF80938101089535
:1052400080918001482F460F5527551F4F3F51052C
:1052500024F4680F6093800108958FEF809380019C
:10526000089580917F01482F460F5527551F4F3FC6
:10527000510524F4680F60937F0108958FEF8093A8
:105280007F010895833011F128F4813049F0823094
:1052900091F00895853081F120F18630C1F10895B3
:1052A0008091B703681720F4861B8093B703089595
:1052B0001092B703089580918301681720F4861B2C
:1052C0008093830108951092830108958091820153
:1052D000681720F4861B8093820108951092820142
:1052E000089580918101681720F4861B80938101C5
:1052F000089510928101089580918001681720F42B
:10530000861B8093800108951092800108958091FA
:105310007F01681720F4861B80937F010895109207
:105320007F0108950F931F9341E050E060E070E02B
:105330008A019B0104C0000F111F221F331F8A9591
:10534000D2F7C901B8010E9402221F910F910C945B
:10535000131E873208F043C08E3108F08BC08031B5
:1053600009F47DC0C8F4873009F46AC028F4863097
:1053700009F45CC080E008958B3009F455C08E308C
:10538000C9F79091B303892F8B7F92FF846080933C
:10539000B30382FD20C048C0863109F445C068F4DB
:1053A000813141F70E94131E90912C04892F97FBA5
:1053B00087F9805880932C0437C08931A9F18B314B
:1053C000C9F69091B303892F8D7F91FF82608093FE
:1053D000B30381FF29C08091B30381603DC088334E
:1053E00019F150F4893221F0853311F0873211F62A
:1053F00080E00E94922918C08334D1F328F48A33C4
:1054000008F4B8CF8953F5CF883409F0B3CF0E94A0
:10541000131E2FEF83ED90E3215080409040E1F781
:1054200000C000000E94672681E008958091B303C8
:10543000817F8E7F8093B30381E08093C0030895C2
:105440009091B303892F8E7F90FF81608093B30387
:1054500080FDEACF897F877F8093B303E5CF90916A
:10546000B303892F877F93FF88608093B30383FD05
:10547000B2CFDACF8D51BDCF80E008950C943C2A95
:105480008E518A3030F4E82FF0E0E95CFD4F8081E6
:10549000089580E00895CF93C82F8091C003813094
:1054A000E1F038F0823009F43FC01092C00380E090
:1054B00012C0E0917D01F0917E018081813111F077
:1054C0008232A9F78C2F0E943C2A81111DC08C2F9B
:1054D0000E94A9298170CF910895E0917D01F091FA
:1054E0007E018081813171F3823261F38C2F0E94C1
:1054F0003E2A811110C0C43181F048F4CB3059F0FC
:10550000C03171F080E0E6CF81E090E0E3CFC932B6
:1055100021F0C833B9F781E0DDCF1092C003F2CF9C
:1055200082E08093C003F7CFC93219F188F4C43107
:1055300001F120F4C73081F181E0CDCF82EE8C0FF4
:105540008630D0F78C2F0E94402A8093BF03F4CF7F
:10555000CE3401F140F46AE0CB3471F78091BF039F
:105560000E94CC28E9CFC13579F061E0C235B1F3B2
:10557000E3CF8091BF03882319F01092BF03DCCFE3
:1055800081E08093C003A7CF61E08091BF030E94B8
:105590004229D2CF6AE0F9CF1092B70384E1809319
:1055A0008301C09382018CE38093810188E0809322
:1055B000800188E280937F01BFCF8091E10308954D
:1055C0000F931F93CF93DF9300D01F92CDB7DEB719
:1055D0008C010E944F2D823011F0843019F583E048
:1055E00089831B830A838093E9008FEF9091E80001
:1055F000815095FD06C095ED9A95F1F70000811157
:10560000F5CF8091E80085FF0DC050E040E063E0F9
:1056100070E0CE0101960E946C2D8091E8008E779B
:105620008093E8000F900F900F90DF91CF911F9122
:105630000F910895CF93DF9300D01F92CDB7DEB7BF
:1056400020913204243031F522E0298380589109D9
:105650009B838A8383E08093E9008FEF9091E80039
:10566000815095FD06C095ED9A95F1F700008111E6
:10567000F5CF8091E80085FF0DC050E040E063E089
:1056800070E0CE0101960E946C2D8091E8008E772B
:105690008093E8000F900F900F90DF91CF910895C5
:1056A000CF93DF93EC010E944F2D823011F08430B4
:1056B000F9F482E08093E9008FEF9091E800815047
:1056C00095FD06C095ED9A95F1F700008111F5CF93
:1056D0008091E80085FF0CC050E040E065E070E09C
:1056E000CE010E946C2D8091E8008E778093E800B7
:1056F000DF91CF910895CF93DF93EC010E944F2D5E
:10570000823011F08430F9F480918E018823F1F019
:1057100080912C0487FF1AC084E08093E9008FEF0A
:105720009091E800815095FD06C095E19A95F1F7BA
:1057300000008111F5CF8091E80050E040E060E288
:1057400070E085FD1AC0DF91CF91089581E08093CC
:10575000E9008FEF9091E800815095FD06C095ED2E
:105760009A95F1F700008111F5CF8091E80085FF4F
:10577000EACF50E040E068E070E0CE010E946C2D7E
:105780008091E8008E778093E80080E2FE01A1EC32
:10579000B3E001900D928A95E1F7D5CF8091310465
:1057A000811109C00E94FC2E0E94592F8091E200B5
:1057B00084608093E2000895109231040895089562
:1057C00008950C94D12542E061EC81E00E947A2E8C
:1057D00042E061EC82E00E947A2E42E061EC83E0DC
:1057E0000E947A2E42E261EC84E00C947A2E809141
:1057F0003404833009F455C030F4813071F18230C3
:1058000009F491C008958A3009F47DC08B3009F401
:1058100063C0893009F044C080913304813209F0BB
:105820003FC08091370490913804009711F003979E
:10583000B9F58091E800877F8093E8008091E800C7
:1058400082FF2AC08091F1008093E1038091E800FB
:105850008B778093E8000C94AE2E80913304813ACC
:10586000F9F48091E800877F8093E8008091370405
:1058700090913804892B61F460E281EC93E070E050
:105880000E94BB2D8091E8008B778093E8000895FB
:1058900060E090E080E0F3CF809132048111CECFC0
:1058A000089580913304813AD9F78091370490911B
:1058B0003804892BA9F78091E800877F8093E8005E
:1058C0008091E80080FFFCCF80918E018093F100F1
:1058D0008091E8008E77BDCF80913304813201F74B
:1058E0008091370490913804892BD1F68091E8009B
:1058F000877F8093E8000E94AE2E809135048093CC
:105900008E010C94131E80913304813249F68091EC
:10591000E800877F8093E8000E94AE2E80913604D5
:105920008093E203089580913304813A09F0B8CF5F
:105930008091E800877F8093E8008091E80080FFF5
:10594000FCCF8091E203C2CF84B7877F84BF0FB6BC
:10595000F894A8958091600088618093600010920F
:1059600060000FBE80E880936100109261000E9489
:1059700072180E94FC2E0E94592F8091E2008460D0
:105980008093E20078940E94E2310E94761884E8C5
:1059900091E00E941E1880913204853029F00E9407
:1059A00084180E949E15F7CF0E948B2580913004A9
:1059B000882389F30E94BA25882369F30E94562D13
:1059C000EACF0C94E32C292F33272330310579F1CA
:1059D00058F421303105F1F02230310519F190E011
:1059E00080E030E020E01AC021323105C9F12232D6
:1059F0003105A9F76430710590F7FB01EE0FFF1F29
:105A0000EB5BFD4F208131816F5B7D4FFB0180811E
:105A100090E004C082E190E021EA36E0FA013183AF
:105A2000208308958DE690E024E336E0F7CF9927B0
:105A30008130910579F040F08230910571F0039743
:105A400071F6EAEFF5E002C0E0E3F6E0849190E061
:105A50009F01E4CFE8E1F6E0F9CFE0E0F6E0F6CF31
:105A60006430710508F0BBCF660F771FFB01E35B65
:105A7000FD4F2081318189E090E0D0CF0895CF9310
:105A8000C82F0E943E2DC093E303CF9108958091CB
:105A90003204843011F081E0089582E0089580910D
:105AA000E303811102C00C94472D089580E189BD64
:105AB00082E189BD09B400FEFDCF8091D8008F7DC1
:105AC0008093D8008091E00082608093E000809114
:105AD000E00081FDFCCF0895AF92BF92CF92DF929C
